:03031300024D7523
:094D7500C0E043870100D0E032E8
:03031B00024D7E12
:104D7E00C0E0C0F0C083C082C0D0E8C0E0E9C0E0AF
:104D8E00EAC0E0EBC0E0ECC0E0EDC0E0EEC0E0EF6A
:104D9E00C0E090076DE475F001121241128BED9098
:104DAE000772E004F0D394074002E4F0D0E0FFD0A5
:104DBE00E0FED0E0FDD0E0FCD0E0FBD0E0FAD0E0A9
:0F4DCE00F9D0E0F8D0D0D082D083D0F0D0E0324E
:03032300024DDDAB
:094DDD00C0E043870100D0E03280
:03032B00024DE69A
:024DE600003299
:03033B00024DE888
:024DE800003297
:03034300024DEA7E
:014DEA003296
:03034B00024DEB75
:024DEB00003294
:03035300024DED6B
:104DED00C0E0C0F0C083C082C0D0E8C0E0E9C0E040
:104DFD00EAC0E0EBC0E0ECC0E0EDC0E0EEC0E0EFFB
:104E0D00C0E0438701759108902062E030E509907C
:104E1D0008B27401F01223FC902028E030E70974E9
:104E2D00E0F09008C17401F0D0E0FFD0E0FED0E0DA
:104E3D00FDD0E0FCD0E0FBD0E0FAD0E0F9D0E0F816
:0B4E4D00D0D0D082D083D0F0D0E03273
:03035B00024E58F7
:0E4E5800C0E075911053E8EF43E301D0E03263
:0473EB0041076B00EB
:1091D80090089A021489900772E0FF90076AE0FEEF
:1091E8008FF084E5F0229007707464F022900003F9
:0991F800021179900002021179C4
:10922500E4FDFCC3ED9FEC9E5018E4FBFAC3EB9FF5
:10923500EA9E50070BBB00010A80F20DBD00010C30
:0292450080E1C6
:019247002204
:108F26007FFA7E0290080174BFF0A3F07D020FEF76
:108F3600CAEECA70010E14F5828A83E493FC7401AA
:108F46002DF582E43408F583ECF00DEDB406DF7BF5
:0A8F5600017A0879017D080290D02D
:10912C0053E1FE43E201D2B090076374CF20B00A42
:10913C00F0A3F0E4A3F07B018008F0A3F0A374018A
:0C914C00F0FB7A0779637D031290D022BB
:1093A500C3EE648094805004E4FF800DD3EF946491
:0A93B500EE6480948040027F642281
:108ACF00E4FF128DD49008A6EEF0A3EFF024ECFD96
:108ADF00EE34F5FCE4120FB07B007A807904784411
:108AEF00120F0EE4FBFA79C87842120E05120FE945
:108AFF00EFD3946440027F64EFC394005002E4FF0D
:108B0F0090076374CDF0A3F0A3EFF09008A6E0FCFC
:108B1F00A3E0FDEC900766F0A3EDF07B017A0779F7
:068B2F00637D050290D0F9
:0686680090089A12149222
:10866E00900005121179FF64826003028710129147
:10867E00D812116064BB60030287109000041211BF
:10868E00792FFF1291F5FE2FFF1291FB2FFF900015
:10869E00011211796F706BEE30E305D2360244E7AA
:1086AE001291D81291F530E403128F261291D8123E
:1086BE0091F5FE540390076FF0EE30E207C23112CF
:1086CE00944B8002D2313031391291D81291FB7015
:1086DE0016900004121179FF30E709D230547F90C2
:1086EE000770F02202944B900771E0540F7013D272
:1086FE002B1291D81291FB540F900771F0E4900752
:02870E006AF00F
:018710002246
:0E944B00C230E4900771F0C22B90076AF02245
:108DD40053E1FD43E20275BC0F9020577458F090A4
:108DE400205B7402F090205A14F0E4FFFE90205AA5
:108DF400E020E0F990205BE054F07E00C4F8540FCA
:108E0400C868FFEEC454F048FEA3E0FDEF4DFF90A8
:098E1400205AE4F0A3F053BCFE67
:018E1D002232
:0F943C00202C0B120346D239120316128ACF22AC
:108D8600C390076EE094F490076DE09401403EE4D2
:108D9600F0A3F0D22F90076875F0011212419007E8
:108DA60068E0FEA3E0FFC3941EEE9400401FEF644C
:108DB6001E4E700312912CC3900769E0943C9007F5
:0E8DC60068E094004007E4F0A3F0128ACF2288
:05030E00A238922D222F
:05031600A239922C2227
:0303370002034E70
:1090A000C23A129248C23B12031E1291EEC230C263
:1090B0002BC22ED231E490076DF0A3F090076CF034
:1090C000D2329007737406F0E4A3F090076AF0229E
:1090D00090060CE030E026EBC0E0EAC0E0E9C0E03A
:1090E0007BFF7A6079669007DF1214929007E2EDB9
:0E90F000F0D0E0F9D0E0FAD0E0FB1277512288
:1092480090076FE014601214600B24027013A23AA6
:109258009283C28522C2838004A23A9283A23A9260
:0292680085225D
:05031E00A23B928122C8
:108BED00202E2430302190076CE004F0E0D3946304
:108BFD004002E4F0900770E0FF90076CE0C39F40E7
:108C0D00028004D23A8002C23A129248302C22904D
:108C1D000774E004F0E0C394964002E4F09007730B
:108C2D00E0FFA3E0C39F4004C23B8002D23B02039E
:078C3D001EE4900774F02211
:1090FE00E490076AF0C230900770F090076374AB8B
:10910E00F0A3F0900771E0900765F0A3F07B017A71
:0E911E000779637D041290D0E4900771F0226F
:1084F300303022202B1F302F1A1291DE7002B22E41
:10850300EEC3943C500890076AE004F08005E490C1
:10851300076AF0C22F202B030285B1C22E90077188
:10852300E024FE602114603614604E14606024045D
:10853300707AD230302F75900770E0C39463504C3B
:10854300E02402F08066D2309007707432F0302F4E
:108553005B90076AE0C3943C50028048804B302F05
:108563004B90076AE004F0E0FF54037005B2301249
:1085730091EEEF643C70358030D2301291EE302FA3
:108583002B90076AE0C3943C50028018801B129121
:10859300EE302F181291DE7002B230EEC3943C50CD
:0F85A3000890076AE004F080031290FEC22F22B6
:108B3500E900EA00E200B000B100B300B400B500FE
:108B4500B600B700B8008A0196019E01C6012D0244
:108B5500FE01001A271100010A0018808004200177
:108B650028023A06D03972A5EF24FE010013271317
:108B750000020A001A0430373135120141FE0100A6
:108B850013271200020A001A043037313512014149
:1092C6007BFF9007DF1214929007E27405F07B0192
:0D92D60022F583EEF0900746E004F0E02260
:104E6600C233C234C2359007427401F0E4A3F0A302
:104E7600F0900747F0A3F0A3F0A3F0A3F0A3F0127D
:104E86001905128F97C2287F0D1218DB1216D6123B
:104E96000545120AF4121E0BE4FF12190B1219082B
:104EA600E4F5BB9006CDF09008C1F07F01128F604B
:104EB600E49008B2F0900F2CF09004CFE0705F12EF
:104EC6009490C2359007397406F0A37420F0A37449
:104ED60005F0A374DCF09007377407F0E4A3F090B4
:104EE600073DF0A304F0A3F0FB7A077937121FC33E
:104EF600E490080BF0A3F09006DE04F09006DFF0D5
:104F06009006CCF0E49006C8F09006B6F09006C97C
:104F1600F09006DD04F0E49006CEF0025003900413
:104F2600CFE0B401129007407401F0C233C234C21C
:104F3600351294900250039004CFE064036003029C
:104F46005003D23520240302500312946BCFE9CFCD
:104F5600900743EAF0A3EFF0129484900741EFF034
:104F6600900743E064057004A3E064B970439006BB
:104F76000CE020E003025003E4900746F090074659
:104F8600E0FF24B9F582E43405F583E0FE747B2F57
:104F9600F582E434051292D7B414E27A6079661287
:104FA60092C67A05797B127751900745EFF000801B
:104FB6004C900743E064057004A3E064CD703E9016
:104FC600060EE030E037E4900746F0900746E0FF33
:104FD60024CDF582E43405F583E0FE748F2FF58247
:104FE600E434051292D7B414E27A6079B31292C609
:104FF6007A05798F127751900745EFF0009008C136
:10500600E06013900F2CE07008900F2BE0B40101C4
:1050160000E49008C1F0120356500DD237C23C127C
:105026000326129490129201303708C23712033EBB
:10503600024EBF303503024EBFD23C120326124445
:04504600F4024EBF63
:01033A0022A0
:108EEA00030034FE010034271200000A0012264350
:108EFA0033464530303036453035354436423443D2
:108F0A0041464630303030303046463030303030EE
:0C8F1A003030303039180000000000003A
:1073EF005106B730313233343536373839414243AD
:0873FF0044454600C136C137C8
:108F97007580FFE4F5D1F5D275D3FF7590FF75D9CC
:108FA7000C75DA0C75DBFF75B0FF75E102F5E2753C
:108FB700E3FF43B90143870175BA07900559745A0E
:068FC700F0A374A5F022E6
:03035600A23622AA
:05032600A23C9236220A
:05033E007F01028F6049
:10920100E49007ECF0A3F0A3F07B017A0779E61272
:109211001FC3E4FF128F6012931D12947D1244F458
:039221004387017F
:019224002227
:07947D0053E3FE43E8102257
:10931D0053E1FD53E2FD53B0FD53BBFE53E1FE534C
:0C932D00E2FE43B00143B98043911022DE
:1092E300E58E54EF4410F58EE589540F4420F5893B
:0D92F300758D38758B38C28FD2ABC28E22BC
:05034600D2ABD28E22B3
:05034E00C2ABC28E22CB
:10928A0090086BE025E025E0F9F81213EE7E00EF76
:0D929A00540F24B7F582EE3406F583E0FF93
:0192A70022A4
:108F6000EFB401209006CD7401F0A22892451218AA
:108F700020902006741FF090200E7452F09020284C
:108F800074E0F022E49006CDF0A228924512182059
:078F900090200E7452F02244
:0394900002034E86
:10700000FF0359FF035AFF7FF3FF9496FF8FCDFFD5
:107010009003FF79E1FF9497FF9039FF93BFFF94AE
:1070200098FF75B6FF8189FF8000FF8B95FF6A2B63
:10703000FF7203FF842FFF9499FF82E6FF949AFF6B
:10704000032EFF949BFF6369FF949CFF670EFF94E0
:107050009DFF9497FF9497FF9459FF949EFF94622D
:10706000FF949FFF9497FF89DCFF9497FF94A0FF04
:107070009493FF94A2FF87ABFF94A3FF8711FF7F38
:1070800000FF9419FF942BFF906FFF93EFFF94A4E0
:10709000FF9404FF93000000000000001000800037
:1070A00000805F9B34FB0700060002030001100113
:1070B00001000000000000000000000000000000CF
:1070C0000043730503E30B0F86C71041F0AEFD9D2F
:1070D00069E2485A7AD8D97C223057FA42DB598B78
:1070E00025DEAFBABE021324354657687967754767
:1070F000304AF6D91A28DDB5B7E148AC7E3B918A13
:10710000A6D71C4533E50BE58BE88D786175A7E3C1
:107110004B0180A0FBF9820000010001000001008A
:107120000101010100010000000000010101000156
:1071300000000000280010D0002D121E4B0FA49953
:107140004ECEB531F405790000280313000000BDD0
:107150001DA299E625588CD94201630D12BF9F00EC
:1071600000080000000000000000000029020200EA
:10717000000000280313000000D9D9AAFDBD9B21FF
:1071800098A849E145F3D8D1690000140000000037
:1071900000000000000000000000000000000000EF
:1071A0000000280313000000FB7B7CCE6AB344BEC2
:1071B000B54BD624E9C6EA22000014000000000006
:1071C00000000000000000000000000000000000BF
:1071D00000290202000071307147715F716A71719C
:1071E000718971A071B871CF01061001062E0106D8
:1071F0005E01068001068701069F010646010669B9
:037200000106275D
:1074070057061000000000280010D0002D121E4B58
:107417000FA4994ECEB531F4057958062E000028F1
:107427000313000000BD1DA299E625588CD942011F
:10743700630D12BF9F4B065E0000080000000000AE
:107447000000004706800000290202000058068756
:107457000000280313000000D9D9AAFDBD9B21987D
:10746700A849E145F3D8D16957069F0000140000E9
:107477000000000000000000000000000000000005
:1074870000005806460000280313000000FB7B7C21
:10749700CE6AB344BEB54BD624E9C6EA225706697D
:1074A70000001400000000000000000000000000C1
:1074B7000000000000000047062700002902020024
:0174C70000C4
:1056FD00EF2402FDE433FCE0FF25E02465F582E4B0
:10570D003461F583E49322900279F09071E275F0A3
:10571D0003ED12147DEC75F003A42583F5831214AB
:10572D009B90000112117990027A2402F09071E29F
:10573D0075F003ED12147DEC75F003A42583F5834C
:10574D0002149B900845E0FF25E02464F582E434C3
:10575D0063F583E493FC740193F5828C8322F0A3AB
:10576D007403F0A37428F07407900273F0E4A3F0AF
:10577D00A37404F0E4A3F07B017A027973229008FC
:10578D0045E0FFA3121489900004EF1211B8EF2524
:10579D00E02464F582E43463F583E493FE740193AD
:1057AD00F5828E832212148990000112117975F001
:1057BD0080A42400FFE5F0347BFE7B017A0279DDC5
:1057CD0090083BE4F0A37402F0229008461214896D
:1057DD00900001021179900814E07F00FEEF240083
:1057ED00F582747A3EF583E5822DF582E5833CF5ED
:1057FD0083E49322E0FFFD7414C39DFDE49400FC4B
:10580D0074732DF58274023CF583E0FE22900277CD
:10581D007404F090062FE0FE2402FDE433FCD3ED7A
:10582D0094FFEC6480948022900844E075F003901E
:10583D0061F712147D02149B3EF583E49304FD90F1
:10584D000811021489EE2402FE900278F090062EC3
:10585D00E0FD900279F0A3EEF0A3EDF02290027737
:10586D007412F07405900273F0E4A3F0A37404F0C5
:10587D00E4A3F02290062FE02402FE900278F0EFD0
:10588D0004FFA3F0A3EEF0A3EFF022EF75F003A455
:10589D002466F582E43463F58312149B8D8275833F
:1058AD0000121179FFED2406FDE433FC22E493FF91
:1058BD0090071EE02473F582E43402F583229002F2
:1058CD0077E0FFA3E0FDA3E0FB9007BA2290081458
:1058DD00E0FFC374019FFFEF7F00FEEF22900735BD
:1058ED00E004F0E0FF900518E022900815E475F053
:1058FD000102124124FEFE74DD2FF582E43402F51F
:10590D0083227402900273F0E4A3F07406A3F0E412
:10591D00A3F0A322E0FF25E024D2F582E434622235
:10592D00740193FF900278E0FEEF22FEE5822FF5E1
:10593D0082E5833EF583E493FF22FE740193FFF528
:10594D00828E83740293229008AAE075F003A4243A
:10595D00E8F582E43471F58302149BE493FE900222
:10596D0079E0FDEE223EF583E493049000011211DF
:10597D00B8900817E4F0A3222582F582E43583F56B
:10598D0083E49322FF1293D9EF2402FFE433FE2226
:10599D00FC7401932FF582EC3EF583E49322E4939E
:1059AD00FDEF25E02464F582E43463F583E493FA96
:1059BD00740193F5828A8322900815E0FCA3E0FD23
:1059CD00C3227401F090027BE0FF900279E0FE6F3C
:1059DD00229007DC1214898E827583000211799052
:1059ED0008461214898D828C83EF1211B8900844E9
:1059FD00E004F02290084C1214898D828C83EF12F2
:105A0D0011B890084AE004F0227B017A0279CD2288
:105A1D00900002021179907C0075F08002147D24B3
:105A2D0003FFE433FE900273E0D39FEE6480F874BD
:105A3D0080982290027CE02401FDE433FC90061353
:105A4D00E0FEFBD3ED9B7480F86C98228F828E83E1
:105A5D00740393FF22FA7401932DF582EA3CF583CA
:105A6D00E49322E0FF247AF582E43402F583E0FE2C
:105A7D0022900815E0FEA3E0FF22900818E02440D4
:105A8D00FF900817E0340022E0FEE42400FFEE2230
:105A9D00E41211A6900815F0A3F02290027374067B
:105AAD00F09002777401F090027904F0E4A3F0A372
:105ABD0022A3E0FD900278E0D39D22740193FF9024
:105ACD00027AE0FEEFD39E229008A9E025E0FF9038
:105ADD0008A8E033FE74D62FF58274713E22EFF0E4
:105AED0090071EE004F022E0FFFDD390051BE09D22
:105AFD0090051AE09400229008461214920211604B
:105B0D0074DD2FF582E43403F58322900814E0FF51
:105B1D00C322ED9000020211B89007DF1214898F95
:105B2D00828E83121179FF9007E2E0FED39F22D27D
:105B3D0024900273E024FD227F00FEEF2402F58203
:105B4D00747A22E493FE90027BE0FDEED39D2290C9
:105B5D0004F4E0C3940122FE74782FF582E434023C
:105B6D00F583222442F582747A3EF583E4932290E4
:105B7D000844E0FFC394022290084AE0FFC3940258
:105B8D0022900814E004F0227F00FEEF2400F5823D
:105B9D00747A22EF9000010211B8E0FF9008A8E09E
:105BAD00FCA3E0FD9071E875F00322EEF0900787FD
:105BBD00E004F022E41211A6900817F0A3F090086B
:105BCD0014229004AAF01211609004ABF0E4900737
:105BDD00E4F022900681E0900278F0900680E0904B
:105BED000279F022900628E0900278F0900627E0E6
:105BFD00900279F022EDF090086FE004F022900011
:105C0D0003021179900845E0FF90051AE022EEF0AD
:105C1D00900776E004F0E022900815E4F0A322E46A
:105C2D00FF900502E0FE22900519E024FFFF90058C
:105C3D0018E034FFFE22900502741EF0E49004FE7D
:105C4D00F0C22622900814E07F00FEEF22EF24829E
:105C5D00F582747A22747C2EF582E43402F583E0A9
:105C6D00FE22EFF0900736E004F0227401F0E4A379
:105C7D00F022900709E0FE900708E0FFD39E22F581
:105C8D0083EEF00FEF22A3A3E09002DDF0A3F0224C
:105C9D009007E2E0FF9007E4E0FEC39F22740493B7
:105CAD00FE900844E0FDC39E22740493FE90084AC2
:105CBD00E0FDC39E22E475F04002124124C2F5823C
:105CCD00747A3EF583E49322C374059FFFE49E220C
:105CDD002402F582747C3EF583E49322FF900279D1
:105CED00E024FE22747E2FF582E43402F58322EF48
:105CFD0024C0F582747A22EF2480F582747A22EF23
:105D0D002440F582747A229004A9F0EE24039004C5
:105D1D00A52274AC2EF582E43404F58322F09007AD
:105D2D00E4E004F022900733E0FF900735E02224F1
:105D3D0002FDE433FC22900733E0FF900732E022AE
:105D4D00900612E0F990027DE022E004F09004F25A
:105D5D00E014FF22900277F09002737401229007F5
:105D6D001DE004F0228F82758300EE0211B89008B9
:105D7D0045E004F02290084BE004F022A4FFE5F08A
:065D8D00F0A3EFF0E42298
:010359002281
:01035A002280
:017FF300226B
:0194960022B3
:108FCD00900277E0FF54E0701AEFD3941E5026E024
:108FDD0075F003A42415F582E43470F58312149B07
:108FED000214CD900277E0242E60072480700602D3
:068FFD006D281294A12270
:10900300900277E0FFD394135017EF14602724EEF8
:10901300700990027BE09004F1F022125AA8F080CC
:1090230007125AA87402F0E4125782900273E024E4
:0590330004FD123730BE
:019038002215
:1079E100900277E0FFC3940C5014EF75F003A424C8
:0E79F10072F582E43470F58312149B1214CDEB
:0179FF002265
:0194970022B2
:109039009004FEE0FFB401028028EFC3940A502592
:1090490090062EE0FF7004A3E0601712581A50052D
:10905900125852800312588174051257767D0902FD
:069069003730125C4322C7
:1093BF009002777403F09004F2E0900278125780D5
:0A93CF00900273E02404FD02373021
:0194980022B1
:1075B600D23D1259D27009125ABE500BC23D8007F5
:1075C600EEC39F5002C23D900278E0FD7006A3E034
:1075D6007002D23D303D12900277E0FF900279E0D2
:1075E600FB9007BA740102774CD23DE490086FF025
:1075F60090086F125704125762125968C39D401AB9
:10760600EF1257061257A912592DC39E400C900827
:107616006FE090086CF0C23D800D90086F1258ED37
:107626007003A3E06F70C9203D3290086F125704B3
:10763600125762125B505024EF1257061257A912C6
:107646005AC8501890086FE090086DF0125C0490CC
:10765600086F1258F07003A3E06F70CE303D03023E
:1076660077479002777405F090086CE01259231260
:1076760057A57401935403900278F0900870F09027
:10768600086E7402F0A37406F090086C1259211269
:10769600575E7401935403FE900870E06E60030217
:1076A600773890086CE0FE12570612576274019301
:1076B600FD90086F1258C0125C02EE125706125760
:1076C60062E493FE90086F1258C0EE125C031293A8
:1076D600D9CCEFCC90086FE02FFE90086EE02F24F7
:1076E60002F00C90086FE0FFC39E501B90086CE000
:1076F6001257061259BC2C125987FD74732F125853
:10770600C3125C021C80DC90086EE0FF9004F2E07D
:10771600C39FFF90086FE014FEEFC39E40149008CD
:107726006CE004F0A3E0FF90086CE0D39F500302E6
:10773600768F90086EE0FF125776EF2404FD02372D
:0A774600301258CB740AF01240D63E
:017750002216
:10818900D23EE4FDFC125CEAC394FE40259071E8FE
:1081990012573D1257DD125CE96F703A9071E8127F
:1081A900573D121160FF90027AE0146F7028C23EA9
:1081B900802F9071E812573D1257DD125CE96F70FC
:1081C900159071E812573D121160FF90027AE06F25
:1081D9007004C23E800B0DBD00010CED64094C70AA
:1081E900A4303E030282E59071EE12573D125C0BFA
:1081F900FF90027BE06F60030282E5125A1DFF9037
:10820900027CE06F60030282E5900279E0125BA1D3
:1082190090027AE0FF9071EE12573DEF1211A6D24B
:108229003EE4FCFD9071E812573D121160702D90EB
:1082390071E812573D1257DD7022125A1D642970D8
:108249001B125C0B6402701412573A121160700809
:1082590012573A1257DD6004C23E800B0DBD000172
:108269000CED64094C70BD203E59900277740412DC
:1082790057391257DDFF2402FBE433FAD3EB94FF9D
:10828900EA648094805012EF9002781257371211E5
:1082990060125714121160801912573A1257DD24CF
:1082A90002900278125739121160041257141211F0
:1082B900600490027BF090027374051257797D096E
:1082C900023730900502741FF09004FE740AF0C260
:0C82D900269004E6E064036003129300AA
:0182E5002276
:108000009008711259CF7007125ABE500C8005EEBD
:10801000C39F5005E4900871F0900278E07009A3C6
:10802000E0700590087104F0900871E0700E900205
:108030007DE0642860069008717406F0900871E095
:1080400060030280E7740AF0900273E0900874B451
:1080500017057410F080037402F0E4900875F09036
:108060000875E0125706125947FD90027DE0FCEDBD
:108070006C7064125A5990027CE0FEEF6E7058FFEB
:10808000900874E0FEEFC39E5014A31258388F82FC
:108090001259E6FD125CF1E06D70030F80E2EF6EA5
:1080A0007035900875125704125762125968C39DB3
:1080B0004025EF1257061257A912592DC39E40179B
:1080C000900875E0900872F0A3F0E4900871F090C9
:1080D0000875E004F080109008751258ED7003A345
:1080E000E06F600302805F900871E0703590087562
:1080F000E0125706125947FD90027DE0FCED6C70CE
:108100000C125A5990027CE0FEEF6E6015900875D3
:10811000E0900873F09008751258EE7003A3E06FBA
:1081200070CB900871E0900277704A7407F0900865
:1081300072125704125762740193900278F0EF1292
:1081400057061257A9E493900279F09008731257DA
:108150000412576274019390027AF0EF12570612DC
:1081600057A9E49390027BF090027374051257793B
:108170007D09023730E0FFA3E0FDA3E0FB9008712A
:08818000E09007BAF01240D6AE
:0181880022D4
:108B95009004FEE06401704F900279E0900610F0B9
:108BA500900278E0900611F090027BE0900612F0BA
:108BB50090027AE0FF900613F09002777408F09027
:108BC5000611E0900278F0900610E0900279F0A38B
:108BD500EFF0900612E090027B12576B7D0B123777
:088BE500309004FE7402F0223E
:106A2B0090071F1259CF7007125ABE500C8005EEFB
:106A3B00C39F5005E490071FF0900278E07009A304
:106A4B00E0700590071F04F090071FE0703F740A79
:106A5B00F0E4900735F09007351257041257621285
:106A6B005968C39D401DEF1257061257A912592D95
:106A7B00C39E400F900735E0900720F0E490071F6E
:106A8B00F0800A1258EA7003A3E06F70C990071FD9
:106A9B00E07034740AF090073512570412576212E3
:106AAB005B505023EF1257061257A9125AC85017B2
:106ABB00900735E0900721F0E490071FF01258EA99
:106ACB007003A3E06F70CF90071FE07022900273EA
:106ADB00E0FFB407089007337402F08012EFB4158F
:106AEB00089007337410F0800690071F7404F09021
:106AFB00071FE07077740AF0900721E0FF900720E2
:106B0B00E0D39F5067E4900735F0900733E0900790
:106B1B0036F0125D32FE6F603EA3E014F09007205A
:106B2B00E0125706125762C083C082900736E0FF0F
:106B3B00125D3CD082D0831257F4FD125C626D6003
:106B4B0002801474222FF582E43407F583EEF09063
:106B5B000735E004F080BB125D326F700690071FA3
:106B6B00F08009900720E004F0026B0390071FE010
:106B7B006003026CC69007347402F09007367406FB
:106B8B00F0E4900735F0900721E0FE900720E0FD40
:106B9B00D39E4003026CC6900733E004900732F09B
:106BAB00CFEDCF1293D9900733E06F70049007327B
:106BBB00F0125D43FEC39F5028900720E01257064A
:106BCB00125762EE125D3C1257F4FF74222EF582BF
:106BDB00E43407F583E06F7008900732E004F0802F
:106BEB00D0125D436F6003026CBD900720E0FF1273
:106BFB008CE890071FEFF06003026CC6900720E053
:106C0B00FF1293D99007201256FD125A622402FEEE
:106C1B00FD1292A8CEEFCE9004F2E0FF2405FD907A
:106C2B000736E0FCC3ED9CFDEEC39D50069007328A
:106C3B00EE800EEC64066003026CC6EF24FE900738
:106C4B0032F0900720E0900735F0900735E0606256
:106C5B00900720125704125762740193FE90073667
:106C6B001258C0EE125C70EF1257061257A9E4933C
:106C7B00FF9007361258C0125C6F900734E0240265
:106C8B00F0900732E024FEF0E4FE900732E0602241
:106C9B009007201258381259E4FF9007361258C04B
:106CAB00125C6F900734E004F00E900732E014F0A2
:106CBB0080D8900720E004F0026B9190071FE070E2
:106CCB0045900734E0125872A37409F0900735E031
:106CDB00FF1293D9125995900735E01257061259A6
:106CEB009D2402FF900278F09004F2E024FEFEEF68
:106CFB00D39E4005900278EEF0125784900734E053
:106D0B002404FD023730900277E0FFA3E0FDA3E0FF
:0C6D1B00FB90071FE09007BAF01240D672
:016D27002249
:107203009004FEE0FF6402600DEF64036008EF6426
:107213000460030273EAD23FE49008A8F0A3F012DB
:107223005AD5F583E4931259476428703D74039348
:1072330064037036FDFC125AD51257A5ED2408FFDE
:10724300E43C125938747E2DF58274023CF583E0D8
:10725300FEEF6E700B0DBD00010CED64104C70D68B
:10726300ED64104C7004C23F80129008A81258FAC3
:107273009008A8E07004A3E0640970A3303F030200
:10728300736C900279125BA7125741125BA09002B4
:107293007AE0FF9071E812573DEF1211A690027B3E
:1072A300125BA7125741900005EF1211B890027CB0
:1072B300E0FF9071E812573D900007EF1211B8906C
:1072C300027DE0FE9071E812573D900006EE121128
:1072D300B89071EB12573D125BA090027DE0FF90D6
:1072E30071EB12573DEF1211A69004FEE004F0E09B
:1072F300D39404504B125D4D995027125A405003BA
:1073030002737890062EE0FF7007A3E07003027308
:10731300E712581A50061258520273B412588102D7
:1073230073B490062EE0FF7004A3E0601012581AA5
:10733300500512585280031258810273B40273E746
:107343009004FEE0640560030273EA90062EE0FFFA
:107353007007A3E070030273EA12581A500512581B
:107363005280031258810273B4125D4DD399504F6A
:10737300125A4050249002777408F090027CE00483
:10738300900278F090027DE0900279F0A3EEF0A3F2
:10739300E912576B7D0B0273E490062EE0FF700435
:1073A300A3E0601912581A5005125852800312585C
:1073B3008190027374051257797D0980248025908A
:1073C300062EE0FF7004A3E0601A12581A5005124B
:1073D3005852800312588190027374051257797DB5
:0773E30009023730125C4380
:0173EA002280
:10842F0090088A125C7890088B12570412576212C8
:10843F0059686D7013EF1257061257A912592D6E06
:10844F00700690088AF0800D90088B1258ED70031B
:10845F00A3E06F70D190088AE0700BA3E0FF128C3D
:10846F00E890088AEFF090088AE0FE60081258CB77
:10847F00EEF00240D6E490088CF0A304F090088B45
:10848F00E0FF1293D990088B1256FD125A62FE909C
:10849F00088AF0FD1292A890088AEFF090088AE0FF
:1084AF00FF90088CE0FEC39F502490088B12583821
:1084BF001259E4FF74782E125B68EFF090088CE08D
:1084CF0004F0A3125D5790088DE0D39F40CE900229
:1084DF0077740BF090088DE0FF125776EF2404FDB0
:0384EF0012373011
:0184F2002267
:0194990022B0
:1082E600C24090083D125C7890083E12570412571F
:1082F600621259686D7013EF1257061257A9125978
:108306002D6E700690083DF0800D90083E1258EDD7
:108316007003A3E06F70D190083DE0700BA3E0FFFF
:10832600128CE890083DEFF090083DE07039A3E02C
:10833600FF1293D9EF125D3C90083E125704125A71
:1083460062FE900840F0FD1292A8900840EFF0906F
:1083560004F2E024FDFEEFD39E500C90027AE0601A
:108366000690083D740BF090083DE070359008408B
:10837600E02401FFE433FE90027AE0FD7C00125A0D
:1083860036400890083D7407F08017ED6F7002ECD8
:108396006E700F740D125D611257797D05123730BC
:1083A600D24030400302842E90083DE0FE60081261
:1083B60058CBEEF00240D6E490083FF09008410416
:1083C600F090027AE0900842F090083FE0FF9008B3
:1083D60042E02FFFE433FE900840E0FDC3EF9D74BA
:1083E60080F86E98502D90083E1258388F828E83F2
:1083F600121179FF90083FE02478125B68EFF09045
:10840600083FE004F0900841125D57900841E0D320
:108416009F40B6900277740DF0900841E0FF125726
:0884260076EF2404FD1237304B
:01842E00222B
:01949A0022AF
:09032E001258CB7406F00240D60F
:01949B0022AE
:106369009007061259CF7007125ABE500C8005EEDD
:10637900C39F5005E4900706F0900278E07009A3E6
:10638900E0700590070604F0900706E060030264D8
:1063990018740AF0E490071DF090071D12570412B3
:1063A9005762125968C39D4018EF1257061257A930
:1063B90012592DC39E400A90071DE0900708F080EE
:1063C9000D90071D1258ED7003A3E06F70CB900775
:1063D9001D1258F07003A3E06F603490071D125727
:1063E90004125762125B505026EF1257061257A932
:1063F900125AC8501A90071DE0900709F0E4900757
:1064090006F090071D1258ED7003A3E06F70CC9051
:106419000706E07022900273E0FFB4070890071B9B
:106429007402F08012EFB4150890071B7410F08005
:10643900069007067404F0900706E060030264F70B
:106449007410F0E490071DF090071BE090071EF010
:1064590090071BE0FF90071DE0FE6F601BA3E0148F
:10646900F0125C6290071EE0240AF582E43407F515
:1064790083EEF0125D6B80D8EFB4021690070AE044
:106489006428706AA3E0D394015063E4900706F08E
:10649900805C90070CE064287054A3E0D394015009
:1064A9004D90070AE07047A3E0704390071D7404FC
:1064B900F090071DE0FFC39410501AE0FE9070960B
:1064C90093FD740A2EF582E43407F583E06D7005B7
:1064D900125D6B80DCEFB41015E4900706F09007AD
:1064E9000CE090070AF090070DE090070BF0900779
:1064F90006E07039740AF0125C7F50311293D9EFBB
:1065090064027021900708E0125706125947FD905E
:10651900070AE06D700F125A5990070BE06F70056A
:106529001267008008900708E004F080CA90070607
:10653900E0FE60081258CBEEF00240D690071C74BA
:1065490002F090071E7406F0125C7F40030266CFCA
:106559001293D9EF640260030266C6900708E0123D
:106569005706125947FD90070AE0FCED6C600302DB
:1065790066C6125A5990070BE0FEEF6E6003026679
:10658900C612670060030266CF900708E0FF129306
:10659900D9125995900708E0F9125706FC7401932E
:1065A900FD1259A12404FF900707F09004F2E0249A
:1065B90004C39FFF90071EE0FEC39F40030266C607
:1065C900900707E090071AF0900708E0FF8D828C8A
:1065D90083740193FD74732E1258C3ED125AECEFB4
:1065E9001257061257A91258BA125AEB90071CE013
:1065F9002402F0125C34E96F7001EE6041900708E3
:10660900E00490071DF0125C3490071DE0FDC39F64
:10661900E49E5032ED125706125947FD90070AE0E1
:10662900FCED6C7014125A5990070BE0FEEF6E7076
:106639000890071DE014F0800D125D6B80C890076B
:1066490008E090071DF090071D1257041257627455
:106659000193FE1258BDEE125AECEF12570612576B
:10666900A91258BA125AEB90071CE02402F09007BD
:106679001AE024FCF0E4900707F090071AE060297B
:10668900900708125838900707E0F5821259E61268
:1066990058BC125AEB90071CE004F0900707E0047D
:1066A900F090071AE014F080D190071DE0FF9007E1
:1066B90007F0A3E090071DF0900708EFF090070896
:1066C900E004F00265519002777411F090071DE023
:1066D900FF1293D912599590071DE01257061259C6
:1066E9009D2404900278F090071CE0FF125776EF82
:0666F9002404FD123730FD
:0F66FF0022900708E0FF128CE8900706EFF022C8
:01949C0022AD
:10670E00900843125C789008441257041257621294
:10671E0059686D7013EF1257061257A912592D6E44
:10672E007006900843F0800D9008441258ED7003E7
:10673E00A3E06F70D1900843E0700BA3E0FF128DC1
:10674E0037900843EFF0900843E0701EA3E0FF126D
:10675E0093D9125995900844E012570612599D127A
:10676E005A2C4006900843740DF0900843E0705880
:10677E00A31257041257627403936455704AEF12B2
:10678E0059231257A5E493FF64206005EF6402704D
:10679E0037900844E0FF25E02467F582E434611267
:1067AE00575E740393B4022075F003EF9061FA12F2
:1067BE00583F12116070089008437481F0800930C0
:1067CE000C069008437480F0900843E0FE600812B7
:1067DE0058CBEEF00240D6E4900845F0125B3EFF37
:1067EE00900845E0C39F500E125A70125835125D34
:1067FE0072125D7B80E690084412592112575E7426
:10680E00019330E232900845E0FEEEC0E01293D9DB
:10681E00125995900844E0FD125706FA7401932F11
:10682E00F582EA12594075F003ED12583C8F8275CD
:10683E008300D0E01211B8125B3C9004F3F01258B2
:10684E00359007A81214927413125D611257797D58
:10685E0005123730125B5C50030269FDE490084567
:10686E00F0900845125AF44031900844E0FE125759
:10687E00061257621259ABE4936D7018EE1257065A
:10688E001257A9740193FF900845E01257557401F1
:10689E00936F6006125D7B02686F125C117003A32A
:1068AE00E06F70030269FD126A1912116060030233
:1068BE0069FD125A167F0712504A125B046053127A
:1068CE006A19125A167F0812504A125B04704390CE
:1068DE000845F0900845E0FFD390051BE09F125A43
:1068EE00FD402FE4900844F0125750125CAA500855
:1068FE001258981259EC80F012578B1269FE125AE8
:10690E00167F0712504A900846121492125D7B02AF
:10691E0068E1125C117003A3E06F70030269FDE47D
:10692E00900844F0125750125CAA50081258981250
:10693E0059EC80F012578B1269FE1257DD704D9094
:10694E007E8293F470030269FD7F02129339E49004
:10695E000844F0125B7C500B1259047404F0125967
:10696E00FA80F01257C77F007E7E120627E4900849
:10697E0044F0125B7C500B1259047405F01259FA54
:10698E0080F01257C77F807E7E0269FA1257D7FFBA
:10699E00907B82125A26E493F46054EF1430E04F49
:1069AE00604DC313FF129339E4900844F0125B7CE0
:1069BE00500D1257D7125901EEF01259FA80EE907F
:1069CE0008461257B2120627E4900844F0125B7C78
:1069DE00500E1257D714125903EEF01259FA80EDD9
:0F69EE001257D775F080A424801257C1120627C4
:1069FD00227404939000051211B87B017A0279CDAF
:106A0D007F0912504A900846121492227B017A0295
:0E6A1D0079CD7F0512504A900846121492223D
:01949D0022AC
:099459001258CB7406F00240D653
:01949E0022AB
:099462001258CB7480F00240D6D0
:01949F0022AA
:1089DC00D2419008AA7401F09008AAE0FF125958ED
:1089EC00121160FE900279E06E7013EF125958125A
:1089FC0057DDFF900278E06F7004C241800A900846
:108A0C00AAE004F0E0B409D0204144E49008ABF0B3
:108A1C00125B3EFF9008ABE0C39F5021125A7012BC
:108A2C005954E92403F9E43AFAEF7C0029F9EC3AB9
:108A3C00FAEE1211A69008ABE004F080D3D2171214
:0F8A4C005B3E900503F01259549007B412149238
:018A5B0022F8
:0194A00022A9
:03949300C20C22E6
:106D2800900849125C7890084A1257041257621268
:106D380059686D7013EF1257061257A912592D6E24
:106D48007006900849F0800D90084A1258ED7003BB
:106D5800A3E06F70D1900849E0700BA3E0FF128D9B
:106D680037900849EFF0900849E0701EA3E0FF1241
:106D780093D912599590084AE012570612599D1254
:106D88005A2C4006900849740DF0900849E06003B9
:106D9800026FC9E490084BF0125B3EFF90084BE08D
:106DA800C39F5011125A7090084A125838125D72D7
:106DB800125D8280E390084A12592112575E7401CD
:106DC8009330E23290084BE0FEEEC0E01293D91205
:106DD800599590084AE0FD125706FA7401932FF569
:106DE80082EA12594075F003ED12583C8F82758380
:106DF80000D0E01211B8125B3C9004F3F090084AFE
:106E08001258389007A8121492125B5C5003026F54
:106E1800C9E490084BF090084B125AF4403190089E
:106E28004AE0FE1257061257621259ABE4936D708E
:106E380018EE1257061257A9740193FF90084BE0F9
:106E48001257557401936F6006125D82026E1E9090
:106E5800084B125C147003A3E06F7003026FC91231
:106E68006FE51211606003026FC9125A16126FF7AC
:106E7800125B076057126FE5125A167F0812504AC4
:106E880090084C125B07704490084BF090084BE058
:106E9800FFD390051BE09F125AFD4030E490084A4A
:106EA800F090084B125753125CB6500812589812BB
:106EB8005A0180ED90084B12578E126FCA125A165B
:106EC800126FF7121492125D82026E9490084B12A0
:106ED8005C147003A3E06F7003026FC9E490084A62
:106EE800F090084B125753125CB65008125898127B
:106EF8005A0180ED90084B12578E126FCA1257DD57
:106F0800704D907E8293F47003026FC97F021293D2
:106F180039E490084AF0125B85500B125904740446
:106F2800F0125A0F80F01257C77F007E7E12062794
:106F3800E490084AF0125B85500B1259047405F06E
:106F4800125A0F80F01257C77F807E7E026FC6905C
:106F5800084C1257DAFF75F080907B8212147DE49A
:106F680093F4605DEF1430E0586056C313FF12933A
:106F780039E490084AF0125B85501090084C12577B
:106F8800DA125901EEF0125A0F80EB90084C1257A2
:106F9800B2120627E490084AF0125B855011900857
:106FA8004C1257DA14125903EEF0125A0F80EA9075
:106FB800084C1257DA75F080A424801257C11206C3
:016FC80027A1
:106FC900227404939000051211B87B017A0279CDDD
:106FD9007F0912504A90084C121492227B017A02BE
:106FE90079CD7F0512504A90084C121492227F07DE
:076FF90012504A90084C22DF
:0194A10022A8
:0194A20022A7
:1087AB00900278E09004F5F0900279E09004F6F0F6
:1087BB0090027AE0900116F090027BE0900113F0AA
:1087CB0090027CE09004F7F090027DE09004F8F0CA
:1087DB009070ADE493FF900116E04F20E203E4802C
:1087EB001D9070ABE493FF9004F5E075F005A424A5
:1087FB0017F582E43471F583E5822F1259879001C6
:10880B0015F0900113E0FFD394064014EF94115030
:10881B000F7BFF7A7079A69070A6E4932404800BEB
:10882B0012590F7405F0A304125783FD12373090C1
:06883B0004E67401F022C6
:0194A30022A6
:108711009004F9E060030287AA900776F09007764B
:10872100125801125B0D125C1BB410F19004F97424
:1087310001F0900115E07BFF7A7079C19006E3703A
:10874100091214927A7079B180091214927B017A1C
:108751000379ED124105E4900776F0900776E0FF8A
:10876100FD740F12580674772FF582E43407F583F0
:10877100125C1BB410E574111259117403F0E490EA
:108781000776F0900776E0FF2477F582E43407F569
:1087910083E0125B64125C1BB410E81257847D15F0
:0987A1001237309004E67402F076
:0187AA0022AC
:107F0000E4900787F090078712580174882FF58254
:107F1000E43407F583125BB8E0B410E9900115E092
:107F20007B017A0779889006E3700B1214927BFF2D
:107F30007A7079B180071214927A0379ED124105B3
:107F40009004F9E064016003027FF2900787F090EB
:107F50000787E0FF64106018E0FE24DD125B10E08C
:107F6000FD74732E1258C3E06D7005125BBA80DF8A
:107F7000EF6410706890027374111259147404F055
:107F8000E4900787F0900787E0FFFDC3740F9DFD25
:107F9000E49400FC74C12DF58274703CF583E49385
:107FA000125B64125BB8E0B410DB1257847D1512CB
:107FB0003730E4900787F0900787E0FF2488F58248
:107FC000E43407F583E0FE125B0D125BB8E0B410F9
:107FD000E69004F97402F0E4900114F02212590FB3
:107FE0007405F0A3141257837D06123730E4900411
:027FF000F9F0A6
:017FF200226C
:10941900900502E0B41F0A900278E0B408031293A1
:0294290000221F
:10942B00E4FFEF125803125B0DEEF00FEFB410F2E6
:01943B00220E
:10906F00E4FFEFFDC3740612580774BF2FF582E4B7
:10907F003402125C8CB402EAE4FFEFFDC3740D12EC
:10908F00580774B72FF582E43402125C8CB408EAE7
:01909F0022AE
:1093EF00E4FFEF12580374FD2FF582E43403125C8F
:0493FF008CB410EE2C
:019403002246
:0194A40022A5
:10940400E4FFEF125803740D2FF582E43404125C68
:049414008CB410EE16
:019418002231
:109300009004E6E0701612590F740BF09070ADE403
:0D931000939002781257837D0612373022A9
:1093D900EF1259231257A57401935403B401047F62
:0593E9000280027F106C
:0193EE00225C
:108CE800EF1259231257A5E493FFE4FEEF54557091
:108CF800047E028036EF30E6089004FAE070027EC7
:108D080008EE700BEF30E407125B5C50027E05EE54
:108D18007019EF30E2159004FBE070047E0F800BB1
:0E8D2800900113E0C3941050027E0CCFEECFEA
:018D3600221A
:108D3700EF1259231257A5E493FFE4FEEF54AA70EC
:108D4700047E038036EF30E7089004FAE070027E75
:108D570008EE700BEF30E507125B5C50027E05EE04
:108D67007019EF30E3159004FBE070047E0F800B61
:0E8D7700900113E0C3941050027E0CCFEECF9B
:018D850022CB
:06504A00900811121492FF
:10505000EF1214A7531501507302508F0350AE0482
:1050600052790554560655000755DF08565F09006A
:105070000056F9E4900814F0125B189402502C12B8
:105080009354900814E0FF128E66125B8E80E9E460
:10509000900814F0125B1894035010129339900882
:1050A00014E0FF128E1E125B8E80E90252721258BB
:1050B0004C74011211A6E4900814F0900814E0C397
:1050C00094024003025267E0FD75F004A4FFAEF0C5
:1050D000900817EEF0FAA3EFF0FBE4125AA1ED12DC
:1050E0005B951259406B7001EA6030EFF470030277
:1050F0005267125C2504F01259C59440EC9400509C
:105100000B1257E3B4FF051258F780EB900815E037
:105110007004A3E064406003025267125C51125DA8
:105120000D125940FD900818E02401FB125A8EFA26
:10513000EB6D7001EA6031EFF47003025267125CAC
:10514000257441F01259C59480EC9400500B12570D
:10515000E3B4FF051258F780EB900815E07004A344
:10516000E064806003025267125C51125D051259BF
:1051700040FD900818E02402FB125A8EFAEB6D7085
:1051800001EA6031EFF47003025267125C2574810A
:10519000F01259C594C0EC9400500B1257E3B4FFC1
:1051A000051258F780EB900815E07004A3E064C086
:1051B0006003025267125C51125CFD125940FD906F
:1051C0000818E02403FB125A8EFAEB6D7001EA60B6
:1051D0002CEFF47003025267125C2574C1F012596F
:1051E000C5EC9401500B1257E3B4FF051258F78039
:1051F000ED900815E064017002A3E0706A90081554
:10520000E0FFA3E0A3CFF0A3EFF0900817E0FEA328
:10521000E0FFC3EE9401503DEF2414FFE43E9008FC
:1052200015F0A3EFF0125A87FE1259C59FEC9E505D
:105230000B1257E3B4FF051258F780E9125A87FEA4
:10524000900815E06E7003A3E06F700990081712C4
:105250005CC202520A900815E0B4010BA3E0B4004E
:1052600006125B8E0250BB900814E06402600302D9
:1052700056F912584CE402567312584C125BC1F0A6
:10528000125B18940250691258DF125CC9FDF46079
:105290000B12597EEDF0125CFC0252E01258DA1249
:1052A0005C5B3EF583E493FDF4600A12597EEDF0F9
:1052B000125D04802B1258DA125B70FDF4600A1242
:1052C000597EEDF0125D0C80171258DA125B493EE0
:1052D000F583E493FDF4601212597EEDF0125B98B1
:1052E000125940125C25EFF08006125B8E0252804C
:1052F000900817E0FEA3E0FF4E700812584C7404AB
:10530000025673900815A3E012584BED125BA19062
:1053100000020255DB12584C125BC1F0125B18946C
:105320000240030253E21258DF125CC9F46042EFFC
:1053300024C2F582747A125845125B1F125CFC3E3F
:10534000F583E49304125BA1125B1874019FFF12B2
:105350009354125B1874019FFF128E669008171207
:1053600057D0900814E0FF6079C374029FF0025395
:10537000E21258DA125C5B3EF583E493F460141297
:105380005C5A125845125B1F125D0412597274C2A6
:105390000253D21258DA125B70F46017EF2442F510
:1053A00082747A125845125B1F125D0C1259727486
:1053B00082801F1258DA125B493EF583E493F46051
:1053C0001B125B48125845125B1F125B98125972F0
:1053D0007442F0125B1874019FF08006125B8E021B
:1053E000531C900817E07002A3E0701312584C741D
:1053F00001125B209008171257D0E4900814F012A5
:10540000584C125A1D7007900002041211B89008EF
:1054100014E0125B953EF583C083C082900817E0CC
:10542000FCA3E0FDD082D08325821257F7F49008C8
:105430001160081214897403025673121489125AE7
:105440001D9002DD125BC8125A95347ACF2DCF3CE5
:105450001257C60256F612584C125A9D1259C5ECF4
:10546000940140030254E99008111257DA131354BF
:105470003F125B451257F1FF12584C125A1DFEEFB6
:105480006E705D900814F0900814E0FDC3940A500B
:10549000589008111257DA1313543F7F00FEEF247F
:1054A00004F582747A3EF583C083C082EDFF9008D4
:1054B00016E02FFF900815E03400FED082D0831252
:1054C000593912584CE92403F9E43AFA900814E0E7
:1054D0007C0029F9EC3AFAEF1211A6125B8E80A734
:1054E000900815125CC202545C900815E0640170CB
:1054F00002A3E060030256F912584C740502567379
:1055000012584CE41211A6900814F0A3F0A3F01264
:105510005A7EC39406EE9400502F12584C125A1D16
:10552000FD125CD5FEEF7807C333CE33CED8F91227
:105530005CDD6D700F900815E07002A3E0700A90BA
:10554000081404F01258F780C6900814E0B4010E55
:10555000A3E07004A3E064056004E4125AA1125AA7
:105560007E64064E700812584C7404025673125C26
:10557000D5900815F0A3EFF012584C125BA09008DC
:10558000147405F0900814E0FDC394805031A3E03A
:10559000FEA3E07807C333CE33CED8F92400F582DA
:1055A000747C3EF583E5822D125987FFF4600A90E2
:1055B0000814E02F2402F080CB900814E014F0903F
:1055C0000814E0C3947C400812584C74061211A6CB
:1055D000900814E0FF12584C900003EF0256591245
:1055E000584C125A9D125A7EC39406EE94005019DC
:1055F000125CD5FEEF7807C333CE33CED8F9125CF8
:10560000DDB4FF051258F780DC125A7E64064E7036
:1056100005125AA18012EF4E600EC374069F9008C7
:1056200016F0E49E900815F0125A7E12584B900026
:1056300001ED1211B8125A1D125C96EF7807C333B0
:10564000CE33CED8F92402FFEE347C1257C61206B0
:105650002712584C90000374041211B80256F91224
:10566000584CE41211A612584C125C0BD3947C4097
:105670000874061211A60256F9E4125AA112584CE7
:10568000900005121179125996900815E0FCA3E0DC
:10569000FDD39FEC9E501E74042DF582E43CF583EF
:1056A000121179FF74DD2DF58274023CF583EFF061
:1056B0001258F780C89008111257DAFF125C0BFDE0
:1056C000EF75F080A42400FFE5F0347CFE7C00EF51
:1056D0002DFFEC3EFEEEC0E012584C90000512117A
:1056E000792402FEEC3390083BF0A3CEF07B017AE4
:0C56F0000279DDD0E0FE12062712584CB3
:0156FC00228B
:109339009008B3EFF07F011205539008B3125A95C4
:0B934900347CFE120564E4FF020553B3
:109354009008B4EFF07F011205539008B4125A95A7
:0B936400347AFE120564E4FF0205539A
:058E6600900876EFF01A
:108E6B00E075F004900879125D89900877F0A3F013
:108E7B009008771259C8EC94015023125C93900818
:108E8B0076125A95347ACF2DCF3C1257C61206273D
:0E8E9B009008791258FA900877125CC280D2C3
:018EA90022A6
:058E1E0090087BEFF05D
:108E2300E075F00290087E125D8990087CF0A3F053
:108E330090087C1259C8EC94015027125C93900857
:108E43007B125A95347CCF2DCF3C1257C61206277E
:108E530090087E1258FA90087CE475F08012124153
:028E630080CEBF
:018E650022EA
:1085B200125A167F0512504A121160600302866732
:1085C200125A167F0612504A121160600302866721
:1085D2001257DD1313543FFD125B45125940125AD4
:1085E2001DFCEF6C70089008B57404F08036ED7FC6
:1085F20000FEEF125B706C70089008B57444F08056
:10860200231257DD1313543F7F00FE125C5A125996
:1086120040125A1DFEEF6E9008B570057484F0800A
:108622000374C4F0E4FF740D2FF582E43401F58382
:10863200E0125903EEF00FEFB40AEB1257DD1313F9
:10864200543F125A96347AFE9008B5E07C002FFF10
:10865200EC3EFE7B017A0279DD90083BE4F0A374E4
:058662000AF0120627DA
:0186670022F0
:1078DF00125B5C50030279E0125A167F0512504A70
:1078EF00900882125B0760030279E0125A167F0735
:1078FF0012504A900882125B07640470030279E009
:10790F009008817405F0900882121489125C0BFFA5
:10791F00900881E0FEC39F40030279E01257DD1209
:10792F005A23E5822E125987F460DBE4900880F029
:10793F009008821257DAFF125A23C083C082900830
:10794F0081E0FED082D083125985FD900880E0FC43
:10795F00C39D505875F080EF907C0112147DECFDA3
:10796F00EE2DFFE4331259389008821257DA75F072
:10797F0080907BFF12147DC083C082900881E0D07D
:10798F0082D08312598575F003A42466F582E434FE
:10799F0063F58312149B900880E0F582758300EFE6
:1079AF001211B8900880E004F002793F900882121B
:1079BF0057DA125A23C083C082900881E0FFD08229
:1079CF00D083125985FEEF2E2402900881F00279A0
:0179DF001592
:0179E0002284
:067751009007DC12149207
:10775700E49007E3F09004CFE0640360030278D37A
:107767003008030278CB3010030278CB9007DF1282
:1077770014891211609007E5F01257DD14FFB4FF6A
:10778700069007E5E014F0D242E49007E4F0900792
:10779700E4E0FE125706125762E493FD9007E5E016
:1077A700FCED6C7011EE1257061257627401936F5D
:1077B7007004C2428010125D2BE0FD900518E07046
:1077C70003A3E06D70C83042030278C39007E41248
:1077D7005704125762740593FD30E46275F003EFA6
:1077E7009061FD12583F12116030E0499007E2E0C6
:1077F700D3940050030278A39007DF1257DA125987
:1078070091125B26502C741B125D14125875125777
:10781700DD125BCF125C9D500D1259DEFC125D1F0D
:10782700EC125D2A80EEEF2407900500F0D20802E3
:1078370078D90278A39007E37416F00278D9ED306F
:10784700E5729007E4E075F0039061FD12583F126E
:10785700116030E157200C4C9007E2E0D3940040D0
:107867003B9007DF1257DA125991125B26502D749D
:107877001D125D141258751257DD125BCF125C9DF5
:10788700500D1259DEFD125D1FED125D2A80EEEFDD
:107897002407900500F0D20CD20880369007E374D5
:1078A7001BF0802E9007E3740CF080269007E3749A
:1078B70017F0801E9007E3740BF080169007E374AF
:1078C70008F0800E9007E3740AF080069007E374CF
:0778D70015F09007E3E0FF4C
:0178DE002287
:09946B00C2249007A81214892202
:069484009004F3E0FF225A
:10915800E4FF9004CFE0B40320202616900502E037
:10916800B41C0FD226E49004FEF0900502741DF0A2
:0B9178008009900502E0FF80027F15D7
:0191830022C9
:10926A00900502E0FEB41E1490055BE0D3941450FE
:0F927A000BE004F0C226900502741CF0CFEECF7B
:0192890022C2
:108EAA009002777406F0740112591A74FFF012597D
:108EBA001A7428F07417125872FF907136E493FEF0
:108ECA00EFC39E500CEFA393FE125CF1EEF00F80FD
:0F8EDA00E91257847D1B1237309004FE7401F0AB
:018EE9002266
:10936F00125C2CB41F113026047F23800DD226905F
:0A937F0004FE740BF08003CFEECF64
:0193890022C1
:10938A00125C2CB41F113026047F23800DD2269044
:0A939A0004FE740CF08003CFEECF48
:0193A40022A6
:108C44009004E7E0FFC3940C4006EFD39411400571
:108C5400EF6406703C9004FEE0640B701312586AD3
:108C6400125BE09006857401F090027AF0E48017BC
:108C74009004FEE0640C701912586A125BE0E490F0
:108C84000685F090027AF01257827D09123730C2BD
:028C9400262296
:10918400125C2C641F701F900627E07008A3E07027
:10919400047F2080143026047F23800DD22690047F
:0991A400FE740DF08003CFEECF44
:0191AD00229F
:1091AE00125C2C641F701F900627E07008A3E070FD
:1091BE00047F2080143026047F23800DD226900455
:0991CE00FE740EF08003CFEECF19
:0191D7002275
:108C96009004E7E0FFC3940C4006EFD3941140051F
:108CA600EF6406703C9004FEE0640D701312586A7F
:108CB600125BF190062C7401F090027AF0E48017B2
:108CC6009004FEE0640E701912586A125BF1E4908B
:108CD600062CF090027AF01257827D09123730C2C4
:028CE600262244
:09947400C2179007B412148922FA
:06948A00900503E0FF2243
:03884100CAEFCAB1
:10884400E4FE9004CFE06403707A900502E0FD64D6
:108854001F706C90069FE0FC7008A3E070047E21FA
:10886400806420155690718BE493FBEAD39B5047A8
:108874009004897412F0EA240390048512587590C8
:1088840006A0E090048AF0A3ECF0E4FFEFC39A5052
:108894001B74A22FF582E43406F583E0FC748C2F5C
:1088A400F582E43404F583ECF00F80E0EA240790C9
:1088B40004FFF0D215800F7E1B800B7E228007CE32
:0988C400EDCE80027E15CFEECF4F
:0188CD002288
:1092A800EF1259231259B874019330E20D75F00387
:0E92B800EF12583C8D821259E6FDCFEDCF2209
:10895A00080C1014181C2024282C30383C40444899
:10896A004C5054585C6064686C7074787C8084885D
:10897A008C9094989C0434A0FF39DCFF3AECFF3BBE
:10898A0058FF3B5BFF3EEFFF3EF0FF3F36FF3FD510
:10899A00FF3FD6FF4009FF400AFF4081FF40A1FF89
:1089AA0040CAFF40CBFF40CCFF40CDFF40CEFF4046
:1089BA00CFFF40D0FF40D1FF40D2000000000000AE
:1089CA0000010418031802180F1800000000000024
:0289DA0000009B
:10475400900855121489900859E0FFF5827583007A
:10476400121179FE74732FF582E43402F58322ED7D
:1047740025E0FFEC33FE74652FF58274613EF5830A
:10478400E493FE740193F5828E8322900896E0FFF1
:10479400241DF582E43404F583E0FE74852FF5824C
:1047A400E43420F583EEF0900896E004F0E0223E35
:1047B400F583EDF0900821E475F00102124174973D
:1047C4002FF582E43402F583E0FEE42FF582E4342D
:1047D40021F58322900295E090204EF0900296E01D
:1047E400240490204DF074869020A5F0900062225D
:1047F4009004DDE033333354F8FE9004E9E0C4540C
:10480400F04EFE9004DEE025E025E02290053BE03A
:10481400FE90053AE07C002400FFEC3E900799F0FE
:10482400A3EFF0900799E0FEA3E0FF7C0B7D7212EA
:1048340014D3E47B9B7A3BF9F81213279007A11257
:104844001440A228B3E4FCFDFE33FF9007A1121428
:104854003412129C900799CDEFCDCCEECCE0FEA3A0
:10486400E0229004DDE033333354F8FF9004E9E0B0
:10487400C454F04FFF9004DEE0FE25E025E04F44F1
:1048840002900295F0900858E0900296F090204D26
:10489400F0900295E090204EF0223CF583E493FEE4
:1048A40074782FF582E43402F583EEF09008BBE0CF
:1048B40004F0E0229008BBE0FFFD740FC39DFDE40B
:1048C4009400FC22900294E090204DF07404902017
:1048D400A5F0900062227411900273F0E4A3F074C6
:1048E40006A3F0E4A3F0A322EF25E02465F582E417
:1048F4003461F583E493FC740193F5828C83227410
:10490400A62FF582E43420F583E4F074AA2FF5820F
:10491400E43420F583221211797E00FF900888EE9A
:10492400F0A3EFF022FF9007F0E0FE9007F3E0FC25
:10493400A3E02EF582E43CF583EFF09007F0E00469
:10494400F02290053BE090053AFEE07C002400FF55
:10495400EC3E22900821E0FEA3E0FF229004CEE08A
:10496400C39401224EFE900293E054034E9004D26D
:10497400F090204EF09004E7E0FEC3940C2274E61D
:104984002FF582E43406F583E0FE74F62FF582E415
:104994003406F583229020A5E054C09004E8F02268
:1049A400C227C21AE49004CFF0902062F09000561F
:1049B400F0229004DDE033333354F8FF9004E9E04F
:1049C400C454F04FFF9004DEE0FE25E025E04F44A0
:1049D40003900295F090085E22900273740CF0E448
:1049E400A3F0A37405F0E4A3F0A37412F0900501FE
:1049F400E004F0E0900278F0A37408F0E4A3F0225D
:104A0400900896E0FF9070D193FE741D2FF582E418
:104A14003404F58322E4900821F0A3F0229004DD0D
:104A2400E0FFA3E0FD2274269020A5F0900062220E
:104A3400900294E0240490204DF022F07B017A024D
:104A440079732274732DF58274023CF583E0FE229F
:104A5400121428EF2401FFE43EFEE43DFDE43CFC97
:104A640022900294E0FEEFC39E223EF583E493FD80
:104A7400224E44019004D2F090204EF090204DE458
:104A8400221214898F82758300021179902000E02C
:104A9400540322131313541F2440F582E43405F500
:104AA4008322C220E49004E9F09004DCF022FE7436
:104AB400E62FF582E43406F583EEF00FEF22E0FCF6
:104AC400A3E0FDEC90205EF0A3EDF022900896E0C8
:104AD400FFFDC322E0FFFDC374FF9DFD740294003B
:104AE4008D82F58322900892FDE02FF582E43EF555
:104AF40083EDF022FFE0FCA3E0FD1211ECEF2BFFAD
:104B0400EE3A900508F0A3EFF02290079AE02FFF09
:104B1400900799E03EFE0214D374069020A5F0900D
:104B2400006222741290201AF090001AF022E5829A
:104B34002FF582E5833EF583E493FF9061F775F0EA
:104B440003229007F0E0FF2434F582E43405F58372
:104B5400E0FEEFFDC322E0FE75F003EF9061F71273
:104B6400147D12149BEE0211A690050BE02401FFA4
:104B740090050AE03400FE900516E06E227406F0FB
:104B84009020007408F0229070B0E493FF9004F831
:104B9400E05F227B017A0279CD2290088502148994
:104BA400FE740D2FF582E43401F58322902069F020
:104BB40090005DF0229004E6E0640322EF2408FDF7
:104BC400E433FC1214898D828C83121179FE2290B5
:104BD4002061F0900055F022EFF090052202142895
:104BE400EFF0900526021428F583EEF0900896E085
:104BF40022902062F0900056229007F0E0FF75F0BA
:104C040006A422FEE02400FFEC3E2224FFFFEE3443
:104C1400FFFEEF2DFFEE3C22E0FE74972FF582E4B9
:104C24003402F583EEF00F22900858E0FFA3E0C3AE
:104C34009F22900896E0FF247322900294E0902033
:104C44004DF0E4FF227B01A3121492E422B3E4FCAE
:104C5400FDFE33FF12143402129C90050AE0FEA3F9
:104C6400E0FF22900113E0FFD3941022C3EF9DFFD5
:104C7400EE9CC313FEEF13FF22E075F02090013386
:104C840012147DE582229020A5E054C0229008975A
:104C94001214920211603CF583E493FE22F0E49036
:104CA40008BBF022E490051CF0A3F02275F003A4E5
:104CB4002583F58302149B902049F0900045F090E1
:104CC40020352225E0241FF582E43401F5832225D2
:104CD400E02420F582E43401F5832290050CF0A34E
:104CE400F0A3F022C21F900514F0A3F0229004E771
:104CF400E0FE640B2290050BE02FFF90050AE03ED6
:104D040022A3121489E92403F9E43AFA22742A2F1B
:104D1400F582E43405F58322E47B9B7A3BF9F802BF
:104D2400132774532FF582E43407F583229004CFBC
:104D3400E0640122E0FF9007F0E0FEC39F22902090
:104D4400207414F0229020207494F022900798E0AC
:104D540004F022EEF0900859E0FF24732290085BDF
:104D640012148990085F22EEF090085FE0FF24732C
:014D7400221C
:101E0B007E617FF77C617D65124C70900518EEF05A
:101E1B00A3EFF07E637F667C637D64124C70A3EE50
:101E2B00F0A3EFF0E49006CDF09008C1F0A2289259
:101E3B0045121820122A85122B67C21AC227E4906A
:101E4B0004CFF0A37402F0A3F0C219124CA89004B3
:101E5B00FCF0900504F0A3F0D20B1221A212451F47
:101E6B00124B977F0412504A121160B40110124B9F
:101E7B00977F0212504A124B977F0312504A9007DA
:101E8B00AB7407F0E4A3F0A3F0A37430F0A37427B2
:101E9B00F074101248E5F0A3F0FDFC74932DF5825D
:101EAB00745D3CF583E493FF746F2DF58274003CF5
:101EBB00F583EFF074B32DF582745D3CF583E493F9
:101ECB00FF748F2DF58274003CF583EFF00DBD0090
:101EDB00010CED64214C70C3E49004FDF0FBE4FCB9
:101EEB00FD12477374029364286003021F9E12470E
:101EFB00737403936003021F9E124773740593FF61
:101F0B00EB25E024CCF582E43489F583E493FEEFF2
:101F1B006E6003021F9E124773740693FFEB25E05E
:101F2B0024CDF582E43489F583E493FEEF6E706380
:101F3B009004FDE0FF7401C8EBC8088002C333D8DE
:101F4B00FC4F9004FDF0124773E493F9124773743E
:101F5B000193FF2402F582E433F583D3E58294FFEA
:101F6B00E58364809480400BCEE9CE09C9EEC90F9E
:101F7B000F80020F0FEB25E02475F582E43404F596
:101F8B0083E9F0EB25E02476F582E43404F583EF66
:101F9B00F080140DBD00010C900518E06C7003A3CC
:101FAB00E06D6003021EEC0BEB64046003021EE9A0
:081FBB0012451F7F800217D4BC
:031FC300900885FE
:101FC600124C9412491D122035EF7062124B9E90EE
:101FD600000112491A12204CEF7053124B9E9000CA
:101FE60002121257AEF012491F122067EF703F120D
:101FF6004B9E900004121257FFAEF0124920122099
:1020060090EF702A124B9E90000612491A1220D3A6
:10201600EF701B124B9E90000712491A1220EAEF2E
:0E202600700C124B9E90000812491A122101F4
:012034002289
:10203500E4FEEF6005D3940840047E018005900717
:06204500ABEFF0CFEECF7F
:01204B002272
:10204C00E4FEEF600D64026009EF640660047E023A
:0A205C0080059007ACEFF0CFEECF47
:012066002257
:10206700E4FDD3EF945FEE943E40047D038016EFCA
:102077007802C333CE33CED8F92480FFE43E9007ED
:08208700ADF0A3EFF0CFEDCFA7
:01208F00222E
:0820900090089DEEF0A3EFF0B3
:10209800E4A3F0EF4E601790089DE0FEA3E0FFE494
:1020A800FCFD7B607AEAF9F8C31213C75008900860
:1020B8009F7404F0800F90089DE0FFA3E09007AFA5
:0A20C800CFF0A3EFF090089FE0FFB7
:0120D20022EB
:1020D300E4FEEF64016007EF60047E05800590076E
:0620E300B1EFF0CFEECFDB
:0120E90022D4
:1020EA00E4FEEF64016007EF60047E068005900756
:0620FA00B2EFF0CFEECFC3
:0121000022BC
:052101009008ACEFF0B6
:10210600E4A3F0EF640160089008ACE06002805937
:102116009004CFE070429008ACE06401702E12216A
:10212600A29008ACE09007B3F0E4900506F0A3F0A7
:102136009004CF04F0D21AE4124BD39007AD124AA2
:10214600C274C1124BF5F043E808804A9006CDE010
:10215600B4010343E80880389004CFE0FF640170BF
:10216600239008ACE0FEB40103A380279007B3EEEA
:10217600F0E49004CFF0C21A902061F0900055125E
:1021860049AC8012EF640260079004CFE0B4030606
:0B2196009008AD7407F09008ADE0FF6A
:0121A100221B
:1021A200900519E024FFFE900518E034FF90082105
:1021B200F0A3CEF01249574E70030222AEEF25E093
:1021C200FFEE33FE74D22FF58274623E1248F6742B
:1021D2000193900827F05403FDBD011012477A7451
:1021E2000493900825F0A37405F08019900822E06A
:1021F20025E0FF900821E012477874129390082599
:10220200F0A37413F0E4900823F0A3F0900825E003
:10221200FF900823E0FCA3E0FDC39FEC9400504034
:10222200900821E0FAA3E0FB25E0FFEA124778C01C
:1022320083C082900826E0FF7E00ED2FFFEE3CFE79
:10224200D082D083124B32EB12147DEA124CB08D45
:10225200828C83EF1211B89008231247BB02220E20
:10226200900827E030E238900821E0FCA3E0FD125C
:102272004774C083C082900826E024FFFFE434FF45
:10228200FED082D083124B32ED12147DEC124CB090
:10229200900823E0FCA3E0F5828C83EF1211B89042
:1022A200082174FFF5F01212410221B6124A1912E6
:1022B20049572430F5827471124A6E74102FF582D8
:1022C20074061247B3900821E07004A3E06417700B
:1022D200DE124A191249572447F5827471124A6E66
:1022E200742E2FF58274061247B3900821E0700411
:1022F200A3E0641870DE124A19124957245FF5826E
:102302007471124A6E745E2FF58274061247B3908E
:102312000821E07004A3E0640B70DE124A1912492E
:1023220057246AF5827471124A6E74802FF5827492
:10233200061247B3900821E07004A3E0640770DE40
:10234200124A191249572471F5827471124A6E7435
:10235200872FF58274061247B3900821E07004A318
:10236200E0641870DE124A191249572489F5827402
:1023720071124A6E749F2FF58274061247B3900849
:1023820021E07004A3E0641770DE124A1912495763
:1023920024A0F5827471124A6E74462FF582740677
:1023A2001247B3900821E07004A3E0641870DE12B3
:1023B2004A1912495724B8F5827471124A6E746927
:1023C2002FF58274061247B3900821E07004A3E04F
:1023D200641770DE124A1912495724CFF5827471BC
:1023E200124A6E74272FF58274061247B3900821A1
:0923F200E07004A3E0640770DE52
:0123FB0022BF
:1023FC0074F1124BF574D1F0124D31702F9005061B
:10240C001247BC9007B2E0B401229007AFE0FEA3E4
:10241C00E0FFD3900507E09F900506E09E400D7FFE
:10242C00A01217D41249A8C21A121C46301A05124F
:10243C00259B8006302703122F0190051C1247BBE9
:10244C00C390051DE0948690051CE09400400E900E
:10245C0004CFE064026006121AF7124CA87F8012B7
:10246C0017D49004EFE06013124D31600E3023034B
:10247C0030220812381FE49004EFF09004E0E06082
:10248C0020124D31601B3023033022159004E0E004
:10249C0014F01238459004F0E004F0E0B40A02E4C1
:1024AC00F030264E201E4B302303302245E47F05AE
:1024BC00FEFDFC90051E121434C31213DD40339044
:1024CC0004E0E0702D9004FEE07005128EAA8022CC
:1024DC009004FEE0FF640B6004EFB40C05128C4416
:1024EC0080109004FEE0FF640D6004EFB40E031244
:1024FC008C969004CFE06403703B3023033022357C
:10250C00201E32301D07124621C21D8028301512A4
:10251C007B017A0479859004FFE0FD123730C215F7
:10252C0080133008107B017A0479A5900500E0FD3A
:10253C00123730C2089004CFE0FF64036005EF64EB
:10254C00027033124325902062E030E5411231C70E
:10255C00122DD990050A1247BB122E4590206130DE
:10256C00120B7412F0900055F0D216801E740FF0FE
:10257C00900055F080159004CFE07012902062E02E
:0F258C0030E50B7420F0E4900056F075910822B2
:10259B00122A85122B20902068E4F090005CF090BA
:1025AB00204C74A2F0900048F09004CDE0FF12197B
:1025BB000B9004D0E0FF122B7B9004D1E0FF122B89
:1025CB00DD1216FB12181090001CE0448090201CAA
:1025DB00F090001CF07FA01217D41219F89007EF9F
:1025EB007427F09007EFE0FFD394245003022A796D
:1025FB0074279FFF74017E00C8EFC8088005C333A2
:10260B00CE33CED8F9FF9007ABE0FDEF5D70030240
:10261B002A709007EFE0FFC3744C9F90203AF09024
:10262B00003AF0C3744C9FFFE49400FE745A2FF5EC
:10263B008274893EF583E493902013F0122C3F9023
:10264B0007ACE0FFE4FBFD122C4590006F122A7AD9
:10265B009007F0124AD8E493FE1247CEEEF01249DF
:10266B003FE0B406EBE49007F0F090006F124D38AA
:10267B00501974702EF582E43400F583E0FF740674
:10268B002E1247D0EFF012493F80DF90201A740BC7
:10269B00F07437124CBB7465F0900035F0124D425C
:1026AB007FD01217D4902001E020E7F9124A9064F2
:1026BB000360F27419124B297FC01217D4121A67D8
:1026CB00902001E020E507124A90640160F2E4904B
:1026DB0007F0F012493FE0B407F9124D4990201A68
:1026EB00740BF090001AF090008F122A7A90008FE2
:1026FB00124D38501974902EF582E43400F583E0B6
:10270B00FF74062E1247D0EFF012493F80DF902066
:10271B0001E020E20C1249605007124A90640160FC
:10272B00ED20190302282912496040030228299041
:10273B002001E030E2057F03121ADC90204EE0907E
:10274B0004D2F0E0FF540FFEA3F0EF5440FFC4138C
:10275B00135403A3F0EE640560030228299007F0DD
:10276B00F09007F0E0FF24801247D0E0FE124D11ED
:10277B00EEF012493FE0B406E8D243E49007F0F0E4
:10278B00124BFD24AFF582E43400F583E0FE900597
:10279B002FE06E7073EF75F006A424B0F582E4346D
:1027AB0000F583E0FF90052EE06F705C124BFD246B
:1027BB00B1F582E43400F583E0FE90052DE06E70F8
:1027CB0047EF75F006A424B2F582E43400F583E0FC
:1027DB00FF90052CE06F7030124BFD24B3F582E4B3
:1027EB003400F583E0FE90052BE06E701BEF75F067
:1027FB0006A424B4F582E43400F583E0FF90052AA7
:10280B00E06F7004C243800B12493FE06406600323
:10281B0002278B304308122C5812496040FB902042
:10282B0001E030E20512496040F4124960400B129E
:10283B001A6C7FA01217D4022A70122C5E9004D34C
:10284B00E06403703F9004D5E070399007ACE0640E
:10285B000260319004D2E054809004D6F06005748D
:10286B0080F08005E49004D6F09004D6E0FBE4FD04
:10287B007F04122C45122CD7902001E020E7030295
:10288B002A6580F49004D3E064056003022A5D900E
:10289B0004D5E06003022A5D9007ACE06406700388
:1028AB00022A5D124B277433124CBB7467F09000F5
:1028BB0035F0122C58122CD79004CF7402F0C21A98
:1028CB00D2279007F37405F0A37430F07A0079CD1A
:1028DB00124C499007F0F09007F0E0FFC3941650AC
:1028EB001D9007F5121489E9240CF9E43AFA7E00DD
:1028FB00E92FF9EE3AFA12116012492980D9122DFB
:10290B0081900539E0FF7006900538E0600AEF70A2
:10291B000D900538E0B40106902061E4800590200D
:10292B0061740FF0900055F0122DD9122DE4908A9E
:10293B007CE49390201CF090001CF0E49007F0F0E6
:10294B009007F0E0FF9007F3E0FCA3E02FF582E4A3
:10295B003CF583E0FE744F124911EEF012493FE053
:10296B00B404DD122DEFE49007F0F0124B46743DEA
:10297B009DFD7420124AE2EEF0124B4674409DFD11
:10298B007420124AE2EEF012493FE0B403DD124923
:10299B00469007F1F0A3EFF090053DE090053C1257
:1029AB004C07CBEFCBFA90053FE090053E124C075E
:1029BB00FEEF7803C333CE33CED8F99007F1124A2A
:1029CB00F8900545E0FE541FA3F0EE54E0C41354F9
:1029DB0007A3F0E49007F0F09007F0E0FFFD74051B
:1029EB001248C074CD2DF58274003CF583E0FE12C5
:1029FB004D11EEF09007F0E0FF24CDF582E43400AA
:102A0B00F583E0124BA4EE12493EE0B406CA9004E3
:102A1B00D2E09004D7F0E490050AF0A3F09004D82C
:102A2B00F0124CDFA3F0C2259007F37401F0A374EE
:102A3B0017F07A05793A124C499007F0F09007F0AD
:102A4B00E0FFC3940650279007F5124A85124929D7
:102A5B0080EB122C5812496040FB7FA01217D41246
:0E2A6B001A6C1219F89007EFE014F00225EE35
:0C2A790022E0FF122C50E49007F0F02245
:102A8500E49004DFF0A3F090051E12144C00000042
:102A950000E49004E2F09004E4F0C21CC216C212F5
:102AA500124AA9900510F0A3F0C20FC222C20EC2AD
:102AB50023C218A3F0A3F0C221C21FA3F0A3F09074
:102AC50004EAF0A304F0C213E4900516F0A3F0C2E3
:102AD50011C22A9004EDF0A37418F0E4A3F0A3F05A
:102AE500C2299004F27417F0C20CC226E49004FEC9
:102AF500F0C215C208C21D900501F0A3741CF0C2F6
:102B050017C227C2249004F17413F0124CA8C220F6
:0B2B1500900F2BF090055BF0C21E2219
:102B2000E49004E6F0A3F0A3F0C20DC210900522D9
:102B300012144C0000000090052612144C000000F6
:102B400000E49004F4F09004FBF0C2149020A5F08F
:102B50007F0A90010DE4F0A3DFFCE4FF124903E4D7
:062B6000F00FEFB404F6D3
:012B6600224C
:102B6700E49004FAF09004F9F07F109003EDE4F09C
:032B7700A3DFFCDD
:012B7A002238
:102B7B00E49008B6F09004FDE030E14AEFC3940313
:102B8B0040089008B67409F080429004D0EFF0E44E
:102B9B00FF1248ECE493FE900477E0FDEE6D7010AD
:102BAB001248EC740193FE900478E0FDEE6D600E1C
:102BBB000FEFFD900518E07003A3E06D70D3900448
:102BCB00D0124B5A80069008B67408F09008B6E005
:012BDB00FFFA
:012BDC0022D6
:102BDD00E49008B7F09004FDE030E24AEFC39403AF
:102BED0040089008B77409F080429004D1EFF0E4EA
:102BFD00FF1248ECE493FE900479E0FDEE6D701049
:102C0D001248EC740193FE90047AE0FDEE6D600EB7
:102C1D000FEFFD900518E07003A3E06D70D39004E5
:102C2D00D1124B5A80069008B77408F09008B7E09F
:012C3D00FF97
:012C3E002273
:062C3F0074B3124BB02239
:0B2C4500CEEDCEEB4E4F90204EF02263
:082C5000EF240690204DF02254
:062C58007493124BB02240
:102C5E0090204EE09004D2F090204DE09004D9F0F8
:102C6E00E0FD543FA3F0902000E05420C41354071D
:102C7E009004D5F09004CFE0B401149004D2E0FE9D
:102C8E00540FA3F0EE5440C413135403A3F0229038
:102C9E00011EEDF09004D2E090011DF0540390045B
:102CAE00DBF09004D2E0FF5410C4540F9004DCF01B
:102CBE00EF5408131313541FA3F09004D2E05404DE
:092CCE001313543F9004DEF022C0
:102CD7009004D5E06003022D809004CFE0B4012674
:102CE700E4FB9004DAE0FFEBC39F4003022D8074FE
:102CF700802B1247D0E0FF74CD2BF582E43400F52A
:102D070083EFF00B80DC9004DAE06061200A5390D7
:102D1700011DE0FF9004DFE0FE124CC7EFF09001C9
:102D27001EE0FFEE124CD3EFF0E4FB9004DAE0FF75
:102D3700EBC39F501B74802B1247D0E0FF9004DF3A
:102D4700124C7D2BF582E43583F583EFF00B80DBA6
:102D57009004E0E004F09004DFE004F0E0B40A023D
:102D6700E4F090051E12144C000000002290051E8E
:092D7700124A5490051E1214408A
:012D80002230
:102D8100122EF4900539E090053812494DFE900855
:102D91004FF0A3EFF02402FFE43EFE7C0B7D7212A4
:102DA10014D3124D1C900851121440A228900851BE
:102DB100124C5190084F12485B7803C333CE33CE87
:102DC100D8F92407FFE43E124C1590084FF0A3EF09
:072DD100F090084F124AC206
:012DD80022D8
:0B2DD90090206274D1F0900056F022B0
:0B2DE4009020697433F090005DF02235
:102DEF00E4FEFDFCEC131313541F2430F582E4347E
:102DFF0005F583E0FBEC5407FAEBC8EAC80880023C
:102E0F00C313D8FC20E0030E80010D0CECB420D4CA
:102E1F00EED39D400774109D25E08007ED24F0252B
:102E2F00E04480902068F090005CF090204C742279
:052E3F00F0900048F0D6
:012E4400226B
:102E4500E4FB900546E0FF9004E2E02FFFE433FE4B
:102E55007C007D251211ECCFEDCF9004E1EFF0A3BE
:102E6500F0124A97E0FF9004E1E0FE5407FDEFC839
:102E7500EDC8088002C313D8FC20E0589004E4E0B4
:102E8500FFEE8FF0849004E3E5F0F0E4FFEBFD90B6
:102E950004E3E0F92DFDE433FCEFD39DEC6480F809
:102EA500748098501CEF124A97E0FEEF5407FDEE30
:102EB500C8EDC8088002C313D8FC20E0010B0F80C1
:102EC500CCE92B9004E5F0E0FF90203AF090003A31
:102ED500EFF080129004E1E0FF90203AF09004E5D5
:0E2EE500E090003AF0EF90895A93902013F09D
:012EF30022BC
:0D2EF4009020627499F09000567491F022C5
:102F0100C2447FA01217D4122E45122DE41219F8D3
:102F11007FC01217D4902001E020E707124A906485
:102F21000160F2121A67301C2A124A90FFBF010594
:102F310012496040F41249605025122C5E124A2158
:102F41001231992009191231BC7FA01217D4C21C69
:102F510002318B124A90FFBF010512496040F41201
:102F610049604031A3E0B402089004D8E004F08045
:102F71000690050C1247BB121A6C7FA01217D412CF
:102F8100318F1247BB2012030230B37412124BD39C
:102F9100D2160230B3C2169004CF7403F0E4900548
:102FA1000CF0A3F0122C5E9004D5E090050E700594
:102FB100F0A3F080031247BB124BB9705D9004DAA5
:102FC100E060579004E7E0FFD39411400AEF6414E6
:102FD1006005EF64067043124A21123199200927D6
:102FE10074461247EC7406F0902001E05402FF7021
:102FF100F7124999E0B4400F7F05121ADC1231BC77
:103001007FA01217D4D244124A211233701233B95D
:103011002009107F011235A88009124A211233704C
:103021001233B99004DCE0640160089004E9E064C3
:103031000170399004D5E070339004E0E0D3940836
:10304100502A124D42D22090206274C1F0E49005C2
:1030510010F0A3F01235E39004DCE0640160079006
:1030610004E9E0B401069004D5E060E8902001E0B5
:1030710020E7F9124D49900020F0124B2790206172
:10308100740FF0900055F0121A7612318F1247BB6F
:10309100200F09302206200903008002C20F200EF2
:1030A10003122CD7C20E3025063022031237251207
:1030B1001A6CC2209004E7E0FFC3940C4006EFD3E2
:1030C10094114004EFB406079020A574068019EF0F
:1030D100640B6004EFB414079020A574048009EF19
:1030E100B4120C9020A57402F0900062F0800100EF
:1030F1009004D8E0B40604D244D218900508E0FE4A
:10310100A3E0FF90050CE06E7003A3E06F602790D1
:10311100050EE0FCA3E0FD6F7002EC6E60189005F7
:103121000DE02DFF90050CE03CFE900508E06E706F
:1031310003A3E06F700AD244E4124CDFA3F0D2186B
:10314100301C19124C5E900512E06E7003A3E06F03
:10315100700AD244C21C900512F0A3F0302107205E
:103161000904D244C221301F19900514E0FEA3E0E6
:10317100FF90050AE06E7003A3E06F7005D2441260
:0D3181004CE83044087FA01217D41249A476
:0B318E00221231C7122DD990050A2231
:103199009004D5E0701A9004EAE06F7004C20A80C6
:1031A90002D20A9004EBE06D7003D20922C209220F
:0331B900D2092216
:0B31BC009020697413F090005DF02279
:1031C700122EF42013030232B7124B6D7003A3E0E3
:1031D7006F60030232B7900550E0FE90054F124929
:1031E7004E90079DF0A3EFF090054CE0FE90054B45
:1031F700124C0890079FF0A3EFF090054EE0FE9069
:10320700054D124C08CBEFCBFA90079DE0FEA3E0EB
:103217007803C333CE33CED8F990079F124AF812FA
:103227004946900799F0A3EFF07E057F377B017A37
:103237000579489007A5121492E4900798F0900733
:1032470098E0FDC3940750169007A51214898D8244
:10325700124A8A900798124AEC124D5080E0900566
:1032670039E0FE90053812494EFE90079BF0A3EF18
:10327700F07C0B7D72124B0E124D1C9007A112149D
:103287004090079BE0FEA3E0FF7C007D08124B0EF9
:10329700EF24FFFFEE34FFFEEEC0E0EFC0E0A22810
:1032A7009007A1124C51D0E02FFFD0E03E0232EB45
:1032B700301322124C5E900516E06E7003A3E06F88
:1032C7007013C2131248107803C333CE33CED8F924
:1032D700124C0F800F1248107803C333CE33CED869
:1032E700F9124C0F900799F0A3EFF0C390079AE0FB
:1032F7009480900799E094004004D2128002C21291
:10330700900799124AC230115F124B6D7003A3E008
:103317006F7055C211900798F0900798E0FF2453FB
:10332700F582E43405F583E0FE74402F124A9EEEE1
:10333700F0124D50E0B405E1E4FF900798F0E4FE89
:10334700900798E0124A9CE0FDC8EEC8088002C3C7
:1033570013D8FC30E0010F0EEEB408E4124D50E034
:08336700B405DB9004E4EFF073
:01336F00223B
:103370009004D5E070309004EAE0FE6F7009C20A54
:10338000EE045401F08007D20A9004EAE0F09004C1
:10339000EBE0FF6D7004D209800EEF04540190043D
:1033A000EBF0C2098002D2099004EAE09004DEF05A
:0933B0009004EBE09004DDF02232
:1033B9002023081247F4124A75F022300903023417
:1033C900A5302203023499900295E0FE900293F011
:1033D900900296E0900294F09004DDE03333335488
:1033E900F8FD9004E9E0C454F04DFD1248074DFD85
:1033F900EE54034D1249714006EED394114004EE88
:10340900B4060E900296124A379020A5740602342B
:1034190063124CF16005EE6414702D900296124807
:10342900CBF0E4FF900296E0FEEFC39E500B1247EB
:10343900681247CCEEF00F80EBE4FF124A65504B5F
:10344900124768124C1C80F39004E7E0B412129002
:103459000296124A379020A57402F0900062F0801B
:103469002A900296124C41900296E0FEEFC39E50BC
:103479000B1247681247CCEEF00F80EBE4FF124ABB
:10348900655008124768124C1C80F3D222C22A22C6
:103499001247F4124A75F0C223C2222220223A208E
:1034A9002A371247F4124A751249784006EED39426
:1034B900114004EEB4060302355EEE640B6004EEBF
:1034C900B414089020A57404023591EEB412089042
:1034D90020A574020235910022202264302A61124B
:1034E90047F41249684006EED394114004EEB4063D
:1034F9000C124A3474161248D27406F022124CF196
:103509006005EE641470161248C8F0E4FF124A65AB
:1035190040030235A71247C2EEF00F80F09004E78E
:10352900E0B4120C124A347412124A2C7402F022BA
:10353900124C3E124A6550661247C2EEF00F80F3F4
:103549001247F41249684006EED394114004EEB4D0
:10355900060A124A349020A57406802C124CF16098
:1035690005EE641470131248C8F0E4FF124A65505E
