:03031300024B0298
:024B020000327F
:03031B00024B048E
:014B0400327E
:03032300024B0585
:024B050000327C
:03032B00024B077B
:024B070000327A
:03033B00024B0969
:024B0900003278
:03034300024B0B5F
:014B0B003277
:03034B00024B0C56
:024B0C00003275
:03035300024B0E4C
:104B0E00C0E0C0F0C083C082C0D0E8C0E0E9C0E021
:104B1E00EAC0E0EBC0E0ECC0E0EDC0E0EEC0E0EFDC
:104B2E00C0E0438701759108902062E030E509905E
:104B3E0008837401F0122189902028E030E709746F
:104B4E00E0F09008927401F0D0E0FFD0E0FED0E0EB
:104B5E00FDD0E0FCD0E0FBD0E0FAD0E0F9D0E0F8F8
:0B4B6E00D0D0D082D083D0F0D0E03255
:03035B00024B79D9
:104B7900C0E0C0F0C083C082C0D0E8C0E0E9C0E0B6
:104B8900EAC0E0EBC0E0ECC0E0EDC0E0EEC0E0EF71
:104B9900C0E043911053D1FD12033E500D128F5ABC
:104BA900C23112030E7F01128CC1D0E0FFD0E0FEAA
:104BB900D0E0FDD0E0FCD0E0FBD0E0FAD0E0F9D0C5
:0D4BC900E0F8D0D0D082D083D0F0D0E03220
:108EA200E900EA00E200B000B100B300B400B5008E
:108EB200B600B700B8008A0196019E01C6012D02D4
:047387004107BA0000
:108C520012033790086EE475F001120FDCC390081E
:108C62006FE094E890086EE0940322E490086EF0BE
:108C7200A3F02290080712121F900804021216A3F2
:088C8200F0A3F0A3F0A3F0221F
:104BD600C22BC22CC22DC22EE4900738F0A3F0904F
:104BE600073B04F0E4128C81128C81121692128B10
:104BF600D7C2287F0D121668121463120545120AD1
:104C0600F4121B98E4FF12169812169543E8104307
:104C1600F810439110E4F5BB9006AFF0900892F0BF
:104C26007F01128CC1C23112030EE4900883F0900A
:104C36000F2CF0120BB112033E5003024D5D90048F
:104C4600CFE07057120341C22D9007317403F0A3D1
:104C5600E4F0A37405F0A374DCF090072F7407F05A
:104C6600E4A3F0900735F0A304F0A3F0FB7A0779EC
:104C76002F121D509006C07401F09006C1F09006E8
:104C8600AEF0E49006AAF0900698F09006ABF0908D
:104C960006BF04F0E49006B0F080769004CFE0B44E
:104CA600011190073A7401F0C22BC22CC22D1203D7
:104CB60041805E9004CFE064037056D22DC22EC2AE
:104CC6003112030E90073AE06011120B0BEF6401EC
:104CD6006004EFB40205E490073AF0302424129001
:104CE600AFCFE9CF90073CEAF0A3EFF01290C8905F
:104CF600073CE0FCA3E0CAECCAF97B01CDEFCD127C
:104D0600865230830375D10230850353D1FD126D6F
:104D160074900892E06032900738E475F001120F43
:104D2600DC900738E0B4020EA3E0B45809E490071B
:104D360038F0A3F0D22E900F2CE07008900F2BE0E5
:104D4600B4010100E4900892F0202E03024C3912BF
:0D4D5600901CC22E024C39C22E00024C39B6
:0686520090086712121FE0
:10865800900867121216EBC0E08A838982D0E06422
:1086680001700A7451658270047406658370097B11
:10867800017A067951028D9A900867121216EBC09A
:10868800E08A838982D0E06401700A74656582702B
:1086980004740665837043900696E030E03CE4FF7E
:1086A80074652FF582E43406F583E0FE743D2FF5FA
:1086B80082E43406F583EEF00FEFB414E37BFF7A1F
:1086C8005D79F99007AD12121F9007B07405F07B21
:0A86D800017A06793D1276D2EF0018
:0186E2002275
:068D9A0090080412121FF4
:108DA000E4FFFBFAF9128C75E94A4B601F128C7BC9
:108DB000128C757D14128C8AEF70119008071212B4
:0C8DC00016900002120F14700312901C99
:018DCC002284
:068C8A0090086A12121F9F
:108C9000E4FF90086A121216E94A4B6006EDC3948D
:108CA0000050037FFF22E4FEEEC39D501390086A3C
:108CB0001212168E82758300120F142FFF0E80E899
:018CC0002291
:0403370000000022A0
:106D7400A280B3503B128C6D128C5240FB308003C6
:106D8400026ED4900689E030E00C7458126EFE70E6
:106D9400059007B804F0900689E030E009126ED53A
:106DA40070049007B8F09007B8E070EA002080FC07
:106DB40030854D128C6D128C5240FBA285B350036A
:106DC400026ED49007BAE064016003026ED49006A8
:106DD40089E030E00C7480126EFE70059007B504F3
:106DE400F0900689E030E009126ED570049007B582
:106DF400F09007B5E070EA002085FCE49007BAF053
:106E040030834C128C6D128C5240FBA283B350031E
:106E1400026ED49007BAE06003026ED4900689E053
:106E240030E00C7481126F4F70059007B904F09034
:106E34000689E030E009126F2670049007B9F090DB
:106E440007B9E070EA002083FC9007BA7401F0A24D
:106E540082B35038128C6D128C5240FB2082719098
:106E64000689E030E00C7421126F4F70059007BB67
:106E740004F0900689E030E009126F267004900750
:106E8400BBF09007BBE070EA002082FCA281B35003
:106E94003F128C6D128C5240FB208134900689E0A5
:106EA40030E00F9006047420126F7770059007BCD1
:106EB40004F0900689E030E00DE4900604126F7748
:106EC40070049007BCF09007BCE070E6002081FCE1
:106ED40022E4900604F07BFF7A5D79709007AD128E
:106EE400121F905D74E4939007B0F07B017A0679E9
:106EF400021276D290086DEFF022900604F07BFF28
:106F04007A5D79709007AD12121F905D74E49390CE
:106F140007B0F07B017A0679021276D290086DEF01
:106F2400F022E4900604F07BFF7A5D79709007AD5F
:106F340012121F905D74E4939007B0F07B017A06FF
:106F440079021276D290086DEFF022900604F07B5D
:106F5400FF7A5D79709007AD12121F905D74E4930F
:106F64009007B0F07B017A0679021276D290086D10
:106F7400EFF022F07BFF7A5D79709007AD12121F5B
:106F8400905D74E4939007B0F07B017A0679021265
:086F940076D290086DEFF022A7
:108C1600030034FE010034271200000A0012264326
:108C260033464530303036453035354436423443A8
:108C360041464630303030303046463030303030C5
:0C8C460030303030391800000000000011
:10738B00510699303132333435363738394142432F
:08739B0044454600C12FC1303A
:108BD700E4F580F5D175D2D043D32F7590FF75D9C1
:108BE7000C75DA0C75DBFF75B0FF75E102F5E27500
:108BF700E3FF43B90143870175BA07900559745AD2
:0F8C0700F0A374A5F043E81043F8104391102236
:03033E00A22F22C9
:05030E00A231922F2234
:050316007F01028CC113
:108E7E00E49007C3F0A3F0A3F07B017A0779BD124B
:108E8E001D50E4FF128CC1128F941290C1124281B8
:038E9E0043870106
:018EA10022AE
:0790C10053E3FE43E8102217
:108F940053E1FD53E2FD53B0FD53BBFE53E1FE53D9
:0C8FA400E2FE43B00143B980439110226B
:108F3D00E58E54EF4410F58EE589540F4420F589E4
:0D8F4D00758D38758B38C28FD2ABC28E2265
:05031E00D2ABD28E22DB
:05032600C2ABC28E22F3
:108F0100900838E025E025E0F9F812117B7E00EFAA
:0D8F1100540F2499F582EE3406F583E0FF3D
:018F1E002230
:108CC100EFB401209006AF7401F0A228923A121578
:108CD100AD902006741FF090200E7452F090202861
:108CE10074E0F022E49006AFF0A228923A1215AD9A
:078CF10090200E7452F022E6
:02034100002298
:108F5A00121692E4F580F5D175D2D043D32F43B9D6
:0D8F6A000143870143E81043F810021695FB
:10901C009004CFE0B40303124274D23112030E75E4
:0A902C00D3D0E4FF128CC102428190
:106F9C00FF0349FF034AFF034EFF034FFF8CF8FF2B
:106FAC008D2EFF8EE2FF0350FF8D64FF9036FF03A2
:106FBC0051FF7537FF8000FF7860FF8971FF679F75
:106FCC00FF719FFF83A8FF0352FF815DFF0356FFF4
:106FDC00032EFF0357FF60DDFF0358FF6482FF039E
:106FEC0059FF0350FF0350FF909DFF035AFF90A6DB
:106FFC00FF79FFFF0350FF887EFF0350FF7FF3FFF5
:10700C000346FF90D5FF85BCFF90D6FF8522FF7FFE
:10701C0000FF907AFF908CFF8DCDFF9050FF90D7A2
:10702C00FF9065FF8F7700000000000010008000CB
:10703C0000805F9B34FB0700060002030001100177
:10704C000100000000000000000000000000000033
:10705C000043730503E30B0F86C71041F0AEFD9D93
:10706C0069E2485A7AD8D97C223057FA42DB598BDC
:10707C0025DEAFBABE0213243546576879677547CB
:10708C00304AF6D91A28DDB5B7E148AC7E3B918A77
:10709C00A6D71C4533E50BE58BE88D786175A7E326
:1070AC004B0180A0FBF982000001000100000100EF
:1070BC0001010101000100000000000101010001BB
:1070CC0000000000280010D0002D121E4B0FA499B8
:1070DC004ECEB531F405790000280313000000BD35
:1070EC001DA299E625588CD94201630D12BF9F0051
:1070FC00000800000000000000000000290202004F
:10710C00000000280313000000D9D9AAFDBD9B2163
:10711C0098A849E145F3D8D169000014000000009B
:10712C000000000000000000000000000000000053
:10713C000000280313000000FB7B7CCE6AB344BE26
:10714C00B54BD624E9C6EA2200001400000000006A
:10715C000000000000000000000000000000000023
:10716C0000290202000070CC70E370FB7106710DF7
:10717C007125713C7154716B01055C01057A010537
:10718C00AA0105CC0105D30105EB0105920105B55A
:03719C0001057377
:1073A30057055C00000000280010D0002D121E4B72
:1073B3000FA4994ECEB531F4057958057A0000280B
:1073C3000313000000BD1DA299E625588CD9420184
:1073D300630D12BF9F4B05AA0000080000000000C8
:1073E3000000004705CC000029020200005805D325
:1073F3000000280313000000D9D9AAFDBD9B2198E2
:10740300A849E145F3D8D1695705EB000014000002
:107413000000000000000000000000000000000069
:1074230000005805920000280313000000FB7B7C3A
:10743300CE6AB344BEB54BD624E9C6EA225705B596
:107443000000140000000000000000000000000025
:10745300000000000000004705730000290202003D
:017463000028
:10541600EF2402FDE433FCE0FF25E024B1F582E44D
:10542600345EF583E49322900279F090717E75F0F4
:1054360003ED12120AEC75F003A42583F58312120C
:1054460028900001120F1490027A2402F090717EC7
:1054560075F003ED12120AEC75F003A42583F583AB
:10546600021228900812E0FF25E024D3F582E434E6
:1054760060F583E493FC740193F5828C8322F0A398
:105486007403F0A37428F07407900273F0E4A3F099
:10549600A37404F0E4A3F07B017A027973229008E6
:1054A60012E0FFA3121216900004EF120F53EF251D
:1054B600E024D3F582E43460F583E493FE7401932B
:1054C600F5828E8322121216900001120F1475F0C7
:1054D60080A42400FFE5F0347BFE7B017A0279DDAF
:1054E600900802E4F0A37402F02290081312121638
:1054F600900001020F149007DBE07F00FEEF24000E
:10550600F582747A3EF583E5822DF582E5833CF5D6
:1055160083E49322E0FFFD7414C39DFDE49400FC34
:1055260074732DF58274023CF583E0FE22900277B7
:105536007404F090057BE0FE2402FDE433FCD3ED19
:1055460094FFEC6480948022900811E075F003903B
:105556005F4D12120A0212283EF583E49304FD9071
:1055660007D8021216EE2402FE900278F090057A11
:10557600E0FD900279F0A3EEF0A3EDF02290027721
:105586007412F07405900273F0E4A3F0A37404F0AF
:10559600E4A3F02290057BE02402FE900278F0EF6F
:1055A60004FFA3F0A3EEF0A3EFF022EF75F003A43F
:1055B60024D7F582E43460F5831212288D82758330
:1055C60000120F14FFED2406FDE433FC22E493FFE2
:1055D600900700E02473F582E43402F583229002FA
:1055E60077E0FFA3E0FDA3E0FB900788229007DBAE
:1055F600E0FFC374019FFFEF7F00FEEF22900717C5
:10560600E004F0E0FF900518E0229007DCE475F076
:1056160001020FDC24FEFE74DD2FF582E43402F570
:1056260083227402900273F0E4A3F07406A3F0E4FC
:10563600A3F0A322E0FF25E02437F582E4346022BC
:10564600740193FF900278E0FEEF22FEE5822FF5CB
:1056560082E5833EF583E493FF22FE740193FFF512
:10566600828E837402932290087BE075F003A42453
:1056760084F582E43471F583021228E493FE9002E5
:1056860079E0FDEE223EF583E49304900001120FCB
:10569600539007DEE4F0A3222582F582E43583F5F4
:1056A60083E49322FF1279E9EF2402FFE433FE221A
:1056B600FC7401932FF582EC3EF583E49322E49388
:1056C600FDEF25E024D3F582E43460F583E493FA14
:1056D600740193F5828A83229007DCE0FCA3E0FD47
:1056E600C3227401F090027BE0FF900279E0FE6F26
:1056F600229007AA1212168E82758300020F14904A
:1057060008131212168D828C83EF120F5390081114
:10571600E004F0229008191212168D828C83EF1283
:105726000F53900817E004F0227B017A0279CD220C
:10573600900002020F14907C0075F08002120A2479
:1057460003FFE433FE900273E0D39FEE6480F874A7
:1057560080982290027CE02401FDE433FC90055FF2
:10576600E0FEFBD3ED9B7480F86C98228F828E83CB
:10577600740393FF22FA7401932DF582EA3CF583B4
:10578600E49322E0FF247AF582E43402F583E0FE16
:10579600229007DCE0FEA3E0FF229007DFE0244032
:1057A600FF9007DEE0340022E0FEE42400FFEE2254
:1057B600E4120F419007DCF0A3F022900273740606
:1057C600F09002777401F090027904F0E4A3F0A35C
:1057D60022A3E0FD900278E0D39D22740193FF900E
:1057E600027AE0FEEFD39E2290087AE025E0FF9051
:1057F6000879E033FE74722FF58274713E22EFF061
:10580600900700E004F022E0FFFDD390051BE09D29
:1058160090051AE094002290081312121F020EFB44
:1058260074DD2FF582E43403F583229007DBE0FF75
:10583600C322ED900002020F539007AD1212168F8D
:10584600828E83120F14FF9007B0E0FED39F22D200
:1058560024900273E024FD227F00FEEF2402F582ED
:10586600747A22E493FE90027BE0FDEED39D2290B3
:1058760004F4E0C3940122FE74782FF582E4340226
:10588600F583222442F582747A3EF583E4932290CE
:105896000811E0FFC3940222900817E0FFC39402A8
:1058A600229007DBE004F0227F00FEEF2400F58261
:1058B600747A22EF900001020F53E0FF900879E01E
:1058C600FCA3E0FD90718475F00322EEF09007557D
:1058D600E004F022E4120F419007DEF0A3F09007F7
:1058E600DB229004AAF0120EFB9004ABF0E49007C2
:1058F600B2F0229005CDE0900278F09005CCE090D1
:105906000279F022900574E0900278F0900573E039
:10591600900279F022EDF090083CE004F02290002D
:1059260003020F14900812E0FF90051AE022EEF031
:10593600900744E004F0E0229007DCE4F0A322E4C0
:10594600FF900502E0FE22900519E024FFFF900576
:1059560018E034FFFE22900502741EF0E49004FE67
:10596600F0C226229007DBE07F00FEEF22EF2482C2
:10597600F582747A22747C2EF582E43402F583E093
:10598600FE22EFF0900718E004F0227401F0E4A381
:10599600F0229006EBE0FE9006EAE0FFD39E22F5A9
:1059A60083EEF00FEF22A3A3E09002DDF0A3F02236
:1059B6009007B0E0FF9007B2E0FEC39F2274049305
:1059C600FE900811E0FDC39E22740493FE90081712
:1059D600E0FDC39E22E475F040020FDC24C2F5828E
:1059E600747A3EF583E49322C374059FFFE49E22F6
:1059F6002402F582747C3EF583E49322FF900279BB
:105A0600E024FE22747E2FF582E43402F58322EF31
:105A160024C0F582747A22EF2480F582747A22EF0C
:105A26002440F582747A229004A9F0EE24039004AF
:105A3600A52274AC2EF582E43404F58322F0900797
:105A4600B2E004F022900715E0FF900717E0222449
:105A560002FDE433FC22900715E0FF900714E022D4
:105A660090055EE0F990027DE022E004F09004F2F9
:105A7600E014FF22900277F09002737401229006E0
:105A8600FFE004F0228F82758300EE020F53900828
:105A960012E004F022900818E004F022A4FFE5F0DA
:065AA600F0A3EFF0E42282
:010349002291
:01034A002290
:01034E00228C
:01034F00228B
:108CF800900277E0FF54E0701AEFD3941E5026E0FC
:108D080075F003A424B1F582E4346FF583121228B8
:108D180002125A900277E0242E600724807006021F
:068D28006A9C1290D422A7
:108D2E00900277E0FFD394135017EF14602724EED0
:108D3E00700990027BE09004F1F0221257C1F0808E
:108D4E00071257C17402F0E412549B900273E02490
:058D5E0004FD1234BD0C
:018D630022ED
:108EE200900277E0FFC3940C5014EF75F003A424B2
:0E8EF2000EF582E43470F58312122812125A23
:018F0000224E
:01035000228A
:108D64009004FEE0FFB401028028EFC3940A50256A
:108D740090057AE0FF7004A3E060171255335005A4
:108D840012556B800312559A740512548F7D090293
:068D940034BD12595C22FF
:109036009002777403F09004F2E09002781254994B
:0A904600900273E02404FD0234BD23
:010351002289
:10753700D2321256EB70091257D7500BC23280075E
:10754700EEC39F5002C232900278E0FD7006A3E0BE
:107557007002D232303212900277E0FF900279E067
:10756700FB90078874010276CDD232E490083CF094
:1075770090083C12541D12547B125681C39D401A29
:10758700EF12541F1254C2125646C39E400C900865
:107597003CE0900839F0C232800D90083C12560644
:1075A7007003A3E06F70C920323290083C12541D5B
:1075B70012547B1258695024EF12541F1254C212EE
:1075C70057E1501890083CE090083AF012591D9086
:1075D700083C1256097003A3E06F70CE30320302E5
:1075E70076C89002777405F0900839E012563C127D
:1075F70054BE7401935403900278F090083DF090C4
:10760700083B7402F0A37406F090083912563A1238
:1076170054777401935403FE90083DE06E600302B3
:1076270076B9900839E0FE12541F12547B74019307
:10763700FD90083C1255D912591BEE12541F1254D3
:107647007BE493FE90083C1255D9EE12591C12792F
:10765700E9CCEFCC90083CE02FFE90083BE02F24CC
:1076670002F00C90083CE0FFC39E501B900839E0E5
:1076770012541F1256D52C1256A0FD74732F125593
:10768700DC12591B1C80DC90083BE0FF9004F2E001
:10769700C39FFF90083CE014FEEFC39E4014900880
:1076A70039E004F0A3E0FF900839E0D39F500302CC
:1076B700761090083BE0FF12548FEF2404FD02344C
:0A76C700BD1255E4740AF0123E6390
:0176D1002296
:10800000D233E4FDFC125A03C394FE4025907184E0
:108010001254561254F6125A026F703A907184122A
:108020005456120EFBFF90027AE0146F7028C23390
:10803000802F9071841254561254F6125A026F70A7
:1080400015907184125456120EFBFF90027AE06F65
:108050007004C233800B0DBD00010CED64094C703F
:10806000A430330302815C90718A12545612592451
:10807000FF90027BE06F600302815C125736FF9035
:10808000027CE06F600302815C900279E01258BAD2
:1080900090027AE0FF90718A125456EF120F41D28B
:1080A00033E4FCFD907184125456120EFB702D9037
:1080B00071841254561254F6702212573664297085
:1080C0001B12592464027014125453120EFB7008D0
:1080D0001254531254F66004C233800B0DBD0001DC
:1080E0000CED64094C70BD20335990027774041272
:1080F00054521254F6FF2402FBE433FAD3EB94FFFC
:10810000EA648094805012EF900278125450120E5C
:10811000FB12542D120EFB80191254531254F624E4
:1081200002900278125452120EFB0412542D120EB9
:10813000FB0490027BF090027374051254927D0947
:108140000234BD900502741FF09004FE740AF0C260
:0C815000269004E6E064036003128F77C1
:01815C002200
:1078600090083E1256E870071257D7500C8005EE6C
:10787000C39F5005E490083EF0900278E07009A3A1
:10788000E0700590083E04F090083EE0700E900213
:107890007DE06428600690083E7406F090083EE0A3
:1078A0006003027947740AF0900273E0900841B4D3
:1078B00017057410F080037402F0E4900842F09011
:1078C0000842E012541F125660FD90027DE0FCED6C
:1078D0006C706412577290027CE0FEEF6E7058FF7D
:1078E000900841E0FEEFC39E5014A31255518F82C1
:1078F0001256FFFD125A0AE06D70030F80E2EF6E20
:10790000703590084212541D12547B125681C39D4B
:107910004025EF12541F1254C2125646C39E401700
:10792000900842E090083FF0A3F0E490083EF09009
:107930000842E004F080109008421256067003A33B
:10794000E06F60030278BF90083EE0703590084217
:10795000E012541F125660FD90027DE0FCED6C7049
:107960000C12577290027CE0FEEF6E601590084298
:10797000E0900840F09008421256077003A3E06FB1
:1079800070CB90083EE0900277704A7407F0900840
:107990003F12541D12547B740193900278F0EF1241
:1079A000541F1254C2E493900279F090084012548C
:1079B0001D12547B74019390027AF0EF12541F123F
:1079C00054C2E49390027BF09002737405125492B7
:1079D0007D090234BDE0FFA3E0FDA3E0FB90083E7B
:0879E000E0900788F0123E63FD
:0179E800227C
:108971009004FEE06401704F900279E090055CF094
:10898100900278E090055DF090027BE090055EF04A
:1089910090027AE0FF90055FF09002777408F09002
:1089A100055DE0900278F090055CE0900279F0A31B
:1089B100EFF090055EE090027B1254847D0B12343F
:0889C100BD9004FE7402F022D7
:10679F009007011256E870071257D7500C8005EE7C
:1067AF00C39F5005E4900701F0900278E07009A3B1
:1067BF00E0700590070104F0900701E0703F740A44
:1067CF00F0E4900717F090071712541D12547B1224
:1067DF005681C39D401DEF12541F1254C2125646CC
:1067EF00C39E400F900717E0900702F0E490070157
:1067FF00F0800A1256037003A3E06F70C99007016F
:10680F00E07034740AF090071712541D12547B1263
:10681F0058695023EF12541F1254C21257E15017E8
:10682F00900717E0900703F0E4900701F01256036A
:10683F007003A3E06F70CF900701E0702290027396
:10684F00E0FFB407089007157402F08012EFB4153B
:10685F00089007157410F080069007017404F090EB
:10686F000701E07077740AF0900703E0FF900702CA
:10687F00E0D39F5067E4900717F0900715E090075B
:10688F0018F0125A4BFE6F603EA3E014F09007020F
:10689F00E012541F12547BC083C082900718E0FF90
:1068AF00125A55D082D08312550DFD12597B6D604F
:1068BF0002801474042FF582E43407F583EEF09010
:1068CF000717E004F080BB125A4B6F700690070158
:1068DF00F08009900702E004F0026877900701E06A
:1068EF006003026A3A9007167402F0900718740654
:1068FF00F0E4900717F0900703E0FE900702E0FD29
:10690F00D39E4003026A3A900715E004900714F0F3
:10691F00CFEDCF1279E9900715E06F70049007144F
:10692F00F0125A5CFEC39F5028900702E012541FCA
:10693F0012547BEE125A5512550DFF74042EF58228
:10694F00E43407F583E06F7008900714E004F080DB
:10695F00D0125A5C6F6003026A31900702E0FF1297
:10696F008A6D900701EFF06003026A3A900702E028
:10697F00FF1279E990070212541612577B2402FE78
:10698F00FD128F1FCEEFCE9004F2E0FF2405FD9095
:10699F000718E0FCC3ED9CFDEEC39D500690071455
:1069AF00EE800EEC64066003026A3AEF24FE900755
:1069BF0014F0900702E0900717F0900717E060625D
:1069CF0090070212541D12547B740193FE90071806
:1069DF001255D9EE125989EF12541F1254C2E49373
:1069EF00FF9007181255D9125988900716E0240204
:1069FF00F0900714E024FEF0E4FE900714E060220C
:106A0F009007021255511256FDFF9007181255D9D3
:106A1F00125988900716E004F00E900714E014F056
:106A2F0080D8900702E004F0026905900701E0703A
:106A3F0045900716E012558BA37409F0900717E0E5
:106A4F00FF1279E91256AE900717E012541F125633
:106A5F00B62402FF900278F09004F2E024FEFEEFDD
:106A6F00D39E4005900278EEF012549D900716E0E9
:106A7F002404FD0234BD900277E0FFA3E0FDA3E004
:0C6A8F00FB900701E0900788F0123E63C6
:016A9B0022D8
:10719F009004FEE0FF6402600DEF64036008EF648B
:1071AF00046003027386D234E4900879F0A3F012DE
:1071BF0057EEF583E4931256606428703D74039381
:1071CF0064037036FDFC1257EE1254BEED2408FF17
:1071DF00E43C125651747E2DF58274023CF583E027
:1071EF00FEEF6E700B0DBD00010CED64104C70D6F0
:1071FF00ED64104C7004C23480129008791256134B
:10720F00900879E07004A3E0640970A3303403029E
:10721F0073089002791258C012545A1258B990023A
:10722F007AE0FF907184125456EF120F4190027B57
:10723F001258C012545A900005EF120F5390027C4F
:10724F00E0FF907184125456900007EF120F539085
:10725F00027DE0FE907184125456900006EE120FDC
:10726F00539071871254561258B990027DE0FF90D7
:10727F007187125456EF120F419004FEE004F0E0B4
:10728F00D39404504B125A669950271257595003F2
:10729F0002731490057AE0FF7007A3E07003027386
:1072AF0083125533500612556B02735012559A02C2
:1072BF00735090057AE0FF7004A3E060101255330D
:1072CF00500512556B800312559A02735002738347
:1072DF009004FEE06405600302738690057AE0FF78
:1072EF007007A3E0700302738612553350051255D1
:1072FF006B800312559A027350125A66D399504FEE
:10730F0012575950249002777408F090027CE004D1
:10731F00900278F090027DE0900279F0A3EEF0A356
:10732F00E91254847D0B02738090057AE0FF70049C
:10733F00A3E06019125533500512556B8003125597
:10734F009A90027374051254927D098024802590BF
:10735F00057AE0FF7004A3E0601A1255335005124E
:10736F00556B800312559A90027374051254927DD7
:07737F00090234BD12595C44
:0173860022E4
:1083A80090085712599190085812541D12547B1274
:1083B80056816D7013EF12541F1254C21256466E36
:1083C8007006900857F0800D9008581256067003F2
:1083D800A3E06F70D1900857E0700BA3E0FF128AFA
:1083E8006D900857EFF0900857E0FE60081255E4CA
:1083F800EEF0023E63E4900859F0A304F0900858A8
:10840800E0FF1279E990085812541612577BFE9033
:108418000857F0FD128F1F900857EFF0900857E0AB
:10842800FF900859E0FEC39F5024900858125551F8
:108438001256FDFF74782E125881EFF0900859E01B
:1084480004F0A3125A7090085AE0D39F40CE9002CD
:1084580077740BF090085AE0FF12548FEF2404FD54
:038468001234BD0E
:01846B0022EE
:010352002288
:10815D00C23590080A12599190080B12541D1254F1
:10816D007B1256816D7013EF12541F1254C21256AA
:10817D00466E700690080AF0800D90080B12560698
:10818D007003A3E06F70D190080AE0700BA3E0FFBD
:10819D00128A6D90080AEFF090080AE07039A3E09A
:1081AD00FF1279E9EF125A5590080B12541D125710
:1081BD007BFE90080DF0FD128F1F90080DEFF090D3
:1081CD0004F2E024FDFEEFD39E500C90027AE060A5
:1081DD000690080A740BF090080AE0703590080DAF
:1081ED00E02401FFE433FE90027AE0FD7C0012579B
:1081FD004F400890080A7407F08017ED6F7002EC7D
:10820D006E700F740D125A7A1254927D051234BD90
:10821D00D2353035030282A590080AE0FE600812BF
:10822D0055E4EEF0023E63E490080CF090080E0465
:10823D00F090027AE090080FF090080CE0FF9008A3
:10824D000FE02FFFE433FE90080DE0FDC3EF9D74AA
:10825D0080F86E98502D90080B1255518F828E8399
:10826D00120F14FF90080CE02478125881EFF09053
:10827D00080CE004F090080E125A7090080EE0D32E
:10828D009F40B6900277740DF090080EE0FF1254E7
:08829D008FEF2404FD1234BD33
:0182A50022B6
:010356002284
:09032E001255E47406F0023E636E
:010357002283
:1060DD009006E81256E870071257D7500C8005EE5F
:1060ED00C39F5005E49006E8F0900278E07009A394
:1060FD00E070059006E804F09006E8E060030261A8
:10610D008C740AF0E49006FFF09006FF12541D12F5
:10611D00547B125681C39D4018EF12541F1254C266
:10612D00125646C39E400A9006FFE09006EAF080A4
:10613D000D9006FF1256067003A3E06F70CB90060C
:10614D00FF1256097003A3E06F60349006FF1254DE
:10615D001D12547B1258695026EF12541F1254C24F
:10616D001257E1501A9006FFE09006EBF0E490060E
:10617D00E8F09006FF1256067003A3E06F70CC9006
:10618D0006E8E07022900273E0FFB407089006FD68
:10619D007402F08012EFB415089006FD7410F080B3
:1061AD00069006E87404F09006E8E0600302626B66
:1061BD007410F0E49006FFF09006FDE0900700F0FB
:1061CD009006FDE0FF9006FFE0FE6F601BA3E0145C
:1061DD00F012597B900700E024ECF582E43406F5CB
:1061ED0083EEF0125A8480D8EFB402169006ECE0DC
:1061FD006428706AA3E0D394015063E49006E8F03C
:10620D00805C9006EEE064287054A3E0D3940150B6
:10621D004D9006ECE07047A3E070439006FF7404C8
:10622D00F09006FFE0FFC39410501AE0FE9070321C
:10623D0093FD74EC2EF582E43406F583E06D700564
:10624D00125A8480DCEFB41015E49006E8F0900645
:10625D00EEE09006ECF09006EFE09006EDF0900683
:10626D00E8E07039740AF012599850311279E9EF5B
:10627D00640270219006EAE012541F125660FD90E0
:10628D0006ECE06D700F1257729006EDE06F700521
:10629D0012647480089006EAE004F080CA9006E863
:1062AD00E0FE60081255E4EEF0023E639006FE74C7
:1062BD0002F09007007406F01259984003026443EF
:1062CD001279E9EF6402600302643A9006EAE01283
:1062DD00541F125660FD9006ECE0FCED6C6003025D
:1062ED00643A1257729006EDE0FEEF6E60030264A1
:1062FD003A12647460030264439006EAE0FF127977
:10630D00E91256AE9006EAE0F912541FFC7401939F
:10631D00FD1256BA2404FF9006E9F09004F2E02431
:10632D0004C39FFF900700E0FEC39F400302643A41
:10633D009006E9E09006FCF09006EAE0FF8D828C75
:10634D0083740193FD74732E1255DCED125805EF15
:10635D0012541F1254C21255D31258049006FEE067
:10636D002402F012594DE96F7001EE60419006EA7A
:10637D00E0049006FFF012594D9006FFE0FDC39F1B
:10638D00E49E5032ED12541F125660FD9006ECE063
:10639D00FCED6C70141257729006EDE0FEEF6E700E
:1063AD00089006FFE014F0800D125A8480C8900604
:1063BD00EAE09006FFF09006FF12541D12547B7414
:1063CD000193FE1255D6EE125805EF12541F1254BA
:1063DD00C21255D31258049006FEE02402F0900626
:1063ED00FCE024FCF0E49006E9F09006FCE0602966
:1063FD009006EA1255519006E9E0F5821256FF1209
:10640D0055D51258049006FEE004F09006E9E0041C
:10641D00F09006FCE014F080D19006FFE0FF9006AE
:10642D00E9F0A3E09006FFF09006EAEFF09006EA9F
:10643D00E004F00262C59002777411F09006FFE05F
:10644D00FF1279E91256AE9006FFE012541F125654
:10645D00B62404900278F09006FEE0FF12548FEF00
:06646D002404FD1234BD01
:0F647300229006EAE0FF128A6D9006E8EFF02211
:010358002282
:1064820090081012599190081112541D12547B1247
:1064920056816D7013EF12541F1254C21256466E7B
:1064A2007006900810F0800D9008111256067003C5
:1064B200A3E06F70D1900810E0700BA3E0FF128A86
:1064C200BC900810EFF0900810E0701EA3E0FF12DD
:1064D20079E91256AE900811E012541F1256B61204
:1064E20057454006900810740DF0900810E070585F
:1064F200A312541D12547B7403936455704AEF1215
:10650200563C1254BEE493FF64206005EF640270AF
:1065120037900811E0FF25E024B3F582E4345E12DF
:106522005477740393B4022075F003EF905F501216
:106532005558120EFB70089008107481F0800930D3
:106542000C069008107480F0900810E0FE600812AB
:1065520055E4EEF0023E63E4900812F0125857FF41
:10656200900812E0C39F500E12578912554E125ACC
:106572008B125A9480E690081112563A125477748C
:10658200019330E232900812E0FEEEC0E01279E9A7
:106592001256AE900811E0FD12541FFA7401932FA7
:1065A200F582EA12565975F003ED1255558F827530
:1065B2008300D0E0120F531258559004F3F0125595
:1065C2004E90077612121F7413125A7A1254927D49
:1065D200051234BD1258755003026771E490081217
:1065E200F090081212580D4031900811E0FE12543A
:1065F2001F12547B1256C4E4936D7018EE12541F8E
:106602001254C2740193FF900812E012546E740186
:10661200936F6006125A940265E312592A7003A31B
:10662200E06F700302677112678D120EFB60030246
:10663200677112572F7F07124D6312581D60531254
:10664200678D12572F7F08124D6312581D704390A9
:106652000812F0900812E0FFD390051BE09F125839
:1066620016402FE4900811F01254691259C35008D1
:106672001255B112570580F01254A41267721257C4
:106682002F7F07124D6390081312121F125A9402A1
:10669200665512592A7003A3E06F7003026771E412
:1066A200900811F01254691259C350081255B112D0
:1066B200570580F01254A41267721254F6704D906E
:1066C2007E8293F470030267717F02128FB0E490AE
:1066D2000811F0125895500B12561D7404F01257FF
:1066E2001380F01254E07F007E7E120627E49008A9
:1066F20011F0125895500B12561D7405F0125713D3
:1067020080F01254E07F807E7E02676E1254F0FFAA
:10671200907B8212573FE493F46054EF1430E04FC1
:10672200604DC313FF128FB0E4900811F012589518
:10673200500D1254F012561AEEF012571380EE90CA
:1067420008131254CB120627E4900811F012589540
:10675200500E1254F01412561CEEF012571380ED24
:0F6762001254F075F080A424801254DA12062726
:1067710022740493900005120F537B017A0279CDA4
:106781007F09124D6390081312121F227B017A02B6
:0E67910079CD7F05124D6390081312121F225E
:010359002281
:09909D001255E47406F0023E6372
:01035A002280
:0990A6001255E47480F0023E63EF
:0179FF002265
:10887E00D23690087B7401F090087BE0FF1256719F
:10888E00120EFBFE900279E06E7013EF125671120B
:10889E0054F6FF900278E06F7004C236800A90089A
:1088AE007BE004F0E0B409D0203644E490087CF07C
:1088BE00125857FF90087CE0C39F5021125789121F
:1088CE00566DE92403F9E43AFAEF7C0029F9EC3A03
:1088DE00FAEE120F4190087CE004F080D3D217120A
:0F88EE005857900503F012566D90078212121F13
:0188FD002258
:017FF300226B
:03034600C20C22C4
:106A9C0090081612599190081712541D12547B121B
:106AAC0056816D7013EF12541F1254C21256466E5B
:106ABC007006900816F0800D900817125606700399
:106ACC00A3E06F70D1900816E0700BA3E0FF128A60
:106ADC00BC900816EFF0900816E0701EA3E0FF12B1
:106AEC0079E91256AE900817E012541F1256B612DE
:106AFC0057454006900816740DF0900816E0600398
:106B0C00026D3DE4900818F0125857FF900818E0F9
:106B1C00C39F5011125789900817125551125A8B56
:106B2C00125A9B80E390081712563A12547774014C
:106B3C009330E232900818E0FEEEC0E01279E912D0
:106B4C0056AE900817E0FD12541FFA7401932FF5FE
:106B5C0082EA12565975F003ED1255558F827583E2
:106B6C0000D0E0120F531258559004F3F090081710
:106B7C0012555190077612121F1258755003026D60
:106B8C003DE4900818F090081812580D4031900808
:106B9C0017E0FE12541F12547B1256C4E4936D700E
:106BAC0018EE12541F1254C2740193FF900818E08F
:106BBC0012546E7401936F6006125A9B026B929082
:106BCC00081812592D7003A3E06F7003026D3D126B
:106BDC006D59120EFB6003026D3D12572F126D6B37
:106BEC001258206057126D5912572F7F08124D639F
:106BFC009008191258207044900818F0900818E06A
:106C0C00FFD390051BE09F1258164030E4900817F4
:106C1C00F090081812546C1259CF50081255B1123A
:106C2C00571A80ED9008181254A7126D3E12572F68
:106C3C00126D6B12121F125A9B026C0890081812DC
:106C4C00592D7003A3E06F7003026D3DE49008179B
:106C5C00F090081812546C1259CF50081255B112FA
:106C6C00571A80ED9008181254A7126D3E1254F664
:106C7C00704D907E8293F47003026D3D7F02128FF3
:106C8C00B0E4900817F012589E500B12561D740465
:106C9C00F012572880F01254E07F007E7E120627F7
:106CAC00E4900817F012589E500B12561D7405F004
:106CBC0012572880F01254E07F807E7E026D3A904D
:106CCC0008191254F3FF75F080907B8212120AE4BB
:106CDC0093F4605DEF1430E0586056C313FF128FCD
:106CEC00B0E4900817F012589E50109008191254E6
:106CFC00F312561AEEF012572880EB900819125422
:106D0C00CB120627E4900817F012589E50119008E9
:106D1C00191254F31412561CEEF012572880EA90F4
:106D2C0008191254F375F080A424801254DA120658
:016D3C00272F
:106D3D0022740493900005120F537B017A0279CDD2
:106D4D007F09124D6390081912121F227B017A02DE
:106D5D0079CD7F05124D6390081912121F227F07FE
:076D6D00124D63900819228A
:0190D4002279
:0190D5002278
:1085BC00900278E09004F5F0900279E09004F6F0E7
:1085CC0090027AE0900116F090027BE0900113F09B
:1085DC0090027CE09004F7F090027DE09004F8F0BB
:1085EC00907049E493FF900116E04F20E203E48081
:1085FC001D907047E493FF9004F5E075F005A424FA
:10860C00B3F582E43470F583E5822F1256A0900105
:10861C0015F0900113E0FFD394064014EF94115021
:10862C000F7BFF7A707942907042E4932404800BA4
:10863C001256287405F0A30412549CFD1234BD90FC
:06864C0004E67401F022B7
:0190D6002277
:108522009004F9E060030285BB900744F090074491
:1085320012551A125826125934B410F19004F974D3
:1085420001F0900115E07BFF7A70795D9006C570AD
:108552000912121F7A70794D800912121F7B017A5B
:108562000379ED123E92E4900744F0900744E0FF55
:10857200FD740F12551F74452FF582E43407F583FD
:10858200125934B410E5741112562A7403F0E490AF
:108592000744F0900744E0FF2445F582E43407F5F0
:1085A20083E012587D125934B410E812549D7D159F
:0985B2001234BD9004E67402F0DD
:0185BB00229D
:107F0000E4900755F090075512551A74562FF582D4
:107F1000E43407F5831258D1E0B410E9900115E07C
:107F20007B017A0779569006C5700B12121F7BFFF2
:107F30007A70794D800712121F7A0379ED123E9202
:107F40009004F9E064016003027FF2900755F0901D
:107F50000755E0FF64106018E0FE24DD125829E0A8
:107F6000FD74732E1255DCE06D70051258D380DF5E
:107F7000EF64107068900273741112562D7404F03F
:107F8000E4900755F0900755E0FFFDC3740F9DFD89
:107F9000E49400FC745D2DF58274703CF583E493E9
:107FA00012587D1258D1E0B410DB12549D7D151289
:107FB00034BDE4900755F0900755E0FF2456F58254
:107FC000E43407F583E0FE1258261258D1E0B410CD
:107FD000E69004F97402F0E4900114F0221256289D
:107FE0007405F0A31412549C7D061234BDE4900471
:027FF000F9F0A6
:017FF200226C
:10907A00900502E0B41F0A900278E0B40803128F48
:02908A0077224B
:10908C00E4FFEF12551C125826EEF00FEFB410F25D
:01909C0022B1
:108DCD00E4FFEFFDC3740612552074BF2FF582E446
:108DDD0034021259A5B402EAE4FFEFFDC3740D127B
:108DED00552074B72FF582E434021259A5B408EA60
:018DFD002253
:10905000E4FFEF12551C74FD2FF582E4340312591E
:04906000A5B410EEB5
:0190640022E9
:0190D7002276
:10906500E4FFEF12551C740D2FF582E434041259F8
:04907500A5B410EEA0
:0190790022D4
:108F77009004E6E07016125628740BF0907049E4DE
:0D8F87009390027812549C7D061234BD2296
:1079E900EF12563C1254BE7401935403B401047F40
:0579F9000280027F1076
:0179FE002266
:108A6D00EF12563C1254BEE493FFE4FEEF545570E2
:108A7D00047E028036EF30E6089004FAE070027E44
:108A8D0008EE700BEF30E40712587550027E05EEBC
:108A9D007019EF30E2159004FBE070047E0F800B2F
:0E8AAD00900113E0C3941050027E0CCFEECF68
:018ABB002298
:108ABC00EF12563C1254BEE493FFE4FEEF54AA703E
:108ACC00047E038036EF30E7089004FAE070027EF3
:108ADC0008EE700BEF30E50712587550027E05EE6C
:108AEC007019EF30E3159004FBE070047E0F800BDF
:0E8AFC00900113E0C3941050027E0CCFEECF19
:018B0A002248
:064D63009007D812121F98
:104D6900EF121234502E014D8C024DA8034DC70489
:104D79004F9205516F0652190752F80853780900E6
:104D8900005412E49007DBF01258319402502C12AF
:104D99008FCB9007DBE0FF128B531258A780E9E411
:104DA9009007DBF012583194035010128FB090071E
:104DB900DBE0FF128B0B1258A780E9024F8B1255CB
:104DC900657401120F41E49007DBF09007DBE0C343
:104DD90094024003024F80E0FD75F004A4FFAEF099
:104DE9009007DEEEF0FAA3EFF0FBE41257BAED12EA
:104DF90058AE1256596B7001EA6030EFF470030235
:104E09004F8012593E04F01256DE9440EC94005043
:104E19000B1254FCB4FF0512561080EB9007DCE02E
:104E29007004A3E064406003024F8012596A125A69
:104E390026125659FD9007DFE02401FB1257A7FA05
:104E4900EB6D7001EA6031EFF47003024F80125983
:104E59003E7441F01256DE9480EC9400500B1254CB
:104E6900FCB4FF0512561080EB9007DCE07004A338
:104E7900E064806003024F8012596A125A1E12566A
:104E890059FD9007DFE02402FB1257A7FAEB6D707A
:104E990001EA6031EFF47003024F8012593E7481C8
:104EA900F01256DE94C0EC9400500B1254FCB4FF7F
:104EB9000512561080EB9007DCE07004A3E064C093
:104EC9006003024F8012596A125A16125659FD9000
:104ED90007DFE02403FB1257A7FAEB6D7001EA60C4
:104EE9002CEFF47003024F8012593E74C1F0125630
:104EF900DEEC9401500B1254FCB4FF0512561080DD
:104F0900ED9007DCE064017002A3E0706A9007DCB1
:104F1900E0FFA3E0A3CFF0A3EFF09007DEE0FEA34C
:104F2900E0FFC3EE9401503DEF2414FFE43E9007E7
:104F3900DCF0A3EFF01257A0FE1256DE9FEC9E5054
:104F49000B1254FCB4FF0512561080E91257A0FE4B
:104F59009007DCE06E7003A3E06F70099007DE1222
:104F690059DB024F239007DCE0B4010BA3E0B40046
:104F7900061258A7024DD49007DBE06402600302D1
:104F89005412125565E402538C1255651258DAF021
:104F9900125831940250691255F81259E2FDF46021
:104FA9000B125697EDF0125A15024FF91255F312DA
:104FB90059743EF583E493FDF4600A125697EDF0B7
:104FC900125A1D802B1255F3125889FDF4600A12EA
:104FD9005697EDF0125A2580171255F31258623E72
:104FE900F583E493FDF46012125697EDF01258B16F
:104FF90012565912593EEFF080061258A7024F99DE
:105009009007DEE0FEA3E0FF4E70081255657404B8
:1050190002538C9007DCA3E0125564ED1258BA9044
:1050290000020252F41255651258DAF012583194FE
:105039000240030250FB1255F81259E2F46042EFA4
:1050490024C2F582747A12555E125838125A153EE6
:10505900F583E493041258BA12583174019FFF1270
:105069008FCB12583174019FFF128B539007DE12B8
:1050790054E99007DBE0FF6079C374029FF00250A6
:10508900FB1255F31259743EF583E493F46014123C
:10509900597312555E125838125A1D12568B74C222
:1050A9000250EB1255F3125889F46017EF2442F5B8
:1050B90082747A12555E125838125A2512568B7418
:1050C90082801F1255F31258623EF583E493F4600F
:1050D9001B12586112555E1258381258B112568B6C
:1050E9007442F012583174019FF080061258A702D9
:1050F90050359007DEE07002A3E070131255657415
:10510900011258399007DE1254E9E49007DBF012D6
:105119005565125736700790000204120F53900715
:10512900DBE01258AE3EF583C083C0829007DEE013
:10513900FCA3E0FDD082D0832582125510F490079C
:10514900D86008121216740302538C1212161257E1
:10515900369002DD1258E11257AE347ACF2DCF3C8A
:105169001254DF02540F1255651257B61256DEEC6F
:10517900940140030252029007D81254F3131354B6
:105189003F12585E12550AFF125565125736FEEF47
:105199006E705D9007DBF09007DBE0FDC3940A5069
:1051A900589007D81254F31313543F7F00FEEF248D
:1051B90004F582747A3EF583C083C082EDFF9007BF
:1051C900DDE02FFF9007DCE03400FED082D08312AF
:1051D9005652125565E92403F9E43AFA9007DBE0DF
:1051E9007C0029F9EC3AFAEF120F411258A780A76F
:1051F9009007DC1259DB0251759007DCE0640170FD
:1052090002A3E06003025412125565740502538C1F
:10521900125565E4120F419007DBF0A3F0A3F012D9
:105229005797C39406EE9400502F125565125736BE
:10523900FD1259EEFEEF7807C333CE33CED8F912FB
:1052490059F66D700F9007DCE07002A3E0700A90C8
:1052590007DB04F012561080C69007DBE0B4010E9C
:10526900A3E07004A3E064056004E41257BA12577E
:105279009764064E7008125565740402538C1259CE
:10528900EE9007DCF0A3EFF01255651258B99007BC
:10529900DB7405F09007DBE0FDC394805031A3E097
:1052A900FEA3E07807C333CE33CED8F92400F582C4
:1052B900747C3EF583E5822D1256A0FFF4600A90B6
:1052C90007DBE02F2402F080CB9007DBE014F0909D
:1052D90007DBE0C3947C40081255657406120F4140
:1052E9009007DBE0FF125565900003EF025372123D
:1052F90055651257B6125797C39406EE9400501984
:105309001259EEFEEF7807C333CE33CED8F91259CE
:10531900F6B4FF0512561080DC12579764064E70DA
:10532900051257BA8012EF4E600EC374069F90079C
:10533900DDF0E49E9007DCF0125797125564900057
:1053490001ED120F531257361259AFEF7807C333D5
:10535900CE33CED8F92402FFEE347C1254DF120684
:10536900271255659000037404120F530254121248
:105379005565E4120F41125565125924D3947C40A6
:10538900087406120F41025412E41257BA125565F5
:10539900900005120F141256AF9007DCE0FCA3E051
:1053A900FDD39FEC9E501E74042DF582E43CF583D9
:1053B900120F14FF74DD2DF58274023CF583EFF0B2
:1053C90012561080C89007D81254F3FF125924FDC1
:1053D900EF75F080A42400FFE5F0347CFE7C00EF3B
:1053E9002DFFEC3EFEEEC0E0125565900005120F50
:1053F900142402FEEC33900802F0A3CEF07B017A6C
:0C5409000279DDD0E0FE12062712556586
:015415002274
:108FB000900884EFF07F011205539008841257AE99
:0B8FC000347CFE120564E4FF02055340
:108FCB00900885EFF07F011205539008851257AE7C
:0B8FDB00347AFE120564E4FF02055327
:058B5300900843EFF063
:108B5800E075F004900846125AA2900844F0A3F079
:108B68009008441256E1EC940150231259AC900835
:108B7800431257AE347ACF2DCF3C1254DF1206275A
:0E8B88009008461256139008441259DB80D212
:018B960022BC
:058B0B00900848EFF0A6
:108B1000E075F00290084B125AA2900849F0A3F0B9
:108B20009008491256E1EC940150271259AC900874
:108B3000481257AE347CCF2DCF3C1254DF1206279B
:108B400090084B125613900849E475F080120FDC20
:028B500080CED5
:018B52002200
:10846C0012572F7F05124D63120EFB6003028521FC
:10847C0012572F7F06124D63120EFB6003028521EB
:10848C001254F61313543FFD12585E1256591257DC
:10849C0036FCEF6C70089008867404F08036ED7F23
:1084AC0000FEEF1258896C70089008867444F080B6
:1084BC00231254F61313543F7F00FE1259731256B5
:1084CC0059125736FEEF6E90088670057484F08052
:1084DC000374C4F0E4FF740D2FF582E43401F583CA
:1084EC00E012561CEEF00FEFB40AEB1254F6131315
:1084FC00543F1257AF347AFE900886E07C002FFF71
:10850C00EC3EFE7B017A0279DD900802E4F0A37464
:05851C000AF012062721
:018521002237
:1082A60012587550030283A712572F7F05124D638C
:1082B60090084F12582060030283A712572F7F079A
:1082C600124D6390084F125820640470030283A76E
:1082D60090084E7405F090084F121216125924FF9A
:1082E60090084EE0FEC39F40030283A71254F61285
:1082F600573CE5822E1256A0F460DBE490084DF060
:1083060090084F1254F3FF12573CC083C082900866
:108316004EE0FED082D08312569EFD90084DE0FCC2
:10832600C39D505875F080EF907C0112120AECFD47
:10833600EE2DFFE43312565190084F1254F375F0A8
:1083460080907BFF12120AC083C08290084EE0D054
:1083560082D08312569E75F003A424D7F582E434A6
:1083660060F58312122890084DE0F582758300EFC0
:10837600120F5390084DE004F002830690084F1246
:1083860054F312573CC083C08290084EE0FFD0825F
:10839600D08312569EFEEF2E240290084EF00282E3
:0183A600DCFA
:0183A70022B3
:0676D2009007AA12121F2E
:1076D800E49007B1F09004CFE064036003027854AB
:1076E80030080302784C30100302784C9007AD1232
:1076F8001216120EFB9007B3F01254F614FFB4FFE3
:10770800069007B3E014F0D237E49007B2F0900780
:10771800B2E0FE12541F12547BE493FD9007B3E0CD
:10772800FCED6C7011EE12541F12547B7401936FB0
:107738007004C2378010125A44E0FD900518E070BA
:1077480003A3E06D70C83037030278449007B21283
:10775800541D12547B740593FD30E46275F003EFF9
:10776800905F53125558120EFB30E0499007B0E075
:10777800D3940050030278249007AD1254F31256A4
:10778800AA12583F502C741B125A2D12558E12549F
:10779800F61258E81259B6500D1256F7FC125A381C
:1077A800EC125A4380EEEF2407900500F0D208024D
:1077B800785A0278249007B17416F002785AED309E
:1077C800E5729007B2E075F003905F5312555812B6
:1077D8000EFB30E157200C4C9007B0E0D3940040EA
:1077E8003B9007AD1254F31256AA12583F502D740D
:1077F8001D125A2D12558E1254F61258E81259B607
:10780800500D1256F7FD125A38ED125A4380EEEF1A
:107818002407900500F0D20CD20880369007B17486
:107828001BF0802E9007B1740CF080269007B1747D
:1078380017F0801E9007B1740BF080169007B17492
:1078480008F0800E9007B1740AF080069007B174B2
:0778580015F09007B1E0FFFD
:01785F002206
:0990AF00C2249007761212162269
:0690C8009004F3E0FF221A
:108DFE00E4FF9004CFE0B40320202616900502E095
:108E0E00B41C0FD226E49004FEF0900502741DF0FF
:0B8E1E008009900502E0FF80027F1534
:018E29002226
:108EC200900502E0FEB41E1490055BE0D3941450AA
:0F8ED2000BE004F0C226900502741CF0CFEECF27
:018EE100226E
:108B97009002777406F0740112563374FFF0125680
:108BA700337428F0741712558BFF9070D2E493FE3C
:108BB700EFC39E500CEFA393FE125A0AEEF00F80FC
:0F8BC700E912549D7D1B1234BD9004FE7401F021
:018BD600227C
:108FE600125945B41F113026047F23800DD22690D6
:0A8FF60004FE740BF08003CFEECFF1
:01900000224D
:10900100125945B41F113026047F23800DD22690BA
:0A90110004FE740CF08003CFEECFD4
:01901B002232
:1089C9009004E7E0FFC3940C4006EFD394114005EF
:1089D900EF6406703C9004FEE0640B70131255833B
:1089E9001258F99005D17401F090027AF0E48017D9
:1089F9009004FEE0640C70191255831258F9E49042
:108A090005D1F090027AF012549B7D091234BDC24F
:028A1900262213
:108E2A00125945641F701F900573E07008A3E07023
:108E3A00047F2080143026047F23800DD2269004DC
:098E4A00FE740DF08003CFEECFA1
:018E530022FC
:108E5400125945641F701F900573E07008A3E070F9
:108E6400047F2080143026047F23800DD2269004B2
:098E7400FE740EF08003CFEECF76
:018E7D0022D2
:108A1B009004E7E0FFC3940C4006EFD3941140059C
:108A2B00EF6406703C9004FEE0640D7013125583E6
:108A3B0012590A9005787401F090027AF0E48017CD
:108A4B009004FEE0640E701912558312590AE490DB
:108A5B000578F090027AF012549B7D091234BDC256
:028A6B002622C1
:0990B800C2179007821212162261
:0690CE00900503E0FF2203
:0386E300CAEFCA11
:1086E600E4FE9004CFE06403707A900502E0FD6436
:1086F6001F706C9005EBE0FC7008A3E070047E210F
:108706008064201556907127E493FBEAD39B50476B
:108716009004897412F0EA240390048512558E9011
:1087260005ECE090048AF0A3ECF0E4FFEFC39A5066
:108736001B74EE2FF582E43405F583E0FC748C2F70
:10874600F582E43404F583ECF00F80E0EA24079028
:1087560004FFF0D215800F7E1B800B7E228007CE91
:09876600EDCE80027E15CFEECFAE
:01876F0022E7
:108F1F00EF12563C1256D174019330E20D75F003E7
:0E8F2F00EF1255558D821256FFFDCFEDCF2269
:1087FC00080C1014181C2024282C30383C404448F9
:10880C004C5054585C6064686C7074787C808488BC
:10881C008C9094989C0434A0FF3769FF3879FF380A
:10882C00E5FF38E8FF3C7CFF3C7DFF3CC3FF3D622D
:10883C00FF3D63FF3D96FF3D97FF3E0EFF3E2EFF33
:10884C003E57FF3E58FF3E59FF3E5AFF3E5BFF3EF0
:10885C005CFF3E5DFF3E5EFF3E5F000000000000DF
:10886C0000010418031802180F1800000000000083
:02887C000000FA
:1044E100900822121216900826E0FFF582758300CB
:1044F100120F14FE74732FF582E43402F58322ED5A
:1045010025E0FFEC33FE74B12FF582745E3EF58336
:10451100E493FE740193F5828E8322900863E0FF99
:10452100241DF582E43404F583E0FE74852FF582C1
:10453100E43420F583EEF0900863E004F0E0223EDD
:10454100F583EDF09007E8E475F001020FDC749754
:104551002FF582E43402F583E0FEE42FF582E434A2
:1045610021F58322900295E090204EF0900296E092
:10457100240490204DF074869020A5F090006222D2
:104581009004DDE033333354F8FE9004E9E0C45481
:10459100F04EFE9004DEE025E025E02290053BE0B0
:1045A100FE90053AE07C002400FFEC3E900767F0A6
:1045B100A3EFF0900767E0FEA3E0FF7C0B7D721292
:1045C1001260E47B9B7A3BF9F81210C290076F12DC
:1045D10011CDA228B3E4FCFDFE33FF90076F121149
:1045E100C1121037900767CDEFCDCCEECCE0FEA322
:1045F100E0229004DDE033333354F8FF9004E9E026
:10460100C454F04FFF9004DEE0FE25E025E04F4466
:1046110002900295F0900825E0900296F090204DCE
:10462100F0900295E090204EF0223CF583E493FE59
:1046310074782FF582E43402F583EEF090088CE073
:1046410004F0E02290088CE0FFFD740FC39DFDE4AF
:104651009400FC22900294E090204DF0740490208C
:10466100A5F0900062227411900273F0E4A3F0743B
:1046710006A3F0E4A3F0A322EF25E024B1F582E440
:10468100345EF583E493FC740193F5828C83227488
:10469100A62FF582E43420F583E4F074AA2FF58285
:1046A100E43420F58322120F147E00FF900855EEAA
:1046B100F0A3EFF022FF9007C7E0FE9007CAE0FCED
:1046C100A3E02EF582E43CF583EFF09007C7E00408
:1046D100F02290053BE090053AFEE07C002400FFCB
:1046E100EC3E229007E8E0FEA3E0FF229004CEE03A
:1046F100C39401224EFE900293E054034E9004D2E3
:10470100F090204EF09004E7E0FEC3940C2274C8B0
:104711002FF582E43406F583E0FE74D82FF582E4A8
:104721003406F583229020A5E054C09004E8F022DD
:10473100C227C21AE49004CFF0902062F090005694
:10474100F0229004DDE033333354F8FF9004E9E0C4
:10475100C454F04FFF9004DEE0FE25E025E04F4415
:1047610003900295F090082B22900273740CF0E4F0
:10477100A3F0A37405F0E4A3F0A37412F090050173
:10478100E004F0E0900278F0A37408F0E4A3F022D2
:10479100900863E0FF90706D93FE741D2FF582E425
:1047A1003404F58322E49007E8F0A3F0229004DDBD
:1047B100E0FFA3E0FD2274269020A5F09000622284
:1047C100900294E0240490204DF022F07B017A02C3
:1047D10079732274732DF58274023CF583E0FE2215
:1047E1001211B5EF2401FFE43EFEE43DFDE43CFC83
:1047F10022900294E0FEEFC39E223EF583E493FDF6
:10480100224E44019004D2F090204EF090204DE4CD
:10481100221212168F82758300020F14902000E07D
:10482100540322131313541F2440F582E43405F575
:104831008322C220E49004E9F09004DCF022FE74AB
:10484100C82FF582E43406F583EEF00FEF22E0FC89
:10485100A3E0FDEC90205EF0A3EDF022900863E070
:10486100FFFDC322E0FFFDC374FF9DFD74029400B0
:104871008D82F5832290085FFDE02FF582E43EF5FD
:1048810083EDF022FFE0FCA3E0FD120F87EF2BFF89
:10489100EE3A900508F0A3EFF022900768E02FFFB1
:1048A100900767E03EFE02126074069020A5F0902A
:1048B100006222741290201AF090001AF022E58210
:1048C1002FF582E5833EF583E493FF905F4D75F00C
:1048D10003229007C7E0FF2434F582E43405F58311
:1048E100E0FEEFFDC322E0FE75F003EF905F4D1295
:1048F100120A121228EE020F4190050BE02401FF6B
:1049010090050AE03400FE900516E06E227406F070
:104911009020007408F02290704CE493FF9004F80A
:10492100E05F227B017A0279CD22900852021216B1
:10493100FE740D2FF582E43401F58322902069F095
:1049410090005DF0229004E6E0640322EF2408FD6C
:10495100E433FC1212168D828C83120F14FE229006
:104961002061F0900055F022EFF09005220211B580
:10497100EFF09005260211B5F583EEF0900863E0A3
:1049810022902062F0900056229007C7E0FF75F058
:1049910006A422FEE02400FFEC3E2224FFFFEE34B9
:1049A100FFFEEF2DFFEE3C22E0FE74972FF582E42F
:1049B1003402F583EEF00F22900825E0FFA3E0C357
:1049C1009F22900863E0FF247322900294E09020DC
:1049D1004DF0E4FF227B01A312121FE422B3E4FC99
:1049E100FDFE33FF1211C102103790050AE0FEA34C
:1049F100E0FF22900113E0FFD3941022C3EF9DFF4B
:104A0100EE9CC313FEEF13FF22E075F020900133FB
:104A110012120AE582229020A5E054C02290086477
:104A210012121F020EFB3CF583E493FE22F0E49088
:104A3100088CF022E490051CF0A3F02275F003A489
:104A41002583F583021228902049F0900045F090CB
:104A510020352225E0241FF582E43401F583222547
:104A6100E02420F582E43401F5832290050CF0A3C3
:104A7100F0A3F022C21F900514F0A3F0229004E7E6
:104A8100E0FE640B2290050BE02FFF90050AE03E4B
:104A910022A3121216E92403F9E43AFA22742A2F06
:104AA100F582E43405F58322E47B9B7A3BF9F80235
:104AB10010C2741F2FF582E43407F583229004CFCE
:104AC100E0640122E0FF9007C7E0FEC39F2290202F
:104AD100207414F0229020207494F022900766E054
:104AE10004F022EEF0900826E0FF247322900828BB
:104AF10012121690082C22EEF090082CE0FF24737D
:014B01002291
:101B98007E5F7F4D7C5E7DB11249FD900518EEF0A9
:101BA800A3EFF07E607FD77C607DD31249FDA3EE62
:101BB800F0A3EFF0E49006AFF0900892F0A228921C
:101BC8003A1215AD1228121228F4C21AC227E4904C
:101BD80004CFF0A37402F0A3F0C219124A3590049E
:101BE800FCF0900504F0A3F0D20B121F2F1242ACA8
:101BF8001249247F04124D63120EFBB401101249DE
:101C0800247F02124D631249247F03124D6390070B
:101C1800797407F0E4A3F0A3F0A37430F0A3742759
:101C2800F07410124672F0A3F0FDFC74AC2DF5822E
:101C3800745A3CF583E493FF746F2DF58274003C6D
:101C4800F583EFF074CC2DF582745A3CF583E49358
:101C5800FF748F2DF58274003CF583EFF00DBD0005
:101C6800010CED64214C70C3E49004FDF0FBE4FC2E
:101C7800FD12450074029364286003021D2B12456F
:101C8800007403936003021D2B124500740593FF33
:101C9800EB25E0246EF582E43488F583E493FEEFC7
:101CA8006E6003021D2B124500740693FFEB25E0BE
:101CB800246FF582E43488F583E493FEEF6E706355
:101CC8009004FDE0FF7401C8EBC8088002C333D854
:101CD800FC4F9004FDF0124500E493F9124500749E
:101CE8000193FF2402F582E433F583D3E58294FF60
:101CF800E58364809480400BCEE9CE09C9EEC90F14
:101D08000F80020F0FEB25E02475F582E43404F50B
:101D180083E9F0EB25E02476F582E43404F583EFDB
:101D2800F080140DBD00010C900518E06C7003A341
:101D3800E06D6003021C790BEB64046003021C76FF
:081D48001242AC7F800215611C
:031D5000900852A6
:101D5300124A211246AA121DC2EF706212492B9039
:101D630000011246A7121DD9EF705312492B9000A0
:101D730002120FF2AEF01246AC121DF4EF703F12D6
:101D8300492B900004120FF2FFAEF01246AD121E63
:101D93001DEF702A12492B9000061246A7121E60EF
:101DA300EF701B12492B9000071246A7121E77EF04
:0E1DB300700C12492B9000081246A7121E8ECB
:011DC10022FF
:101DC200E4FEEF6005D3940840047E01800590078D
:061DD20079EFF0CFEECF27
:011DD80022E8
:101DD900E4FEEF600D64026009EF640660047E02B0
:0A1DE900800590077AEFF0CFEECFEF
:011DF30022CD
:101DF400E4FDD3EF945FEE943E40047D038016EF40
:101E04007802C333CE33CED8F92480FFE43E900762
:081E14007BF0A3EFF0CFEDCF4E
:011E1C0022A3
:081E1D00900870EEF0A3EFF055
:101E2500E4A3F0EF4E6017900870E0FEA3E0FFE436
:101E3500FCFD7B607AEAF9F8C3121154500890084A
:101E4500727404F0800F900870E0FFA3E090077DA6
:0A1E5500CFF0A3EFF0900872E0FF59
:011E5F002260
:101E6000E4FEEF64016007EF60047E0580059007E3
:061E70007FEFF0CFEECF82
:011E76002249
:101E7700E4FEEF64016007EF60047E0680059007CB
:061E870080EFF0CFEECF6A
:011E8D002232
:051E8E0090087DEFF05B
:101E9300E4A3F0EF6401600890087DE060028059DC
:101EA3009004CFE0704290087DE06401702E121F11
:101EB3002F90087DE0900781F0E4900506F0A3F0F1
:101EC3009004CF04F0D21AE412496090077B1248C1
:101ED3004F74C1124982F043E808804A9006AFE08C
:101EE300B4010343E80880389004CFE0FF64017035
:101EF3002390087DE0FEB40103A38027900781EEC1
:101F0300F0E49004CFF0C21A902061F090005512D3
:101F130047398012EF640260079004CFE0B40306F0
:0B1F230090087E7407F090087EE0FF3D
:011F2E002290
:101F2F00900519E024FFFE900518E034FF9007E8B4
:101F3F00F0A3CEF01246E44E700302203BEF25E0F3
:101F4F00FFEE33FE74372FF58274603E12468374B2
:101F5F0001939007EEF05403FDBD01101245077475
:101F6F0004939007ECF0A37405F080199007E9E053
:101F7F0025E0FF9007E8E01245057412939007ECF7
:101F8F00F0A37413F0E49007EAF0A3F09007ECE0ED
:101F9F00FF9007EAE0FCA3E0FDC39FEC94005040E4
:101FAF009007E8E0FAA3E0FB25E0FFEA124505C041
:101FBF0083C0829007EDE0FF7E00ED2FFFEE3CFE29
:101FCF00D082D0831248BFEB12120AEA124A3D8D1B
:101FDF00828C83EF120F539007EA124548021F9B22
:101FEF009007EEE030E2389007E8E0FCA3E0FD1246
:101FFF004501C083C0829007EDE024FFFFE434FF6A
:10200F00FED082D0831248BFED12120AEC124A3D65
:10201F009007EAE0FCA3E0F5828C83EF120F539058
:10202F0007E874FFF5F0120FDC021F431247A612E8
:10203F0046E424CCF58274701247FB745C2FF58252
:10204F0074051245409007E8E07004A3E064177030
:10205F00DE1247A61246E424E3F58274701247FBA2
:10206F00747A2FF58274051245409007E8E07004EA
:10207F00A3E0641870DE1247A61246E424FBF58233
:10208F0074701247FB74AA2FF582740512454090A5
:10209F0007E8E07004A3E0640B70DE1247A6124657
:1020AF00E42406F58274711247FB74CC2FF5827409
:1020BF00051245409007E8E07004A3E0640770DE66
:1020CF001247A61246E4240DF58274711247FB7471
:1020DF00D32FF58274051245409007E8E07004A3F2
:1020EF00E0641870DE1247A61246E42425F58274C8
:1020FF00711247FB74EB2FF5827405124540900760
:10210F00E8E07004A3E0641770DE1247A61246E4FD
:10211F00243CF58274711247FB74922FF58274057B
:10212F001245409007E8E07004A3E0641870DE12D7
:10213F0047A61246E42454F58274711247FB74B516
:10214F002FF58274051245409007E8E07004A3E074
:10215F00641770DE1247A61246E4246BF582747181
:10216F001247FB74732FF58274051245409007E8F0
:09217F00E07004A3E0640770DEC7
:012188002234
:1021890074F112498274D1F0124ABE702F9005067B
:10219900124549900780E0B4012290077DE0FEA333
:1021A900E0FFD3900507E09F900506E09E400D7F74
:1021B900A0121561124735C21A1219D3301A051225
:1021C90023288006302703122C8E90051C124548BF
:1021D900C390051DE0948690051CE09400400E9084
:1021E90004CFE064026006121884124A357F801217
:1021F90015619004EFE06013124ABE600E302303AC
:102209003022081235ACE49004EFF09004E0E0606D
:1022190020124ABE601B3023033022159004E0E0EF
:1022290014F01235D29004F0E004F0E0B40A02E4AC
:10223900F030264E201E4B302303302245E47F0523
:10224900FEFDFC90051E1211C1C312116A403390A4
:1022590004E0E0702D9004FEE07005128B97802257
:102269009004FEE0FF640B6004EFB40C051289C909
:1022790080109004FEE0FF640D6004EFB40E0312B9
:102289008A1B9004CFE06403703B3023033022356E
:10229900201E32301D071243AEC21D802830151290
:1022A9007B017A0479859004FFE0FD1234BDC215E3
:1022B90080133008107B017A0479A5900500E0FDB0
:1022C9001234BDC2089004CFE0FF64036005EF64D7
:1022D9000270331240B2902062E030E541122F546F
:1022E900122B6690050A124548122BD290206130B4
:1022F900120B7412F0900055F0D216801E740FF074
:10230900900055F080159004CFE07012902062E0A3
:0F23190030E50B7420F0E4900056F07591082227
:102328001228121228AD902068E4F090005CF0901A
:10233800204C74A2F0900048F09004CDE0FF1216F3
:10234800989004D0E0FF1229089004D1E0FF1229E8
:102358006A12148812159D90001CE0448090201C7D
:10236800F090001CF07FA01215611217859007C627
:102378007427F09007C6E0FFD39424500302280680
:1023880074279FFF74017E00C8EFC8088005C33317
:10239800CE33CED8F9FF900779E0FDEF5D700302E8
:1023A80027FD9007C6E0FFC3744C9F90203AF09039
:1023B800003AF0C3744C9FFFE49400FE74FC2FF5C0
:1023C8008274873EF583E493902013F01229CC9011
:1023D800077AE0FFE4FBFD1229D290006F1228076C
:1023E8009007C7124865E493FE12455BEEF012466B
:1023F800CCE0B406EBE49007C7F090006F124AC532
:10240800501974702EF582E43400F583E0FF7406E9
:102418002E12455DEFF01246CC80DF90201A740B27
:10242800F07437124A487465F0900035F0124ACFBC
:102438007FD0121561902001E020E7F912481D6451
:102448000360F274191248B67FC01215611217F4AE
:10245800902001E020E50712481D640160F2E49035
:1024680007C7F01246CCE0B407F9124AD690201AF2
:10247800740BF090001AF090008F12280790008FCC
:10248800124AC5501974902EF582E43400F583E0A1
:10249800FF74062E12455DEFF01246CC80DF9020C7
:1024A80001E020E20C1246ED500712481D6401605D
:1024B800ED2019030225B61246ED40030225B69019
:1024C8002001E030E2057F0312186990204EE09069
:1024D80004D2F0E0FF540FFEA3F0EF5440FFC41302
:1024E800135403A3F0EE640560030225B69007C7F2
:1024F800F09007C7E0FF248012455DE0FE124A9E77
:10250800EEF01246CCE0B406E8D238E49007C7F003
:1025180012498A24AFF582E43400F583E0FE900581
:102528002FE06E7073EF75F006A424B0F582E434E2
:1025380000F583E0FF90052EE06F705C12498A2455
:10254800B1F582E43400F583E0FE90052DE06E706D
:1025580047EF75F006A424B2F582E43400F583E071
:10256800FF90052CE06F703012498A24B3F582E49D
:102578003400F583E0FE90052BE06E701BEF75F0DC
:1025880006A424B4F582E43400F583E0FF90052A1C
:10259800E06F7004C238800B1246CCE0640660031A
:1025A8000225183038081229E51246ED40FB902024
:1025B80001E030E2051246ED40F41246ED400B1200
:1025C80017F97FA01215610227FD1229EB9004D399
:1025D800E06403703F9004D5E0703990077AE064B6
:1025E8000260319004D2E054809004D6F060057403
:1025F80080F08005E49004D6F09004D6E0FBE4FD7A
:102608007F041229D2122A64902001E020E70302F5
:1026180027F280F49004D3E0640560030227EA906F
:1026280004D5E060030227EA90077AE064067003A5
:102638000227EA1248B47433124A487467F09000CB
:1026480035F01229E5122A649004CF7402F0C21AF8
:10265800D2279007CA7405F0A37430F07A0079CDB8
:102668001249D69007C7F09007C7E0FFC3941650E9
:102678001D9007CC121216E9240CF9E43AFA7E00F0
:10268800E92FF9EE3AFA120EFB1246B680D9122B50
:102698000E900539E0FF7006900538E0600AEF708B
:1026A8000D900538E0B40106902061E48005902083
:1026B80061740FF0900055F0122B66122B719089FF
:1026C8001EE49390201CF090001CF0E49007C7F0E3
:1026D8009007C7E0FF9007CAE0FCA3E02FF582E46B
:1026E8003CF583E0FE744F12469EEEF01246CCE0B5
:1026F800B404DD122B7CE49007C7F01248D3743D74
:102708009DFD742012486FEEF01248D374409DFD71
:10271800742012486FEEF01246CCE0B403DD124686
:10272800D39007C8F0A3EFF090053DE090053C1268
:102738004994CBEFCBFA90053FE090053E124994BF
:10274800FEEF7803C333CE33CED8F99007C81248CA
:1027580085900545E0FE541FA3F0EE54E0C41354E1
:1027680007A3F0E49007C7F09007C7E0FFFD7405E2
:1027780012464D74CD2DF58274003CF583E0FE12AF
:102788004A9EEEF09007C7E0FF24CDF582E43400BE
:10279800F583E0124931EE1246CBE0B406CA900444
:1027A800D2E09004D7F0E490050AF0A3F09004D8A2
:1027B800F0124A6CA3F0C2259007CA7401F0A37402
:1027C80017F07A05793A1249D69007C7F09007C7EB
:1027D800E0FFC3940650279007CC1248121246B661
:1027E80080EB1229E51246ED40FB7FA0121561121D
:0E27F80017F91217859007C6E014F002237B34
:0C28060022E0FF1229DDE49007C7F02259
:10281200E49004DFF0A3F090051E1211D90000002D
:1028220000E49004E2F09004E4F0C21CC216C2126A
:10283200124836900510F0A3F0C20FC222C20EC297
:1028420023C218A3F0A3F0C221C21FA3F0A3F090E9
:1028520004EAF0A304F0C213E4900516F0A3F0C258
:1028620011C22A9004EDF0A37418F0E4A3F0A3F0CF
:10287200C2299004F27417F0C20CC226E49004FE3E
:10288200F0C215C208C21D900501F0A3741CF0C26B
:1028920017C227C2249004F17413F0124A35C220E1
:0B28A200900F2BF090055BF0C21E228F
:1028AD00E49004E6F0A3F0A3F0C20DC2109005224F
:1028BD001211D9000000009005261211D900000058
:1028CD0000E49004F4F09004FBF0C2149020A5F005
:1028DD007F0A90010DE4F0A3DFFCE4FF124690E4C3
:0628ED00F00FEFB404F649
:0128F30022C2
:1028F400E49004FAF09004F9F07F109003EDE4F012
:03290400A3DFFC52
:0129070022AD
:10290800E4900887F09004FDE030E14AEFC39403B7
:1029180040089008877409F080429004D0EFF0E4F2
:10292800FF124679E493FE900477E0FDEE6D701097
:10293800124679740193FE900478E0FDEE6D600E06
:102948000FEFFD900518E07003A3E06D70D39004BD
:10295800D01248E780069008877408F0900887E04E
:01296800FF6F
:01296900224B
:10296A00E4900888F09004FDE030E24AEFC3940353
:10297A0040089008887409F080429004D1EFF0E48E
:10298A00FF124679E493FE900479E0FDEE6D701033
:10299A00124679740193FE90047AE0FDEE6D600EA2
:1029AA000FEFFD900518E07003A3E06D70D390045B
:1029BA00D11248E780069008887408F0900888E0E9
:0129CA00FF0D
:0129CB0022E9
:0629CC0074B312493D2224
:0B29D200CEEDCEEB4E4F90204EF022D9
:0829DD00EF240690204DF022CA
:0629E500749312493D222B
:1029EB0090204EE09004D2F090204DE09004D9F06E
:1029FB00E0FD543FA3F0902000E05420C413540793
:102A0B009004D5F09004CFE0B401149004D2E0FE12
:102A1B00540FA3F0EE5440C413135403A3F02290AD
:102A2B00011EEDF09004D2E090011DF054039004D0
:102A3B00DBF09004D2E0FF5410C4540F9004DCF090
:102A4B00EF5408131313541FA3F09004D2E0540453
:092A5B001313543F9004DEF02235
:102A64009004D5E06003022B0D9004CFE0B401265E
:102A7400E4FB9004DAE0FFEBC39F4003022B0D74E8
:102A8400802B12455DE0FF74CD2BF582E43400F514
:102A940083EFF00B80DC9004DAE06061200A53904D
:102AA400011DE0FF9004DFE0FE124A54EFF09001B4
:102AB4001EE0FFEE124A60EFF0E4FB9004DAE0FF60
:102AC400EBC39F501B74802B12455DE0FF9004DF25
:102AD400124A0A2BF582E43583F583EFF00B80DB91
:102AE4009004E0E004F09004DFE004F0E0B40A02B3
:102AF400E4F090051E1211D9000000002290051E7A
:092B04001247E190051E1211CDEB
:012B0D0022A5
:102B0E00122C81900539E09005381246DAFE9008B5
:102B1E001CF0A3EFF02402FFE43EFE7C0B7D72124C
:102B2E001260124AA990081E1211CDA22890081EFA
:102B3E001249DE90081C1245E87803C333CE33CE1B
:102B4E00D8F92407FFE43E1249A290081CF0A3EF27
:072B5E00F090081C12484F23
:012B6500224D
:0B2B660090206274D1F0900056F02225
:0B2B71009020697433F090005DF022AA
:102B7C00E4FEFDFCEC131313541F2430F582E434F3
:102B8C0005F583E0FBEC5407FAEBC8EAC8088002B1
:102B9C00C313D8FC20E0030E80010D0CECB420D440
:102BAC00EED39D400774109D25E08007ED24F025A1
:102BBC00E04480902068F090005CF090204C7422EF
:052BCC00F0900048F04C
:012BD10022E1
:102BD200E4FB900546E0FF9004E2E02FFFE433FEC1
:102BE2007C007D25120F87CFEDCF9004E1EFF0A39B
:102BF200F0124824E0FF9004E1E0FE5407FDEFC824
:102C0200EDC8088002C313D8FC20E0589004E4E029
:102C1200FFEE8FF0849004E3E5F0F0E4FFEBFD902B
:102C220004E3E0F92DFDE433FCEFD39DEC6480F87E
:102C3200748098501CEF124824E0FEEF5407FDEE1A
:102C4200C8EDC8088002C313D8FC20E0010B0F8036
:102C5200CCE92B9004E5F0E0FF90203AF090003AA6
:102C6200EFF080129004E1E0FF90203AF09004E54A
:0E2C7200E090003AF0EF9087FC93902013F072
:012C80002231
:0D2C81009020627499F09000567491F0223A
:102C8E00C2397FA0121561122BD2122B7112178529
:102C9E007FC0121561902001E020E70712481D64E5
:102CAE000160F21217F4301C2A12481DFFBF0105F5
:102CBE001246ED40F41246ED50251229EB1247AEA6
:102CCE00122F26200919122F497FA0121561C21C3E
:102CDE00022F1812481DFFBF01051246ED40F412D7
:102CEE0046ED4031A3E0B402089004D8E004F08031
:102CFE000690050C1245481217F97FA012156112A5
:102D0E002F1C124548201203022E407412124960E5
:102D1E00D216022E40C2169004CF7403F0E4900532
:102D2E000CF0A3F01229EB9004D5E090050E70057F
:102D3E00F0A3F08003124548124946705D9004DA04
:102D4E00E060579004E7E0FFD39411400AEF64145B
:102D5E006005EF640670431247AE122F2620092736
:102D6E0074461245797406F0902001E05402FF700B
:102D7E00F7124726E0B4400F7F05121869122F494B
:102D8E007FA0121561D2391247AE1230FD123146B4
:102D9E002009107F0112333580091247AE1230FD23
:102DAE001231469004DCE0640160089004E9E064AE
:102DBE000170399004D5E070339004E0E0D39408AC
:102DCE00502A124ACFD22090206274C1F0E49005AE
:102DDE0010F0A3F01233709004DCE06401600790F1
:102DEE0004E9E0B401069004D5E060E8902001E02B
:102DFE0020E7F9124AD6900020F01248B4902061D4
:102E0E00740FF0900055F0121803122F1C12454843
:102E1E00200F09302206200903008002C20F200E67
:102E2E0003122A64C20E3025063022031234B21267
:102E3E0017F9C2209004E7E0FFC3940C4006EFD3CD
:102E4E0094114004EFB406079020A574068019EF84
:102E5E00640B6004EFB414079020A574048009EF8E
:102E6E00B4120C9020A57402F0900062F080010064
:102E7E009004D8E0B40604D239D218900508E0FECA
:102E8E00A3E0FF90050CE06E7003A3E06F60279047
:102E9E00050EE0FCA3E0FD6F7002EC6E601890056D
:102EAE000DE02DFF90050CE03CFE900508E06E70E5
:102EBE0003A3E06F700AD239E4124A6CA3F0D21861
:102ECE00301C191249EB900512E06E7003A3E06FEF
:102EDE00700AD239C21C900512F0A3F030210720DF
:102EEE000904D239C221301F19900514E0FEA3E067
:102EFE00FF90050AE06E7003A3E06F7005D23912E1
:0D2F0E004A753039087FA012156112473155
:0B2F1B0022122F54122B6690050A2290
:102F26009004D5E0701A9004EAE06F7004C20A803B
:102F360002D20A9004EBE06D7003D20922C2092284
:032F4600D209228B
:0B2F49009020697413F090005DF022EE
:102F5400122C812013030230441248FA7003A3E0B8
:102F64006F6003023044900550E0FE90054F124616
:102F7400DB90076BF0A3EFF090054CE0FE90054B5F
:102F840012499590076DF0A3EFF090054EE0FE9086
:102F9400054D124995CBEFCBFA90076BE0FEA3E009
:102FA4007803C333CE33CED8F990076D1248851217
:102FB40046D3900767F0A3EFF07E057F377B017A55
:102FC40005794890077312121FE4900766F0900782
:102FD40066E0FDC3940750169007731212168D8293
:102FE400124817900766124879124ADD80E090056E
:102FF40039E0FE9005381246DBFE900769F0A3EF36
:10300400F07C0B7D7212489B124AA990076F121133
:10301400CD900769E0FEA3E0FF7C007D0812489B89
:10302400EF24FFFFEE34FFFEEEC0E0EFC0E0A22885
:1030340090076F1249DED0E02FFFD0E03E023078D7
:103044003013221249EB900516E06E7003A3E06F73
:103054007013C21312459D7803C333CE33CED8F90F
:1030640012499C800F12459D7803C333CE33CED8CA
:10307400F912499C900767F0A3EFF0C3900768E04A
:103084009480900767E094004004D2128002C21238
:1030940090076712484F30115F1248FA7003A3E09B
:1030A4006F7055C211900766F0900766E0FF2453D5
:1030B400F582E43405F583E0FE74402F12482BEECC
:1030C400F0124ADDE0B405E1E4FF900766F0E4FEA7
:1030D400900766E0124829E0FDC8EEC8088002C3E4
:1030E40013D8FC30E0010F0EEEB408E4124ADDE020
:0830F400B405DB9004E4EFF0E9
:0130FC0022B1
:1030FD009004D5E070309004EAE0FE6F7009C20ACA
:10310D00EE045401F08007D20A9004EAE0F0900436
:10311D00EBE0FF6D7004D209800EEF0454019004B2
:10312D00EBF0C2098002D2099004EAE09004DEF0CF
:09313D009004EBE09004DDF022A7
:10314600202308124581124802F022300903023278
:1031560032302203023226900295E0FE900293F06E
:10316600900296E0900294F09004DDE033333354FD
:10317600F8FD9004E9E0C454F04DFD1245944DFD70
:10318600EE54034D1246FE4006EED394114004EE73
:10319600B4060E9002961247C49020A5740602311A
:1031A600F0124A7E6005EE6414702D900296124667
:1031B60058F0E4FF900296E0FEEFC39E500B1244D7
:1031C600F5124559EEF00F80EBE4FF1247F2504B33
:1031D6001244F51249A980F39004E7E0B412129064
:1031E60002961247C49020A57402F0900062F08007
:1031F6002A9002961249CE900296E0FEEFC39E50A8
:103206000B1244F5124559EEF00F80EBE4FF12471E
:10321600F250081244F51249A980F3D222C22A229A
:10322600124581124802F0C223C2222220223A20ED
:103236002A371245811248021247054006EED394FA
:10324600114004EEB406030232EBEE640B6004EEAA
:10325600B414089020A5740402331EEEB41208902C
:1032660020A5740202331E0022202264302A611235
:1032760045811246F54006EED394114004EEB4069D
:103286000C1247C1741612465F7406F022124A7E6B
:103296006005EE64147016124655F0E4FF1247F20C
:1032A600400302333412454FEEF00F80F09004E7EE
:1032B600E0B4120C1247C174121247B97402F0221C
:1032C6001249CB1247F2506612454FEEF00F80F3CB
:1032D6001245811246F54006EED394114004EEB431
:1032E600060A1247C19020A57406802C124A7E60F9
:1032F60005EE64147013124655F0E4FF1247F250BF
:103306002D12454FEEF00F80F39004E7E0B4120E55
:103316001247C19020A57402F0900062F022124973
:0E332600CB1247F2500812454FEEF00F80F325
:013334002276
:10333500EF640170359005221247E19005221211C4
:10334500CD12496B781812117B9020AA1249697821
:103355001012117B9020AB124969780812117B90ED
:0B33650020AC1249699020ADEFF0226F
:103370001246D3FE7D05120F75EF7802CEC313CE31
:1033800013D8F99004ECF0200F093022062009032D
:10339000008002C20F121785902001E020E7F9900B
:1033A000201A7419F07FC01215611217F4902001D1
:1033B000E020E50712481D640160F2E4FF0FEFB45E
:1033C00007FB124AD6122A6412481DFFBF010512DC
:1033D00046ED40F4124ACF90201A7412F01246EDD6
:1033E000400E1248331217F97FA0121561D20E2237
:1033F0009005101245481229EB9004D5E09004ED99
:103400007003F08003E004F09004EDE0C3940250F8
:10341000129004ECE0FF900511E09F900510E094FD
:10342000004013124833D20E122F497FA0121561AB
:10343000122B710234AE9004E0E0C39408400312F2
:103440004833124946705E9004DAE060589004E711
:10345000E0FFD39411400AEF64146005EF64067036
:10346000441247AE122F2620092874461248AC7425
:1034700006F0902001E05402FF70F7124726E0B4F6
:1034800040107F05121869122F497FA01215611292
:1034900047311247AE1230FD1231462009107F012C
:1034A00012333580091247AE1230FD123146121721
:0134B000F922
