:04000000FFFF807707
:0CA5E500787FE4F6D8FD75812F02A62CCB
:02FFFE005AA502
:03000B0002030BE2
:03001300020313D2
:03001B0002031BC2
:03002300020323B2
:03002B0002032BA2
:0300330002033392
:03003B0002033B82
:0300430002034372
:03004B0002034B62
:0300530002035352
:03005B0002035B42
:0300630002036332
:03006B0002036B22
:0300730002037312
:10007B0075816075940075A8007B00740051049025
:10008B0020017480F074A0F075372075384E511B29
:10009B006036D537F9E5386005D538F280F090FF3A
:1000AB00FEE493B4FF1E740193B4FF187594029091
:1000BB00FFFEE493B45A0D740193B4A5077B5A75F4
:1000CB009400800651146100010031FA75360375F6
:1000DB00390AD539028041853683758200510D313D
:1000EB00D3E536C39480400E7532028536307535B4
:1000FB0000853633800F75320174802536F53075E7
:10010B003500853633314670C9E536B4FF067400C9
:10011B00510480B4053680B786408841858342857B
:10012B008243740093F5447545007546EE7547118F
:10013B0090FFF87408510D319B80FE7D007E108579
:10014B0030838D8285329431788533838D828535EA
:10015B0094510D319E8533838D8285359431857015
:10016B0009ED2410FDDED874002274FF2278407F45
:10017B0010740093F6A308DFF82278407F10863ABC
:10018B00740093B53A07A308DFF474002274FF22BE
:10019B00FF802374015104E583C394034027E5BA20
:0A01AB0054076002800AE5D85404EE
:1001B500700A800201CF745AC39B70F87F10784093
:1001C500E6B4FF028001F0A308DFF55114227404A0
:1001D5005104E583C394034019E5BA5407600280CE
:1001E5000AE5D85404700A800201CF745AC39B7083
:1001F500F8F051142275EBAA75EB55759B10227515
:10020500EBAA75EB55F59A22E587D2E4F58722E549
:1002150087C2E4F587229020387490F090202B74E3
:1002250024F090202B7425F0513CE020E0EE20E4F2
:0E023500037400227401227CE30000DCFC2232
:0303000002A5E56E
:104975000B0201050302F0FF03190000000000000F
:104985000000000000000000000000000000000022
:104995000E0D09414D4943434F4D5F44656D6F0011
:1049A5000000000000000000000000000000000002
:1049B5000000000128000200180002280305020378
:1049C50000002A00032A000C414D4943434F4D5F27
:1049D50044656D6F0004280305020500012A0005E2
:1049E5002A010200000006280305080700032A0023
:1049F500072A03060000000000000008280305023E
:104A05000900022A00092A020100000A28030502FA
:104A15000B00042A000B2A04085000800000002C1B
:104A250001000C2800020118000D280305220E00C4
:104A3500052A000E2A05040100FFFF000F290202C6
:104A4500000000102800020A1800112803050212B0
:104A550000252A00122A250430303031001329049C
:104A650007190000000100000014280305021500C5
:104A7500292A00152A290D414D4943434F4D20450B
:104A85006C65632E0016290407190000000100005B
:104A95000017280305021800232A00182A230855A1
:104AA500AA55AA55AA55AA0019280305021A0026CF
:104AB5002A001A2A260456302E38001B2904071905
:104AC500000000010000001C280305021D00242A27
:104AD500001D2A24064D4438313037001E290407AD
:104AE50019000000010000001F280305022000270F
:104AF5002A00202A270355303300212904071900ED
:104B050000000100000022280305022300282A00D6
:104B1500232A2804303030300024290407190000E6
:104B2500000100000025280305022600502A002662
:104B35002A500701C000000000000027280002F2EB
:104B4500FD002828030514290010FA0029FA10147D
:104B55000000000000000000000000000000000050
:104B650000000000002A2902020000002B2901088C
:104B75004F54415F44415441002C280305282D0022
:104B850011FA002DFA1108000000000000000000D5
:104B95002E2902020000002F2901074F54415F43CF
:104BA5004D44003028030510310013FA0031FA1383
:104BB5000400000000003229020200000033290130
:104BC50011444154415F4552524F525F5354415431
:104BD500555300342800020F1800352803051236F6
:104BE50000192A00362A190164003729020200003B
:104BF5000038280002F0FF0039280305103A00F1BB
:104C0500FF003AFFF1140000000000000000000062
:104C150000000000000000000000003B2902020027
:104C250000003C280305083D00F2FF003DFFF2149B
:104C3500000000000000000000000000000000006F
:104C450000000000003E280305103F00F3FF003F71
:104C5500FFF3140000000000000000000000000049
:104C65000000000000000000402902020000004191
:104C7500280305084200F4FF0042FFF41400000079
:104C8500000000000000000000000000000000001F
:104C9500000043280305024400F5FF0044FFF51416
:104CA500000102030405060708090A0B0C0D0E0F87
:104CB500101112130001010101010101010102019D
:104CC50001010101010103010101010101010101CD
:104CD50001010101010101010101020103010101BC
:104CE50002010301010100010301010101010301A9
:104CF500010103010201010103010201010149B59D
:104D050049B749BE49C849D949E349EA49F449FF80
:104D15004A094A0F4A194A264A2D4A374A404A47FC
:104D25004A4E4A584A614A6D4A774A894A954A9F86
:104D35004AAC4AB64ABF4ACB4AD54AE04AEC4AF69B
:104D45004AFE4B0A4B144B1D4B294B334B3F4B46ED
:104D55004B504B694B704B7D4B874B944B9B4BA7F3
:104D65004BB14BBA4BC14BD74BDE4BE84BEE4BF53A
:104D75004BFC4C064C1F4C264C304C494C534C6C50
:104D85004C734C7D4C964CA0FF49BAFF49BCFF497A
:104D9500C301081FFF49DEFF49E8FF49EF0107BFCF
:104DA500FF4A04FF4A0EFF4A14FF4A1EFF4A2BFF23
:104DB5004A3201082B010831FF4A4CFF4A53FF4A8A
:104DC5005DFF4A66FF4A72FF4A7CFF4A8EFF4A9A98
:104DD500FF4AA4FF4AB1FF4ABBFF4AC4FF4AD0FFBE
:104DE5004ADAFF4AE5FF4AF1FF4AFBFF4B03FF4B57
:104DF5000FFF4B19FF4B22FF4B2EFF4B38FF4B4448
:104E0500FF4B4B0107A801082FFF4B75FF4B820194
:104E150008150107A6FF4BA0FF4BAC010837010899
:104E25001DFF4BC6FF4BDCFF4BE30107BE0107BC73
:104E3500FF4BFAFF4C010107C5010833FF4C2B015D
:104E450007EDFF4C4E0107D9010835FF4C780108E5
:104E550001FF4C9BFF4CA54CB94CBB4CBD4CBF4C0A
:104E6500BD4CC14CBD4CC34CBD4CC54CBD4CC74CD9
:104E7500BB4CBD4CC94CCB4CBB4CBD4CCD4CCF4CAD
:104E8500BD4CD14CCF4CBD4CD34CBD4CD54CCF4C6F
:104E9500BD4CD74CCF4CBD4CD94CCF4CBD4CDB4C4D
:104EA500CF4CBD4CDD4CBB4CBD4CDF4CE14CE34C19
:104EB500BD4CE54CE74CE94CBD4CEB4CED4CEF4C97
:104EC500BB4CBD4CF14CF34CBB4CBD4CF54CF74CBD
:104ED500BD4CF94CBD4CFB4CFD4CBD4CFF4CBD4D88
:064EE500014BEE0107BCC9
:108D2A004C081F414D4943434F4D5F44656D6F46A3
:108D3A0007BF00000000000044082B0000000042AA
:108D4A00083100005407A8000000000000000000DD
:108D5A00000000000000000000000042082F000090
:108D6A0048081500000000000000004207A60000A5
:108D7A004408370000000042081D00004107BE6495
:108D8A004207BC00005407C50000000000000000B4
:108D9A00000000000000000000000000420833004C
:108DAA00005407ED00000000000000000000000071
:108DBA0000000000000000005407D9000000000075
:108DCA000000000000000000000000000000004257
:108DDA0008350000540801000000000000000000EF
:0B8DEA0000000000000000000000007E
:0BBC050007000600020300011001010F
:08BC5C00E4FF900AB912137C09
:01BC640022BD
:10BAB300E4FF9009F012137C9009ED1213739009BF
:04BAC300F012137CEE
:01BAC700225C
:030313000251C0D4
:0251C0000032BB
:03031B000251C2CA
:0251C2000032B9
:030323000251C4C0
:0251C4000032B7
:03032B000251C6B6
:0251C6000032B5
:03033B000251C8A4
:0251C8000032B3
:030343000251CA9A
:0251CA000032B1
:03034B000251CC90
:0251CC000032AF
:030353000251CE86
:1051CE00C0E0C0F0C083C082C0D0E8C0E0E9C0E05B
:1051DE00EAC0E0EBC0E0ECC0E0EDC0E0EEC0E0EF16
:1051EE00C0E0438701759108902062E030E503121C
:1051FE0071F6902028E030E70C900028E044809073
:10520E002028F0D23FD0E0FFD0E0FED0E0FDD0E08D
:10521E00FCD0E0FBD0E0FAD0E0F9D0E0F8D0D0D06E
:08522E0082D083D0F0D0E03201
:03035B0002523615
:02523600003244
:10543B00A3F09009167407F0E4A3F090091CF0A3F5
:10544B00227BFF9009E212137C9009E57405F07B37
:0E545B000122F583EEF0900926E004F0E02235
:10523800E4900921F0A3F0900927F0A3F0A3F0A3CC
:10524800F0A3F0A3F0A284B340FB12BCEB12ABBEF8
:10525800C2407F3212BC9A12B375900924EFF01243
:10526800202F120987126EBA7F0612980412BCEE1C
:105278007F0112B1CE9009F87401F0120AB29005BC
:105288004FE0706B12BCE59009F8E06018E4F0900C
:105298000918F0A37408F0A37412F074C012543BF8
:1052A80004F0E48013900918E4F0A37480F0A37468
:1052B80005F074DC12543BF090091FF090091E04AD
:1052C800F0FB7A09791612A6FD9009FA7401F0A389
:1052D800F09009F6F0E49009F4F09009F3F09009E1
:1052E800F5F09009F904F0E49009F7F002543090D1
:1052F800054FE0FFB401119009237401F0EF640138
:10530800600302543002542D90054FE0640360039B
:105318000254309009F804F0900923E0601512094E
:10532800A7900924EFF064016004E0B40205E4905A
:105338000923F020370302542612BC65CFE9CF9029
:105348000921EAF0A3EFF012BCAF900920EFF0A317
:10535800E064077004A3E064A870067E077FA88055
:1053680012900921E064087004A3E0641570127EAD
:10537800087F15900920E0FD120A7E120AB2025435
:1053880026900921E064077004A3E064ED7043905F
:105398000833E020E003025426E4900926F090093F
:1053A80026E0FF24EDF582E43407F583E0FE74C5BA
:1053B8002FF582E4340712545DB414E27A4C79066E
:1053C80012544C7A0779C5128000900925EFF00035
:1053D800804C900921E064087004A3E06401703EE9
:1053E800900835E030E037E4900926F0900926E08F
:1053F800FF2401F582E43408F583E0FE74D92FF523
:1054080082E4340712545DB414E27A4C795312548E
:105418004C7A0779D9128000900925EFF0009005A1
:105428004FE0B4030312B6C5203F03025283C23FC4
:035438000252839A
:10ABBE007580FFE4F5D1F5D275D3FF7590FFF5D909
:10ABCE00F5DA75DBFF75A0FFF5A1F5A275A3FF758C
:10ABDE00B0FFF5E1F5E275E3FF781EF608F6781E94
:10ABEE00E6FE08E6FFC3EE9420500E8F828E83E4BD
:10ABFE00F006E61870E80680E543B901E58754EFE4
:10AC0E004401F58775BA079005E1745AF0A374A54F
:01AC1E00F045
:01AC1F002212
:0802F800FFFFFFFFFFFFFFFF06
:0C7FF40000000000F00000000000000091
:1021AD000000000000001000800000805F9B34FBE9
:1021BD000000000000000000000000000000000012
:1021CD0043730503E30B0F86C71041F0AEFD9D6908
:1021DD00E2485A7AD8D97C223057FA42DB598B25FE
:1021ED00DEAFBABE0213243546576879677547309E
:1021FD004AF6D91A28DDB5B7E148AC7E3B918AA6DF
:10220D00D71C4533E50BE58BE88D786175A7E34B5E
:10221D000180A0FBF9820000020002000002000212
:10222D000101010001000000000001010200010098
:10223D00000000280010D0002D121E4B0FA4994E47
:10224D00CEB531F405790000280313000000BD1D43
:10225D00A299E625588CD94201630D12BF9F00004B
:10226D00080000000000000000000029020200002C
:10227D000000280313000000D9D9AAFDBD9B2198A9
:10228D00A849E145F3D8D169000014000000000011
:10229D000000000000000000000000000000000031
:1022AD0000280313000000FB7B7CCE6AB344BEB54F
:1022BD004BD624E9C6EA22000014000000000000FD
:1022CD000000000000000000000000000000000001
:1022DD002902020000223C2253226B2276227D220B
:1022ED009522AC22C422DB01070001071E01074E17
:1022FD0001077001077701078F01073601075901A3
:10230D000717000003930000050200000A270000D4
:10231D000A9500000D93000010FA00001124000032
:10232D001451000016CB000017F2000019E3000055
:10233D001B6300001CB300001D4F00001E52000067
:10234D001EC200001F5B00001FF3000021E900000A
:10235D00224100002312000023320000236C0000F4
:10236D0023DF00002436000025000000254B00006F
:10237D0025BC000026080000264A000026B00000FB
:10238D0026BB0000306500003EE1000050E4000077
:10239D0056CD0000617100006D520000886500008F
:1023AD00A0400000B3620000C6100000CDFE00008A
:1023BD00DB700000F4B90000F76F00040CCE0004D0
:1023CD00155200041E64000426650004489A00049A
:1023DD004BED000452F300045453000469F800045B
:1023ED00D3CF0004DB560004E5360004F13E0004B3
:1023FD00F7E4000800070008669800086D41000822
:10240D007045000874020008E6890008F4AB000866
:10241D00F69C000C1539000C3021000C3E9F000C71
:10242D004DE9000C5101000C74C2000C771A000C20
:10243D00BC9F000CD74600101C0C001040F3001080
:10244D00417F001093E9001094BB00109ADD00103D
:10245D00DDB10014109F0014205E00145A05001405
:10246D008FC6001499E20014BD61001820320018C7
:10247D0034510018659000189EFC0018AF610018CB
:10248D00AF8F0018E7F40018EE690018F1D80018A6
:10249D00F643001C1AC0001C36BB001C5CF2001C6D
:1024AD009148001C9E46001CABA7001CE62B00208B
:1024BD003CAE0020768F002078F000207D74002047
:1024CD009BCD0020A2E40020AB370020C9D0002016
:1024DD00EE2800241EEB0024240E00245BA700240C
:1024ED00A0740024A2E10024AB810024E314002495
:1024FD00F0940024F67700280B5C0028373700286D
:10250D005AEB00286AB800286ABA0028A02B0028C8
:10251D00CFDA0028CFE90028E02C0028E14C002874
:10252D00E7CF0028ED6A0028F0760028FF3C002C4C
:10253D001F23002C200B002C3361002C61F6002C86
:10254D00B43A002CBE08002CF0A2002CF0EE0030A6
:10255D0010E4003035AD0030636B003090AB0030CF
:10256D00D9D90030F7C5003408BC003412980034B6
:10257D00159E0034363B003451C900347C2500349F
:10258D00A3950034AB370034C0590034E2FD003858
:10259D000F4A0038484C003866F0003871DE0038BC
:1025AD00892C0038B54D0038C9860038CADA003C90
:1025BD000754003C15C2003C2EF9003C2EFF003C98
:1025CD00AB8E003CD0F8003CE0720040300400407F
:1025DD00331A00403CFC00404D7F00406C8F0040A2
:1025ED00831D004098AD00409C280040A6D90040B6
:1025FD00B3950040CBC00040D32D004400100044E3
:10260D002A6000444C0C0044D8840044FB4200482E
:10261D003B380048437C00484BAA004860BC00484A
:10262D00746E0048A1950048A91C0048BF6B004876
:10263D00D7050048E9F1004C3275004C57CA004CE3
:10264D0074BF004C7C5F004C8D79004CB1990050EB
:10265D00323700507A55005082D50050A67F005079
:10266D00BC960050EAD600542696005433CB005445
:10267D004E900054724F0054996300549F130054B0
:10268D00AE270054E43A0054EAA800581FAA005897
:10269D00404E005855CA00587F570058B035005865
:1026AD00E28F005C0947005C1DD9005C5948005C55
:1026BD008D4E005C95AE005C969D005C97F3005CC2
:1026CD00ADCF005CF5DA005CF7E6005CF938006030
:1026DD000308006030D40060334B00606944006033
:1026ED00921700609AC10060A37D0060C54700602D
:1026FD00D9C70060F4450060F81D0060FACD006098
:10270D00FB420060FEC50064200C00645AED0064BD
:10271D007033006476BA00649ABE0064A3CB006483
:10272D00A5C30064B0A60064B9E80064E682006841
:10273D00092700685B350068644B0068967B00686C
:10274D009C700068A86D0068AB1E0068AE20006824
:10275D00D93C0068DBCA0068EF430068FB7E006867
:10276D00FEF7006C19C0006C3E6D006C4008006CEB
:10277D004D73006C709F006C72E7006C8DC1006C26
:10278D0094F8006C96CF006CAB31006CC26B00708E
:10279D001124007014A600703EAC0070480F00703C
:1027AD0056810070700D007073CB007081EB00705E
:1027BD00A2B30070CD600070DEE20070E72C0070F7
:1027CD00ECE40070EF000070F08700741BB2007431
:1027DD00811400748D0800749EAF0074E1B600740E
:1027ED00E2F5007831C100783A8400784F430078E3
:1027FD0067D700786C1C00787B8A00787E61007842
:10280D00886D00789F700078A3E40078CA3900784D
:10281D00D75F0078FD94007C0191007C04D0007C92
:10282D0011BE007C5049007C6D62007C6DF8007C0F
:10283D00C3A1007CC537007CD1C3007CF05F007C58
:10284D00FADF0080006E008049710080929F008049
:10285D00B03D0080BE050080D6050080E6500080AA
:10286D00EA960080ED2C0084299900843835008487
:10287D004167008468780084788B00848506008425
:10288D0089AD00848E0C0084A1340084B153008482
:10289D00FCAC0084FCFE0088190800881FA100888C
:1028AD005395008863DF008866A500886B6E0088ED
:1028BD00AE070088C6630088CB870088E87F008854
:1028CD00E9FE008C006D008C2937008C2DAA008C40
:1028DD005877008C7B9D008C7C92008C8590008CB1
:1028ED008EF2008C8FE9008CFABA009027E40090EC
:1028FD003C92009060F1009072400090840D009029
:10290D008D6C0090B0ED0090B21F0090B931009029
:10291D00C1C60090DD5D0090FD6100949426009489
:10292D00BF2D0094E96A0094F6A3009800C60098A4
:10293D0001A7009803D8009810E800985AEB00986A
:10294D009E630098B8E30098CA330098D6BB0098F0
:10295D00E0D90098F0AB0098FE94009C04EB009C2D
:10296D00207B009C293F009C35EB009C4FDA009C9E
:10297D0084BF009C8BA0009CE33F009CE65E009C06
:10298D00F387009CF48E009CFC0100A0182800A089
:10299D003BE300A04EA700A056F300A0999B00A01A
:1029AD00D79500A0EDCD00A4313500A45E6000A444
:1029BD00670600A4B19700A4B80500A4C36100A4E4
:1029CD00D18C00A4D1D200A4E97500A4F1E800A82F
:1029DD00206600A85B7800A85C2C00A860B600A853
:1029ED00667F00A886DD00A8880800A88E2400A8B0
:1029FD00968A00A8BBCF00A8BE2700A8FAD800ACC5
:102A0D001F7400AC293A00AC3C0B00AC61EA00AC81
:102A1D007F3E00AC87A300ACBC3200ACCF5C00ACF9
:102A2D00E4B500ACFDEC00B019C600B0349500B0B3
:102A3D00481A00B065BD00B0702D00B09FBA00B04F
:102A4D00CA6800B418D100B44BD200B48B1900B4CD
:102A5D009CDF00B4F0AB00B4F61C00B8098A00B8D6
:102A6D0017C200B841A400B844D900B853AC00B89F
:102A7D00634D00B8782E00B88D1200B8C11100B8A2
:102A8D00C75D00B8E85600B8F6B100B8FF6100BCEC
:102A9D003BAF00BC4CC400BC52B700BC543600BCAC
:102AAD00677800BC6C2100BC926B00BC9FEF00BC32
:102ABD00A92000BCE14300BCEC5D00C01ADA00C0E7
:102ACD00639400C0847A00C09F4200C0A53E00C040
:102ADD00B65800C0CCF800C0CECD00C0D01200C09A
:102AED00F2FB00C42C0300C4618B00C4846600C4D7
:102AFD00988000C4B30100C81EE700C82A1400C89E
:102B0D00334B00C83C8500C869CD00C86F1D00C897
:102B1D00855000C8B5B700C8BCC800C8D08300C870
:102B2D00E0EB00C8F65000CC088D00CC08E000CCDE
:102B3D0020E800CC25EF00CC29F500CC2DB700CC3A
:102B4D00446300CC785F00CCC76000D0034B00D04D
:102B5D0023DB00D0259800D02B2000D0331100D0DE
:102B6D004F7E00D0817A00D0A63700D0C5F300D0BB
:102B7D00D2B000D0E14000D4619D00D461DA00D420
:102B8D00909C00D49A2000D4A33D00D4DCCD00D479
:102B9D00F46F00D8004D00D81D7200D8306200D8F7
:102BAD008F7600D8969500D89E3F00D8A25E00D8AB
:102BBD00BB2C00D8CF9C00D8D1CB00DC0C5C00DC4A
:102BCD002B2A00DC2B6100DC371400DC415F00DCBC
:102BDD0056E700DC86D800DC9B9C00DCA4CA00DC38
:102BED00A90400DCD3A200E0338E00E05F4500E0D5
:102BFD00667800E0ACCB00E0B52D00E0B9BA00E09E
:102C0D00C76700E0C97A00E0F5C600E0F84700E4C8
:102C1D0025E700E42B3400E48B7F00E498D600E434
:102C2D009A7900E49ADC00E4C63D00E4CE8F00E41E
:102C3D00E0A600E4E4AB00E8040B00E8068800E839
:102C4D00802E00E88D2800E8B2AC00EC358600EC53
:102C5D00852F00ECADB800F0189800F0247500F049
:102C6D00766F00F0796000F0989D00F099B600F055
:102C7D0099BF00F0B0E700F0B47900F0C1F100F0B9
:102C8D00CBA100F0D1A900F0DBE200F0DBF800F001
:102C9D00DCE200F0F61C00F40F2400F41BA100F49C
:102CAD0031C300F437B700F45C8900F4F15A00F435
:102CBD00F95100F8037700F81EDF00F8279300F8AC
:102CCD00621400F86FC100F895EA00FC253F00FC86
:0E2CDD002A9C00FCD84800FCE99800FCFC484A
:108DF50057070000000000280010D0002D121E4B60
:108E05000FA4994ECEB531F4057958071E000028F8
:108E15000313000000BD1DA299E625588CD9420117
:108E2500630D12BF9F4B074E0000080000000000B5
:108E3500000000470770000029020200005807776C
:108E45000000280313000000D9D9AAFDBD9B219875
:108E5500A849E145F3D8D16957078F0000140000F0
:108E650000000000000000000000000000000000FD
:108E750000005807360000280313000000FB7B7C28
:108E8500CE6AB344BEB54BD624E9C6EA2257075984
:108E950000001400000000000000000000000000B9
:108EA500000000000000004707170000290202002B
:018EB50000BC
:1034C9009008FCE0FF904D0375F002121367E49336
:1034D900FC740193F5828C8322900A40E0FFA312C9
:1034E9001373900004EF121085904EE6EF75F00209
:1034F900121367E493FE740193F5828E832290027E
:10350900AFF09022EE75F003ED121367EC75F0033E
:10351900A42583F5831213859000011210469002A9
:10352900B02402F09022EE75F003ED121367EC75EA
:10353900F003A42583F5830213859002ADF074018D
:103549009002A9F0E4A3F0A37404F0E4A3F07B01D2
:103559007A0279A92212137390000112104675F0AC
:1035690080A42400FFE5F0347BFE7B017A037943D4
:10357900900A36E4F0A3740222A3E075F003904D9B
:103589008D121367021385900A19121373900001A3
:10359900021046EF2402FFE433FEE075F002904D7D
:1035A900030213677404939000051210857B017A56
:1035B900037903229002AD7404F090071FE0FE2402
:1035C90002FDE433FCD3ED94FFEC6480948022F592
:1035D90083E0FE74432FF582E43403223EF583E44D
:1035E9009304FD900A05021373900A08E07F00FE18
:1035F900EF2400F582747A3EF583E5822DF582E5A4
:103609008322EFFD7414C39DFDE49400FC74A92D7D
:10361900F582740222F09008FDE004F0EF75F002E3
:10362900904D03228D82758300121046900A41FF46
:10363900ED2406FDE433FC1213738D828C83EF02B3
:10364900108590071FE02402FE9002AEF0EF04FF00
:10365900A3F0A3EEF0A3EF22900A08E0FFC37401E0
:103669009FFFEF7F00FEEF22900A09E475F0010247
:10367900110E9002AD7412F074059002A9F0E4A342
:10368900F0A37404229002ADE0FFA3E0FDA3E0FBE8
:103699009009BD22EE2402FE9002AEF090071EE0D2
:1036A900FD9002AF221313543FFD7F00FEEF240269
:1036B900F582747A3EF583E493FF90000202104686
:1036C900900914E004F0E0FF90059B22E493FD903B
:1036D9004EE675F002EF121367E493FA740193F55D
:1036E900828A8322740193FF9002AEE0FEEF22E406
:1036F90093FF9008FDE024A9F582E4340222E493C3
:10370900FE740193FFF5828E837402227401F09096
:10371900205EE0FEA3E0FDED2440FFE43E9005DFDE
:10372900FEE0FCA3E0FDC322900ACDE075F003A4FE
:1037390024F4F582E43422F5830213853CF583E011
:10374900FE74432FF582E43404F583EEF00FEF2283
:1037590074029002A9F0E4A3F0A3740622E493FE94
:103769009002AFE0FD228D82758300021046900A17
:1037790040E0FF75F002904EE622E0FFFDD3900590
:103789009EE09D90059DE0940022E493FC740193D2
:103799002FF582EC3EF583E4932403FFE433FE9096
:1037A90002A9E0D39FEE6480F8748098223EF583E5
:1037B900E4930490000102108590058FE0FEA3E0D8
:1037C900FFC322907B82FF75F080021367900A166F
:1037D900E0FFC3940222900A45E0FFC3940222C885
:1037E900ECC8C9EDC9CAEECACBEFCBE0FFE4FCFDDA
:1037F900FE12129490094C02132AFDE0FAA3E0FB91
:10380900EF2BFFEE3AC313FEEF13FF900951EEF0D1
:10381900A3EFF06D227C007D031210A7EF2410FFA7
:10382900E43EFEC39005E0E09FFF9005DFE09E22A5
:103839007401F09002B1E0FF9002AF229002B2E071
:103849002401FDE433FC900703E0FEFBD3ED9B74F8
:1038590080F86C9822EF2402FFE433FEE0FD221386
:1038690013543F7F00FEEF2482F582747A22A4FF6D
:10387900E5F0F0A3EFF0A2AFE43322F583EFF09087
:1038890008FDE004F09008FB22900574E0C3940160
:103899002275F003EF904EE8229009E9E02402FD39
:1038A900E433FC9009E21213738D828C8302104673
:1038B900F5837404F0900A16E00422F5837404F089
:1038C900900A45E00422900A0CE02440FF900A0B7C
:1038D900E0340022A3E0FD9002AEE0D39D22740102
:1038E90093FF9002B0E0FEEFD39E227B017A02792A
:1038F900B09009ED02137CED7F00FEEF2442F582C2
:10390900747A22900A08E0FFC322900A0BE4F0A31C
:10391900EDF0EF22ED900002021085900ACCE0252F
:10392900E0FF900ACBE033FE74E22FF58274222285
:10393900D2379002A9E024FD22E0FEE42400FFEE44
:10394900347A22E493FE9002B1E0FDEED39D228FFA
:10395900828E83740393FF9008EA2275F002EF9038
:103969004E5C22E493FA7401932FF582EA3EF583C3
:10397900E493FF75F00322900343F0A3F0A2AFE4B0
:1039890033F511C2AF22F0E4A3F0900771E0900281
:10399900AEF0900770E09002AF22F0E4A3F0900738
:1039A90018E09002AEF0900717E09002AF22900A5B
:1039B9003FE0FFC3940222240FF58274233EF5836E
:1039C90012130E90094C02131E900A08E07F00FEA4
:1039D900EF22E493FA7401932DF582EA22EF900025
:1039E900010210853EF583E493FFFD900A0C2290B5
:1039F900205EE0FEA3E0FDEDFF2440FDE43EFCD3A4
:103A0900229002A97406F09002AD7401F09002AF01
:103A19000422E0FF900ACBE0FCA3E0FD9022F475BC
:103A2900F003229000030210468F828E8374039361
:103A3900FF9002B2E0FEEF6E22EF2402FFE4332290
:103A4900E0FF24B0F582E434022275F002EE904DD5
:103A59000322F583EEF0900A3FE00422F583EEF0AD
:103A6900900969E004223EF583E493FDF422900570
:103A790010F012102D900511F0E49009E722900240
:103A8900ADE0FF9009BD7406F0E4FBFD22F0A374DC
:103A990003F0A37428F09002A97407229005827498
:103AA9001EF0E490057EF0C23C22F583EFF0900908
:103AB90015E004F09009132290059CE024FFFF9083
:103AC900059BE034FF228F82758300EE021085E0AA
:103AD900FF75F002904E5C22E0FFD390059EE09FB7
:103AE90022A2AFE433F50EC2AF22A2AFE433F50F41
:103AF900C2AF22EF2400F582747A22E41210739087
:103B09000A0BF0A3F0900A0822EF2402F582747AD6
:103B19002290050FF09009E5E0240390050B22FEA1
:103B2900E5822FF582E583229008E8E0FE9008E718
:103B3900E0FFD39E2212137302102D740493FE909A
:103B49000A45E0FD223EF583E493F42274F1F090F6
:103B5900005674D1F075910822907C0075F08002AE
:103B690013679002A9E02404FD222FF582EC3EF5AB
:103B790083E493240422740493FE900A3FE0FDC376
:103B89009E22740493FE900A16E0FDC39E22FFED67
:103B99002406FDE43322F0E4A3F0A374052290097E
:103BA9004C12130278080212EFE475F04002110E6C
:103BB900C374059FFFE49E22900A09E0FEA3E0FF7B
:103BC90064064E222582F582E4358322FF9002AFF6
:103BD900E024FE227E087F487C027DAE7B0222FE25
:103BE9007B017A03794322F0900A65E0042293FD70
:103BF9009002B3E0FCED6C22EF2402FDE433229342
:103C0900FD9008E9E0FCED6C22FD74A92EF582E433
:103C1900340222A2AFE433F50D2290083B02137C53
:103C290075F080A4248022FE74AE2FF582E434025C
:103C390022F583EEF0900943E00422900951E0FE59
:103C4900A3E07802222440F582747A222480F58246
:103C5900747A2224C0F582747A2224C2F582747A95
:103C690022EF9DFFEE9CFEC3E09F22E0FEE42400CC
:103C7900FFEE347C227401935403FF9009E922E496
:093C8900FF900582E0FE641F2299
:10B62C00EF121391B64900B64C01B64F02B6520355
:10B63C00B65504B65805B65B060000B65E02031993
:10B64C0002031A02032102032202B71E02B3F312F1
:03B65C00BBB92255
:109F8D00EF121391A037009FF2019FF5029FF80386
:109F9D009FFB049FFE05A00106A00407A00708A0D3
:109FAD000A09A00D0AA0100BA0130CA0160DA019E4
:109FBD000EA01C0FA01F10A02211A02512A0281367
:109FCD00A03714A03715A02B16A02E17A03118A05E
:109FDD003419A0371AA0391BA0371CA03F1DA04271
:109FED001E0000A04502B3B502BA9D02032A021E4F
:109FFD004502930602903202ACE4026B610276D602
:10A00D000278FE02034102919C02034202BCA902A6
:10A01D00034902645202034A025D33020351029561
:10A02D00AD0203520267DD020359800302A810023C
:09A03D00032902035A1203162242
:10AFED00EF121391B01900B01C01B01F02B0220373
:10AFFD00B02504B02805B02B06B02E07B03108B02F
:10B00D003409B0370AB03A0B0000B03D024FFF02D1
:10B01D007F0002BCF102A78802992402BB1C02BB6F
:10B02D00E102B42F02BA0F0289D002BA2812B8A4D5
:01B03D0022F0
:10B65F00900A85EEF0A3EFF0A3ECF0A3EDF01B90B2
:10B66F000A87E0FEA3E02BF582E43EF583E0FF902E
:10B67F000A85E0FCA3E02BF582E43CF583EFF0EBC9
:03B68F0070DC224A
:0EB5C200900A89EEF0A3EFF0A3ECF0A3EDF0F9
:10B5D000E4FF1B900A8BE0FCA3E02FF582E43CF52E
:10B5E00083E0FE900A89E0FCA3E02BF582E43CF5C1
:07B5F00083EEF00FEB70DBAE
:01B5F7002231
:10B5F800900A8DEEF0A3EFF0A3ECF0A3EDF01B9012
:10B608000A8FE0FEA3E02BF582E43EF583E493FF86
:10B61800900A8DE0FCA3E02BF582E43CF583EFF083
:04B62800EB70DB22C6
:0EB58B00900A91EEF0A3EFF0A3ECF0A3EDF028
:10B59900E4FF1B900A93E0FCA3E02FF582E43CF55D
:10B5A90083E493FE900A91E0FCA3E02BF582E43C4E
:08B5B900F583EEF00FEB70DAF0
:01B5C1002267
:10B55300900A95EEF0A3EFF0A3ECF0A3EDF0EB600F
:10B56300231B900A95E0FEA3E02BF582E43EF583CE
:10B57300E0FF900A97E0FCA3E02BF582E43CF5831F
:08B58300E06F60DACFEBCF228C
:0103190022C1
:01031A0022C0
:0103210022B9
:0103220022B8
:10B71E009002ADE0FF54E0700FEFD3941E50030281
:10B72E009F8D123A8702B7499002ADE0242E600732
:0BB73E0024807006025993124FFE2277
:10B3F3009002ADE0FFD39413501CEF14602D24EEA4
:10B4030070099002B1E0900571F022123A0AF0E45B
:10B41300A3F0A3F0800C123A0AF0E4A3F0A37402A1
:0BB42300F0E4123555123B6B12035E83
:01B42E0022FB
:0DBBB9009002ADE0FFC3940C500312AFEDFD
:01BBC600225C
:0103290022B1
:10B3B50090057EE0FFB401028030EFC3940A502D62
:10B3C50090071EE0FF7004A3E0601F1235BD500C0E
:10B3D50012369DF0A3EEF0A3EDF0800412364BF08B
:0EB3E50074051235497D0902035E123AA52255
:10BA9D009002AD7403F0900572E09002AE12355332
:06BAAD00123B6B02035E78
:01032A0022B0
:101E4500D24312383CE0FE6F70091238DD500BC2E8
:101E5500438007EEC39F5002C2439002AEE0FD707F
:101E650006A3E07002D2433043129002ADE0FF902A
:101E750002AFE0FB9009BD7401021FE3D243E49079
:101E85000A65F0900A651234CC123766EEC39D40A0
:101E950019904D031234F51236EDC39E400C900A8D
:101EA50065E0900A62F0C243800E900A651236CC56
:101EB500E07003A3E06F70CB204338D243900A65EE
:101EC5001234CC12394C502B1236251234F91238F3
:101ED500E75020900A65E0900A63F0C243900A65D6
:101EE500E004F0900A65E0FF90059BE07003A3E035
:101EF5006F70CA304303021FDE9002AD7405F09087
:101F05000A62E0904E5C1234F67401935403900219
:101F1500AEF0900A66F0900A647402F0A37406F0BD
:101F2500900A62E0FF904E5C1234D1740193540321
:101F3500FE900A66E06E6003021FCF12BAC8900ACF
:101F450064E02F2402FE900572E0C39E407C900A57
:101F550064EEF0900A62E0FE1234CE740193FD90B7
:101F65000A651236FEF583ED123BF0F0EE123626C9
:101F75001234D4E493FE900A651236FEF583EE1210
:101F85003BF0F0E02FFE0F900A65E0FDC39E502662
:101F9500900A621235A31236E22FF582E43583F5F5
:101FA50083E493FC74A92DF582E43402F583EC12E5
:101FB5003BF0F01F80D1900A62E004F0A3E0FF90AF
:101FC5000A62E0D39F5003021F25900A64E0FF12C6
:101FD5003549EF2404FD02035E12368E740AF012B1
:021FE500B749FA
:011FE70022D7
:10930600D244E4FDFC123BD6C394FE40259022F4E1
:10931600123530123596123BD56F703A9022F41200
:10932600353012102DFF9002B0E0146F7028C24441
:10933600802F9022F4123530123596123BD56F707D
:10934600159022F412353012102DFF9002B0E06F06
:109356007004C244800B0DBD00010CED64094C7015
:10936600A43044030294629022FA123530123A2C49
:10937600FF9002B1E06F60030294621236C3FF9061
:1093860002B2E06F60030294629002AFE01237BC53
:109396009002B0E0FF9022FA123530EF121073D22D
:1093A60044E4FCFD9022F412353012102D702D90FD
:1093B60022F412353012359670221236C3642970A3
:1093C6001B123A2C6402701412352D12102D7008DF
:1093D60012352D1235966004C244800B0DBD000176
:1093E6000CED64094C70BD2044599002AD74041212
:1093F600352C123596FF2402FBE433FAD3EB94FFA7
:10940600EA648094805012EF9002AE12352A121050
:109416002D12350712102D801912352D123596246E
:10942600029002AE12352C12102D041235071210BE
:109436002D049002B1F09002A9740512354C7D09F5
:1094460002035E900582741FF090057E740AF0C2D6
:0C9456003C900566E06403600312B8A4BB
:0194620022E7
:10903200900A67123839E0FE6F70071238DD500C63
:109042008005EEC39F5005E4900A67F09002AEE0FF
:109052007009A3E07005900A6704F0900A67E07057
:109062000E9002B3E064286006900A677406F090DE
:109072000A67E06003029110740AF09002A9E0907E
:109082000A6AB417057410F080037402F0E4900ABF
:109092006BF0900A6B1235A3123707123BF7706020
:1090A200123A32705BFF900A6AE0FEEFC39E501ADA
:1090B2001235828F82123771FD74B42FF582E43437
:1090C20002F583E06D70030F80DCEF6E7032900A60
:1090D2006B1234CC123766EEC39D40241236251231
:1090E20034F91236EDC39E4017900A6BE0900A687D
:1090F200F0A3F0E4900A67F0900A6BE004F0800EAF
:10910200900A6B1236CCE07003A3E06F7084900A71
:1091120067E07029900A6B1235A3123707123BF7EA
:109122007005123A326016900A6BE0900A69F0906C
:109132000A6B1236CDE07003A3E06F70D7900A6716
:10914200E09002AD70407407F0900A681234CC745B
:1091520001939002AE1236241234F9E4939002AFD6
:10916200F0900A691234CC7401939002B012362442
:109172001234F9E4939002B1F09002A97405123509
:109182004C7D0902035EE0FFA3E0FDA3E0FB900A31
:0991920067E09009BDF012B74935
:01919B0022B1
:10ACE40090057EE0640170529002AFE0900700F09E
:10ACF4009002AEE0900701F09002B1E0900702F0FC
:10AD04009002B0E0FF900703F09002AD7408F09059
:10AD14000701E09002AEF0900700E09002AFF0A3CC
:10AD2400EFF0900702E09002B1123A9612354C7D92
:0BAD34000B12035E90057E7402F022FB
:106B61009008FE123839E0FE6F70071238DD500CC4
:106B71008005EEC39F5005E49008FEF09002AEE060
:106B81007009A3E070059008FE04F09008FEE07023
:106B91003D740AF0E4900914F09009141234CC12F7
:106BA1003766EEC39D401C1236251234F91236EDBC
:106BB100C39E400F900914E09008FFF0E49008FE96
:106BC100F0800B1236C9E07003A3E06F70CB900820
:106BD100FEE07031740AF09009141234CC12394C71
:106BE10050231236251234F91238E750189009143F
:106BF100E0900900F0E49008FEF01236C9E070035D
:106C0100A3E06F70D29008FEE070229002A9E0FF2D
:106C1100B407089009127402F08012EFB4150890BD
:106C210009127410F080069008FE7404F09008FEBA
:106C3100E06003026CCB740AF0900900E0FF900859
:106C4100FFE0D39F4003026CCBE4900914F090095C
:106C510012E0900915F0900912E0FF900914E0FE8E
:106C61006F604CA3E014F09008FFE01234CEC083B3
:106C7100C082900915E0FF2402FDE433FCD082D0EC
:106C8100831236033CF583E493FD74B22EF582E45E
:106C91003402F583E0FE6D6002801474012FF582E9
:106CA100E43409F583EEF0900914E004F080A79034
:106CB1000912E0FF900914E06F70069008FEF08061
:106CC100099008FFE004F0026C3A9008FEE06003CE
:106CD100026E4C9009137402F09009157406F0E4E9
:106CE100900914F0900900E0FE9008FFE0FDD39EAA
:106CF1004003026E4C900912E004900911F0CFEDAF
:106D0100CF12BAC8900912E06F7004900911F09087
:106D11000912E0FF900911E0FEC39F502D9008FF7A
:106D2100E01234CEEE2402FDE433FC1236033CF5CE
:106D310083E493FF74012EF582E43409F583E06F57
:106D41007008900911E004F080C5900912E0FF90ED
:106D51000911E06F6003026E439008FFE0FF12B17A
:106D6100309008FEEFF07018A3E0FF12BB589008B6
:106D7100FEEFF0600B12358212BC5C9008FEEFF062
:106D81009008FEE06003026E4C9008FFE0FF12BA2B
:106D9100C8123C01FC9008FFE0FF1235A41239DB58
:106DA1003CF583E4932402FEFD12B9D9CEEFCE90D7
:106DB1000572E0FF2405FD900915E0FCC3ED9CFD83
:106DC100EEC39D5006900911EE800BEC6406707BBA
:106DD100EF24FE900911F09008FFE0900914F09063
:106DE1000914E0605D9008FF1234CC740193FE90A9
:106DF10009151236FEF583EEF090091512362212AE
:106E010034F9E493FF9009151236FE123AB3E024E7
:106E110002F0900911E024FEF0E4FE900911E06017
:106E2100219008FF1235838E82123771FF90091568
:106E31001236FE123AB3E004F00E900911E014F09C
:106E410080D99008FFE004F0026CE59008FEE07044
:106E510051900913E0123683F0E4A3F0A37409F012
:106E6100900914E0FF12BAC890091412359CE493FA
:106E7100FC7401932FF582EC3EF583E4932402FF29
:106E81009002AEF0900572E024FEFEEFD39E400525
:106E91009002AEEEF0123557900913E02404FD0282
:106EA100035E9002ADE0FFA3E0FDA3E0FB9008FECE
:086EB100E09009BDF012B749A1
:016EB90022B6
:1076D60090057EE0FF6402600DEF64036008EF64CE
:1076E6000460030278FDD245E4900ACBF0A3F012C1
:1076F60039243EF583123707936428704674039342
:107706006403703FFDFC1239243EF5831234FCED10
:107716002408FFE43C123B283EF583E493FF74B44F
:107726002DF58274023CF583E0FEEF6E700B0DBD05
:1077360000010CED64104C70CDED64104C7004C269
:10774600458012900ACB123674900ACBE07004A3DF
:10775600E06409709A3045030278669002AF123AE7
:107766001B1235341239E69002B0E0FF9022F41273
:107776003530EF1210739002B1123A1B1235349065
:107786000005EF1210859002B2E0FF9022F4123548
:1077960030900007EF1210859002B3E0FE9022F4BD
:1077A600123530900006EE1210859022F712353011
:1077B6001239E69002B3E0FF9022F7123530EF124D
:1077C600107390057EE004F0E0D3940450619007B6
:1077D60002E0F99002B3E099502F123845500302A7
:1077E600787890071EE0FF7007A3E070030278FA2E
:1077F6001235BD500D12369DF0A3EEF0A3EDF0024A
:1078060078BF12364BF00278BF90071EE0FF700477
:10781600A3E060181235BD500C12369DF0A3EEF0B1
:10782600A3EDF0800412364BF00278BF0278FA908E
:10783600057EE0640560030278FD90071EE0FF7098
:1078460007A3E070030278FD1235BD500C12369D79
:10785600F0A3EEF0A3EDF0800412364BF00278BFF1
:10786600900702E0F99002B3E0D399505A123845D6
:1078760050279002AD7408F09002B2E0049002AE78
:10788600F09002B3E09002AFF0A3EEF0A3E9123A53
:107896009612354C7D0B0278F790071EE0FF7004B8
:1078A600A3E060211235BD500C12369DF0A3EEF018
:1078B600A3EDF0800412364BF09002A97405123540
:1078C6004C7D09802C802D90071EE0FF7004A3E0FC
:1078D60060221235BD500C12369DF0A3EEF0A3EDDA
:1078E600F0800412364BF09002A9740512354C7DD7
:0778F6000902035E123AA52E
:0178FD002268
:1078FE00900A997401F0E4A3F0900A9A1234CC1213
:10790E003766EE6D70121236251234F91236ED6EA0
:10791E007006900A99F0800E900A9A1236CCE0709A
:10792E0003A3E06F70D3900A99E0700BA3E0FF12EF
:10793E00B130900A99EFF0900A99E07018A3E0FF29
:10794E0012BB58900A99EFF0600B12358212BC5C94
:10795E00900A99EFF0900A99E0FE600812368EEECA
:10796E00F002B749E4900A9BF0A304F0900A9AE063
:10797E00FF12BAC8123C01FC900A9AE0FF1235A41D
:10798E001239DB3CF583E493FE900A99F0FD12B9AF
:10799E00D9900A99EFF0900A99E0FF900A9BE0FEC9
:1079AE00C39F5030900A9A1235838E82123771FF20
:1079BE0074AE2EF582E43402F583EFF0900A9BE06C
:1079CE0004F0A3E004F0900572E014FF900A9CE02E
:1079DE00D39F40C29002AD740BF0900A9CE0FF1250
:0979EE003549EF2404FD12035E8B
:0179F700226D
:010341002299
:10919C00C246900A387401F0E4A3F0900A391234F4
:1091AC00CC123766EE6D70121236251234F9123667
:1091BC00ED6E7006900A38F0800E900A391236CC9B
:1091CC00E07003A3E06F70D3900A38E0700BA3E05B
:1091DC00FF12B130900A38EFF0900A38E07018A303
:1091EC00E0FF12BB58900A38EFF0600B1235821278
:1091FC00BC5C900A38EFF0900A38E07040A3E0FFB6
:10920C0012BAC8123C01FC900A39E0FF1235A412C4
:10921C0039DB3CF583E493FE900A3BF0FD12B9D99F
:10922C00900A3BEFF0900572E024FDFEEFD39E50C8
:10923C000C9002B0E06006900A38740BF0900A387B
:10924C00E07026900A3BE0FF9002B0E0FED39F4016
:10925C0008900A387407F08010EE6F700C740D12C1
:10926C0035437D0512035ED24630460302930590CA
:10927C000A38E0FE600812368EEEF002B749E49030
:10928C000A3AF0900A3C04F09002B0E0900A3DF0EB
:10929C00900A3AE0FF900A3DE02FFFE433FE900A7B
:1092AC003BE0FDC3EF9D7480F86E985037900A39FF
:1092BC001235838F828E83121046FF900A3AE02477
:1092CC00AEF582E43402F583EFF0900A3AE004F054
:1092DC00900A3CE004F0900572E014FF900A3CE028
:1092EC00D39F40AC9002AD740DF0900A3CE0FF129D
:0992FC003549EF2404FD12035E64
:019305002245
:010342002298
:06BCA900123A8702B749C0
:010349002291
:106452009008E5123839E0FE6F70071238DD500CF3
:106462008005EEC39F5005E49008E5F09002AEE08F
:106472007009A3E070059008E504F09008E5E0706B
:1064820076740AF0E49008FCF01234C9123766EE12
:10649200C39D40171236251234F91236EDC39E40C1
:1064A2000A9008FCE09008E7F0800E9008FC123693
:1064B200CCE07003A3E06F70D09008FCE0FF900581
:1064C2009BE07003A3E06F602E1234C912394C5066
:1064D200261236251234F91238E7501B9008FCE0D8
:1064E2009008E8F0E49008E5F09008FC1236CCE061
:1064F2007003A3E06F70D29008E5E070229002A9C9
:10650200E0FFB407089008FA7402F08012EFB415A5
:10651200089008FA7410F080069008E57404F09070
:1065220008E5E060030265E77410F0E49008FCF00F
:106532009008FAE09008FDF09008FAE0FF9008FC5D
:10654200E0FE6F6027A3E014F074B22EF582E4340B
:1065520002F583E0FE9008FDE024E9F582E43408C8
:10656200F583EEF09008FCE004F080CCEFB4021664
:106572009008E9E06428706DA3E0D394015066E4CA
:106582009008E5F0805F9008EBE064287057A3E084
:10659200D3940150509008E9E0704AA3E07046900D
:1065A20008FC7404F09008FCE0FFC39410501DE056
:1065B200FE9021AD93FD74E92EF582E43408F58353
:1065C200E06D70089008FCE004F080D9EFB410157B
:1065D200E49008E5F09008EBE09008E9F09008EC10
:1065E200E09008EAF09008E5E07037740AF0123B98
:1065F20031502F12BAC8EF6402701F9008E71235AB
:10660200A312370793FD9008E9E06D700D12395817
:10661200E06F70061267D0F080089008E7E004F09F
:1066220080CC9008E5E0FE600812368EEEF002B7EC
:10663200499008FB7402F09008FD7406F0123B3199
:10664200400302679F12BAC8EF64026003026796B2
:106652009008E71235A3123707123C08600302675D
:1066620096123958E0FEEF6E60030267961267D009
:10667200F0600302679F9008E7E0FF12BAC8123A7F
:1066820042FE9008E7E0F91235A4E493FC7401930A
:10669200FD123B73FF9008E6F0900572E02404C3FC
:1066A2009FFF9008FDE0FEC39F400302679F900892
:1066B200E6E09008F9F09008E7E0FF8D828C8374A1
:1066C2000193123C12F583ED12361E1234F9123682
:1066D200F8123884E02402F0123AC1FEE96F700128
:1066E200EE60409008E7E0049008FCF0123AC1FE28
:1066F2009008FCE0FDC39FE49E503075F002ED125D
:1067020035A7123707123C087011123958E0FEEF14
:106712006E70089008FCE014F080109008FCE00411
:10672200F080C99008E7E09008FCF01234C97401C7
:1067320093FE1236FBF583EE12361E1234F9123630
:10674200F8123884E02402F09008F9E024FCF0E426
:106752009008E6F09008F9E060269008E712358389
:106762009008E6E0F5821237711236FA123884E0A8
:1067720004F09008E6E004F09008F9E014F080D408
:106782009008FCE0FF9008E6F0A3E09008FCF0908F
:1067920008E7EFF09008E7E004F002663F9002ADF0
:1067A2007411F09008FCE0FF12BAC89008FC123590
:1067B2009CE493FC740193123B739002AEF0900838
:0D67C200FBE0FF123549EF2404FD12035ED9
:0E67CF00229008E7E0FF12B1309008E5EF22BB
:01034A002290
:105D3300123C1C900A3E7401F0E4A3F0900A3F1257
:105D430034CC123766EE6D70121236251234F91206
:105D530036ED6E7006900A3EF0800E900A3F1236C2
:105D6300CCE07003A3E06F70D3900A3EE0700BA306
:105D7300E0FF12B17F900A3EEFF0900A3EE0701B05
:105D8300A3E0FF12BAC8123A42FE900A3F1235A3AB
:105D93001237934006900A3E740DF0900A3EE0706D
:105DA30051A31234CC7403936455704612396412B0
:105DB30034F9E493FF64206005EF64027034900AC1
:105DC3003FE0FF75F002904D051234D4740393B491
:105DD300022075F003EF904D9012358A12102D704A
:105DE30008900A3E7481F08009300F06900A3E74D1
:105DF30080F0900A3EE0702DA3E0FF12BB58900A9A
:105E03003EEFF06020123582EBC0E0EAC0E0E9C06B
:105E1300E01238F4D0E0F9D0E0FAD0E0FB12BAB3E4
:105E2300900A3EEFF0900A3EE0FE600812368EEED6
:105E3300F002B749E4900A40F012393BFF900A4060
:105E4300E0C39F5018123A49F583E0FE900A3F12CF
:105E53003583123ACF900A40E004F080DC900A3F89
:105E6300123AD81234D474019330E225900A40E0F8
:105E7300FEEEC0E012BAC8900A3F12385E1235A493
:105E830012396CED1235878F82758300D0E01210C2
:105E930085123939900573F0900A3F123583123C0D
:105EA3002374131235437D0512035E123892500397
:105EB30002609FE4900A40F0900A40123783403317
:105EC300900A3FE0FE1234CE1236D5E4936D701A79
:105ED300123A531234F9740193FF900A40E01237D7
:105EE3007C1234D47401936F6009900A40E004F08B
:105EF300025EBB900A40E0FF90059DE07003A3E0C3
:105F03006F700302609F1235B61260A012102D60ED
:105F13000302609F1235B61260AC12102D7003029B
:105F230060621235B61260A01235B67F08123C9239
:105F3300900A4112137C1235967058907E8293F426
:105F4300700302600C7F02129C8EE4900A3FF012F1
:105F530039B7500D1235DCF5837404123A5EF080C4
:105F6300EE123C1CC2AF123573F07F007E7E12210D
:105F730011E4900A3FF01239B7500D1235DCF58366
:105F83007405123A5EF080EE123573F07F807E7EE8
:105F9300026003900A411235931237CCE493F46004
:105FA30068EF14FF30E0626060C313FF129C8EE45D
:105FB300900A3FF01239B75011900A4112359324D9
:105FC300FE1235DB123A5BF080EA123C1CC2AF9042
:105FD3000A4112355EF0122111E4900A3FF01239A2
:105FE300B75010900A41123593141235DB123A5B05
:105FF300F080EB900A41123593123C2912356DF073
:10600300122111E50D24FF92AF12A393900A4112BE
:106013003B3E704B900A40F0900A40123AE112372F
:106023008C403CE4900A3FF01237771234D4123B91
:106033007F501112389A12358A12362D900A3FE09A
:1060430004F080E41234E21235AD1260B81235B6B2
:106053001260AC12A393900A40E004F002601B901C
:106063000A40E0FF90059DE07003A3E06F602DE41C
:10607300900A3FF01237771234D4123B7F5011123B
:10608300389A12358A12362D900A3FE004F080E4E4
:0C6093001234E21235AD1260B812A39373
:10609F00227F05123C92900A4112137C227F071235
:1060AF003C92900A4112137C227F09123C92900A73
:0560BF004112137C22D8
:010351002289
:1095AD00900ABC7401F0E4A3F0900ABD1234CC1201
:1095BD003766EE6D70361236251234F91236ED6EB1
:1095CD00702A900848E0700CA3E07008123BDD1281
:1095DD00B65F8011123BDD12B553EF6008900ABCE7
:1095ED007480F08015E4900ABCF0800E900ABD12D4
:1095FD0036CCE07003A3E06F70AF900ABCE0700B47
:10960D00A3E0FF12B17F900ABCEFF0900ABCE070AE
:10961D002DA3E0FF12BB58900ABCEFF0602012356D
:10962D0082EBC0E0EAC0E0E9C0E01238F4D0E0F926
:10963D00D0E0FAD0E0FB12BAB3900ABCEFF0900A7A
:10964D00BCE070559002B0E0FF9002A9E02F24FB22
:10965D00900ABEF0900ABDE0FF12BAC8123A42FE5F
:10966D00900ABD1235A3E493FC7401932FF582EC9F
:10967D003EF583E493FF900ABEE0FED39F40089031
:10968D000ABC7409F0801290084AE0FFEED39F40A7
:10969D0008900ABEE090084AF0900ABCE0FE60080F
:1096AD0012368EEEF002B7499002B0E0244BF582EF
:1096BD00E43408AF82FE7C027DB29002A9E024FB67
:1096CD00FB12B65F9002AD7417123556123B6B123A
:0296DD00035E2A
:0196DF002268
:010352002288
:1067DD00A2AFE433F50EE4900A15F09002AEE0643A
:1067ED000160030268C8900A16F0900848E070072F
:1067FD00A3E070030268C8900A161234CCE493FE2D
:10680D00900849E0FDEE6D60030268B7123625125F
:10681D0034F9740193FF900848E0FEEF6E600302B7
:10682D0068B7900A16E0FF12BAC8900A1612385EC1
:10683D001235A4E493FA7401932FF582EA3EF583A1
:10684D00E493FF900A17F090084AE0D39F40099017
:10685D000A15740DF00268C875F003ED123587CE78
:10686D00EACECFE9CF7C087D4B90084AE0FB12B60B
:10687D005F900A16123AD81234D474019330E2158F
:10688D0090084AE0FE75F003EF123587900A17E085
:10689D00F582123AD1D23790084AE0900573F09004
:1068AD000A16123583123C238011900A161236CC2B
:1068BD00E07003A3E06F6003026804900A15E0FE28
:1068CD00600B12368EEEF012B749026B199002ADC5
:1068DD0074191235467D0512035E203703026B19BC
:1068ED001238925003026B19E4900A18F0900A18AE
:1068FD001237834033900A16E0FE1234CE1236D58D
:10690D00E4936D701A123A531234F9740193FF9097
:10691D000A18E012377C1234D47401936F60099019
:10692D000A18E004F00268FA900A18E0FF90059D3D
:10693D00E07003A3E06F7003026B191235B6126B92
:10694D001C12102D6003026B191235B6126B281232
:10695D00102D7003026ACF1235B6126B1C1235B6AC
:10696D007F08123C92900A1912137C1235967043CF
:10697D00907E8293F47003026A28126B4DF01237E9
:10698D00D650091235DC1238B9F080F2123AEA12FB
:10699D003573126B40F01237D6500D1235DCF5837E
:1069AD0074051238BDF080EE123573F07F807E7E57
:1069BD00026A251235901237CCE493F4605DEF1422
:1069CD00FF30E0576055C313FF129C8EE4900A16FA
:1069DD00F01237D6501112359024FE1235DBF583A7
:1069ED00EE1238BDF080EA123AEA900A1912355EBD
:1069FD00F0122111E4900A16F01237D6501012350C
:106A0D0090141235DBF583EE1238BDF080EB1235A4
:106A1D0090123C2912356DF0126B5712A39312355B
:106A2D00907040907E8293F46039126B4DF0123766
:106A3D00D650091235DC1238B9F080F2123AEA124A
:106A4D003573126B40F01237D6500D1235DCF583CD
:106A5D0074051238BDF080EE123573F07F807E7EA6
:106A6D00126B57900A19123B3E7057900A18F0900E
:106A7D000A18123AE112378C4048E4900A16F09049
:106A8D000A1812377A1234D4123B8B501712389AD7
:106A9D0012358A12376F900A19123638900A16E09D
:106AAD0004F080DB900A181234E51235AD126B3408
:106ABD001235B6126B2812A393900A18E004F00257
:106ACD006A7C900A18E0FF90059DE07003A3E06FCB
:106ADD00603AE4900A16F0900A1812377A1234D4FC
:106AED00123B8B501B12389A12358A12376F123B9C
:106AFD0097FC900A19123640900A16E004F080D7E0
:0F6B0D00900A181234E51235AD126B3402BAF249
:106B1C007F05123C92900A1912137C227F07123CBB
:106B2C0092900A1912137C227F09123C92900A1936
:106B3C0012137C22F07F007E7E122111E4900A1643
:106B4C00227F02129C8EE4900A1622122111E50E6D
:056B5C0024FF92AF22AE
:010359002281
:10A81000D247900ACD7401F0900ACDE0FF1237358F
:10A8200012102DFE9002AFE06E7013EF123735124A
:10A830003596FF9002AEE06F7004C247800A900A1E
:10A84000CDE004F0E0B409D0204748E4900ACEF00F
:10A8500012393BFF900ACEE0C39F5025123A49F5CA
:10A8600083E0FE123731E92403F9E43AFAEF7C0081
:10A8700029F9EC3AFAEE121073900ACEE004F08057
:10A88000CFD21C12393B900583F0123731900896D5
:03A8900012137C24
:01A8930022A2
:01035A002280
:03031600C20F22F1
:10599300A2AFE433F50F900A447401F0E4A3F0904E
:1059A3000A451234CC123766EE6D70121236251288
:1059B30034F91236ED6E7006900A44F0800E900AA8
:1059C300451236CCE07003A3E06F70D3900A44E035
:1059D300700BA3E0FF12B17F900A44EFF0900A44EA
:1059E300E0701BA3E0FF12BAC8123A42FE900A45C8
:1059F3001235A31237934006900A44740DF0900AAF
:105A030044E0702DA3E0FF12BB58900A44EFF0600E
:105A130020123582EBC0E0EAC0E0E9C0E01238F4BE
:105A2300D0E0F9D0E0FAD0E0FB12BAB3900A44EF29
:105A3300F0900A44E06003025CEDE4900A46F01241
:105A4300393BFF900A46E0C39F5018123A49F58349
:105A5300E0FE900A45123583123ACF900A46E004DD
:105A6300F080DC900A45123AD81234D47401933092
:105A7300E225900A46E0FEEEC0E012BAC8123A42AE
:105A8300123B471235A412396CED1235878F82759C
:105A93008300D0E0121085123939900573F0900A13
:105AA30045123583123C231238925003025CEDE415
:105AB300900A46F0900A461237834033900A45E035
:105AC300FE1234CE1236D5E4936D701A123A531285
:105AD30034F9740193FF900A46E012377C1234D4F0
:105AE3007401936F6009900A46E004F0025AB7907C
:105AF3000A46E0FF90059DE07003A3E06F70030288
:105B03005CED1235B6125CEE12102D6003025CEDF3
:105B13001235B6125CFA12102D7003025CA1123515
:105B2300B6125CEE1235B67F08123C92900A471209
:105B3300137C1235967043907E8293F47003025B5C
:105B4300F1125D1FF01237DF50091235DC1238C431
:105B5300F080F2123AF3123573125D12F01237DF4E
:105B6300500D1235DCF58374051238C8F080EE123F
:105B73003573F07F807E7E025BEE900A4712359389
:105B83001237CCE493F46066EF14FF30E060605E9C
:105B9300C313FF129C8EE4900A45F01237DF5014B2
:105BA300900A4712359324FE1235DBF583EE123843
:105BB300C8F080E7123AF3900A4712355EF01221DB
:105BC30011E4900A45F01237DF5013900A4712355B
:105BD30093141235DBF583EE1238C8F080E8900A8F
:105BE30047123593123C2912356DF0125D2912A329
:105BF30093900A471235937040907E8293F46039F4
:105C0300125D1FF01237DF50091235DC1238C4F071
:105C130080F2123AF3123573125D12F01237DF502D
:105C23000D1235DCF58374051238C8F080EE123599
:105C330073F07F807E7E125D29900A47123B3E708F
:105C43005D900A46F0900A46123AE112378C404EB4
:105C5300E4900A45F0900A4612377A1234D4123B84
:105C630044C39E501B12389A12358A12376F123B67
:105C730097FC900A47123640900A45E004F080D51D
:105C8300900A461234E51235AD125D061235B6128E
:105C93005CFA12A393900A46E004F0025C48900A6F
:105CA30046E0FF90059DE07003A3E06F603CE49045
:105CB3000A45F0900A4612377A1234D4123B44C391
:105CC3009E501B12389A12358A12376F123B97FC7B
:105CD300900A47123640900A45E004F080D5900AB6
:0A5CE300461234E51235AD125D06DD
:105CED00227F05123C92900A4712137C227F0712E5
:105CFD003C92900A4712137C227F09123C92900A23
:105D0D004712137C22F07F007E7E122111E4900A4F
:105D1D0045227F02129C8EE4900A4522122111E544
:065D2D000F24FF92AF22DB
:014FFE002290
:014FFF00228F
:107F0000302306200A03027FD49002AEE09005756C
:107F1000F09002AFE0900576F09002B0E09001168C
:107F2000F09002B1E0900113F09002B2E09005777A
:107F3000F09002B3E0900578F0900892E0FF900195
:107F400016E04F20E203E48022900575E0FF9008E0
:107F500090E075F005A42423F582E43422F583E54E
:107F6000822FF582E43583F583E493900115F09038
:107F70000113E0FFD39406403FEF9411503A12BC36
:107F800047900115E0FF60089005677428F0D2342F
:107F9000900892E030E213900890E06403600BEFE9
:107FA0007008301A0512032E801E7B017A08798B27
:107FB00090088BE02404800C123759123B9FF0A3E9
:107FC00004123556FD12035E9005667401F0E490CC
:107FD0000579F022203A0302032E123759123B9FF3
:0A7FE000F01235557D0612035E22F3
:01BCF1002230
:10A78800E4FF900579E0701912360B123745B410C2
:10A79800F79005797401F0900567E06005E4FF80A3
:10A7A800010FEF60627BFF7A2179CD90089D12132B
:10A7B8007C7B017A0479531296E0E4FFEFFD740F75
:10A7C80012360F3CF583E0FE748B2FF582E43409D2
:10A7D800123752B410E6741112375BF0E4A3F0A3F9
:10A7E8007403F0E4FF748B2FF582E43409F583E0F9
:10A7F800123C30123752B410EC1235577D15120343
:07A808005E9005667402F08A
:01A80F002226
:10992400E4900969F0900969E0FF12360C3CF58374
:10993400E0FE746A2FF582E43409123A65F0E0B46B
:1099440010E37B017A09796A90089D12137C7A04EA
:1099540079531296E0900579E064016003029A1B42
:10996400900969F0900969E0FF6410601DE0FE242D
:1099740043F582E43404F583E0123C12F583E06D90
:109984007008900969E004F080DAEF641070709058
:1099940002A9741112375E123686F0E4900969F058
:1099A400900969E0FFFDC3740F9DFDE49400FC740D
:1099B400CD2DF58274213CF583E493123C30123AA8
:1099C40065F0E0B410DA1235577D1512035EE490A9
:1099D4000969F0900969E0FF246AF582E43409F525
:1099E40083E0FE74432FF582E43404123A65F0E018
:1099F400B410E09005797402F0E4900114F022D2DE
:109A04001E123759123B9FF0A3141235567D0612CD
:079A1400035EE4900579F008
:019A1B002228
:10BB1C00D21E900582E0B41F0A9002AEE0B4080376
:04BB2C0012B8A42285
:0BBBE100E4FF12360B123745B410F7DA
:01BBEC002236
:10B42F00E4FFEFFDC374061236103CF583E0FE74A3
:10B43F00F52FF582E43402123752B402E5E4FFEF40
:10B44F00FDC3740D1236103CF583E0FE74ED2FF53D
:0AB45F0082E43402123752B408E50B
:01B4690022C0
:10BA0F00E4FF12360B3CF583E0FE74632FF582E4FE
:08BA1F003404123752B410EA9E
:01BA270022FC
:1089D0009002AEE0600122E4900943F0900943E088
:1089E000FF24AFF582E43402F583E0FE74462FF5F0
:1089F00082E43409123C3AF0E0B406E0D230900947
:108A00004BE0FFE4FCFDFEA312132A123BA79009E2
:108A10004A1237E8123BA79009491237E8900951EA
:108A20007402F0A37477F0900951E0C313F0A3E04F
:108A300013F0E4A3F0A3F0A37402F0A37477F0E4BE
:108A4000900950F0123C44C333CE33CED8F91239DA
:108A5000C0C31212B75020900951E0FEA3E0FF906E
:108A60000955EEF0FCA3EFF09009531238037002A1
:108A7000EE6C7039028ACB123C44C333CE33CED86D
:108A8000F91239C0D31212B7401B900951E0FEA36E
:108A9000E0FFA3EEF0FCA3EFF0A31238037002EEA8
:108AA0006C700A80269009507401F0801E90095362
:108AB0001237C5900956E09FFF900955E09EFED3FE
:108AC000EF9400EE94004003028A44900950E07055
:108AD00003028B9B1235B67F05123C9212102D605B
:108AE00003028B9B1235B67F06123C9212102D604A
:108AF00003028B9B1235961236AEFCEF6C70089019
:108B000009447404F0802C1239003EF583E4936C20
:108B100070089009447444F0801912359612386830
:108B20001236BDFEEF6E90094470057484F0800328
:108B300074C4F0E4900943F0900943E0FF2463F526
:108B400082E434041235D8123C3AF0E0B410E91251
:108B500035961313543F900945F07F0112203DA232
:108B6000AFE433F510C2AF900945E0FE900944E050
:108B70007C002400FFEC3EFEEF242AFFEE347A1244
:108B80003BE8900A36E4F0A37410F0122111E510CE
:0B8B900024FF92AFE4FF12203DD22D25
:018B9B0022B7
:10BA2800E4FF12360B3CF583E0FE74732FF582E4D5
:08BA38003404123752B410EA85
:01BA400022E3
:10B8A400900566E0701A123759F0E4A3F0A3740B04
:10B8B400F0900892E09002AE1235567D0612035EB7
:01B8C4002261
:10BAC8001239641234F97401935403B401047F02E7
:04BAD80080027F1059
:01BADC002247
:10B130001239641234F9E493FFE4FEEF54557004BD
:10B140007E028037EF30E60890057AE070027E08D4
:10B15000EE700BEF30E40712389250027E05EE706D
:10B160001AEF5414601590057BE070047E0F800B7D
:0EB17000900113E0C3941050027E0CCFEECF7E
:01B17E0022AE
:10B17F001239641234F9E493FFE4FEEF54AA700419
:10B18F007E038037EF30E70890057AE070027E0883
:10B19F00EE700BEF30E50712389250027E05EE701D
:10B1AF001AEF5428601590057BE070047E0F800B1A
:0EB1BF00900113E0C3941050027E0CCFEECF2F
:01B1CD00225F
:063C9200900A0512137CEC
:103C9800A2AFE433F511EF1213913F94013CC10236
:103CA8003CE0033D02043EFD0540EB0641B00742FF
:103CB8009F08433609000043D6E4900A08F01239F9
:103CC8000C94025032129D51900A08E0FF12AD9AEE
:103CD800900A08E004F080E6E4900A08F012390C33
:103CE80094035013129C8E900A08E0FF12AD3F9087
:103CF8000A08E004F080E6023EF61235EC74011280
:103D08001073E4900A08F0900A08E0C39402400394
:103D1800023EEBE0FD75F004A4FFAEF0900A0BEE56
:103D2800F0FAA3EFF0FBE4900A09F0A3F0ED7F00AE
:103D3800FE123AFC3EF583E493FF6B7001EA603BA8
:103D4800EFF47003023EEB900A09E4F0A304F0904C
:103D58000A0912372A9440EC940050101235F23CAC
:103D6800F583E493B4FF0512367180E3900A09E005
:103D78007004A3E064406003023EEB1239D2123CA7
:103D88004E1239EDE02401FB1238D6FAEB6D7001C2
:103D9800EA603CEFF47003023EEB900A09E4F0A3FA
:103DA8007441F0900A0912372A9480EC940050105C
:103DB8001235F23CF583E493B4FF0512367180E3C3
:103DC800900A09E07004A3E064806003023EEB12ED
:103DD80039D2123C551239EDE02402FB1238D6FADA
:103DE800EB6D7001EA603CEFF47003023EEB900A61
:103DF80009E4F0A37481F0900A0912372A94C0EC00
:103E0800940050101235F23CF583E493B4FF051288
:103E1800367180E3900A09E07004A3E064C060038F
:103E2800023EEB1239D2123C5C1239EDE02403FB5E
:103E38001238D6FAEB6D7001EA6037EFF4700302BE
:103E48003EEB900A09E4F0A374C1F0900A09123716
:103E58002AEC940150101235F23CF583E493B4FF38
:103E68000512367180E5900A09E064017002A3E04A
:103E78007071900A09E0FFA3E0A3CFF0A3EFF090E0
:103E88000A0B1237C5EE94015044EF243EFFE43E7E
:103E9800900A09F0A3EFF01238CF900A09123729D7
:103EA8009FEC9E50101235F23CF583E493B4FF0565
:103EB80012367180E21238CFFE900A09E06E700364
:103EC800A3E06F7009900A0B123BB2023E87900A7A
:103ED80009E0B4010EA3E0B40009900A08E004F078
:103EE800023D0F900A08E0640260030243D61235CF
:103EF800ECE402434A1235EC123B04F012390C94FC
:103F0800025064123666123C63123A6F6009123925
:103F180013123C5C023F56123661123870123A6F27
:103F28006008123913123C55802412366112390583
:103F3800123A6F6008123913123C4E801112366122
:103F4800123B13123A6F6016123913123AFD3EF5FE
:103F580083E493FF900A09E4F0A3EFF08009900A44
:103F680008E004F0023F04900A0BE0FEA3E0FF4ED5
:103F780070081235EC740402434A900A09A3E0124F
:103F880035EBED1239E790000202429B1235EC1234
:103F98003B04F012390C940240030240701236665A
:103FA800123C63123B4E6040EF123C631235E5123F
:103FB800391DEF123C5C1237B612390C74019FFFA1
:103FC800129D5112390C74019FFF12AD9A900A0B81
:103FD800E4F0A37402F0900A08E0FF700302407056
:103FE800C374029FF0024070123661123870123B9F
:103FF8004E601B12386F1235E512391DEF123C5511
:104008001237B6900A0BE4F0A374C202405D123670
:1040180061123905123B4E601A1239041235E51245
:10402800391DEF123C4E1237B6900A0BE4F0A37418
:10403800828022123661123B13123B4E6021123BE2
:10404800121235E512391D123AFC1237B6900A0BD6
:10405800E4F0A37442F012390C74019FF0800990C7
:104068000A08E004F0023F9B900A0BE07002A3E00C
:1040780070161235EC740112391E900A0BE4F0A385
:104088007402F0E4900A08F01235EC1236C3700797
:10409800900002041210851239D2123AFD3EF583BF
:1040A800C083C082900A0BE0FCA3E0FDD082D083DD
:1040B8002582F582E5833CF583E493F4900A056054
:1040C80008121373740302434A1213731236C3128D
:1040D8003980900A08123942CF2DCF3C123572F040
:1040E8000243D31235ECE4121073900A09F0A3F0DE
:1040F800900A0912372AEC94014003024199900A68
:10410800051235931313543F7F00FE123B121236EB
:10411800003CF583E493FF1235EC1236C3FEEF6ED4
:104128007066900A08F0900A08E0FDC3943A50615E
:10413800900A051235931313543F7F00FEEF2404B1
:10414800F582747A3EF583C083C082EDFF900A0A37
:10415800E02FFF900A09E03400FED082D083123BA2
:10416800293EF583E493FF1235ECE92403F9E43A98
:10417800FA900A08E07C0029F9EC3AFAEF12107379
:10418800900A08E004F0809E900A09123BB20240AF
:10419800F8900A09E064017002A3E060030243D6C4
:1041A8001235EC740502434A1235ECE41210739090
:1041B8000A08F0A3F0A3F0900A091237C59406EE96
:1041C800940050371235EC1236C3FD123BB9FEEF9E
:1041D8007807C333CE33CED8F92402F582747C3EF7
:1041E800F583E4936D700F900A09E07002A3E07004
:1041F8000A900A0804F012367180BC900A08E0B4EC
:104208000111A3E07004A3E064056007E4900A09C3
:10421800F0A3F0123BC170081235EC740402434A53
:10422800123BB9900A09F0A3EFF01235EC1239E607
:10423800900A087405F0900A08E0FDC3948050378E
:10424800A3E0FEA3E07807C333CE33CED8F9240029
:10425800F582747C3EF583E5822DF582E43583F59D
:1042680083E493FFF4600A900A08E02F2402F080A8
:10427800C5900A08E014F0900A08E0C3947C40084E
:104288001235EC7406121073900A08E0FF1235EC30
:10429800900003EF0243301235ECE4121073900AD9
:1042A80009F0A3F0900A091237C59406EE9400505D
:1042B80021123BB9FEEF7807C333CE33CED8F924A9
:1042C80002F582747C3EF583E493B4FF05123671DF
:1042D80080D2123BC17008900A09F0A3F08012EF57
:1042E8004E600EC374069F900A0AF0E49E900A0975
:1042F800F0900A09E0FEA3E0FF1235EB900001ED13
:104308001210851236C3123980EF7807C333CE33C3
:10431800CED8F92402FFEE347C123572F01243DA5B
:104328001235EC90000374041210850243D612353E
:10433800ECE41210731235EC123A2CC3947C40084A
:1043480074061210730243D6E4900A09F0A3F0121F
:1043580035EC9000051210462402FFE433FE900A63
:1043680009E0FCA3E0FDD39FEC9E501E74042DF5DC
:1043780082E43CF583121046FF74432DF5827403E2
:104388003CF583EFF012367180C5900A051235931B
:10439800FF123A2CFD123986EF75F080A42400FF35
:1043A800E5F0347CFE7C00EF2DFFEC3EFEEEC0E035
:1043B8001235EC9000051210462402FEEC33900AE8
:1043C80036F0A3CEF0123BE9D0E0FE1243DA123504
:0143D800ECF8
:0B43D90022122111E51124FF92AF22F7
:039C8E00900A9D9C
:109C910012387DF512E4900AA0F0301635304014E8
:109CA1001237C29406EE9400500280129005E0E053
:109CB10024E180241237C29404EE9400500C12382F
:109CC1001E900A9EF0A3EFF0801C9005E0E024E7CF
:109CD10080069005E0E024F0FE9005DFE034FF907F
:109CE1000A9EF0A3CEF01239F8900A9FE09D900AE7
:109CF1009EE09C502712A2F312820A12BC92900598
:109D01008D123674900AA0123715900A9F123C6A80
:109D1100900A9EE09E5005E4900AA0F0A2AFE433C1
:109D2100F512C2AF7F0112203D900A9D123C74FED4
:109D310012204EE4FF12203DE51224FF92AF900A5B
:0F9D4100A0E0B4010A902062E030E503123B5528
:019D500022F0
:039D5100900AA1D4
:109D540012387DF513E4900AA4F03016353040141F
:109D64001237C29406EE9400500280129005E0E08F
:109D740024E180241237C29404EE9400500C12386B
:109D84001E900AA2F0A3EFF0801C9005E0E024E707
:109D940080069005E0E024F0FE9005DFE034FF90BB
:109DA4000AA2F0A3CEF01239F8900AA3E09D900A1B
:109DB400A2E09C502712A2F312820A12BC929005D0
:109DC4008D123674900AA4123715900AA3123C6AB5
:109DD400900AA2E09E5005E4900AA4F0A2AFE433F6
:109DE400F513C2AF7F0112203D900AA1123942FE41
:109DF40012204EE4FF12203DE51324FF92AF900A97
:0F9E0400A4E0B4010A902062E030E503123B5560
:019E1300222C
:03AD9A00900A6CB0
:10AD9D0012387DF514E075F004900A6F123877F5CE
:10ADAD0014C2AFE4900A6DF0A3F0900A6D12372A29
:10ADBD00EC94015028A3A3E0900343F0A3F0900A74
:10ADCD006C123942CF2DCF3C123572F012211190F9
:10ADDD000A6F123674900A6D123BB280CDE51424C1
:03ADED00FF92AF23
:01ADF0002240
:03AD3F00900A7106
:10AD420012387DF515E075F002900A74123877F525
:10AD520015C2AFE4900A72F0A3F0900A7212372A79
:10AD6200EC9401502CA3A3E0900343F0A3F0900ACB
:10AD720071123C74CF2DCF3C123572F0122111901A
:10AD82000A74123674900A72E475F08012110E8001
:07AD9200C9E51524FF92AF93
:01AD99002297
:109A1C00A2AFE433F5161235B67F05123C92121044
:109A2C002D6003029AF01235B67F06123C9212108A
:109A3C002D6003029AF01235961236AEFCEF6C7064
:109A4C0008900AD77404F0802C1239003EF583E498
:109A5C00936C7008900AD77444F0801912359612E2
:109A6C0038681236BDFEEF6E900AD770057484F01C
:109A7C00800374C4F0E4FF740D2FF582E4340112FA
:109A8C0035D8123752B41AEF7F1A74D62FF582E4F8
:109A9C0034051235D8123752B420EF7F2074232F9F
:109AAC00F582E434051235D8123752B42AEF123548
:109ABC00961313543FFFA2AFE433F516C2AFEF1267
:109ACC003943FE900AD7E07C002FFFEC3E123BE8B6
:109ADC00900A36E4F0A3742AF0122111E51624FF43
:049AEC0092AFD22A39
:019AF0002253
:104EEB001238925003024FF01235B67F05124FF174
:104EFB006003024FF01235B67F07124FF164047056
:104F0B0003024FF0900A777405F0900A781213732E
:104F1B00123A2CFF900A77E0FEC39F4003024FF03A
:104F2B00123596123B62E5822EF582E43583F583CA
:104F3B00E493F460D5E4900A76F0900A78123593F6
:104F4B00907C001237CFC083C082900A77E0FED0EE
:104F5B0082D083123BCDF583E493FD900A76E0FC7F
:104F6B00C39D505875F080EF907C01121367ECFDD8
:104F7B00EE2DFFE433123B283EF583E493FF900ABA
:104F8B0078123593907BFF123B65C083C082900AE9
:104F9B0077E0D082D083123BCDF583E49375F00399
:104FAB00904EE812358A900A76E0F582758300EF11
:104FBB00121085900A76E004F0024F45900A7812A1
:104FCB003593123B62C083C082900A77E0FFD08298
:104FDB00D083123BCDF583E493FEEF2E2402900A8F
:054FEB0077F0024F15F4
:0E4FF00022123C92900A7812137C12102D228D
:068000009009DF12137C61
:10800600E49009E6F090054FE0640360030281FE08
:108016003008030281F63014030281F69009E21259
:108026003B3E9009E8F012359614FFB4FF0690091E
:10803600E8E014F0D248E49009E7F09009E7E0FEA2
:108046001234CEE493FD9009E8E0FCED6C7010125A
:108056003A531234D47401936F7004C2488013905B
:1080660009E7E004F0E0FD90059BE07003A3E06DF6
:1080760070C93048030281EE9009E71234CC7405CA
:1080860093FE20E40302812D75F003EF904D9312C9
:10809600358A12102D20E0030281249009E7E0754D
:1080A600F002904E5E1234D4123C7EF0BF0105748D
:1080B60002F080069009E97410F09009E5E0FFD31C
:1080C600940050030281CE1238A2FDEFD39D4003E7
:1080D6000281CE741B123B1A123686F0E4A3F0120C
:1080E6003596123A77F09009E5E0FF9009E7E0FD52
:1080F600C39F501E9009DF12137312376FFC741260
:108106002DF582E43405F583ECF09009E7E004F000
:1081160080D4EF2407900580F0D2080282049009EB
:10812600E67416F0028204EE20E5030281E6900969
:10813600E7E0FF75F003904D9312358A12102D205B
:10814600E1030281DE300F030281D675F002EF9063
:108156004E5E1234F9123C7EF0BF01057402F080C7
:10816600069009E97410F09009E5E0FFD394004009
:10817600571238A2FEEFD39E504E741D123B1A12B0
:108186003686F0E4A3F0123596123A77F09009E5B8
:10819600E0FF9009E7E0FEC39F50209009DF12132D
:1081A600738E82123771FD74122EF582E43405F552
:1081B60083EDF09009E7E004F080D2EF2407900504
:1081C60080F0D20FD20880369009E6741BF0802E1C
:1081D6009009E6740CF080269009E67417F0801E6C
:1081E6009009E6740BF080169009E67408F0800E8C
:1081F6009009E6740AF080069009E67415F0900975
:03820600E6E0FFB0
:018209002252
:09BC6500C23790083B1213732250
:06BCAF00900573E0FF2286
:10B6F200E4FF90054FE0B40320203C16900582E061
:10B70200B41C0FD23CE490057EF0900582741DF0CB
:0BB712008009900582E0FF80027F1597
:01B71D002209
:10B8C500900582E0FEB41E14900586E0D3941450D2
:0FB8D5000BE004F0C23C900582741CF0CFEECF64
:01B8E4002241
:10B03E009002AD7406F0A37401F0E4A3F0A374FFC4
:10B04E00F0A3F0E4A3F0A37428F07417123683F083
:10B05E00E4A3F0FF902242E493FEEFC39E5013EF61
:10B06E00A393FE74B42FF582E43402F583EEF00F51
:10B07E0080E21235577D1B12035E90057E7401F03F
:01B08E00229F
:10B92500E4FF900582E0FEB41F11303C047F2380C4
:0EB935000DD23C90057E740BF08003CFEECF58
:01B9430022E1
:10B94400E4FF900582E0FEB41F11303C047F2380A5
:0EB954000DD23C90057E740CF08003CFEECF38
:01B9620022C2
:10AE9F00900567E0FFC3940C4006EFD39411400573
:10AEAF00EF6406703E90057EE0640B701412367BE3
:10AEBF0012398FF09007757401F09002B0F0E480B2
:10AECF001890057EE0640C701A12367B12398FF0E1
:10AEDF00E4900775F09002B0F01235557D0912031A
:04AEEF005EC23C22E1
:10B7C700123C88701F900717E07008A3E070047F91
:10B7D700208014303C047F23800DD23C90057E747A
:07B7E7000DF08003CFEECF4F
:01B7EE002238
:10B7EF00123C88701F900717E07008A3E070047F69
:10B7FF00208014303C047F23800DD23C90057E7452
:07B80F000EF08003CFEECF25
:01B81600220F
:10AEF300900567E0FFC3940C4006EFD3941140051F
:10AF0300EF6406703E90057EE0640D701412367B8C
:10AF13001239A3F090071C7401F09002B0F0E480A2
:10AF23001890057EE0640E701A12367B1239A3F076
:10AF3300E490071CF09002B0F01235557D0912031E
:04AF43005EC23C228C
:09BC6E00C21C9008961213732207
:06BCB500900583E0FF2270
:03A4C400CAEFCA12
:10A4C700E4FE90054FE06403600302A55290058205
:10A4D700E0FD641F707090078FE0FC7008A3E070C8
:10A4E700047E218068201B5A902297E493FBEAD3CD
:10A4F7009B504B9004EF7412F0EA24039004EB1284
:10A507003686F0E4A3F0900790E09004F0F0A3EC17
:10A51700F0E4FFEFC39A501B74922FF582E43407DF
:10A52700F583E0FC74F22FF582E43404F583ECF054
:10A537000F80E0EA240790057FF0D21B800F7E1B77
:10A54700800B7E228007CEEDCE80027E15CFEECF28
:01A5570022E1
:10B9D900904E5C1236DB74019330E20B75F003EF85
:0BB9E90012358712376FFDCFEDCF2223
:10B83C00900AA512132A900567E0B42811900AA566
:10B84C0012130290045F12132AE4900567F0D20ED3
:03B85C00C23422D1
:10BB7B00300E0C900579E0B4010312A788C20E2297
:10BB58001239641234F974019330E3037F01227FB0
:02BB68000022B9
:08030300C230A22DE433FF22F9
:10B33500080C1014181C2024282C30383C40444894
:10B345004C5054585C6064686C7074787C80848858
:10B355008C9094989C0434A000000000000000012B
:10B365000418031802180F18000000000000000060
:102CEB00900966E0FCA3E0FD25E0FFEC33FE7403E6
:102CFB002FF582744D3EF583E493FE740193F582B8
:102D0B008E8322E0FF24CBF582E43404F583E0FECE
:102D1B0074852FF582E43420F58322900A50121328
:102D2B0073900A54E0FFF582758300121046FE740F
:102D3B00A92FF582E43402F583EEF0900A54E0FFFC
:102D4B0024A9F582E43402F583E0FEE42FF582E456
:102D5B003421F583223CF583E0FE74432FF582E4A6
:102D6B003405F583EEF09008C0E004F0223EF583C5
:102D7B00EDF0900A1CE475F00102110E74A02FF512
:102D8B0082E43408F583E0FE74B02FF582E4340856
:102D9B00F583E06EFE74A92FF582E43402F58322ED
:102DAB009002CBE090204EF09002CCE024049020D7
:102DBB004DF074869020A5F0900062229005C2E041
:102DCB00FE9005C1E07C002400FFEC3E90099CF0D6
:102DDB00A3EFF090099CE0FEA3E0FF7C0B7D721249
:102DEB0013B7E47B9B7A3BF9F81212029009A412F9
:102DFB00132AA240B3E4FCFDFE33FF9009A4121387
:102E0B001E12117790099CCDEFCDCCEECCE0FEA33A
:102E1B00E0780322900958E0FFFD7405C39DFDE4A3
:102E2B009400FC2290055DE033333354F8FE90059B
:102E3B0069E0C454F04EFE90055EE025E025E022EB
:102E4B003CF583E493FE74AE2FF582E43402F583F4
:102E5B00EEF090097AE004F02290055DE033333315
:102E6B0054F8FF900569E0C454F04FFF90055EE005
:102E7B00FE25E025E04F44029002CBF0900A53E090
:102E8B009002CCF090204DF09002CBE090204EF0D1
:102E9B0022E0FF900966E0FCA3E0904D8D75F003F6
:102EAB00121367EC75F003A42583F583021385FFDA
:102EBB00900958E0FE900961E0FCA3E02EF582E456
:102ECB003CF583EFF0900958E004F0229005C4E044
:102EDB009005C3FEE07C002400FFEC3E22E0FE9058
:102EEB00055FE075F020900169121367E5822FF5FD
:102EFB0082E43583F5832274119002A9F0E4A3F0E8
:102F0B007406A3F0E4A3F0A3229002CAE090204D34
:102F1B00F074049020A5F09000622275F002EF90FF
:102F2B004D03121367E493FC740193F5828C832297
:102F3B00900958E0FFFDC374FF9DFD740294008D52
:102F4B0082F583E493FE221210467E00FF900A83E3
:102F5B00EEF0A3EFF02290054EE0C3940122900A0D
:102F6B001CE0FEA3E0FF22F583E0FE74A02FF582A8
:102F7B00E43408F583EEF00FEF224EFE9002C9E029
:102F8B0054034E900552F090204EF0900567E0FEF2
:102F9B00C3940C22121302EF2401FFE43EFEE43D26
:102FAB00FDE43CFC22131313541F24C7F582E434B5
:102FBB0005F583223EF583E493FD2274F02DF58213
:102FCB0074053CF583E0FE74D32FF582E43400F5F1
:102FDB0083E022F9E43AFA9008C0E0FF7C0029F97B
:102FEB00EC3AFA02102DC23EC222E490054FF0904B
:102FFB002062F0900056F02290055DE0333333549D
