:04000000FFFF807707
:0CA4F400787FE4F6D8FD75812F02A53BAF
:02FFFE005AA502
:03000B0002030BE2
:03001300020313D2
:03001B0002031BC2
:03002300020323B2
:03002B0002032BA2
:0300330002033392
:03003B0002033B82
:0300430002034372
:03004B0002034B62
:0300530002035352
:03005B0002035B42
:0300630002036332
:03006B0002036B22
:0300730002037312
:10007B0075816075940075A8007B00740051049025
:10008B0020017480F074A0F075372075384E511B29
:10009B006036D537F9E5386005D538F280F090FF3A
:1000AB00FEE493B4FF1E740193B4FF187594029091
:1000BB00FFFEE493B45A0D740193B4A5077B5A75F4
:1000CB009400800651146100010031FA75360375F6
:1000DB00390AD539028041853683758200510D313D
:1000EB00D3E536C39480400E7532028536307535B4
:1000FB0000853633800F75320174802536F53075E7
:10010B003500853633314670C9E536B4FF067400C9
:10011B00510480B4053680B786408841858342857B
:10012B008243740093F5447545007546EE7547118F
:10013B0090FFF87408510D319B80FE7D007E108579
:10014B0030838D8285329431788533838D828535EA
:10015B0094510D319E8533838D8285359431857015
:10016B0009ED2410FDDED874002274FF2278407F45
:10017B0010740093F6A308DFF82278407F10863ABC
:10018B00740093B53A07A308DFF474002274FF22BE
:10019B00FF802374015104E583C394034027E5BA20
:0A01AB0054076002800AE5D85404EE
:1001B500700A800201CF745AC39B70F87F10784093
:1001C500E6B4FF028001F0A308DFF55114227404A0
:1001D5005104E583C394034019E5BA5407600280CE
:1001E5000AE5D85404700A800201CF745AC39B7083
:1001F500F8F051142275EBAA75EB55759B10227515
:10020500EBAA75EB55F59A22E587D2E4F58722E549
:1002150087C2E4F587229020387490F090202B74E3
:1002250024F090202B7425F0513CE020E0EE20E4F2
:0E023500037400227401227CE30000DCFC2232
:0303000002A4F460
:104975000B0201050302F0FF03190000000000000F
:104985000000000000000000000000000000000022
:104995000E0D09414D4943434F4D5F44656D6F0011
:1049A5000000000000000000000000000000000002
:1049B5000000000128000200180002280305020378
:1049C50000002A00032A000C414D4943434F4D5F27
:1049D50044656D6F0004280305020500012A0005E2
:1049E5002A010200000006280305080700032A0023
:1049F500072A03060000000000000008280305023E
:104A05000900022A00092A020100000A28030502FA
:104A15000B00042A000B2A04085000800000002C1B
:104A250001000C2800020118000D280305220E00C4
:104A3500052A000E2A05040100FFFF000F290202C6
:104A4500000000102800020A1800112803050212B0
:104A550000252A00122A250430303031001329049C
:104A650007190000000100000014280305021500C5
:104A7500292A00152A290D414D4943434F4D20450B
:104A85006C65632E0016290407190000000100005B
:104A95000017280305021800232A00182A230855A1
:104AA500AA55AA55AA55AA0019280305021A0026CF
:104AB5002A001A2A260456302E38001B2904071905
:104AC500000000010000001C280305021D00242A27
:104AD500001D2A24064D4438313037001E290407AD
:104AE50019000000010000001F280305022000270F
:104AF5002A00202A270355303300212904071900ED
:104B050000000100000022280305022300282A00D6
:104B1500232A2804303030300024290407190000E6
:104B2500000100000025280305022600502A002662
:104B35002A500701C000000000000027280002F2EB
:104B4500FD002828030514290010FA0029FA10147D
:104B55000000000000000000000000000000000050
:104B650000000000002A2902020000002B2901088C
:104B75004F54415F44415441002C280305282D0022
:104B850011FA002DFA1108000000000000000000D5
:104B95002E2902020000002F2901074F54415F43CF
:104BA5004D44003028030510310013FA0031FA1383
:104BB5000400000000003229020200000033290130
:104BC50011444154415F4552524F525F5354415431
:104BD500555300342800020F1800352803051236F6
:104BE50000192A00362A190164003729020200003B
:104BF5000038280002F0FF0039280305103A00F1BB
:104C0500FF003AFFF1140000000000000000000062
:104C150000000000000000000000003B2902020027
:104C250000003C280305083D00F2FF003DFFF2149B
:104C3500000000000000000000000000000000006F
:104C450000000000003E280305103F00F3FF003F71
:104C5500FFF3140000000000000000000000000049
:104C65000000000000000000402902020000004191
:104C7500280305084200F4FF0042FFF41400000079
:104C8500000000000000000000000000000000001F
:104C9500000043280305024400F5FF0044FFF51416
:104CA500000102030405060708090A0B0C0D0E0F87
:104CB500101112130001010101010101010102019D
:104CC50001010101010103010101010101010101CD
:104CD50001010101010101010101020103010101BC
:104CE50002010301010100010301010101010301A9
:104CF500010103010201010103010201010149B59D
:104D050049B749BE49C849D949E349EA49F449FF80
:104D15004A094A0F4A194A264A2D4A374A404A47FC
:104D25004A4E4A584A614A6D4A774A894A954A9F86
:104D35004AAC4AB64ABF4ACB4AD54AE04AEC4AF69B
:104D45004AFE4B0A4B144B1D4B294B334B3F4B46ED
:104D55004B504B694B704B7D4B874B944B9B4BA7F3
:104D65004BB14BBA4BC14BD74BDE4BE84BEE4BF53A
:104D75004BFC4C064C1F4C264C304C494C534C6C50
:104D85004C734C7D4C964CA0FF49BAFF49BCFF497A
:104D9500C301081FFF49DEFF49E8FF49EF0107BFCF
:104DA500FF4A04FF4A0EFF4A14FF4A1EFF4A2BFF23
:104DB5004A3201082B010831FF4A4CFF4A53FF4A8A
:104DC5005DFF4A66FF4A72FF4A7CFF4A8EFF4A9A98
:104DD500FF4AA4FF4AB1FF4ABBFF4AC4FF4AD0FFBE
:104DE5004ADAFF4AE5FF4AF1FF4AFBFF4B03FF4B57
:104DF5000FFF4B19FF4B22FF4B2EFF4B38FF4B4448
:104E0500FF4B4B0107A801082FFF4B75FF4B820194
:104E150008150107A6FF4BA0FF4BAC010837010899
:104E25001DFF4BC6FF4BDCFF4BE30107BE0107BC73
:104E3500FF4BFAFF4C010107C5010833FF4C2B015D
:104E450007EDFF4C4E0107D9010835FF4C780108E5
:104E550001FF4C9BFF4CA54CB94CBB4CBD4CBF4C0A
:104E6500BD4CC14CBD4CC34CBD4CC54CBD4CC74CD9
:104E7500BB4CBD4CC94CCB4CBB4CBD4CCD4CCF4CAD
:104E8500BD4CD14CCF4CBD4CD34CBD4CD54CCF4C6F
:104E9500BD4CD74CCF4CBD4CD94CCF4CBD4CDB4C4D
:104EA500CF4CBD4CDD4CBB4CBD4CDF4CE14CE34C19
:104EB500BD4CE54CE74CE94CBD4CEB4CED4CEF4C97
:104EC500BB4CBD4CF14CF34CBB4CBD4CF54CF74CBD
:104ED500BD4CF94CBD4CFB4CFD4CBD4CFF4CBD4D88
:064EE500014BEE0107BCC9
:108B3F004C081F414D4943434F4D5F44656D6F4690
:108B4F0007BF00000000000044082B000000004297
:108B5F00083100005407A8000000000000000000CA
:108B6F00000000000000000000000042082F00007D
:108B7F0048081500000000000000004207A6000092
:108B8F004408370000000042081D00004107BE6482
:108B9F004207BC00005407C50000000000000000A1
:108BAF000000000000000000000000004208330039
:108BBF00005407ED0000000000000000000000005E
:108BCF0000000000000000005407D9000000000062
:108BDF000000000000000000000000000000004244
:108BEF0008350000540801000000000000000000DC
:0B8BFF0000000000000000000000006B
:0BBB0400070006000203000110010111
:08BB5B00E4FF900AA812137C1C
:01BB630022BF
:10B9C200E4FF9009E812137C9009E51213739009C1
:04B9D200E812137CE8
:01B9D600224E
:030313000251C0D4
:0251C0000032BB
:03031B000251C2CA
:0251C2000032B9
:030323000251C4C0
:0251C4000032B7
:03032B000251C6B6
:0251C6000032B5
:03033B000251C8A4
:0251C8000032B3
:030343000251CA9A
:0251CA000032B1
:03034B000251CC90
:0251CC000032AF
:030353000251CE86
:1051CE00C0E0C0F0C083C082C0D0E8C0E0E9C0E05B
:1051DE00EAC0E0EBC0E0ECC0E0EDC0E0EEC0E0EF16
:1051EE00C0E0438701759108902062E030E503121C
:1051FE0070FD902028E030E70C900028E04480906D
:10520E002028F0D23FD0E0FFD0E0FED0E0FDD0E08D
:10521E00FCD0E0FBD0E0FAD0E0F9D0E0F8D0D0D06E
:08522E0082D083D0F0D0E03201
:03035B0002523615
:02523600003244
:10535F00A3F09009947407F0E4A3F090099AF0A3D6
:01536F00221B
:10523800E490099FF0A3F0A284B340FB12BBF212E2
:10524800AACDC2407F3212BBA112B2849009A2EF4C
:10525800F012202F120987126DC17F0612961912BB
:10526800BBF5E4FF12B0DD900AC67401F0120AB271
:1052780090054FE0704712BBEC900AC6E06018E456
:10528800F0900996F0A37408F0A37412F074C01299
:10529800535F04F0E48013900996E4F0A37480F05F
:1052A800A37405F074DC12535FF090099DF0900927
:1052B8009C04F0FB7A09799412A60C80B090054FF3
:1052C800E0FFB401119009A17401F0EF6401709D31
:1052D80012B5D402527590054FE06403708F900A9E
:1052E800C604F09009A1E060151209A79009A2EF81
:1052F800F064016004E0B40205E49009A1F03037DD
:105308004512BB64CFE9CF90099FEAF0A3EFF012F2
:10531800BBB690099EEFF0A3E064077004A3E064B5
:10532800A870067E077FA8801290099FE064087025
:1053380004A3E06415700F7E087F1590099EE0FDB8
:10534800120A7E120AB290054FE06403600302520B
:075358007512B5D402527575
:10AACD007580FFE4F5D1F5D275D3FF7590FFF5D9FB
:10AADD00F5DA75DBFF75A0FFF5A1F5A275A3FF757E
:10AAED00B0FFF5E1F5E275E3FF781EF608F6781E86
:10AAFD00E6FE08E6FFC3EE9420500E8F828E83E4AF
:10AB0D00F006E61870E80680E543B901E58754EFD5
:10AB1D004401F58775BA079005E1745AF0A374A541
:01AB2D00F037
:01AB2E002204
:0802F800FFFFFFFFFFFFFFFF06
:0C7FF40000000000F00000000000000091
:1021AD000000000000001000800000805F9B34FBE9
:1021BD000000000000000000000000000000000012
:1021CD0043730503E30B0F86C71041F0AEFD9D6908
:1021DD00E2485A7AD8D97C223057FA42DB598B25FE
:1021ED00DEAFBABE0213243546576879677547309E
:1021FD004AF6D91A28DDB5B7E148AC7E3B918AA6DF
:10220D00D71C4533E50BE58BE88D786175A7E34B5E
:10221D000180A0FBF9820000020002000002000212
:10222D000101010001000000000001010200010098
:10223D00000000280010D0002D121E4B0FA4994E47
:10224D00CEB531F405790000280313000000BD1D43
:10225D00A299E625588CD94201630D12BF9F00004B
:10226D00080000000000000000000029020200002C
:10227D000000280313000000D9D9AAFDBD9B2198A9
:10228D00A849E145F3D8D169000014000000000011
:10229D000000000000000000000000000000000031
:1022AD0000280313000000FB7B7CCE6AB344BEB54F
:1022BD004BD624E9C6EA22000014000000000000FD
:1022CD000000000000000000000000000000000001
:1022DD002902020000223C2253226B2276227D220B
:1022ED009522AC22C422DB01070001071E01074E17
:1022FD0001077001077701078F01073601075901A3
:10230D000717000003930000050200000A270000D4
:10231D000A9500000D93000010FA00001124000032
:10232D001451000016CB000017F2000019E3000055
:10233D001B6300001CB300001D4F00001E52000067
:10234D001EC200001F5B00001FF3000021E900000A
:10235D00224100002312000023320000236C0000F4
:10236D0023DF00002436000025000000254B00006F
:10237D0025BC000026080000264A000026B00000FB
:10238D0026BB0000306500003EE1000050E4000077
:10239D0056CD0000617100006D520000886500008F
:1023AD00A0400000B3620000C6100000CDFE00008A
:1023BD00DB700000F4B90000F76F00040CCE0004D0
:1023CD00155200041E64000426650004489A00049A
:1023DD004BED000452F300045453000469F800045B
:1023ED00D3CF0004DB560004E5360004F13E0004B3
:1023FD00F7E4000800070008669800086D41000822
:10240D007045000874020008E6890008F4AB000866
:10241D00F69C000C1539000C3021000C3E9F000C71
:10242D004DE9000C5101000C74C2000C771A000C20
:10243D00BC9F000CD74600101C0C001040F3001080
:10244D00417F001093E9001094BB00109ADD00103D
:10245D00DDB10014109F0014205E00145A05001405
:10246D008FC6001499E20014BD61001820320018C7
:10247D0034510018659000189EFC0018AF610018CB
:10248D00AF8F0018E7F40018EE690018F1D80018A6
:10249D00F643001C1AC0001C36BB001C5CF2001C6D
:1024AD009148001C9E46001CABA7001CE62B00208B
:1024BD003CAE0020768F002078F000207D74002047
:1024CD009BCD0020A2E40020AB370020C9D0002016
:1024DD00EE2800241EEB0024240E00245BA700240C
:1024ED00A0740024A2E10024AB810024E314002495
:1024FD00F0940024F67700280B5C0028373700286D
:10250D005AEB00286AB800286ABA0028A02B0028C8
:10251D00CFDA0028CFE90028E02C0028E14C002874
:10252D00E7CF0028ED6A0028F0760028FF3C002C4C
:10253D001F23002C200B002C3361002C61F6002C86
:10254D00B43A002CBE08002CF0A2002CF0EE0030A6
:10255D0010E4003035AD0030636B003090AB0030CF
:10256D00D9D90030F7C5003408BC003412980034B6
:10257D00159E0034363B003451C900347C2500349F
:10258D00A3950034AB370034C0590034E2FD003858
:10259D000F4A0038484C003866F0003871DE0038BC
:1025AD00892C0038B54D0038C9860038CADA003C90
:1025BD000754003C15C2003C2EF9003C2EFF003C98
:1025CD00AB8E003CD0F8003CE0720040300400407F
:1025DD00331A00403CFC00404D7F00406C8F0040A2
:1025ED00831D004098AD00409C280040A6D90040B6
:1025FD00B3950040CBC00040D32D004400100044E3
:10260D002A6000444C0C0044D8840044FB4200482E
:10261D003B380048437C00484BAA004860BC00484A
:10262D00746E0048A1950048A91C0048BF6B004876
:10263D00D7050048E9F1004C3275004C57CA004CE3
:10264D0074BF004C7C5F004C8D79004CB1990050EB
:10265D00323700507A55005082D50050A67F005079
:10266D00BC960050EAD600542696005433CB005445
:10267D004E900054724F0054996300549F130054B0
:10268D00AE270054E43A0054EAA800581FAA005897
:10269D00404E005855CA00587F570058B035005865
:1026AD00E28F005C0947005C1DD9005C5948005C55
:1026BD008D4E005C95AE005C969D005C97F3005CC2
:1026CD00ADCF005CF5DA005CF7E6005CF938006030
:1026DD000308006030D40060334B00606944006033
:1026ED00921700609AC10060A37D0060C54700602D
:1026FD00D9C70060F4450060F81D0060FACD006098
:10270D00FB420060FEC50064200C00645AED0064BD
:10271D007033006476BA00649ABE0064A3CB006483
:10272D00A5C30064B0A60064B9E80064E682006841
:10273D00092700685B350068644B0068967B00686C
:10274D009C700068A86D0068AB1E0068AE20006824
:10275D00D93C0068DBCA0068EF430068FB7E006867
:10276D00FEF7006C19C0006C3E6D006C4008006CEB
:10277D004D73006C709F006C72E7006C8DC1006C26
:10278D0094F8006C96CF006CAB31006CC26B00708E
:10279D001124007014A600703EAC0070480F00703C
:1027AD0056810070700D007073CB007081EB00705E
:1027BD00A2B30070CD600070DEE20070E72C0070F7
:1027CD00ECE40070EF000070F08700741BB2007431
:1027DD00811400748D0800749EAF0074E1B600740E
:1027ED00E2F5007831C100783A8400784F430078E3
:1027FD0067D700786C1C00787B8A00787E61007842
:10280D00886D00789F700078A3E40078CA3900784D
:10281D00D75F0078FD94007C0191007C04D0007C92
:10282D0011BE007C5049007C6D62007C6DF8007C0F
:10283D00C3A1007CC537007CD1C3007CF05F007C58
:10284D00FADF0080006E008049710080929F008049
:10285D00B03D0080BE050080D6050080E6500080AA
:10286D00EA960080ED2C0084299900843835008487
:10287D004167008468780084788B00848506008425
:10288D0089AD00848E0C0084A1340084B153008482
:10289D00FCAC0084FCFE0088190800881FA100888C
:1028AD005395008863DF008866A500886B6E0088ED
:1028BD00AE070088C6630088CB870088E87F008854
:1028CD00E9FE008C006D008C2937008C2DAA008C40
:1028DD005877008C7B9D008C7C92008C8590008CB1
:1028ED008EF2008C8FE9008CFABA009027E40090EC
:1028FD003C92009060F1009072400090840D009029
:10290D008D6C0090B0ED0090B21F0090B931009029
:10291D00C1C60090DD5D0090FD6100949426009489
:10292D00BF2D0094E96A0094F6A3009800C60098A4
:10293D0001A7009803D8009810E800985AEB00986A
:10294D009E630098B8E30098CA330098D6BB0098F0
:10295D00E0D90098F0AB0098FE94009C04EB009C2D
:10296D00207B009C293F009C35EB009C4FDA009C9E
:10297D0084BF009C8BA0009CE33F009CE65E009C06
:10298D00F387009CF48E009CFC0100A0182800A089
:10299D003BE300A04EA700A056F300A0999B00A01A
:1029AD00D79500A0EDCD00A4313500A45E6000A444
:1029BD00670600A4B19700A4B80500A4C36100A4E4
:1029CD00D18C00A4D1D200A4E97500A4F1E800A82F
:1029DD00206600A85B7800A85C2C00A860B600A853
:1029ED00667F00A886DD00A8880800A88E2400A8B0
:1029FD00968A00A8BBCF00A8BE2700A8FAD800ACC5
:102A0D001F7400AC293A00AC3C0B00AC61EA00AC81
:102A1D007F3E00AC87A300ACBC3200ACCF5C00ACF9
:102A2D00E4B500ACFDEC00B019C600B0349500B0B3
:102A3D00481A00B065BD00B0702D00B09FBA00B04F
:102A4D00CA6800B418D100B44BD200B48B1900B4CD
:102A5D009CDF00B4F0AB00B4F61C00B8098A00B8D6
:102A6D0017C200B841A400B844D900B853AC00B89F
:102A7D00634D00B8782E00B88D1200B8C11100B8A2
:102A8D00C75D00B8E85600B8F6B100B8FF6100BCEC
:102A9D003BAF00BC4CC400BC52B700BC543600BCAC
:102AAD00677800BC6C2100BC926B00BC9FEF00BC32
:102ABD00A92000BCE14300BCEC5D00C01ADA00C0E7
:102ACD00639400C0847A00C09F4200C0A53E00C040
:102ADD00B65800C0CCF800C0CECD00C0D01200C09A
:102AED00F2FB00C42C0300C4618B00C4846600C4D7
:102AFD00988000C4B30100C81EE700C82A1400C89E
:102B0D00334B00C83C8500C869CD00C86F1D00C897
:102B1D00855000C8B5B700C8BCC800C8D08300C870
:102B2D00E0EB00C8F65000CC088D00CC08E000CCDE
:102B3D0020E800CC25EF00CC29F500CC2DB700CC3A
:102B4D00446300CC785F00CCC76000D0034B00D04D
:102B5D0023DB00D0259800D02B2000D0331100D0DE
:102B6D004F7E00D0817A00D0A63700D0C5F300D0BB
:102B7D00D2B000D0E14000D4619D00D461DA00D420
:102B8D00909C00D49A2000D4A33D00D4DCCD00D479
:102B9D00F46F00D8004D00D81D7200D8306200D8F7
:102BAD008F7600D8969500D89E3F00D8A25E00D8AB
:102BBD00BB2C00D8CF9C00D8D1CB00DC0C5C00DC4A
:102BCD002B2A00DC2B6100DC371400DC415F00DCBC
:102BDD0056E700DC86D800DC9B9C00DCA4CA00DC38
:102BED00A90400DCD3A200E0338E00E05F4500E0D5
:102BFD00667800E0ACCB00E0B52D00E0B9BA00E09E
:102C0D00C76700E0C97A00E0F5C600E0F84700E4C8
:102C1D0025E700E42B3400E48B7F00E498D600E434
:102C2D009A7900E49ADC00E4C63D00E4CE8F00E41E
:102C3D00E0A600E4E4AB00E8040B00E8068800E839
:102C4D00802E00E88D2800E8B2AC00EC358600EC53
:102C5D00852F00ECADB800F0189800F0247500F049
:102C6D00766F00F0796000F0989D00F099B600F055
:102C7D0099BF00F0B0E700F0B47900F0C1F100F0B9
:102C8D00CBA100F0D1A900F0DBE200F0DBF800F001
:102C9D00DCE200F0F61C00F40F2400F41BA100F49C
:102CAD0031C300F437B700F45C8900F4F15A00F435
:102CBD00F95100F8037700F81EDF00F8279300F8AC
:102CCD00621400F86FC100F895EA00FC253F00FC86
:0E2CDD002A9C00FCD84800FCE99800FCFC484A
:108C0A0057070000000000280010D0002D121E4B4C
:108C1A000FA4994ECEB531F4057958071E000028E5
:108C2A000313000000BD1DA299E625588CD9420104
:108C3A00630D12BF9F4B074E0000080000000000A2
:108C4A000000004707700000290202000058077759
:108C5A000000280313000000D9D9AAFDBD9B219862
:108C6A00A849E145F3D8D16957078F0000140000DD
:108C7A0000000000000000000000000000000000EA
:108C8A0000005807360000280313000000FB7B7C15
:108C9A00CE6AB344BEB54BD624E9C6EA2257075971
:108CAA0000001400000000000000000000000000A6
:108CBA000000000000000047071700002902020018
:018CCA0000A9
:1034C9009008FCE0FF904D0375F002121367E49336
:1034D900FC740193F5828C8322900A2FE0FFA312DA
:1034E9001373900004EF121085904EE6EF75F00209
:1034F900121367E493FE740193F5828E832290027E
:10350900AFF09022EE75F003ED121367EC75F0033E
:10351900A42583F5831213859000011210469002A9
:10352900B02402F09022EE75F003ED121367EC75EA
:10353900F003A42583F5830213859002ADF074018D
:103549009002A9F0E4A3F0A37404F0E4A3F07B01D2
:103559007A0279A92212137390000112104675F0AC
:1035690080A42400FFE5F0347BFE7B017A037943D4
:10357900900A25E4F0A3740222A3E075F003904DAC
:103589008D121367021385900A08121373900001B4
:10359900021046EF2402FFE433FEE075F002904D7D
:1035A900030213677404939000051210857B017A56
:1035B900037903229002AD7404F090071FE0FE2402
:1035C90002FDE433FCD3ED94FFEC6480948022F592
:1035D90083E0FE74432FF582E43403223EF583E44D
:1035E9009304FD9009F40213739009F7E07F00FE3C
:1035F900EF2400F582747A3EF583E5822DF582E5A4
:103609008322EFFD7414C39DFDE49400FC74A92D7D
:10361900F582740222F09008FDE004F0EF75F002E3
:10362900904D03228D82758300121046900A30FF57
:10363900ED2406FDE433FC1213738D828C83EF02B3
:10364900108590071FE02402FE9002AEF0EF04FF00
:10365900A3F0A3EEF0A3EF229009F7E0FFC37401F2
:103669009FFFEF7F00FEEF229009F8E475F0010259
:10367900110E9002AD7412F074059002A9F0E4A342
:10368900F0A37404229002ADE0FFA3E0FDA3E0FBE8
:103699009009B522EE2402FE9002AEF090071EE0DA
:1036A900FD9002AF221313543FFD7F00FEEF240269
:1036B900F582747A3EF583E493FF90000202104686
:1036C900900914E004F0E0FF90059B22E493FD903B
:1036D9004EE675F002EF121367E493FA740193F55D
:1036E900828A8322740193FF9002AEE0FEEF22E406
:1036F90093FF9008FDE024A9F582E4340222E493C3
:10370900FE740193FFF5828E837402227401F09096
:10371900205EE0FEA3E0FDED2440FFE43E9005DFDE
:10372900FEE0FCA3E0FDC322900ABCE075F003A40F
:1037390024F4F582E43422F5830213853CF583E011
:10374900FE74432FF582E43404F583EEF00FEF2283
:1037590074029002A9F0E4A3F0A3740622E493FE94
:103769009002AFE0FD228D82758300021046900A17
:103779002FE0FF75F002904EE622E0FFFDD39005A1
:103789009EE09D90059DE0940022E493FC740193D2
:103799002FF582EC3EF583E4932403FFE433FE9096
:1037A90002A9E0D39FEE6480F8748098223EF583E5
:1037B900E4930490000102108590058FE0FEA3E0D8
:1037C900FFC322907B82FF75F080021367900A0580
:1037D900E0FFC3940222900A34E0FFC3940222C896
:1037E900ECC8C9EDC9CAEECACBEFCBE0FFE4FCFDDA
:1037F900FE12129490093502132AFDE0FAA3E0FBA8
:10380900EF2BFFEE3AC313FEEF13FF90093AEEF0E8
:10381900A3EFF06D227C007D031210A7EF2410FFA7
:10382900E43EFEC39005E0E09FFF9005DFE09E22A5
:103839007401F09002B1E0FF9002AF229002B2E071
:103849002401FDE433FC900703E0FEFBD3ED9B74F8
:1038590080F86C9822EF2402FFE433FEE0FD221386
:1038690013543F7F00FEEF2482F582747A22A4FF6D
:10387900E5F0F0A3EFF0A2AFE43322F583EFF09087
:1038890008FDE004F09008FB22900574E0C3940160
:103899002275F003EF904EE8229009E1E02402FD41
:1038A900E433FC9009DA1213738D828C830210467B
:1038B900F5837404F0900A05E00422F5837404F09A
:1038C900900A34E004229009FBE02440FF9009FAB1
:1038D900E0340022A3E0FD9002AEE0D39D22740102
:1038E90093FF9002B0E0FEEFD39E227B017A02792A
:1038F900B09009E502137CED7F00FEEF2442F582CA
:10390900747A229009F7E0FFC3229009FAE4F0A340
:10391900EDF0EF22ED900002021085900ABBE02540
:10392900E0FF900ABAE033FE74E22FF58274222296
:10393900D2379002A9E024FD22E0FEE42400FFEE44
:10394900347A22E493FE9002B1E0FDEED39D228FFA
:10395900828E83740393FF9008EA2275F002EF9038
:103969004E5C22E493FA7401932FF582EA3EF583C3
:10397900E493FF75F00322900343F0A3F0A2AFE4B0
:1039890033F511C2AF22F0E4A3F0900771E0900281
:10399900AEF0900770E09002AF22F0E4A3F0900738
:1039A90018E09002AEF0900717E09002AF22900A5B
:1039B9002EE0FFC3940222240FF58274233EF5837F
:1039C90012130E90093502131E9009F7E07F00FECD
:1039D900EF22E493FA7401932DF582EA22EF900025
:1039E900010210853EF583E493FFFD9009FB2290C7
:1039F900205EE0FEA3E0FDEDFF2440FDE43EFCD3A4
:103A0900229002A97406F09002AD7401F09002AF01
:103A19000422E0FF900ABAE0FCA3E0FD9022F475CD
:103A2900F003229000030210468F828E8374039361
:103A3900FF9002B2E0FEEF6E22EF2402FFE4332290
:103A4900E0FF24B0F582E434022275F002EE904DD5
:103A59000322F583EEF0900A2EE00422F583EEF0BE
:103A6900900952E004223EF583E493FDF422900587
:103A790010F012102D900511F0E49009DF22900248
:103A8900ADE0FF9009B57406F0E4FBFD22F0A374E4
:103A990003F0A37428F09002A97407229005827498
:103AA9001EF0E490057EF0C23C22F583EFF0900908
:103AB90015E004F09009132290059CE024FFFF9083
:103AC900059BE034FF228F82758300EE021085E0AA
:103AD900FF75F002904E5C22E0FFD390059EE09FB7
:103AE90022A2AFE433F50EC2AF22A2AFE433F50F41
:103AF900C2AF22EF2400F582747A22E41210739087
:103B090009FAF0A3F09009F722EF2402F582747AFA
:103B19002290050FF09009DDE0240390050B22FEA9
:103B2900E5822FF582E583229008E8E0FE9008E718
:103B3900E0FFD39E2212137302102D740493FE909A
:103B49000A34E0FD223EF583E493F42274F1F09007
:103B5900005674D1F075910822907C0075F08002AE
:103B690013679002A9E02404FD222FF582EC3EF5AB
:103B790083E493240422740493FE900A2EE0FDC387
:103B89009E22740493FE900A05E0FDC39E22FFED78
:103B99002406FDE43322F0E4A3F0A374052290097E
:103BA9003512130278080212EFE475F04002110E83
:103BB900C374059FFFE49E229009F8E0FEA3E0FF8D
:103BC90064064E222582F582E4358322FF9002AFF6
:103BD900E024FE227E087F487C027DAE7B0222FE25
:103BE9007B017A03794322F0900A54E0042293FD81
:103BF9009002B3E0FCED6C22EF2402FDE433229342
:103C0900FD9008E9E0FCED6C22FD74A92EF582E433
:103C1900340222A2AFE433F50D2290083B02137C53
:103C290075F080A4248022FE74AE2FF582E434025C
:103C390022F583EEF090092CE0042290093AE0FE87
:103C4900A3E07802222440F582747A222480F58246
:103C5900747A2224C0F582747A2224C2F582747A95
:103C690022EF9DFFEE9CFEC3E09F22E0FEE42400CC
:103C7900FFEE347C227401935403FF9009E122E49E
:093C8900FF900582E0FE641F2299
:10B53B00EF121391B55800B55B01B55E02B561030F
:10B54B00B56404B56705B56A060000B56D0203194D
:10B55B0002031A02032102032202B62D02B30212C6
:03B56B00BAB82249
:109E9C00EF1213919F46009F01019F04029F07033D
:109EAC009F0A049F0D059F10069F13079F16089F7E
:109EBC0019099F1C0A9F1F0B9F220C9F250D9F2881
:109ECC000E9F2B0F9F2E109F31119F34129F371313
:109EDC009F46149F46159F3A169F3D179F40189F0B
:109EEC0043199F461A9F481B9F461C9F4E1D9F510E
:109EFC001E00009F5402B2C402B9AC02032A021E17
:109F0C004502911B028E4702ABF3026A680275DDB3
:109F1C00029739020341028FB102034202BBB00225
:109F2C00034902635902034A025C3A020351029349
:109F3C00C20203520266E4020359800302A71F0205
:099F4C00032902035A1203162234
:10AEFC00EF121391AF2800AF2B01AF2E02AF31032D
:10AF0C00AF3404AF3705AF3A06AF3D07AF4008AFDB
:10AF1C004309AF460AAF490B0000AF4C024FFF028A
:10AF2C007F0002BBF802A69702983302BA2B02BA32
:10AF3C00E002B33E02B91E0287E502B93712B7B37D
:01AF4C0022E2
:10B56E00900A74EEF0A3EFF0A3ECF0A3EDF01B90B5
:10B57E000A76E0FEA3E02BF582E43EF583E0FF9031
:10B58E000A74E0FCA3E02BF582E43CF583EFF0EBCC
:03B59E0070DC223C
:0EB4D100900A78EEF0A3EFF0A3ECF0A3EDF0FC
:10B4DF00E4FF1B900A7AE0FCA3E02FF582E43CF531
:10B4EF0083E0FE900A78E0FCA3E02BF582E43CF5C4
:07B4FF0083EEF00FEB70DBA0
:01B506002222
:10B50700900A7CEEF0A3EFF0A3ECF0A3EDF01B9014
:10B517000A7EE0FEA3E02BF582E43EF583E493FF89
:10B52700900A7CE0FCA3E02BF582E43CF583EFF086
:04B53700EB70DB22B8
:0EB49A00900A80EEF0A3EFF0A3ECF0A3EDF02B
:10B4A800E4FF1B900A82E0FCA3E02FF582E43CF560
:10B4B80083E493FE900A80E0FCA3E02BF582E43C51
:08B4C800F583EEF00FEB70DAE2
:01B4D0002259
:10B46200900A84EEF0A3EFF0A3ECF0A3EDF0EB6012
:10B47200231B900A84E0FEA3E02BF582E43EF583D1
:10B48200E0FF900A86E0FCA3E02BF582E43CF58322
:08B49200E06F60DACFEBCF227E
:0103190022C1
:01031A0022C0
:0103210022B9
:0103220022B8
:10B62D009002ADE0FF54E0700FEFD3941E50030273
:10B63D009E9C123A8702B6589002ADE0242E600708
:0BB64D002480700602589A124FFE2263
:10B302009002ADE0FFD39413501CEF14602D24EE95
:10B3120070099002B1E0900571F022123A0AF0E44D
:10B32200A3F0A3F0800C123A0AF0E4A3F0A3740293
:0BB33200F0E4123555123B6B12035E75
:01B33D0022ED
:0DBAB8009002ADE0FFC3940C500312AEFCF1
:01BAC500225E
:0103290022B1
:10B2C40090057EE0FFB401028030EFC3940A502D54
:10B2D40090071EE0FF7004A3E0601F1235BD500C00
:10B2E40012369DF0A3EEF0A3EDF0800412364BF07D
:0EB2F40074051235497D0902035E123AA52247
:10B9AC009002AD7403F0900572E09002AE12355324
:06B9BC00123B6B02035E6A
:01032A0022B0
:101E4500D24312383CE0FE6F70091238DD500BC2E8
:101E5500438007EEC39F5002C2439002AEE0FD707F
:101E650006A3E07002D2433043129002ADE0FF902A
:101E750002AFE0FB9009B57401021FE3D243E49081
:101E85000A54F0900A541234CC123766EEC39D40C2
:101E950019904D031234F51236EDC39E400C900A8D
:101EA50054E0900A51F0C243800E900A541236CC89
:101EB500E07003A3E06F70CB204338D243900A54FF
:101EC5001234CC12394C502B1236251234F91238F3
:101ED500E75020900A54E0900A52F0C243900A5409
:101EE500E004F0900A54E0FF90059BE07003A3E046
:101EF5006F70CA304303021FDE9002AD7405F09087
:101F05000A51E0904E5C1234F6740193540390022A
:101F1500AEF0900A55F0900A537402F0A37406F0DF
:101F2500900A51E0FF904E5C1234D1740193540332
:101F3500FE900A55E06E6003021FCF12B9D7900AD2
:101F450053E02F2402FE900572E0C39E407C900A68
:101F550053EEF0900A51E0FE1234CE740193FD90D9
:101F65000A541236FEF583ED123BF0F0EE123626DA
:101F75001234D4E493FE900A541236FEF583EE1221
:101F85003BF0F0E02FFE0F900A54E0FDC39E502673
:101F9500900A511235A31236E22FF582E43583F506
:101FA50083E493FC74A92DF582E43402F583EC12E5
:101FB5003BF0F01F80D1900A51E004F0A3E0FF90C0
:101FC5000A51E0D39F5003021F25900A53E0FF12E8
:101FD5003549EF2404FD02035E12368E740AF012B1
:021FE500B658EC
:011FE70022D7
:10911B00D244E4FDFC123BD6C394FE40259022F4CE
:10912B00123530123596123BD56F703A9022F412ED
:10913B00353012102DFF9002B0E0146F7028C2442E
:10914B00802F9022F4123530123596123BD56F706A
:10915B00159022F412353012102DFF9002B0E06FF3
:10916B007004C244800B0DBD00010CED64094C7002
:10917B00A43044030292779022FA123530123A2C23
:10918B00FF9002B1E06F60030292771236C3FF903B
:10919B0002B2E06F60030292779002AFE01237BC2D
:1091AB009002B0E0FF9022FA123530EF121073D21A
:1091BB0044E4FCFD9022F412353012102D702D90EA
:1091CB0022F412353012359670221236C364297090
:1091DB001B123A2C6402701412352D12102D7008CC
:1091EB0012352D1235966004C244800B0DBD000163
:1091FB000CED64094C70BD2044599002AD740412FF
:10920B00352C123596FF2402FBE433FAD3EB94FF93
:10921B00EA648094805012EF9002AE12352A12103D
:10922B002D12350712102D801912352D123596245B
:10923B00029002AE12352C12102D041235071210AB
:10924B002D049002B1F09002A9740512354C7D09E2
:10925B0002035E900582741FF090057E740AF0C2C3
:0C926B003C900566E06403600312B7B39A
:0192770022D4
:108E4700900A56123839E0FE6F70071238DD500C61
:108E57008005EEC39F5005E4900A56F09002AEE0FD
:108E67007009A3E07005900A5604F0900A56E07066
:108E77000E9002B3E064286006900A567406F090DC
:108E87000A56E06003028F25740AF09002A9E09069
:108E97000A59B417057410F080037402F0E4900ABD
:108EA7005AF0900A5A1235A3123707123BF770602F
:108EB700123A32705BFF900A59E0FEEFC39E501AD8
:108EC7001235828F82123771FD74B42FF582E43424
:108ED70002F583E06D70030F80DCEF6E7032900A4D
:108EE7005A1234CC123766EEC39D4024123625122F
:108EF70034F91236EDC39E4017900A5AE0900A578C
:108F0700F0A3F0E4900A56F0900A5AE004F0800EBD
:108F1700900A5A1236CCE07003A3E06F7084900A6F
:108F270056E07029900A5A1235A3123707123BF7F9
:108F37007005123A326016900A5AE0900A58F0907B
:108F47000A5A1236CDE07003A3E06F70D7900A5625
:108F5700E09002AD70407407F0900A571234CC7459
:108F670001939002AE1236241234F9E4939002AFC3
:108F7700F0900A581234CC7401939002B012362440
:108F87001234F9E4939002B1F09002A974051235F6
:108F97004C7D0902035EE0FFA3E0FDA3E0FB900A1E
:098FA70056E09009B5F012B6582D
:018FB000229E
:10ABF30090057EE0640170529002AFE0900700F090
:10AC03009002AEE0900701F09002B1E0900702F0ED
:10AC13009002B0E0FF900703F09002AD7408F0904B
:10AC23000701E09002AEF0900700E09002AFF0A3BE
:10AC3300EFF0900702E09002B1123A9612354C7D84
:0BAC43000B12035E90057E7402F022ED
:106A68009008FE123839E0FE6F70071238DD500CBE
:106A78008005EEC39F5005E49008FEF09002AEE05A
:106A88007009A3E070059008FE04F09008FEE0701D
:106A98003D740AF0E4900914F09009141234CC12F1
:106AA8003766EEC39D401C1236251234F91236EDB6
:106AB800C39E400F900914E09008FFF0E49008FE90
:106AC800F0800B1236C9E07003A3E06F70CB90081A
:106AD800FEE07031740AF09009141234CC12394C6B
:106AE80050231236251234F91238E7501890091439
:106AF800E0900900F0E49008FEF01236C9E0700357
:106B0800A3E06F70D29008FEE070229002A9E0FF27
:106B1800B407089009127402F08012EFB4150890B7
:106B280009127410F080069008FE7404F09008FEB4
:106B3800E06003026BD2740AF0900900E0FF90084D
:106B4800FFE0D39F4003026BD2E4900914F0900950
:106B580012E0900915F0900912E0FF900914E0FE88
:106B68006F604CA3E014F09008FFE01234CEC083AD
:106B7800C082900915E0FF2402FDE433FCD082D0E6
:106B8800831236033CF583E493FD74B22EF582E458
:106B98003402F583E0FE6D6002801474012FF582E3
:106BA800E43409F583EEF0900914E004F080A7902E
:106BB8000912E0FF900914E06F70069008FEF0805B
:106BC800099008FFE004F0026B419008FEE06003C2
:106BD800026D539009137402F09009157406F0E4DD
:106BE800900914F0900900E0FE9008FFE0FDD39EA4
:106BF8004003026D53900912E004900911F0CFEDA3
:106C0800CF12B9D7900912E06F7004900911F09073
:106C18000912E0FF900911E0FEC39F502D9008FF74
:106C2800E01234CEEE2402FDE433FC1236033CF5C8
:106C380083E493FF74012EF582E43409F583E06F51
:106C48007008900911E004F080C5900912E0FF90E7
:106C58000911E06F6003026D4A9008FFE0FF12B06F
:106C68003F9008FEEFF07018A3E0FF12BA67900893
:106C7800FEEFF0600B12358212BB5B9008FEEFF05E
:106C88009008FEE06003026D539008FFE0FF12B920
:106C9800D7123C01FC9008FFE0FF1235A41239DB43
:106CA8003CF583E4932402FEFD12B8E8CEEFCE90C3
:106CB8000572E0FF2405FD900915E0FCC3ED9CFD7D
:106CC800EEC39D5006900911EE800BEC6406707BB4
:106CD800EF24FE900911F09008FFE0900914F0905D
:106CE8000914E0605D9008FF1234CC740193FE90A3
:106CF80009151236FEF583EEF090091512362212A8
:106D080034F9E493FF9009151236FE123AB3E024E1
:106D180002F0900911E024FEF0E4FE900911E06011
:106D2800219008FF1235838E82123771FF90091562
:106D38001236FE123AB3E004F00E900911E014F096
:106D480080D99008FFE004F0026BEC9008FEE07038
:106D580051900913E0123683F0E4A3F0A37409F00C
:106D6800900914E0FF12B9D790091412359CE493E6
:106D7800FC7401932FF582EC3EF583E4932402FF23
:106D88009002AEF0900572E024FEFEEFD39E40051F
:106D98009002AEEEF0123557900913E02404FD027C
:106DA800035E9002ADE0FFA3E0FDA3E0FB9008FEC8
:086DB800E09009B5F012B65895
:016DC00022B0
:1075DD0090057EE0FF6402600DEF64036008EF64C8
:1075ED00046003027804D245E4900ABAF0A3F012C5
:1075FD0039243EF58312370793642870467403933C
:10760D006403703FFDFC1239243EF5831234FCED0A
:10761D002408FFE43C123B283EF583E493FF74B449
:10762D002DF58274023CF583E0FEEF6E700B0DBDFF
:10763D0000010CED64104C70CDED64104C7004C263
:10764D00458012900ABA123674900ABAE07004A3FB
:10765D00E06409709A30450302776D9002AF123ADB
:10766D001B1235341239E69002B0E0FF9022F4126D
:10767D003530EF1210739002B1123A1B123534905F
:10768D000005EF1210859002B2E0FF9022F4123542
:10769D0030900007EF1210859002B3E0FE9022F4B7
:1076AD00123530900006EE1210859022F71235300B
:1076BD001239E69002B3E0FF9022F7123530EF1247
:1076CD00107390057EE004F0E0D3940450619007B0
:1076DD0002E0F99002B3E099502F123845500302A1
:1076ED00777F90071EE0FF7007A3E070030278011B
:1076FD001235BD500D12369DF0A3EEF0A3EDF00244
:10770D0077C612364BF00277C690071EE0FF700465
:10771D00A3E060181235BD500C12369DF0A3EEF0AB
:10772D00A3EDF0800412364BF00277C6027801907B
:10773D00057EE06405600302780490071EE0FF708B
:10774D0007A3E070030278041235BD500C12369D6C
:10775D00F0A3EEF0A3EDF0800412364BF00277C6E5
:10776D00900702E0F99002B3E0D399505A123845D0
:10777D0050279002AD7408F09002B2E0049002AE72
:10778D00F09002B3E09002AFF0A3EEF0A3E9123A4D
:10779D009612354C7D0B0277FE90071EE0FF7004AC
:1077AD00A3E060211235BD500C12369DF0A3EEF012
:1077BD00A3EDF0800412364BF09002A9740512353A
:1077CD004C7D09802C802D90071EE0FF7004A3E0F6
:1077DD0060221235BD500C12369DF0A3EEF0A3EDD4
:1077ED00F0800412364BF09002A9740512354C7DD1
:0777FD000902035E123AA528
:017804002261
:10973900900A887401F0E4A3F0900A891234CC12DB
:109749003766EE6D70121236251234F91236ED6E47
:109759007006900A88F0800E900A891236CCE07063
:1097690003A3E06F70D3900A88E0700BA3E0FF12A7
:10977900B03F900A88EFF0900A88E07018A3E0FFE4
:1097890012BA67900A88EFF0600B12358212BB5B40
:10979900900A88EFF0900A88E0FE600812368EEE93
:1097A900F002B658E4900A8AF0A304F0900A89E01E
:1097B900FF12B9D7123C01FC900A89E0FF1235A4C7
:1097C9001239DB3CF583E493FE900A88F0FD12B868
:1097D900E8900A88EFF0900A88E0FF900A8AE0FE94
:1097E900C39F5030900A891235838E82123771FFD8
:1097F90074AE2EF582E43402F583EFF0900A8AE024
:1098090004F0A3E004F0900572E014FF900A8BE0E5
:10981900D39F40C29002AD740BF0900A8BE0FF1207
:099829003549EF2404FD12035E31
:019832002213
:010341002299
:108FB100C246900A277401F0E4A3F0900A28123403
:108FC100CC123766EE6D70121236251234F9123654
:108FD100ED6E7006900A27F0800E900A281236CCAA
:108FE100E07003A3E06F70D3900A27E0700BA3E059
:108FF100FF12B03F900A27EFF0900A27E07018A304
:10900100E0FF12BA67900A27EFF0600B1235821267
:10901100BB5B900A27EFF0900A27E07040A3E0FFC6
:1090210012B9D7123C01FC900A28E0FF1235A412B4
:1090310039DB3CF583E493FE900A2AF0FD12B8E88F
:10904100900A2AEFF0900572E024FDFEEFD39E50C6
:109051000C9002B0E06006900A27740BF0900A278A
:10906100E07026900A2AE0FF9002B0E0FED39F4014
:1090710008900A277407F08010EE6F700C740D12BF
:1090810035437D0512035ED24630460302911A90A4
:109091000A27E0FE600812368EEEF002B658E49020
:1090A1000A29F0900A2B04F09002B0E0900A2CF00B
:1090B100900A29E0FF900A2CE02FFFE433FE900A8A
:1090C1002AE0FDC3EF9D7480F86E985037900A280E
:1090D1001235838F828E83121046FF900A29E02475
:1090E100AEF582E43402F583EFF0900A29E004F052
:1090F100900A2BE004F0900572E014FF900A2BE037
:10910100D39F40AC9002AD740DF0900A2BE0FF129A
:099111003549EF2404FD12035E50
:01911A002232
:010342002298
:06BBB000123A8702B658AC
:010349002291
:106359009008E5123839E0FE6F70071238DD500CED
:106369008005EEC39F5005E49008E5F09002AEE089
:106379007009A3E070059008E504F09008E5E07065
:1063890076740AF0E49008FCF01234C9123766EE0C
:10639900C39D40171236251234F91236EDC39E40BB
:1063A9000A9008FCE09008E7F0800E9008FC12368D
:1063B900CCE07003A3E06F70D09008FCE0FF90057B
:1063C9009BE07003A3E06F602E1234C912394C5060
:1063D900261236251234F91238E7501B9008FCE0D2
:1063E9009008E8F0E49008E5F09008FC1236CCE05B
:1063F9007003A3E06F70D29008E5E070229002A9C3
:10640900E0FFB407089008FA7402F08012EFB4159F
:10641900089008FA7410F080069008E57404F0906A
:1064290008E5E060030264EE7410F0E49008FCF003
:106439009008FAE09008FDF09008FAE0FF9008FC57
:10644900E0FE6F6027A3E014F074B22EF582E43405
:1064590002F583E0FE9008FDE024E9F582E43408C2
:10646900F583EEF09008FCE004F080CCEFB402165E
:106479009008E9E06428706DA3E0D394015066E4C4
:106489009008E5F0805F9008EBE064287057A3E07E
:10649900D3940150509008E9E0704AA3E070469007
:1064A90008FC7404F09008FCE0FFC39410501DE050
:1064B900FE9021AD93FD74E92EF582E43408F5834D
:1064C900E06D70089008FCE004F080D9EFB4101575
:1064D900E49008E5F09008EBE09008E9F09008EC0A
:1064E900E09008EAF09008E5E07037740AF0123B92
:1064F90031502F12B9D7EF6402701F9008E7123597
:10650900A312370793FD9008E9E06D700D12395811
:10651900E06F70061266D7F080089008E7E004F093
:1065290080CC9008E5E0FE600812368EEEF002B6E7
:10653900589008FB7402F09008FD7406F0123B3184
:1065490040030266A612B9D7EF6402600302669D92
:106559009008E71235A3123707123C086003026658
:106569009D123958E0FEEF6E600302669D1266D7F0
:10657900F060030266A69008E7E0FF12B9D7123A65
:1065890042FE9008E7E0F91235A4E493FC74019304
:10659900FD123B73FF9008E6F0900572E02404C3F6
:1065A9009FFF9008FDE0FEC39F40030266A6900886
:1065B900E6E09008F9F09008E7E0FF8D828C83749B
:1065C9000193123C12F583ED12361E1234F912367C
:1065D900F8123884E02402F0123AC1FEE96F700122
:1065E900EE60409008E7E0049008FCF0123AC1FE22
:1065F9009008FCE0FDC39FE49E503075F002ED1257
:1066090035A7123707123C087011123958E0FEEF0E
:106619006E70089008FCE014F080109008FCE0040B
:10662900F080C99008E7E09008FCF01234C97401C1
:1066390093FE1236FBF583EE12361E1234F912362A
:10664900F8123884E02402F09008F9E024FCF0E420
:106659009008E6F09008F9E060269008E712358383
:106669009008E6E0F5821237711236FA123884E0A2
:1066790004F09008E6E004F09008F9E014F080D402
:106689009008FCE0FF9008E6F0A3E09008FCF09089
:1066990008E7EFF09008E7E004F00265469002ADE4
:1066A9007411F09008FCE0FF12B9D79008FC12357C
:1066B9009CE493FC740193123B739002AEF0900832
:0D66C900FBE0FF123549EF2404FD12035ED3
:0E66D600229008E7E0FF12B03F9008E5EF22A7
:01034A002290
:105C3A00123C1C900A2D7401F0E4A3F0900A2E1273
:105C4A0034CC123766EE6D70121236251234F91200
:105C5A0036ED6E7006900A2DF0800E900A2E1236DE
:105C6A00CCE07003A3E06F70D3900A2DE0700BA311
:105C7A00E0FF12B08E900A2DEFF0900A2DE0701B13
:105C8A00A3E0FF12B9D7123A42FE900A2E1235A3A8
:105C9A001237934006900A2D740DF0900A2DE07089
:105CAA0051A31234CC7403936455704612396412AA
:105CBA0034F9E493FF64206005EF64027034900ABB
:105CCA002EE0FF75F002904D051234D4740393B49C
:105CDA00022075F003EF904D9012358A12102D7044
:105CEA0008900A2D7481F08009300F06900A2D74ED
:105CFA0080F0900A2DE0702DA3E0FF12BA67900A97
:105D0A002DEFF06020123582EBC0E0EAC0E0E9C076
:105D1A00E01238F4D0E0F9D0E0FAD0E0FB12B9C2D0
:105D2A00900A2DEFF0900A2DE0FE600812368EEEF2
:105D3A00F002B658E4900A2FF012393BFF900A2F6E
:105D4A00E0C39F5018123A49F583E0FE900A2E12DA
:105D5A003583123ACF900A2FE004F080DC900A2EA5
:105D6A00123AD81234D474019330E225900A2FE003
:105D7A00FEEEC0E012B9D7900A2E12385E1235A490
:105D8A0012396CED1235878F82758300D0E01210BC
:105D9A0085123939900573F0900A2E123583123C18
:105DAA002374131235437D0512035E123892500391
:105DBA00025FA6E4900A2FF0900A2F12378340332D
:105DCA00900A2EE0FE1234CE1236D5E4936D701A84
:105DDA00123A531234F9740193FF900A2FE01237E2
:105DEA007C1234D47401936F6009900A2FE004F096
:105DFA00025DC2900A2FE0FF90059DE07003A3E0C8
:105E0A006F7003025FA61235B6125FA712102D60DB
:105E1A0003025FA61235B6125FB312102D70030289
:105E2A005F691235B6125FA71235B67F08123C9227
:105E3A00900A3012137C1235967058907E8293F431
:105E4A007003025F137F02129B9DE4900A2EF012E8
:105E5A0039B7500D1235DCF5837404123A5EF080BE
:105E6A00EE123C1CC2AF123573F07F007E7E122107
:105E7A0011E4900A2EF01239B7500D1235DCF58371
:105E8A007405123A5EF080EE123573F07F807E7EE2
:105E9A00025F0A900A301235931237CCE493F46009
:105EAA0068EF14FF30E0626060C313FF129B9DE449
:105EBA00900A2EF01239B75011900A3012359324F5
:105ECA00FE1235DB123A5BF080EA123C1CC2AF903C
:105EDA000A3012355EF0122111E4900A2EF01239BE
:105EEA00B75010900A30123593141235DB123A5B10
:105EFA00F080EB900A30123593123C2912356DF07E
:105F0A00122111E50D24FF92AF12A2A2900A3012BB
:105F1A003B3E704B900A2FF0900A2F123AE112374B
:105F2A008C403CE4900A2EF01237771234D4123B9C
:105F3A007F501112389A12358A12362D900A2EE0A5
:105F4A0004F080E41234E21235AD125FBF1235B6A6
:105F5A00125FB312A2A2900A2FE004F0025F22900D
:105F6A000A2FE0FF90059DE07003A3E06F602DE427
:105F7A00900A2EF01237771234D4123B7F50111246
:105F8A00389A12358A12362D900A2EE004F080E4EF
:0C5F9A001234E21235AD125FBF12A2A259
:105FA600227F05123C92900A3012137C227F071240
:105FB6003C92900A3012137C227F09123C92900A7E
:055FC6003012137C22E3
:010351002289
:1093C200900AAB7401F0E4A3F0900AAC1234CC1210
:1093D2003766EE6D70361236251234F91236ED6E9E
:1093E200702A900848E0700CA3E07008123BDD126E
:1093F200B56E8011123BDD12B462EF6008900AABC9
:109402007480F08015E4900AABF0800E900AAC12E2
:1094120036CCE07003A3E06F70AF900AABE0700B44
:10942200A3E0FF12B08E900AABEFF0900AABE070AF
:109432002DA3E0FF12BA67900AABEFF0602012355D
:1094420082EBC0E0EAC0E0E9C0E01238F4D0E0F913
:10945200D0E0FAD0E0FB12B9C2900AABEFF0900A6A
:10946200ABE070559002B0E0FF9002A9E02F24FB20
:10947200900AADF0900AACE0FF12B9D7123A42FE60
:10948200900AAC1235A3E493FC7401932FF582EC9D
:109492003EF583E493FF900AADE0FED39F4008902F
:1094A2000AAB7409F0801290084AE0FFEED39F40A5
:1094B20008900AADE090084AF0900AABE0FE60081E
:1094C20012368EEEF002B6589002B0E0244BF582CE
:1094D200E43408AF82FE7C027DB29002A9E024FB54
:1094E200FB12B56E9002AD7417123556123B6B1219
:0294F200035E17
:0194F4002255
:010352002288
:1066E400A2AFE433F50EE4900A04F09002AEE06445
:1066F4000160030267CF900A05F0900848E0700734
:10670400A3E070030267CF900A051234CCE493FE31
:10671400900849E0FDEE6D60030267BE1236251253
:1067240034F9740193FF900848E0FEEF6E600302B1
:1067340067BE900A05E0FF12B9D7900A0512385EC9
:106744001235A4E493FA7401932FF582EA3EF5839B
:10675400E493FF900A06F090084AE0D39F40099022
:106764000A04740DF00267CF75F003ED123587CE7D
:10677400EACECFE9CF7C087D4B90084AE0FB12B506
:106784006E900A05123AD81234D474019330E2158B
:1067940090084AE0FE75F003EF123587900A06E090
:1067A400F582123AD1D23790084AE0900573F090FE
:1067B4000A05123583123C238011900A051236CC47
:1067C400E07003A3E06F600302670B900A04E0FE2D
:1067D400600B12368EEEF012B658026A209002ADAB
:1067E40074191235467D0512035E203703026A20B0
:1067F4001238925003026A20E4900A07F0900A07C4
:106804001237834033900A05E0FE1234CE1236D597
:10681400E4936D701A123A531234F9740193FF9091
:106824000A07E012377C1234D47401936F60099024
:106834000A07E004F0026801900A07E0FF90059D52
:10684400E07003A3E06F7003026A201235B6126A87
:106854002312102D6003026A201235B6126A2F1219
:10686400102D70030269D61235B6126A231235B69A
:106874007F08123C92900A0812137C1235967043DA
:10688400907E8293F4700302692F126A54F01237D7
:10689400D650091235DC1238B9F080F2123AEA12F5
:1068A4003573126A47F01237D6500D1235DCF58372
:1068B40074051238BDF080EE123573F07F807E7E51
:1068C40002692C1235901237CCE493F4605DEF1416
:1068D400FF30E0576055C313FF129B9DE4900A05F7
:1068E400F01237D6501112359024FE1235DBF583A1
:1068F400EE1238BDF080EA123AEA900A0812355EC8
:10690400F0122111E4900A05F01237D65010123516
:1069140090141235DBF583EE1238BDF080EB12359E
:1069240090123C2912356DF0126A5E12A2A2123541
:10693400907040907E8293F46039126A54F012375A
:10694400D650091235DC1238B9F080F2123AEA1244
:106954003573126A47F01237D6500D1235DCF583C1
:1069640074051238BDF080EE123573F07F807E7EA0
:10697400126A5E900A08123B3E7057900A07F09024
:106984000A07123AE112378C4048E4900A05F09065
:106994000A0712377A1234D4123B8B501712389AE2
:1069A40012358A12376F900A08123638900A05E0B9
:1069B40004F080DB900A071234E51235AD126A3B0D
:1069C4001235B6126A2F12A2A2900A07E004F0024E
:1069D4006983900A07E0FF90059DE07003A3E06FD0
:1069E400603AE4900A05F0900A0712377A1234D418
:1069F400123B8B501B12389A12358A12376F123B96
:106A040097FC900A08123640900A05E004F080D7FB
:0F6A1400900A071234E51235AD126A3B02BA013F
:106A23007F05123C92900A0812137C227F07123CC6
:106A330092900A0812137C227F09123C92900A0852
:106A430012137C22F07F007E7E122111E4900A054E
:106A5300227F02129B9DE4900A0522122111E50E6A
:056A630024FF92AF22A8
:010359002281
:10A71F00D247900ABC7401F0900ABCE0FF123735A3
:10A72F0012102DFE9002AFE06E7013EF123735123C
:10A73F003596FF9002AEE06F7004C247800A900A10
:10A74F00BCE004F0E0B409D0204748E4900ABDF023
:10A75F0012393BFF900ABDE0C39F5025123A49F5CD
:10A76F0083E0FE123731E92403F9E43AFAEF7C0073
:10A77F0029F9EC3AFAEE121073900ABDE004F0805A
:10A78F00CFD21C12393B900583F0123731900896C7
:03A79F0012137C16
:01A7A2002294
:01035A002280
:03031600C20F22F1
:10589A00A2AFE433F50F900A337401F0E4A3F09059
:1058AA000A341234CC123766EE6D70121236251293
:1058BA0034F91236ED6E7006900A33F0800E900AB3
:1058CA00341236CCE07003A3E06F70D3900A33E051
:1058DA00700BA3E0FF12B08E900A33EFF0900A33F8
:1058EA00E0701BA3E0FF12B9D7123A42FE900A34C5
:1058FA001235A31237934006900A33740DF0900ABA
:10590A0033E0702DA3E0FF12BA67900A33EFF0601C
:10591A0020123582EBC0E0EAC0E0E9C0E01238F4B8
:10592A00D0E0F9D0E0FAD0E0FB12B9C2900A33EF26
:10593A00F0900A33E06003025BF4E4900A35F01257
:10594A00393BFF900A35E0C39F5018123A49F58354
:10595A00E0FE900A34123583123ACF900A35E004F9
:10596A00F080DC900A34123AD81234D4740193309D
:10597A00E225900A35E0FEEEC0E012B9D7123A42AB
:10598A00123B471235A412396CED1235878F827596
:10599A008300D0E0121085123939900573F0900A0D
:1059AA0034123583123C231238925003025BF4E41A
:1059BA00900A35F0900A351237834033900A34E062
:1059CA00FE1234CE1236D5E4936D701A123A53127F
:1059DA0034F9740193FF900A35E012377C1234D4FB
:1059EA007401936F6009900A35E004F00259BE9081
:1059FA000A35E0FF90059DE07003A3E06F70030293
:105A0A005BF41235B6125BF512102D6003025BF4DB
:105A1A001235B6125C0112102D7003025BA8123502
:105A2A00B6125BF51235B67F08123C92900A36120E
:105A3A00137C1235967043907E8293F47003025A57
:105A4A00F8125C26F01237DF50091235DC1238C41E
:105A5A00F080F2123AF3123573125C19F01237DF42
:105A6A00500D1235DCF58374051238C8F080EE1239
:105A7A003573F07F807E7E025AF5900A361235938E
:105A8A001237CCE493F46066EF14FF30E060605E96
:105A9A00C313FF129B9DE4900A34F01237DF5014AF
:105AAA00900A3612359324FE1235DBF583EE12384E
:105ABA00C8F080E7123AF3900A3612355EF01221E6
:105ACA0011E4900A34F01237DF5013900A36123577
:105ADA0093141235DBF583EE1238C8F080E8900A89
:105AEA0036123593123C2912356DF0125C3012A22F
:105AFA00A2900A361235937040907E8293F46039F0
:105B0A00125C26F01237DF50091235DC1238C4F065
:105B1A0080F2123AF3123573125C19F01237DF5021
:105B2A000D1235DCF58374051238C8F080EE123593
:105B3A0073F07F807E7E125C30900A36123B3E7094
:105B4A005D900A35F0900A35123AE112378C404ED0
:105B5A00E4900A34F0900A3512377A1234D4123BA0
:105B6A0044C39E501B12389A12358A12376F123B61
:105B7A0097FC900A36123640900A34E004F080D539
:105B8A00900A351234E51235AD125C0D1235B61293
:105B9A005C0112A2A2900A35E004F0025B4F900A5F
:105BAA0035E0FF90059DE07003A3E06F603CE49050
:105BBA000A34F0900A3512377A1234D4123B44C3AD
:105BCA009E501B12389A12358A12376F123B97FC75
:105BDA00900A36123640900A34E004F080D5900AD2
:0A5BEA00351234E51235AD125C0DE2
:105BF400227F05123C92900A3612137C227F0712F0
:105C04003C92900A3612137C227F09123C92900A2D
:105C14003612137C22F07F007E7E122111E4900A5A
:105C240034227F02129B9DE4900A3422122111E552
:065C34000F24FF92AF22D5
:014FFE002290
:014FFF00228F
:107F0000302306200A03027FD49002AEE09005756C
:107F1000F09002AFE0900576F09002B0E09001168C
:107F2000F09002B1E0900113F09002B2E09005777A
:107F3000F09002B3E0900578F0900892E0FF900195
:107F400016E04F20E203E48022900575E0FF9008E0
:107F500090E075F005A42423F582E43422F583E54E
:107F6000822FF582E43583F583E493900115F09038
:107F70000113E0FFD39406403FEF9411503A12BB37
:107F800046900115E0FF60089005677428F0D23430
:107F9000900892E030E213900890E06403600BEFE9
:107FA0007008301A0512032E801E7B017A08798B27
:107FB00090088BE02404800C123759123B9FF0A3E9
:107FC00004123556FD12035E9005667401F0E490CC
:107FD0000579F022203A0302032E123759123B9FF3
:0A7FE000F01235557D0612035E22F3
:01BBF800222A
:10A69700E4FF900579E0701912360B123745B410B4
:10A6A700F79005797401F0900567E06005E4FF8095
:10A6B700010FEF60627BFF7A2179CD90089D12131D
:10A6C7007C7B017A0479531294F5E4FFEFFD740F54
:10A6D70012360F3CF583E0FE74742FF582E43409DB
:10A6E700123752B410E6741112375BF0E4A3F0A3EB
:10A6F7007403F0E4FF74742FF582E43409F583E002
:10A70700123C30123752B410EC1235577D15120334
:07A717005E9005667402F07C
:01A71E002218
:10983300E4900952F0900952E0FF12360C3CF58394
:10984300E0FE74532FF582E43409123A65F0E0B474
:1098530010E37B017A09795390089D12137C7A04F3
:1098630079531294F5900579E06401600302992A13
:10987300900952F0900952E0FF6410601DE0FE244D
:1098830043F582E43404F583E0123C12F583E06D82
:109893007008900952E004F080DAEF641070709061
:1098A30002A9741112375E123686F0E4900952F061
:1098B300900952E0FFFDC3740F9DFDE49400FC7416
:1098C300CD2DF58274213CF583E493123C30123A9A
:1098D30065F0E0B410DA1235577D1512035EE4909B
:1098E3000952F0900952E0FF2453F582E43409F55C
:1098F30083E0FE74432FF582E43404123A65F0E00A
:10990300B410E09005797402F0E4900114F022D2CF
:109913001E123759123B9FF0A3141235567D0612BF
:07992300035EE4900579F0FA
:01992A00221A
:10BA2B00D21E900582E0B41F0A9002AEE0B4080368
:04BA3B0012B7B32269
:0BBAE000E4FF12360B123745B410F7DC
:01BAEB002238
:10B33E00E4FFEFFDC374061236103CF583E0FE7495
:10B34E00F52FF582E43402123752B402E5E4FFEF32
:10B35E00FDC3740D1236103CF583E0FE74ED2FF52F
:0AB36E0082E43402123752B408E5FD
:01B3780022B2
:10B91E00E4FF12360B3CF583E0FE74632FF582E4F0
:08B92E003404123752B410EA90
:01B9360022EE
:1087E5009002AEE0600122E490092CF090092CE0A3
:1087F500FF24AFF582E43402F583E0FE742F2FF5F4
:1088050082E43409123C3AF0E0B406E0D230900933
:1088150034E0FFE4FCFDFEA312132A123BA79009E6
:10882500331237E8123BA79009321237E890093A1C
:108835007402F0A37477F090093AE0C313F0A3E053
:1088450013F0E4A3F0A3F0A37402F0A37477F0E4AB
:10885500900939F0123C44C333CE33CED8F91239DE
:10886500C0C31212B7502090093AE0FEA3E0FF9072
:10887500093EEEF0FCA3EFF090093C1238037002BC
:10888500EE6C70390288E0123C44C333CE33CED847
:10889500F91239C0D31212B7401B90093AE0FEA372
:1088A500E0FFA3EEF0FCA3EFF0A31238037002EE95
:1088B5006C700A80269009397401F0801E90093C7D
:1088C5001237C590093FE09FFF90093EE09EFED319
:1088D500EF9400EE94004003028859900939E07046
:1088E500030289B01235B67F05123C9212102D6035
:1088F500030289B01235B67F06123C9212102D6024
:10890500030289B01235961236AEFCEF6C700890F2
:10891500092D7404F0802C1239003EF583E4936C24
:10892500700890092D7444F0801912359612386834
:108935001236BDFEEF6E90092D70057484F080032C
:1089450074C4F0E490092CF090092CE0FF2463F541
:1089550082E434041235D8123C3AF0E0B410E9123E
:1089650035961313543F90092EF07F0112203DA236
:10897500AFE433F510C2AF90092EE0FE90092DE06B
:108985007C002400FFEC3EFEEF242AFFEE347A1231
:108995003BE8900A25E4F0A37410F0122111E510CC
:0B89A50024FF92AFE4FF12203DD22D12
:0189B00022A4
:10B93700E4FF12360B3CF583E0FE74732FF582E4C7
:08B947003404123752B410EA77
:01B94F0022D5
:10B7B300900566E0701A123759F0E4A3F0A3740BF6
:10B7C300F0900892E09002AE1235567D0612035EA9
:01B7D3002253
:10B9D7001239641234F97401935403B401047F02D9
:04B9E70080027F104B
:01B9EB002239
:10B03F001239641234F9E493FFE4FEEF54557004AF
:10B04F007E028037EF30E60890057AE070027E08C6
:10B05F00EE700BEF30E40712389250027E05EE705F
:10B06F001AEF5414601590057BE070047E0F800B6F
:0EB07F00900113E0C3941050027E0CCFEECF70
:01B08D0022A0
:10B08E001239641234F9E493FFE4FEEF54AA70040B
:10B09E007E038037EF30E70890057AE070027E0875
:10B0AE00EE700BEF30E50712389250027E05EE700F
:10B0BE001AEF5428601590057BE070047E0F800B0C
:0EB0CE00900113E0C3941050027E0CCFEECF21
:01B0DC002251
:063C92009009F412137CFE
:103C9800A2AFE433F511EF1213913F94013CC10236
:103CA8003CE0033D02043EFD0540EB0641B00742FF
:103CB8009F08433609000043D6E49009F7F012390B
:103CC8000C94025032129C609009F7E0FF12ACA9E4
:103CD8009009F7E004F080E6E49009F7F012390C57
:103CE80094035013129B9D9009F7E0FF12AC4E907D
:103CF80009F7E004F080E6023EF61235EC74011292
:103D08001073E49009F7F09009F7E0C394024003B8
:103D1800023EEBE0FD75F004A4FFAEF09009FAEE68
:103D2800F0FAA3EFF0FBE49009F8F0A3F0ED7F00C0
:103D3800FE123AFC3EF583E493FF6B7001EA603BA8
:103D4800EFF47003023EEB9009F8E4F0A304F0905E
:103D580009F812372A9440EC940050101235F23CBE
:103D6800F583E493B4FF0512367180E39009F8E017
:103D78007004A3E064406003023EEB1239D2123CA7
:103D88004E1239EDE02401FB1238D6FAEB6D7001C2
:103D9800EA603CEFF47003023EEB9009F8E4F0A30C
:103DA8007441F09009F812372A9480EC940050106E
:103DB8001235F23CF583E493B4FF0512367180E3C3
:103DC8009009F8E07004A3E064806003023EEB12FF
:103DD80039D2123C551239EDE02402FB1238D6FADA
:103DE800EB6D7001EA603CEFF47003023EEB900962
:103DF800F8E4F0A37481F09009F812372A94C0EC23
:103E0800940050101235F23CF583E493B4FF051288
:103E1800367180E39009F8E07004A3E064C06003A1
:103E2800023EEB1239D2123C5C1239EDE02403FB5E
:103E38001238D6FAEB6D7001EA6037EFF4700302BE
:103E48003EEB9009F8E4F0A374C1F09009F812373A
:103E58002AEC940150101235F23CF583E493B4FF38
:103E68000512367180E59009F8E064017002A3E05C
:103E780070719009F8E0FFA3E0A3CFF0A3EFF090F2
:103E880009FA1237C5EE94015044EF243EFFE43E90
:103E98009009F8F0A3EFF01238CF9009F8123729FB
:103EA8009FEC9E50101235F23CF583E493B4FF0565
:103EB80012367180E21238CFFE9009F8E06E700376
:103EC800A3E06F70099009FA123BB2023E8790098D
:103ED800F8E0B4010EA3E0B400099009F7E004F09B
:103EE800023D0F9009F7E0640260030243D61235E1
:103EF800ECE402434A1235EC123B04F012390C94FC
:103F0800025064123666123C63123A6F6009123925
:103F180013123C5C023F56123661123870123A6F27
:103F28006008123913123C55802412366112390583
:103F3800123A6F6008123913123C4E801112366122
:103F4800123B13123A6F6016123913123AFD3EF5FE
:103F580083E493FF9009F8E4F0A3EFF08009900957
:103F6800F7E004F0023F049009FAE0FEA3E0FF4EF8
:103F780070081235EC740402434A9009F8A3E01261
:103F880035EBED1239E790000202429B1235EC1234
:103F98003B04F012390C940240030240701236665A
:103FA800123C63123B4E6040EF123C631235E5123F
:103FB800391DEF123C5C1237B612390C74019FFFA1
:103FC800129C6012390C74019FFF12ACA99009FA77
:103FD800E4F0A37402F09009F7E0FF700302407068
:103FE800C374029FF0024070123661123870123B9F
:103FF8004E601B12386F1235E512391DEF123C5511
:104008001237B69009FAE4F0A374C202405D123682
:1040180061123905123B4E601A1239041235E51245
:10402800391DEF123C4E1237B69009FAE4F0A3742A
:10403800828022123661123B13123B4E6021123BE2
:10404800121235E512391D123AFC1237B69009FAE8
:10405800E4F0A37442F012390C74019FF0800990C7
:1040680009F7E004F0023F9B9009FAE07002A3E030
:1040780070161235EC740112391E9009FAE4F0A397
:104088007402F0E49009F7F01235EC1236C37007A9
:10409800900002041210851239D2123AFD3EF583BF
:1040A800C083C0829009FAE0FCA3E0FDD082D083EF
:1040B8002582F582E5833CF583E493F49009F46066
:1040C80008121373740302434A1213731236C3128D
:1040D80039809009F7123942CF2DCF3C123572F052
:1040E8000243D31235ECE41210739009F8F0A3F0F0
:1040F8009009F812372AEC9401400302419990097B
:10410800F41235931313543F7F00FE123B121236FC
:10411800003CF583E493FF1235EC1236C3FEEF6ED4
:1041280070669009F7F09009F7E0FDC3943A506182
:104138009009F41235931313543F7F00FEEF2404C3
:10414800F582747A3EF583C083C082EDFF9009F949
:10415800E02FFF9009F8E03400FED082D083123BB4
:10416800293EF583E493FF1235ECE92403F9E43A98
:10417800FA9009F7E07C0029F9EC3AFAEF1210738B
:104188009009F7E004F0809E9009F8123BB20240D3
:10419800F89009F8E064017002A3E060030243D6D6
:1041A8001235EC740502434A1235ECE41210739090
:1041B80009F7F0A3F0A3F09009F81237C59406EEBA
:1041C800940050371235EC1236C3FD123BB9FEEF9E
:1041D8007807C333CE33CED8F92402F582747C3EF7
:1041E800F583E4936D700F9009F8E07002A3E07016
:1041F8000A9009F704F012367180BC9009F7E0B410
:104208000111A3E07004A3E064056007E49009F8D5
:10421800F0A3F0123BC170081235EC740402434A53
:10422800123BB99009F8F0A3EFF01235EC1239E619
:104238009009F77405F09009F7E0FDC394805037B2
:10424800A3E0FEA3E07807C333CE33CED8F9240029
:10425800F582747C3EF583E5822DF582E43583F59D
:1042680083E493FFF4600A9009F7E02F2402F080BA
:10427800C59009F7E014F09009F7E0C3947C400872
:104288001235EC74061210739009F7E0FF1235EC42
:10429800900003EF0243301235ECE41210739009DA
:1042A800F8F0A3F09009F81237C59406EE94005080
:1042B80021123BB9FEEF7807C333CE33CED8F924A9
:1042C80002F582747C3EF583E493B4FF05123671DF
:1042D80080D2123BC170089009F8F0A3F08012EF69
:1042E8004E600EC374069F9009F9F0E49E9009F899
:1042F800F09009F8E0FEA3E0FF1235EB900001ED25
:104308001210851236C3123980EF7807C333CE33C3
:10431800CED8F92402FFEE347C123572F01243DA5B
:104328001235EC90000374041210850243D612353E
:10433800ECE41210731235EC123A2CC3947C40084A
:1043480074061210730243D6E49009F8F0A3F01231
:1043580035EC9000051210462402FFE433FE900964
:10436800F8E0FCA3E0FDD39FEC9E501E74042DF5ED
:1043780082E43CF583121046FF74432DF5827403E2
:104388003CF583EFF012367180C59009F41235932D
:10439800FF123A2CFD123986EF75F080A42400FF35
:1043A800E5F0347CFE7C00EF2DFFEC3EFEEEC0E035
:1043B8001235EC9000051210462402FEEC33900AE8
:1043C80025F0A3CEF0123BE9D0E0FE1243DA123515
:0143D800ECF8
:0B43D90022122111E51124FF92AF22F7
:039B9D00900A8C9F
:109BA00012387DF512E4900A8FF0301635304014EB
:109BB0001237C29406EE9400500280129005E0E045
:109BC00024E180241237C29404EE9400500C123821
:109BD0001E900A8DF0A3EFF0801C9005E0E024E7D2
:109BE00080069005E0E024F0FE9005DFE034FF9071
:109BF0000A8DF0A3CEF01239F8900A8EE09D900AFB
:109C00008DE09C502712A20212820A12BB99900585
:109C10008D123674900A8F123715900A8E123C6A94
:109C2000900A8DE09E5005E4900A8FF0A2AFE433D5
:109C3000F512C2AF7F0112203D900A8C123C74FED7
:109C400012204EE4FF12203DE51224FF92AF900A4D
:0F9C50008FE0B4010A902062E030E503123B552B
:019C5F0022E2
:039C6000900A90D7
:109C630012387DF513E4900A93F030163530401422
:109C73001237C29406EE9400500280129005E0E081
:109C830024E180241237C29404EE9400500C12385D
:109C93001E900A91F0A3EFF0801C9005E0E024E70A
:109CA30080069005E0E024F0FE9005DFE034FF90AD
:109CB3000A91F0A3CEF01239F8900A92E09D900A2F
:109CC30091E09C502712A20212820A12BB999005BE
:109CD3008D123674900A93123715900A92123C6AC9
:109CE300900A91E09E5005E4900A93F0A2AFE4330A
:109CF300F513C2AF7F0112203D900A90123942FE44
:109D030012204EE4FF12203DE51324FF92AF900A88
:0F9D130093E0B4010A902062E030E503123B5563
:019D2200221E
:03ACA900900A5BB3
:10ACAC0012387DF514E075F004900A5E123877F5D1
:10ACBC0014C2AFE4900A5CF0A3F0900A5C12372A3D
:10ACCC00EC94015028A3A3E0900343F0A3F0900A66
:10ACDC005B123942CF2DCF3C123572F012211190FC
:10ACEC000A5E123674900A5C123BB280CDE51424D5
:03ACFC00FF92AF15
:01ACFF002232
:03AC4E00900A6009
:10AC510012387DF515E075F002900A63123877F528
:10AC610015C2AFE4900A61F0A3F0900A6112372A8D
:10AC7100EC9401502CA3A3E0900343F0A3F0900ABD
:10AC810060123C74CF2DCF3C123572F0122111901D
:10AC91000A63123674900A61E475F08012110E8015
:07ACA100C9E51524FF92AF85
:01ACA8002289
:10992B00A2AFE433F5161235B67F05123C92121036
:10993B002D60030299FF1235B67F06123C9212106E
:10994B002D60030299FF1235961236AEFCEF6C7048
:10995B0008900AC77404F0802C1239003EF583E49A
:10996B00936C7008900AC77444F0801912359612E4
:10997B0038681236BDFEEF6E900AC770057484F01E
:10998B00800374C4F0E4FF740D2FF582E4340112EC
:10999B0035D8123752B41AEF7F1A74D62FF582E4EA
:1099AB0034051235D8123752B420EF7F2074232F91
:1099BB00F582E434051235D8123752B42AEF12353A
:1099CB00961313543FFFA2AFE433F516C2AFEF1259
:1099DB003943FE900AC7E07C002FFFEC3E123BE8B8
:1099EB00900A25E4F0A3742AF0122111E51624FF46
:0499FB0092AFD22A2B
:0199FF002245
:104EEB001238925003024FF01235B67F05124FF174
:104EFB006003024FF01235B67F07124FF164047056
:104F0B0003024FF0900A667405F0900A6712137350
:104F1B00123A2CFF900A66E0FEC39F4003024FF04B
:104F2B00123596123B62E5822EF582E43583F583CA
:104F3B00E493F460D5E4900A65F0900A6712359318
:104F4B00907C001237CFC083C082900A66E0FED0FF
:104F5B0082D083123BCDF583E493FD900A65E0FC90
:104F6B00C39D505875F080EF907C01121367ECFDD8
:104F7B00EE2DFFE433123B283EF583E493FF900ABA
:104F8B0067123593907BFF123B65C083C082900AFA
:104F9B0066E0D082D083123BCDF583E49375F003AA
:104FAB00904EE812358A900A65E0F582758300EF22
:104FBB00121085900A65E004F0024F45900A6712C3
:104FCB003593123B62C083C082900A66E0FFD082A9
:104FDB00D083123BCDF583E493FEEF2E2402900A8F
:054FEB0066F0024F1505
:0E4FF00022123C92900A6712137C12102D229E
:068000009009D712137C69
:10800600E49009DEF090054FE0640360030281FE10
:108016003008030281F63014030281F69009DA1261
:108026003B3E9009E0F012359614FFB4FF06900926
:10803600E0E014F0D248E49009DFF09009DFE0FEBA
:108046001234CEE493FD9009E0E0FCED6C70101262
:108056003A531234D47401936F7004C2488013905B
:1080660009DFE004F0E0FD90059BE07003A3E06DFE
:1080760070C93048030281EE9009DF1234CC7405D2
:1080860093FE20E40302812D75F003EF904D9312C9
:10809600358A12102D20E0030281249009DFE07555
:1080A600F002904E5E1234D4123C7EF0BF0105748D
:1080B60002F080069009E17410F09009DDE0FFD32C
:1080C600940050030281CE1238A2FDEFD39D4003E7
:1080D6000281CE741B123B1A123686F0E4A3F0120C
:1080E6003596123A77F09009DDE0FF9009DFE0FD62
:1080F600C39F501E9009D712137312376FFC741268
:108106002DF582E43405F583ECF09009DFE004F008
:1081160080D4EF2407900580F0D2080282049009EB
:10812600DE7416F0028204EE20E5030281E6900971
:10813600DFE0FF75F003904D9312358A12102D2063
:10814600E1030281DE300F030281D675F002EF9063
:108156004E5E1234F9123C7EF0BF01057402F080C7
:10816600069009E17410F09009DDE0FFD394004019
:10817600571238A2FEEFD39E504E741D123B1A12B0
:108186003686F0E4A3F0123596123A77F09009DDC0
:10819600E0FF9009DFE0FEC39F50209009D712133D
:1081A600738E82123771FD74122EF582E43405F552
:1081B60083EDF09009DFE004F080D2EF240790050C
:1081C60080F0D20FD20880369009DE741BF0802E24
:1081D6009009DE740CF080269009DE7417F0801E7C
:1081E6009009DE740BF080169009DE7408F0800E9C
:1081F6009009DE740AF080069009DE7415F0900985
:03820600DEE0FFB8
:018209002252
:09BB6400C23790083B1213732252
:06BBB600900573E0FF2280
:10B60100E4FF90054FE0B40320203C16900582E052
:10B61100B41C0FD23CE490057EF0900582741DF0BD
:0BB621008009900582E0FF80027F1589
:01B62C0022FB
:10B7D400900582E0FEB41E14900586E0D3941450C4
:0FB7E4000BE004F0C23C900582741CF0CFEECF56
:01B7F3002233
:10AF4D009002AD7406F0A37401F0E4A3F0A374FFB6
:10AF5D00F0A3F0E4A3F0A37428F07417123683F075
:10AF6D00E4A3F0FF902242E493FEEFC39E5013EF53
:10AF7D00A393FE74B42FF582E43402F583EEF00F43
:10AF8D0080E21235577D1B12035E90057E7401F031
:01AF9D002291
:10B83400E4FF900582E0FEB41F11303C047F2380B6
:0EB844000DD23C90057E740BF08003CFEECF4A
:01B8520022D3
:10B85300E4FF900582E0FEB41F11303C047F238097
:0EB863000DD23C90057E740CF08003CFEECF2A
:01B8710022B4
:10ADAE00900567E0FFC3940C4006EFD39411400565
:10ADBE00EF6406703E90057EE0640B701412367BD5
:10ADCE0012398FF09007757401F09002B0F0E480A4
:10ADDE001890057EE0640C701A12367B12398FF0D3
:10ADEE00E4900775F09002B0F01235557D0912030C
:04ADFE005EC23C22D3
:10B6D600123C88701F900717E07008A3E070047F83
:10B6E600208014303C047F23800DD23C90057E746C
:07B6F6000DF08003CFEECF41
:01B6FD00222A
:10B6FE00123C88701F900717E07008A3E070047F5B
:10B70E00208014303C047F23800DD23C90057E7443
:07B71E000EF08003CFEECF17
:01B725002201
:10AE0200900567E0FFC3940C4006EFD39411400510
:10AE1200EF6406703E90057EE0640D701412367B7E
:10AE22001239A3F090071C7401F09002B0F0E48094
:10AE32001890057EE0640E701A12367B1239A3F068
:10AE4200E490071CF09002B0F01235557D09120310
:04AE52005EC23C227E
:09BB6D00C21C9008961213732209
:06BBBC00900583E0FF226A
:03A3D300CAEFCA04
:10A3D600E4FE90054FE06403600302A461900582E9
:10A3E600E0FD641F707090078FE0FC7008A3E070BA
:10A3F600047E218068201B5A902297E493FBEAD3BF
:10A406009B504B9004EF7412F0EA24039004EB1275
:10A416003686F0E4A3F0900790E09004F0F0A3EC09
:10A42600F0E4FFEFC39A501B74922FF582E43407D1
:10A43600F583E0FC74F22FF582E43404F583ECF046
:10A446000F80E0EA240790057FF0D21B800F7E1B69
:10A45600800B7E228007CEEDCE80027E15CFEECF1A
:01A4660022D3
:10B8E800904E5C1236DB74019330E20B75F003EF77
:0BB8F80012358712376FFDCFEDCF2215
:10B74B00900A9412132A900567E0B42811900A947A
:10B75B0012130290045F12132AE4900567F0D20EC5
:03B76B00C23422C3
:1079F000300E0C900579E0B4010312A697C20E2256
:10BA67001239641234F974019330E3037F01227FA2
:02BA77000022AB
:08030300C230A22DE433FF22F9
:10B24400080C1014181C2024282C30383C40444886
:10B254004C5054585C6064686C7074787C8084884A
:10B264008C9094989C0434A000000000000000011D
:10B274000418031802180F18000000000000000052
:102CEB0090094FE0FCA3E0FD25E0FFEC33FE7403FD
:102CFB002FF582744D3EF583E493FE740193F582B8
:102D0B008E8322E0FF24CBF582E43404F583E0FECE
:102D1B0074852FF582E43420F58322900A3F121339
:102D2B0073900A43E0FFF582758300121046FE7420
:102D3B00A92FF582E43402F583EEF0900A43E0FF0D
:102D4B0024A9F582E43402F583E0FEE42FF582E456
:102D5B003421F583223CF583E0FE74432FF582E4A6
:102D6B003405F583EEF09008C0E004F0223EF583C5
:102D7B00EDF0900A0BE475F00102110E74A02FF523
:102D8B0082E43408F583E0FE74B02FF582E4340856
:102D9B00F583E06EFE74A92FF582E43402F58322ED
:102DAB009002CBE090204EF09002CCE024049020D7
:102DBB004DF074869020A5F0900062229005C2E041
:102DCB00FE9005C1E07C002400FFEC3E900985F0ED
:102DDB00A3EFF0900985E0FEA3E0FF7C0B7D721260
:102DEB0013B7E47B9B7A3BF9F812120290098D1210
:102DFB00132AA240B3E4FCFDFE33FF90098D12139E
:102E0B001E121177900985CDEFCDCCEECCE0FEA351
:102E1B00E0780322900941E0FFFD7405C39DFDE4BA
:102E2B009400FC2290055DE033333354F8FE90059B
:102E3B0069E0C454F04EFE90055EE025E025E022EB
:102E4B003CF583E493FE74AE2FF582E43402F583F4
:102E5B00EEF0900963E004F02290055DE03333332C
:102E6B0054F8FF900569E0C454F04FFF90055EE005
:102E7B00FE25E025E04F44029002CBF0900A42E0A1
:102E8B009002CCF090204DF09002CBE090204EF0D1
:102E9B0022E0FF90094FE0FCA3E0904D8D75F0030D
:102EAB00121367EC75F003A42583F583021385FFDA
:102EBB00900941E0FE90094AE0FCA3E02EF582E484
:102ECB003CF583EFF0900941E004F0229005C4E05B
:102EDB009005C3FEE07C002400FFEC3E22E0FE9058
:102EEB00055FE075F020900169121367E5822FF5FD
:102EFB0082E43583F5832274119002A9F0E4A3F0E8
:102F0B007406A3F0E4A3F0A3229002CAE090204D34
:102F1B00F074049020A5F09000622275F002EF90FF
:102F2B004D03121367E493FC740193F5828C832297
:102F3B00900941E0FFFDC374FF9DFD740294008D69
:102F4B0082F583E493FE221210467E00FF900A72F4
:102F5B00EEF0A3EFF02290054EE0C3940122900A0D
:102F6B000BE0FEA3E0FF22F583E0FE74A02FF582B9
:102F7B00E43408F583EEF00FEF224EFE9002C9E029
:102F8B0054034E900552F090204EF0900567E0FEF2
:102F9B00C3940C22121302EF2401FFE43EFEE43D26
:102FAB00FDE43CFC22131313541F24C7F582E434B5
:102FBB0005F583223EF583E493FD2274F02DF58213
:102FCB0074053CF583E0FE74D32FF582E43400F5F1
:102FDB0083E022F9E43AFA9008C0E0FF7C0029F97B
:102FEB00EC3AFA02102DC23EC222E490054FF0904B
:102FFB002062F0900056F02290055DE0333333549D
:10300B00F8FF900569E0C454F04FFF90055EE0FEB9
:10301B0025E025E04F44039002CBF0900A48229024
:10302B002000E0540322E0FE74CB2FF582E434043D
:10303B00F583EEF022E4900A0BF0A3F0222400FFBC
:10304B00EA3EF0A3EFF022900A45121373900A495F
:10305B00E0FFF582758300021046A3F07B017A0234
:10306B0079A9227410902061F0900055F022900203
:10307B00CAE0240490204DF0229020A5E054C0908B
:10308B000568F022E0FE74332FF582E43405F583F6
:10309B002274F1902062F09000562290058FE0FE92
:1030AB00A3E0FFC322E0FE74CD2FF582E4340222AD
:1030BB0074A92DF58274023CF583E0FE22742690F0
:1030CB0020A5F0900062229008C0E0FF2483F582D7
:1030DB00E4340422900A6DE0FEA3E0FF229002CAC2
:1030EB00E0FEEFC39E22900A6EE025E0FF900A6D92
:1030FB00E0224E4401900552F090204EF090204D6E
