:04000000FFFF807707
:0CB3CD00787FE4F6D8FD75812F02B414DF
:02FFFE005AA502
:03000B0002030BE2
:03001300020313D2
:03001B0002031BC2
:03002300020323B2
:03002B0002032BA2
:0300330002033392
:03003B0002033B82
:0300430002034372
:03004B0002034B62
:0300530002035352
:03005B0002035B42
:0300630002036332
:03006B0002036B22
:0300730002037312
:10007B0075816075940075A8007B00740051049025
:10008B0020017480F074A0F075372075384E511B29
:10009B006036D537F9E5386005D538F280F090FF3A
:1000AB00FEE493B4FF1E740193B4FF187594029091
:1000BB00FFFEE493B45A0D740193B4A5077B5A75F4
:1000CB009400800651146100010031FA75360375F6
:1000DB00390AD539028041853683758200510D313D
:1000EB00D3E536C39480400E7532028536307535B4
:1000FB0000853633800F75320174802536F53075E7
:10010B003500853633314670C9E536B4FF067400C9
:10011B00510480B4053680B786408841858342857B
:10012B008243740093F5447545007546EE7547118F
:10013B0090FFF87408510D319B80FE7D007E108579
:10014B0030838D8285329431788533838D828535EA
:10015B0094510D319E8533838D8285359431857015
:10016B0009ED2410FDDED874002274FF2278407F45
:10017B0010740093F6A308DFF82278407F10863ABC
:10018B00740093B53A07A308DFF474002274FF22BE
:10019B00FF802374015104E583C394034027E5BA20
:0A01AB0054076002800AE5D85404EE
:1001B500700A800201CF745AC39B70F87F10784093
:1001C500E6B4FF028001F0A308DFF55114227404A0
:1001D5005104E583C394034019E5BA5407600280CE
:1001E5000AE5D85404700A800201CF745AC39B7083
:1001F500F8F051142275EBAA75EB55759B10227515
:10020500EBAA75EB55F59A22E587D2E4F58722E549
:1002150087C2E4F587229020387490F090202B74E3
:1002250024F090202B7425F0513CE020E0EE20E4F2
:0E023500037400227401227CE30000DCFC2232
:0303000002B3CD78
:1057E0000B0201050302F0FF031900000000000096
:1057F00000000000000000000000000000000000A9
:105800000E0D09414D4943434F4D5F44656D6F0097
:105810000000000000000000000000000000000088
:1058200000000001280002001800022803050203FE
:1058300000002A00032A000C414D4943434F4D5FAD
:1058400044656D6F0004280305020500012A000568
:105850002A010200000006280305080700032A00A9
:10586000072A0306000000000000000828030502C4
:105870000900022A00092A020100000A2803050281
:105880000B00042A000B2A04085000800000002CA2
:1058900001000C2800020118000D280305220E004B
:1058A000052A000E2A05040100FFFF000F2902024D
:1058B000000000102800020A180011280305021237
:1058C00000252A00122A2504303030310013290423
:1058D000071900000001000000142803050215004C
:1058E000292A00152A290D414D4943434F4D204592
:1058F0006C65632E001629040719000000010000E2
:105900000017280305021800232A00182A23085527
:10591000AA55AA55AA55AA0019280305021A002655
:105920002A001A2A260456302E38001B290407198B
:10593000000000010000001C280305021D00242AAD
:10594000001D2A24064D4438313037001E29040733
:1059500019000000010000001F2803050220002795
:105960002A00202A27035530330021290407190073
:1059700000000100000022280305022300282A005D
:10598000232A28043030303000242904071900006D
:10599000000100000025280305022600502A0026E9
:1059A0002A500701C000000000000027280002F272
:1059B000FD002828030514290010FA0029FA101404
:1059C00000000000000000000000000000000000D7
:1059D00000000000002A2902020000002B29010813
:1059E0004F54415F44415441002C280305282D00A9
:1059F00011FA002DFA11080000000000000000005C
:105A00002E2902020000002F2901074F54415F4355
:105A10004D44003028030510310013FA0031FA1309
:105A200004000000000032290202000000332901B6
:105A300011444154415F4552524F525F53544154B7
:105A4000555300342800020F18003528030512367C
:105A500000192A00362A19016400372902020000C1
:105A60000038280002F0FF0039280305103A00F141
:105A7000FF003AFFF11400000000000000000000E9
:105A800000000000000000000000003B29020200AE
:105A900000003C280305083D00F2FF003DFFF21422
:105AA00000000000000000000000000000000000F6
:105AB00000000000003E280305103F00F3FF003FF8
:105AC000FFF31400000000000000000000000000D0
:105AD0000000000000000000402902020000004118
:105AE000280305084200F4FF0042FFF41400000000
:105AF00000000000000000000000000000000000A6
:105B0000000043280305024400F5FF0044FFF5149C
:105B1000000102030405060708090A0B0C0D0E0F0D
:105B20001011121300010101010101010101020123
:105B30000101010101010301010101010101010153
:105B40000101010101010101010102010301010142
:105B5000020103010101000103010101010103012F
:105B600001010301020101010301020101015820A9
:105B70005822582958335844584E5855585F586A37
:105B80005874587A58845891589858A258AB58B2BB
:105B900058B958C358CC58D858E258F45900590A43
:105BA00059175921592A59365940594B5957596152
:105BB00059695975597F59885994599E59AA59B1AB
:105BC00059BB59D459DB59E859F259FF5A065A12B0
:105BD0005A1C5A255A2C5A425A495A535A595A60F1
:105BE0005A675A715A8A5A915A9B5AB45ABE5AD70E
:105BF0005ADE5AE85B015B0BFF5825FF5827FF5818
:105C00002E01081FFF5849FF5853FF585A0107BF7C
:105C1000FF586FFF5879FF587FFF5889FF5896FF4C
:105C2000589D01082B010831FF58B7FF58BEFF5897
:105C3000C8FF58D1FF58DDFF58E7FF58F9FF590555
:105C4000FF590FFF591CFF5926FF592FFF593BFFE2
:105C50005945FF5950FF595CFF5966FF596EFF596E
:105C60007AFF5984FF598DFF5999FF59A3FF59AF06
:105C7000FF59B60107A801082FFF59E0FF59ED01B0
:105C800008150107A6FF5A0BFF5A1701083701082C
:105C90001DFF5A31FF5A47FF5A4E0107BE0107BC8C
:105CA000FF5A65FF5A6C0107C5010833FF5A960178
:105CB00007EDFF5AB90107D9010835FF5AE301087A
:105CC00001FF5B06FF5B105B245B265B285B2A5BA6
:105CD000285B2C5B285B2E5B285B305B285B325B90
:105CE000265B285B345B365B265B285B385B3A5B64
:105CF000285B3C5B3A5B285B3E5B285B405B3A5B26
:105D0000285B425B3A5B285B445B3A5B285B465B03
:105D10003A5B285B485B265B285B4A5B4C5B4E5BCF
:105D2000285B505B525B545B285B565B585B5A5B4D
:105D3000265B285B5C5B5E5B265B285B605B625B73
:105D4000285B645B285B665B685B285B6A5B285B3F
:065D50006C5A590107BC6A
:10950B004C081F414D4943434F4D5F44656D6F46BA
:10951B0007BF00000000000044082B0000000042C1
:10952B00083100005407A8000000000000000000F4
:10953B00000000000000000000000042082F0000A7
:10954B0048081500000000000000004207A60000BC
:10955B004408370000000042081D00004107BE64AC
:10956B004207BC00005407C50000000000000000CB
:10957B000000000000000000000000004208330063
:10958B00005407ED00000000000000000000000088
:10959B0000000000000000005407D900000000008C
:1095AB00000000000000000000000000000000426E
:1095BB000835000054080100000000000000000006
:0B95CB00000000000000000000000095
:0BCAF70007000600020300011001010F
:08CB5800E4FF900B25121647C3
:01CB600022B2
:10C99500E4FF900A56121647900A5312163E900A63
:04C9A50056121647C9
:01C9A900226B
:030313000251C0D4
:0251C0000032BB
:03031B000251C2CA
:1051C200C0E0C0F0C083C082C0D0E8C0E0E9C0E067
:1051D200EAC0E0EBC0E0ECC0E0EDC0E0EEC0E0EF22
:1051E200C0E0900AC5E0600F900976E0600414F018
:1051F200801E12CBFB8019900AC8E07002A3E06007
:105202000C900AC874FFF5F01213CB8003125300FE
:10521200D0E0FFD0E0FED0E0FDD0E0FCD0E0FBD05B
:10522200E0FAD0E0F9D0E0F8D0D0D082D083D0F04C
:03523200D0E03297
:030323000252354E
:02523500003245
:03032B0002523744
:02523700003243
:03033B0002523932
:02523900003241
:0303430002523B28
:02523B0000323F
:03034B0002523D1E
:02523D0000323D
:0303530002523F14
:10523F00C0E0C0F0C083C082C0D0E8C0E0E9C0E0E9
:10524F00EAC0E0EBC0E0ECC0E0EDC0E0EEC0E0EFA4
:10525F00C0E0438701759108902062E030E50312AA
:10526F007752902028E030E70C900028E04480909F
:10527F002028F0D23FD0E0FFD0E0FED0E0FDD0E01C
:10528F00FCD0E0FBD0E0FAD0E0F9D0E0F8D0D0D0FD
:08529F0082D083D0F0D0E03290
:03035B000252A7A4
:0252A7000032D3
:10C8DB005475C52AE1E2E3E4E5E6E7E8E9EAF1F2BB
:08C8EB00F3F4F5F6F7F8F9FA91
:10579800902000E05403640322740AF09008AC02DD
:1057A800163EA3F090089A7407F0E4A3F09008A0BE
:1057B800F0A32290200174D0F0229008A4E0C394B2
:1057C800C822900AED0215CD7D017BFF7E000212F2
:0857D800C47B017A0879C722A5
:0652A900900B28121647CD
:1052AF00E4FFEFC39D501D900B2812163E8F8275A1
:1052BF008300121303FEE42FF582E43421F583EE0D
:0452CF00F00F80DE7E
:0152D30022B8
:0652D400900B2B1216479F
:1052DA00E4FFEFC39D501E74802FF582E43421F55C
:1052EA0083E0FE900B2B12163E8F82758300EE121E
:0552FA0013420F80DDEE
:0152FF00228C
:0A530000E4900AC6F0C28EC2AB2290
:0B530A00900AC67401F0D28ED2AB22D4
:105315007E007C077DD01216F1900AED1215F5126C
:1053250057CAEFF4FFEC8F8B1257CA780812159302
:10533500EFF4FFEC8F8D1257CA7810121593900A6F
:09534500C8EEF0A3EFF002530AD8
:10534E009008A77401F0E4A3F0A3F0FBFAF990081B
:10535E00AC12164778AF7C087AC879DB7F041257F7
:10536E00D078B37C087AC879DF7F141257D0A28424
:10537E00B340FB12CBF512B9A6C240E4900AC5F0B9
:10538E007F3212CB9E12C1AD9008A4EFF012202FE7
:10539E001209871274167F0612A13112CBF812CAA7
:1053AE009B7B017A0879AF9008DB1216479008DED6
:1053BE007401F0A3F0E4A3F0A374DCF0A37405F081
:1053CE007A0879AC900AC21216477A0879DB12A3D2
:1053DE00647E007F0A7D001257D91218C8900AC742
:1053EE007401F0120AB290054FE060030254CA90A5
:1053FE000AC5E060091256E3129C4402547C12570F
:10540E004E12573974D0F0902001E020E7F9125770
:10541E009860F412576B74C0F0902001E020E703FF
:10542E000080F6900AC6E0600A902001E030E703A3
:10543E000080F0902001E030E70574B0F080031298
:10544E00578C125722900AC6E060231257BB902049
:10545E0001E020E7F912579860F4E49008A4F012E6
:10546E0057C250E10000000000E004F080F1125736
:10547E00A412ABFC12CBE9900AC7E06018E4F090DE
:10548E00089CF0A37408F0A37412F074C01257AA0B
:10549E0004F0E4801390089CE4F0A37480F0A374ED
:1054AE0005F074DC1257AAF09008A3F09008A2043D
:1054BE00F0FB7A08799A12B4E50253F190054FE0A9
:1054CE0064016003025579900AC5E060091256E343
:1054DE00129C4402555C12574ED39464EE940040D5
:1054EE006D12573974D0F0902001E020E7F9125771
:1054FE009860F412576B74C0F0902001E020E7031F
:10550E000080F6900AC6E0600A902001E030E703C2
:10551E000080F0902001E030E70574B0F0800312B7
:10552E00578C125722900AC6E060231257BB902068
:10553E0001E020E7F912579860F4E49008A4F01205
:10554E0057C250E10000000000E004F080F1125755
:10555E00A412ABFC9008A57401F090054FE0640115
:10556E0060030253F112C5380253F190054FE06407
:10557E000360030253F1900AC704F0900AC5E0607D
:10558E00321257A47D32129D9F1257D9900A0712DC
:10559E001647900A0A1257A11290197B017A0879C0
:1055AE00B3900A23121647900A261257A1129C4452
:1055BE000256671257A47D32129D9F90200174B03F
:1055CE00F012C3189008AAEEF0A3EFF0D39464EE95
:1055DE009400500302566712577A1257BB9020015F
:1055EE00E020E7F912579860F47F051253159020CA
:1055FE00047413F090200174C0F0902001E020E7B5
:10560E00030080F6900AC6E0600A902001E030E7C1
:10561E00030080F0902001E030E70574B0F08008C0
:10562E001257D97D141252D47F0512531512577A80
:10563E00900AC6E060231257BB902001E020E7F9E4
:10564E0012579860F4E49008A4F01257C250E1008B
:10565E0000000000E004F080F11257A412ABFC90A1
:10566E0008A5E060151209A79008A4EFF064016088
:10567E0004E0B40205E49008A5F030374712CB6180
:10568E00CFE9CF9008A8EAF0A3EFF012CBB39008C1
:10569E00A6EFF09008A8E064077004A3E064A87079
:1056AE00067E077FA880129008A8E064087004A305
:1056BE00E06415700F7E087F159008A6E0FD120AB3
:1056CE007E120AB290054FE0640360030253F1129A
:0556DE00C5380253F184
:1056E3009008AC12163E7D32129D9F7B017A087999
:1056F300C7900A07121647900A0A740AF09008AC7A
:1057030012163E1290197B017A0879B3900A23127C
:105713001647900A26740AF09008AC12163E227FB0
:10572300051253157B017A0879B37D141252A9909F
:1057330020047413F0227B017A0879B37D1412528A
:10574300A99020047413F0902001229008AC121643
:105753003E7D32129D9F90200174B0F012C31890C9
:1057630008AAEEF0A3EFF0227F0512531590200450
:105773007413F0902001227B017A0879B37D14120F
:1057830052A99020047413F0227B017A0879C77D13
:05579300141252D422A3
:10B9A6007580FFE4F5D1F5D275D3FF7590FFF5D913
:10B9B600F5DA75DBFF75A0FFF5A1F5A275A3FF7596
:10B9C600B0FFF5E1F5E275E3FF781EF608F6781E9E
:10B9D600E6FE08E6FFC3EE9420500E8F828E83E4C7
:10B9E600F006E61870E80680E543B901E58754EFEE
:10B9F6004401F58775BA079005E1745AF0A374A55A
:01BA0600F04F
:01BA0700221C
:0802F800FFFFFFFFFFFFFFFF06
:0C7FF40000000000F00000000000000091
:1021AD000000000000001000800000805F9B34FBE9
:1021BD000000000000000000000000000000000012
:1021CD0043730503E30B0F86C71041F0AEFD9D6908
:1021DD00E2485A7AD8D97C223057FA42DB598B25FE
:1021ED00DEAFBABE0213243546576879677547309E
:1021FD004AF6D91A28DDB5B7E148AC7E3B918AA6DF
:10220D00D71C4533E50BE58BE88D786175A7E34B5E
:10221D000180A0FBF9820000020002000002000212
:10222D000101010001000000000001010200010098
:10223D00000000280010D0002D121E4B0FA4994E47
:10224D00CEB531F405790000280313000000BD1D43
:10225D00A299E625588CD94201630D12BF9F00004B
:10226D00080000000000000000000029020200002C
:10227D000000280313000000D9D9AAFDBD9B2198A9
:10228D00A849E145F3D8D169000014000000000011
:10229D000000000000000000000000000000000031
:1022AD0000280313000000FB7B7CCE6AB344BEB54F
:1022BD004BD624E9C6EA22000014000000000000FD
:1022CD000000000000000000000000000000000001
:1022DD002902020000223C2253226B2276227D220B
:1022ED009522AC22C422DB01070001071E01074E17
:1022FD0001077001077701078F01073601075901A3
:10230D000717000003930000050200000A270000D4
:10231D000A9500000D93000010FA00001124000032
:10232D001451000016CB000017F2000019E3000055
:10233D001B6300001CB300001D4F00001E52000067
:10234D001EC200001F5B00001FF3000021E900000A
:10235D00224100002312000023320000236C0000F4
:10236D0023DF00002436000025000000254B00006F
:10237D0025BC000026080000264A000026B00000FB
:10238D0026BB0000306500003EE1000050E4000077
:10239D0056CD0000617100006D520000886500008F
:1023AD00A0400000B3620000C6100000CDFE00008A
:1023BD00DB700000F4B90000F76F00040CCE0004D0
:1023CD00155200041E64000426650004489A00049A
:1023DD004BED000452F300045453000469F800045B
:1023ED00D3CF0004DB560004E5360004F13E0004B3
:1023FD00F7E4000800070008669800086D41000822
:10240D007045000874020008E6890008F4AB000866
:10241D00F69C000C1539000C3021000C3E9F000C71
:10242D004DE9000C5101000C74C2000C771A000C20
:10243D00BC9F000CD74600101C0C001040F3001080
:10244D00417F001093E9001094BB00109ADD00103D
:10245D00DDB10014109F0014205E00145A05001405
:10246D008FC6001499E20014BD61001820320018C7
:10247D0034510018659000189EFC0018AF610018CB
:10248D00AF8F0018E7F40018EE690018F1D80018A6
:10249D00F643001C1AC0001C36BB001C5CF2001C6D
:1024AD009148001C9E46001CABA7001CE62B00208B
:1024BD003CAE0020768F002078F000207D74002047
:1024CD009BCD0020A2E40020AB370020C9D0002016
:1024DD00EE2800241EEB0024240E00245BA700240C
:1024ED00A0740024A2E10024AB810024E314002495
:1024FD00F0940024F67700280B5C0028373700286D
:10250D005AEB00286AB800286ABA0028A02B0028C8
:10251D00CFDA0028CFE90028E02C0028E14C002874
:10252D00E7CF0028ED6A0028F0760028FF3C002C4C
:10253D001F23002C200B002C3361002C61F6002C86
:10254D00B43A002CBE08002CF0A2002CF0EE0030A6
:10255D0010E4003035AD0030636B003090AB0030CF
:10256D00D9D90030F7C5003408BC003412980034B6
:10257D00159E0034363B003451C900347C2500349F
:10258D00A3950034AB370034C0590034E2FD003858
:10259D000F4A0038484C003866F0003871DE0038BC
:1025AD00892C0038B54D0038C9860038CADA003C90
:1025BD000754003C15C2003C2EF9003C2EFF003C98
:1025CD00AB8E003CD0F8003CE0720040300400407F
:1025DD00331A00403CFC00404D7F00406C8F0040A2
:1025ED00831D004098AD00409C280040A6D90040B6
:1025FD00B3950040CBC00040D32D004400100044E3
:10260D002A6000444C0C0044D8840044FB4200482E
:10261D003B380048437C00484BAA004860BC00484A
:10262D00746E0048A1950048A91C0048BF6B004876
:10263D00D7050048E9F1004C3275004C57CA004CE3
:10264D0074BF004C7C5F004C8D79004CB1990050EB
:10265D00323700507A55005082D50050A67F005079
:10266D00BC960050EAD600542696005433CB005445
:10267D004E900054724F0054996300549F130054B0
:10268D00AE270054E43A0054EAA800581FAA005897
:10269D00404E005855CA00587F570058B035005865
:1026AD00E28F005C0947005C1DD9005C5948005C55
:1026BD008D4E005C95AE005C969D005C97F3005CC2
:1026CD00ADCF005CF5DA005CF7E6005CF938006030
:1026DD000308006030D40060334B00606944006033
:1026ED00921700609AC10060A37D0060C54700602D
:1026FD00D9C70060F4450060F81D0060FACD006098
:10270D00FB420060FEC50064200C00645AED0064BD
:10271D007033006476BA00649ABE0064A3CB006483
:10272D00A5C30064B0A60064B9E80064E682006841
:10273D00092700685B350068644B0068967B00686C
:10274D009C700068A86D0068AB1E0068AE20006824
:10275D00D93C0068DBCA0068EF430068FB7E006867
:10276D00FEF7006C19C0006C3E6D006C4008006CEB
:10277D004D73006C709F006C72E7006C8DC1006C26
:10278D0094F8006C96CF006CAB31006CC26B00708E
:10279D001124007014A600703EAC0070480F00703C
:1027AD0056810070700D007073CB007081EB00705E
:1027BD00A2B30070CD600070DEE20070E72C0070F7
:1027CD00ECE40070EF000070F08700741BB2007431
:1027DD00811400748D0800749EAF0074E1B600740E
:1027ED00E2F5007831C100783A8400784F430078E3
:1027FD0067D700786C1C00787B8A00787E61007842
:10280D00886D00789F700078A3E40078CA3900784D
:10281D00D75F0078FD94007C0191007C04D0007C92
:10282D0011BE007C5049007C6D62007C6DF8007C0F
:10283D00C3A1007CC537007CD1C3007CF05F007C58
:10284D00FADF0080006E008049710080929F008049
:10285D00B03D0080BE050080D6050080E6500080AA
:10286D00EA960080ED2C0084299900843835008487
:10287D004167008468780084788B00848506008425
:10288D0089AD00848E0C0084A1340084B153008482
:10289D00FCAC0084FCFE0088190800881FA100888C
:1028AD005395008863DF008866A500886B6E0088ED
:1028BD00AE070088C6630088CB870088E87F008854
:1028CD00E9FE008C006D008C2937008C2DAA008C40
:1028DD005877008C7B9D008C7C92008C8590008CB1
:1028ED008EF2008C8FE9008CFABA009027E40090EC
:1028FD003C92009060F1009072400090840D009029
:10290D008D6C0090B0ED0090B21F0090B931009029
:10291D00C1C60090DD5D0090FD6100949426009489
:10292D00BF2D0094E96A0094F6A3009800C60098A4
:10293D0001A7009803D8009810E800985AEB00986A
:10294D009E630098B8E30098CA330098D6BB0098F0
:10295D00E0D90098F0AB0098FE94009C04EB009C2D
:10296D00207B009C293F009C35EB009C4FDA009C9E
:10297D0084BF009C8BA0009CE33F009CE65E009C06
:10298D00F387009CF48E009CFC0100A0182800A089
:10299D003BE300A04EA700A056F300A0999B00A01A
:1029AD00D79500A0EDCD00A4313500A45E6000A444
:1029BD00670600A4B19700A4B80500A4C36100A4E4
:1029CD00D18C00A4D1D200A4E97500A4F1E800A82F
:1029DD00206600A85B7800A85C2C00A860B600A853
:1029ED00667F00A886DD00A8880800A88E2400A8B0
:1029FD00968A00A8BBCF00A8BE2700A8FAD800ACC5
:102A0D001F7400AC293A00AC3C0B00AC61EA00AC81
:102A1D007F3E00AC87A300ACBC3200ACCF5C00ACF9
:102A2D00E4B500ACFDEC00B019C600B0349500B0B3
:102A3D00481A00B065BD00B0702D00B09FBA00B04F
:102A4D00CA6800B418D100B44BD200B48B1900B4CD
:102A5D009CDF00B4F0AB00B4F61C00B8098A00B8D6
:102A6D0017C200B841A400B844D900B853AC00B89F
:102A7D00634D00B8782E00B88D1200B8C11100B8A2
:102A8D00C75D00B8E85600B8F6B100B8FF6100BCEC
:102A9D003BAF00BC4CC400BC52B700BC543600BCAC
:102AAD00677800BC6C2100BC926B00BC9FEF00BC32
:102ABD00A92000BCE14300BCEC5D00C01ADA00C0E7
:102ACD00639400C0847A00C09F4200C0A53E00C040
:102ADD00B65800C0CCF800C0CECD00C0D01200C09A
:102AED00F2FB00C42C0300C4618B00C4846600C4D7
:102AFD00988000C4B30100C81EE700C82A1400C89E
:102B0D00334B00C83C8500C869CD00C86F1D00C897
:102B1D00855000C8B5B700C8BCC800C8D08300C870
:102B2D00E0EB00C8F65000CC088D00CC08E000CCDE
:102B3D0020E800CC25EF00CC29F500CC2DB700CC3A
:102B4D00446300CC785F00CCC76000D0034B00D04D
:102B5D0023DB00D0259800D02B2000D0331100D0DE
:102B6D004F7E00D0817A00D0A63700D0C5F300D0BB
:102B7D00D2B000D0E14000D4619D00D461DA00D420
:102B8D00909C00D49A2000D4A33D00D4DCCD00D479
:102B9D00F46F00D8004D00D81D7200D8306200D8F7
:102BAD008F7600D8969500D89E3F00D8A25E00D8AB
:102BBD00BB2C00D8CF9C00D8D1CB00DC0C5C00DC4A
:102BCD002B2A00DC2B6100DC371400DC415F00DCBC
:102BDD0056E700DC86D800DC9B9C00DCA4CA00DC38
:102BED00A90400DCD3A200E0338E00E05F4500E0D5
:102BFD00667800E0ACCB00E0B52D00E0B9BA00E09E
:102C0D00C76700E0C97A00E0F5C600E0F84700E4C8
:102C1D0025E700E42B3400E48B7F00E498D600E434
:102C2D009A7900E49ADC00E4C63D00E4CE8F00E41E
:102C3D00E0A600E4E4AB00E8040B00E8068800E839
:102C4D00802E00E88D2800E8B2AC00EC358600EC53
:102C5D00852F00ECADB800F0189800F0247500F049
:102C6D00766F00F0796000F0989D00F099B600F055
:102C7D0099BF00F0B0E700F0B47900F0C1F100F0B9
:102C8D00CBA100F0D1A900F0DBE200F0DBF800F001
:102C9D00DCE200F0F61C00F40F2400F41BA100F49C
:102CAD0031C300F437B700F45C8900F4F15A00F435
:102CBD00F95100F8037700F81EDF00F8279300F8AC
:102CCD00621400F86FC100F895EA00FC253F00FC86
:0E2CDD002A9C00FCD84800FCE99800FCFC484A
:1095D60057070000000000280010D0002D121E4B77
:1095E6000FA4994ECEB531F4057958071E00002810
:1095F6000313000000BD1DA299E625588CD942012F
:10960600630D12BF9F4B074E0000080000000000CC
:109616000000004707700000290202000058077783
:109626000000280313000000D9D9AAFDBD9B21988C
:10963600A849E145F3D8D16957078F000014000007
:109646000000000000000000000000000000000014
:1096560000005807360000280313000000FB7B7C3F
:10966600CE6AB344BEB54BD624E9C6EA225707599B
:1096760000001400000000000000000000000000D0
:109686000000000000000047071700002902020042
:0196960000D3
:103D5400900945E0FF905B6E75F002121632E49311
:103D6400FC740193F5828C8322900A9DE0FFA312D8
:103D7400163E900004EF121342905D51EF75F0026D
:103D8400121632E493FE740193F5828E832290021C
:103D9400AFF09022EE75F003ED121632EC75F003DD
:103DA400A42583F583121650900001121303900288
:103DB400B02402F09022EE75F003ED121632EC7589
:103DC400F003A42583F5830216509002ADF074012C
:103DD4009002A9F0E4A3F0A37404F0E4A3F07B013F
:103DE4007A0279A92212163E90000112130375F08B
:103DF40080A42400FFE5F0347BFE7B017A03794341
:103E0400900A93E4F0A3740222A3E075F003905B9C
:103E1400F8121632021650900A7612163E900001DD
:103E2400021303EF2402FFE433FEE075F002905B1B
:103E34006E0216327404939000051213427B017AC9
:103E4400037903229002AD7404F090071FE0FE246E
:103E540002FDE433FCD3ED94FFEC6480948022F5FE
:103E640083E0FE74432FF582E43403223EF583E4B9
:103E74009304FD900A6202163E900A65E07F00FEFC
:103E8400EF2400F582747A3EF583E5822DF582E510
:103E94008322EFFD7414C39DFDE49400FC74A92DEA
:103EA400F582740222F0900946E004F0EF75F00206
:103EB400905B6E228D82758300121303900A9EFF1D
:103EC400ED2406FDE433FC12163E8D828C83EF0252
:103ED400134290071FE02402FE9002AEF0EF04FFAD
:103EE400A3F0A3EEF0A3EF22900A65E0FFC37401F0
:103EF4009FFFEF7F00FEEF22900A66E475F0010257
:103F040013CB9002AD7412F074059002A9F0E4A3EF
:103F1400F0A37404229002ADE0FFA3E0FDA3E0FB54
:103F2400900A1622EE2402FE9002AEF090071EE0E4
:103F3400FD9002AF221313543FFD7F00FEEF2402D5
:103F4400F582747A3EF583E493FF90000202130332
:103F540090095DE004F0E0FF90059B22E493FD905E
:103F64005D5175F002EF121632E493FA740193F581
:103F7400828A8322740193FF9002AEE0FEEF22E472
:103F840093FF900946E024A9F582E4340222E493E5
:103F9400FE740193FFF5828E837402227401F09003
:103FA400205EE0FEA3E0FDED2440FFE43E9005DF4B
:103FB400FEE0FCA3E0FDC322900B48E075F003A4EF
:103FC40024F4F582E43422F5830216503CF583E0B0
:103FD400FE74432FF582E43404F583EEF00FEF22F0
:103FE40074029002A9F0E4A3F0A3740622E493FE01
:103FF4009002AFE0FD228D82758300021303900AC4
:104004009DE0FF75F002905D5122E0FFFDD3900525
:104014009EE09D90059DE0940022E493FC7401933E
:104024002FF582EC3EF583E4932403FFE433FE9002
:1040340002A9E0D39FEE6480F8748098223EF58351
:10404400E4930490000102134290058FE0FEA3E084
:10405400FFC322907B82FF75F080021632900A73B0
:10406400E0FFC3940222900AA2E0FFC3940222C894
:10407400ECC8C9EDC9CAEECACBEFCBE0FFE4FCFD46
:10408400FE1215519009960215F5FDE0FAA3E0FB26
:10409400EF2BFFEE3AC313FEEF13FF90099BEEF0F4
:1040A400A3EFF06D227C007D03121364EF2410FF54
:1040B400E43EFEC39005E0E09FFF9005DFE09E2212
:1040C4007401F09002B1E0FF9002AF229002B2E0DE
:1040D4002401FDE433FC900703E0FEFBD3ED9B7465
:1040E40080F86C9822EF2402FFE433FEE0FD2213F3
:1040F40013543F7F00FEEF2482F582747A22A4FFDA
:10410400E5F0F0A3EFF0A2AFE43322F583EFF090F3
:104114000946E004F090094422900574E0C3940138
:104124002275F003EF905D5322900A4FE02402FDC4
:10413400E433FC900A4812163E8D828C83021303EA
:10414400F5837404F0900A73E00422F5837404F098
:10415400900AA2E00422900A69E02440FF900A68D1
:10416400E0340022A3E0FD9002AEE0D39D2274016E
:1041740093FF9002B0E0FEEFD39E227B017A027996
:10418400B0900A53021647ED7F00FEEF2442F582F9
:10419400747A22900A65E0FFC322900A68E4F0A3CF
:1041A400EDF0EF22ED900002021342900B47E02560
:1041B400E0FF900B46E033FE74E22FF58274222276
:1041C400D2379002A9E024FD22E0FEE42400FFEEB1
:1041D400347A22E493FE9002B1E0FDEED39D228F67
:1041E400828E83740393FF9009332275F002EF905B
:1041F4005CC722E493FA7401932FF582EA3EF583B7
:10420400E493FF75F00322900343F0A3F0A2AFE41C
:1042140033F511C2AF22F0E4A3F0900771E09002ED
:10422400AEF0900770E09002AF22F0E4A3F09007A4
:1042340018E09002AEF0900717E09002AF22900AC7
:104244009CE0FFC3940222240FF58274233EF5837D
:104254001215D99009960215E9900A65E07F00FECF
:10426400EF22E493FA7401932DF582EA22EF900091
:10427400010213423EF583E493FFFD900A69229004
:10428400205EE0FEA3E0FDEDFF2440FDE43EFCD310
:10429400229002A97406F09002AD7401F09002AF6E
:1042A4000422E0FF900B46E0FCA3E0FD9022F475AD
:1042B400F003229000030213038F828E837403930E
:1042C400FF9002B2E0FEEF6E22EF2402FFE43322FD
:1042D400E0FF24B0F582E434022275F002EE905B34
:1042E4006E22F583EEF0900A9CE00422F583EEF052
:1042F4009009B3E004223EF583E493FDF422900593
:1043040010F01212EA900511F0E4900A4D22900286
:10431400ADE0FF900A167406F0E4FBFD22F0A374EE
:1043240003F0A37428F09002A97407229005827404
:104334001EF0E490057EF0C23C22F583EFF0900974
:104344005EE004F090095C2290059CE024FFFF905D
:10435400059BE034FF228F82758300EE021342E056
:10436400FF75F002905CC722E0FFD390059EE09FAA
:1043740022A2AFE433F50EC2AF22A2AFE433F50FAD
:10438400C2AF22EF2400F582747A22E41213309033
:104394000A68F0A3F0900A6522EF2402F582747A89
:1043A4002290050FF0900A4BE0240390050B22FEA7
:1043B400E5822FF582E58322900931E0FE900930F1
:1043C400E0FFD39E2212163E0212EA740493FE907A
:1043D4000AA2E0FD223EF583E493F42274F1F09006
:1043E400005674D1F075910822907C0075F080021B
:1043F40016329002A9E02404FD222FF582EC3EF54A
:1044040083E493240422740493FE900A9CE0FDC385
:104414009E22740493FE900A73E0FDC39E22FFED76
:104424002406FDE43322F0E4A3F0A37405229009EA
:10443400961215CD78080215BAE475F0400213CB34
:10444400C374059FFFE49E22900A66E0FEA3E0FF8A
:1044540064064E222582F582E4358322FF9002AF62
:10446400E024FE227E087F487C027DAE7B0222FE91
:104474007B017A03794322F0900ACDE0042293FD74
:104484009002B3E0FCED6C22EF2402FDE4332293AE
:10449400FD900932E0FCED6C22FD74A92EF582E456
:1044A400340222A2AFE433F50D2290083B021647F2
:1044B40075F080A4248022FE74AE2FF582E43402C9
:1044C40022F583EEF090098DE0042290099BE0FE32
:1044D400A3E07802222440F582747A222480F582B3
:1044E400747A2224C0F582747A2224C2F582747A02
:1044F40022EF9DFFEE9CFEC3E09F22E0FEE4240039
:10450400FFEE347C227401935403FF900A4F22E49B
:09451400FF900582E0FE641F2205
:10C49F00EF1216CBC4BC00C4BF01C4C202C4C50393
:10C4AF00C4C804C4CB05C4CE060000C4D10203190E
:10C4BF0002031A02032102032202C59102C22B12A8
:03C4CF00CAAA22D4
:10AD7500EF1216CBAE1F00ADDA01ADDD02ADE0037B
:10AD8500ADE304ADE605ADE906ADEC07ADEF08AD05
:10AD9500F209ADF50AADF80BADFB0CADFE0DAE013C
:10ADA5000EAE040FAE0710AE0A11AE0D12AE1013A3
:10ADB500AE1F14AE1F15AE1316AE1617AE1918AE8C
:10ADC5001C19AE1F1AAE211BAE1F1CAE271DAE2AC5
:10ADD5001E0000AE2D02C1ED02C97F02032A0291B9
:10ADE500DA029AE702981302BACC0270BD028255C4
:10ADF50002A46A02034102997D02034202CBAD021D
:10AE050003490269AE02034A024C6F020351029ED6
:10AE1500DA020352026D39020359800302B5F802C2
:09AE2500032902035A120316224C
:10BDD500EF1216CBBE0100BE0401BE0702BE0A0368
:10BDE500BE0D04BE1005BE1306BE1607BE1908BE5D
:10BDF5001C09BE1F0ABE220B0000BE2502CBFF0296
:10BE05007F0002CC0002B57002A56402C9FE02CA19
:10BE1500D302C26702C8A9028E4D02C8C212C71F4B
:01BE250022FA
:10C4D200900AF1EEF0A3EFF0A3ECF0A3EDF01B90C5
:10C4E2000AF3E0FEA3E02BF582E43EF583E0FF9041
:10C4F2000AF1E0FCA3E02BF582E43CF583EFF0EBDC
:03C5020070DC22C8
:0EC43500900AF5EEF0A3EFF0A3ECF0A3EDF00B
:10C44300E4FF1B900AF7E0FCA3E02FF582E43CF540
:10C4530083E0FE900AF5E0FCA3E02BF582E43CF5D3
:07C4630083EEF00FEB70DB2C
:01C46A0022AF
:10C46B00900AF9EEF0A3EFF0A3ECF0A3EDF01B9024
:10C47B000AFBE0FEA3E02BF582E43EF583E493FF99
:10C48B00900AF9E0FCA3E02BF582E43CF583EFF096
:04C49B00EB70DB2245
:0EC3FE00900AFDEEF0A3EFF0A3ECF0A3EDF03B
:10C40C00E4FF1B900AFFE0FCA3E02FF582E43CF56F
:10C41C0083E493FE900AFDE0FCA3E02BF582E43C60
:08C42C00F583EEF00FEB70DA6E
:01C4340022E5
:10C3C600900B01EEF0A3EFF0A3ECF0A3EDF0EB6021
:10C3D600231B900B01E0FEA3E02BF582E43EF583E0
:10C3E600E0FF900B03E0FCA3E02BF582E43CF58331
:08C3F600E06F60DACFEBCF220B
:0103190022C1
:01031A0022C0
:0103210022B9
:0103220022B8
:10C591009002ADE0FF54E0700FEFD3941E50030200
:10C5A100AD7512431202C5BC9002ADE0242E6007A6
:0BC5B1002480700602628012CBFE2284
:10C22B009002ADE0FFD39413501CEF14602D24EE5D
:10C23B0070099002B1E0900571F022124295F0E482
:10C24B00A3F0A3F0800C124295F0E4A3F0A37402C8
:0BC25B00F0E4123DE01243F612035E17
:01C2660022B5
:0DCAAA009002ADE0FFC3940C500312BDD507
:01CAB700225C
:0103290022B1
:10C1ED0090057EE0FFB401028030EFC3940A502D1C
:10C1FD0090071EE0FF7004A3E0601F123E48500C34
:10C20D00123F28F0A3EEF0A3EDF08004123ED6F01D
:0EC21D007405123DD47D0902035E12433022E7
:10C97F009002AD7403F0900572E09002AE123DDEAE
:06C98F001243F602035EF4
:01032A0022B0
:1091DA00D2431240C7E0FE6F7009124168500BC2B9
:1091EA00438007EEC39F5002C2439002AEE0FD7077
:1091FA0006A3E07002D2433043129002ADE0FF9022
:10920A0002AFE0FB900A167401029378D243E4900D
:10921A000ACDF0900ACD123D57123FF1EEC39D40A0
:10922A0019905B6E123D80123F78C39E400C900AE3
:10923A00CDE0900ACAF0C243800E900ACD123F5781
:10924A00E07003A3E06F70CB204338D243900ACD7D
:10925A00123D571241D7502B123EB0123D84124193
:10926A00725020900ACDE0900ACBF0C243900ACD0A
:10927A00E004F0900ACDE0FF90059BE07003A3E0C4
:10928A006F70CA3043030293739002AD7405F09075
:10929A000ACAE0905CC7123D81740193540390029C
:1092AA00AEF0900ACEF0900ACC7402F0A37406F0E5
:1092BA00900ACAE0FF905CC7123D5C7401935403A4
:1092CA00FE900ACEE06E600302936412C9AA900A65
:1092DA00CCE02F2402FE900572E0C39E407C900AE7
:1092EA00CCEEF0900ACAE0FE123D59740193FD904B
:1092FA000ACD123F89F583ED12447BF0EE123EB19E
:10930A00123D5FE493FE900ACD123F89F583EE1277
:10931A00447BF0E02FFE0F900ACDE0FDC39E50265D
:10932A00900ACA123E2E123F6D2FF582E43583F55C
:10933A0083E493FC74A92DF582E43402F583EC12DC
:10934A00447BF01F80D1900ACAE004F0A3E0FF90AA
:10935A000ACAE0D39F50030292BA900ACCE0FF12E5
:10936A003DD4EF2404FD02035E123F19740AF01281
:02937A00C5BC70
:01937C0022CE
:109AE700D244E4FDFC124461C394FE40259022F465
:109AF700123DBB123E211244606F703A9022F4125D
:109B07003DBB1212EAFF9002B0E0146F7028C24406
:109B1700802F9022F4123DBB123E211244606F70D9
:109B2700159022F4123DBB1212EAFF9002B0E06FCB
:109B37007004C244800B0DBD00010CED64094C702C
:109B4700A4304403029C439022FA123DBB1242B751
:109B5700FF9002B1E06F6003029C43123F4EFF90FB
:109B670002B2E06F6003029C439002AFE0124047ED
:109B77009002B0E0FF9022FA123DBBEF121330D2F1
:109B870044E4FCFD9022F4123DBB1212EA702D90C2
:109B970022F4123DBB123E217022123F4E642970FF
:109BA7001B1242B764027014123DB81212EA700811
:109BB700123DB8123E216004C244800B0DBD000166
:109BC7000CED64094C70BD2044599002AD74041229
:109BD7003DB7123E21FF2402FBE433FAD3EB94FF97
:109BE700EA648094805012EF9002AE123DB51212D3
:109BF700EA123D921212EA8019123DB8123E212450
:109C0700029002AE123DB71212EA04123D921212EE
:109C1700EA049002B1F09002A97405123DD77D09BC
:109C270002035E900582741FF090057E740AF0C2ED
:0C9C37003C900566E06403600312C71F48
:019C430022FE
:10981300900ACF1240C4E0FE6F7007124168500CEB
:109823008005EEC39F5005E4900ACFF09002AEE0AE
:109833007009A3E07005900ACF04F0900ACFE0709E
:109843000E9002B3E064286006900ACF7406F0908D
:109853000ACFE060030298F1740AF09002A9E09045
:109863000AD2B417057410F080037402F0E4900A6E
:10987300D3F0900AD3123E2E123F921244827060AC
:109883001242BD705BFF900AD2E0FEEFC39E501AF6
:10989300123E0D8F82123FFCFD74B42FF582E43427
:1098A30002F583E06D70030F80DCEF6E7032900A77
:1098B300D3123D57123FF1EEC39D4024123EB01226
:1098C3003D84123F78C39E4017900AD3E0900AD09C
:1098D300F0A3F0E4900ACFF0900AD3E004F0800EF6
:1098E300900AD3123F57E07003A3E06F7084900A8D
:1098F300CFE07029900AD3123E2E123F9212448277
:1099030070051242BD6016900AD3E0900AD1F09020
:109913000AD3123F58E07003A3E06F70D7900ACFC9
:10992300E09002AD70407407F0900AD0123D577476
:1099330001939002AE123EAF123D84E4939002AFC6
:10994300F0900AD1123D577401939002B0123EAFCA
:10995300123D84E4939002B1F09002A97405123D84
:10996300D77D0902035EE0FFA3E0FDA3E0FB900ABD
:09997300CFE0900A16F012C5BC09
:01997C0022C8
:10BACC0090057EE0640170529002AFE0900700F0A8
:10BADC009002AEE0900701F09002B1E0900702F006
:10BAEC009002B0E0FF900703F09002AD7408F09064
:10BAFC000701E09002AEF0900700E09002AFF0A3D7
:10BB0C00EFF0900702E09002B1124321123DD77D75
:0BBB1C000B12035E90057E7402F02205
:1070BD009009471240C4E0FE6F7007124168500CF2
:1070CD008005EEC39F5005E4900947F09002AEE0B5
:1070DD007009A3E0700590094704F0900947E0702E
:1070ED003D740AF0E490095DF090095D123D571270
:1070FD003FF1EEC39D401C123EB0123D84123F780D
:10710D00C39E400F90095DE0900948F0E490094757
:10711D00F0800B123F54E07003A3E06F70CB900929
:10712D0047E07031740AF090095D123D571241D756
:10713D005023123EB0123D84124172501890095DD9
:10714D00E0900949F0E4900947F0123F54E07003D4
:10715D00A3E06F70D2900947E070229002A9E0FF82
:10716D00B4070890095B7402F08012EFB415089013
:10717D00095B7410F080069009477404F09009477C
:10718D00E06003027227740AF0900949E0FF90094C
:10719D0048E0D39F4003027227E490095DF0900907
:1071AD005BE090095EF090095BE0FF90095DE0FE09
:1071BD006F604CA3E014F0900948E0123D59C08374
:1071CD00C08290095EE0FF2402FDE433FCD082D042
:1071DD0083123E8E3CF583E493FD74B22EF582E46A
:1071ED003402F583E0FE6D60028014744A2FF5823F
:1071FD00E43409F583EEF090095DE004F080A7908A
:10720D00095BE0FF90095DE06F7006900947F08023
:10721D0009900948E004F0027196900947E0600377
:10722D000273A890095C7402F090095E7406F0E494
:10723D0090095DF0900949E0FE900948E0FDD39E6C
:10724D0040030273A890095BE00490095AF0CFED5A
:10725D00CF12C9AA90095BE06F700490095AF090A3
:10726D00095BE0FF90095AE0FEC39F502D9009483D
:10727D00E0123D59EE2402FDE433FC123E8E3CF546
:10728D0083E493FF744A2EF582E43409F583E06FAD
:10729D00700890095AE004F080C590095BE0FF90FA
:1072AD00095AE06F600302739F900948E0FF12BF17
:1072BD0068900947EFF07018A3E0FF12CA3A9009E1
:1072CD0047EFF0600B123E0D12CB58900947EFF0CF
:1072DD00900947E060030273A8900948E0FF12C9C6
:1072ED00AA12448CFC900948E0FF123E2F12426610
:1072FD003CF583E4932402FEFD12C873CEEFCE90CD
:10730D000572E0FF2405FD90095EE0FCC3ED9CFDD8
:10731D00EEC39D500690095AEE800BEC6406707B0F
:10732D00EF24FE90095AF0900948E090095DF09025
:10733D00095DE0605D900948123D57740193FE9020
:10734D00095E123F89F583EEF090095E123EAD1293
:10735D003D84E493FF90095E123F8912433EE02481
:10736D0002F090095AE024FEF0E4FE90095AE06024
:10737D0021900948123E0E8E82123FFCFF90095E4D
:10738D00123F8912433EE004F00E90095AE014F0CA
:10739D0080D9900948E004F0027241900947E070ED
:1073AD005190095CE0123F0EF0E4A3F0A37409F0D4
:1073BD0090095DE0FF12C9AA90095D123E27E49382
:1073CD00FC7401932FF582EC3EF583E4932402FFC8
:1073DD009002AEF0900572E024FEFEEFD39E4005C4
:1073ED009002AEEEF0123DE290095CE02404FD0245
:1073FD00035E9002ADE0FFA3E0FDA3E0FB90094723
:08740D00E0900A16F012C5BC64
:017415002254
:1082550090057EE0FF6402600DEF64036008EF6443
:1082650004600302847CD245E4900B46F0A3F0122F
:1082750041AF3EF583123F92936428704674039391
:108285006403703FFDFC1241AF3EF583123D87ED5F
:108295002408FFE43C1243B33EF583E493FF74B432
:1082A5002DF58274023CF583E0FEEF6E700B0DBD7B
:1082B50000010CED64104C70CDED64104C7004C2DF
:1082C500458012900B46123EFF900B46E07004A3CA
:1082D500E06409709A3045030283E59002AF1242CB
:1082E500A6123DBF1242719002B0E0FF9022F41237
:1082F5003DBBEF1213309002B11242A6123DBF9062
:108305000005EF1213429002B2E0FF9022F4123DF5
:10831500BB900007EF1213429002B3E0FE9022F4E7
:10832500123DBB900006EE1213429022F7123DBBA0
:108335001242719002B3E0FF9022F7123DBBEF129B
:10834500133090057EE004F0E0D39404506190076B
:1083550002E0F99002B3E099502F1240D050030289
:1083650083F790071EE0FF7007A3E070030284798E
:10837500123E48500D123F28F0A3EEF0A3EDF00297
:10838500843E123ED6F002843E90071EE0FF700444
:10839500A3E06018123E48500C123F28F0A3EEF0FF
:1083A500A3EDF08004123ED6F002843E028479905B
:1083B500057EE06405600302847C90071EE0FF7083
:1083C50007A3E0700302847C123E48500C123F283C
:1083D500F0A3EEF0A3EDF08004123ED6F002843E49
:1083E500900702E0F99002B3E0D399505A1240D0B9
:1083F50050279002AD7408F09002B2E0049002AEEE
:10840500F09002B3E09002AFF0A3EEF0A3E91243BF
:1084150021123DD77D0B02847690071EE0FF700484
:10842500A3E06021123E48500C123F28F0A3EEF065
:10843500A3EDF08004123ED6F09002A97405123D1A
:10844500D77D09802C802D90071EE0FF7004A3E0E6
:108455006022123E48500C123F28F0A3EEF0A3ED27
:10846500F08004123ED6F09002A97405123DD77D26
:078475000902035E1243300F
:01847C0022DD
:10A46A00900B057401F0E4A3F0900B06123D57120D
:10A47A003FF1EE6D7012123EB0123D84123F786EBB
:10A48A007006900B05F0800E900B06123F57E07095
:10A49A0003A3E06F70D3900B05E0700BA3E0FF12EB
:10A4AA00BF68900B05EFF0900B05E07018A3E0FF72
:10A4BA0012CA3A900B05EFF0600B123E0D12CB5800
:10A4CA00900B05EFF0900B05E0FE6008123F19EEC5
:10A4DA00F002C5BCE4900B07F0A304F0900B06E071
:10A4EA00FF12C9AA12448CFC900B06E0FF123E2F01
:10A4FA001242663CF583E493FE900B05F0FD12C808
:10A50A0073900B05EFF0900B05E0FF900B07E0FE50
:10A51A00C39F5030900B06123E0E8E82123FFCFFF4
:10A52A0074AE2EF582E43402F583EFF0900B07E067
:10A53A0004F0A3E004F0900572E014FF900B08E029
:10A54A00D39F40C29002AD740BF0900B08E0FF124B
:09A55A003DD4EF2404FD12035E60
:01A5630022D5
:010341002299
:10997D00C246900A957401F0E4A3F0900A96123D48
:10998D0057123FF1EE6D7012123EB0123D84123F30
:10999D00786E7006900A95F0800E900A96123F57D9
:1099AD00E07003A3E06F70D3900A95E0700BA3E015
:1099BD00FF12BF68900A95EFF0900A95E07018A31A
:1099CD00E0FF12CA3A900A95EFF0600B123E0D12AD
:1099DD00CB58900A95EFF0900A95E07040A3E0FF08
:1099ED0012C9AA12448CFC900A96E0FF123E2F1267
:1099FD0042663CF583E493FE900A98F0FD12C8731D
:109A0D00900A98EFF0900572E024FDFEEFD39E5082
:109A1D000C9002B0E06006900A95740BF0900A95D8
:109A2D00E07026900A98E0FF9002B0E0FED39F40D0
:109A3D0008900A957407F08010EE6F700C740D127B
:109A4D003DCE7D0512035ED246304603029AE69066
:109A5D000A95E0FE6008123F19EEF002C5BCE490D5
:109A6D000A97F0900A9904F09002B0E0900A9AF0EB
:109A7D00900A97E0FF900A9AE02FFFE433FE900AD8
:109A8D0098E0FDC3EF9D7480F86E985037900A965C
:109A9D00123E0E8F828E83121303FF900A97E024DD
:109AAD00AEF582E43402F583EFF0900A97E004F00E
:109ABD00900A99E004F0900572E014FF900A99E085
:109ACD00D39F40AC9002AD740DF0900A99E0FF1257
:099ADD003DD4EF2404FD12035EE8
:019AE600225D
:010342002298
:06CBAD0012431202C5BC98
:010349002291
:1069AE0090092E1240C4E0FE6F7007124168500C21
:1069BE008005EEC39F5005E490092EF09002AEE0E4
:1069CE007009A3E0700590092E04F090092EE07076
:1069DE0076740AF0E4900945F0123D54123FF1EE40
:1069EE00C39D4017123EB0123D84123F78C39E40A5
:1069FE000A900945E0900930F0800E900945123F4B
:106A0E0057E07003A3E06F70D0900945E0FF90054A
:106A1E009BE07003A3E06F602E123D541241D750DD
:106A2E0026123EB0123D84124172501B900945E071
:106A3E00900931F0E490092EF0900945123F57E08D
:106A4E007003A3E06F70D290092EE070229002A91D
:106A5E00E0FFB407089009437402F08012EFB415FA
:106A6E00089009437410F0800690092E7404F0907B
:106A7E00092EE06003026B437410F0E4900945F0B8
:106A8E00900943E0900946F0900943E0FF900945D4
:106A9E00E0FE6F6027A3E014F074B22EF582E434AA
:106AAE0002F583E0FE900946E02432F582E43409D3
:106ABE00F583EEF0900945E004F080CCEFB40216B9
:106ACE00900932E06428706DA3E0D394015066E41F
:106ADE0090092EF0805F900934E064287057A3E08F
:106AEE00D394015050900932E0704AA3E070469062
:106AFE0009457404F0900945E0FFC39410501DE061
:106B0E00FE9021AD93FD74322EF582E43409F583A7
:106B1E00E06D7008900945E004F080D9EFB41015CF
:106B2E00E490092EF0900934E0900932F090093586
:106B3E00E0900933F090092EE07037740AF012439A
:106B4E00BC502F12C9AAEF6402701F900930123E7A
:106B5E002E123F9293FD900932E06D700D1241E3BB
:106B6E00E06F7006126D2CF08008900930E004F092
:106B7E0080CC90092EE0FE6008123F19EEF002C59F
:106B8E00BC9009447402F09009467406F01243BC9E
:106B9E004003026CFB12C9AAEF64026003026CF29E
:106BAE00900930123E2E123F921244936003026CF3
:106BBE00F21241E3E0FEEF6E6003026CF2126D2CF6
:106BCE00F06003026CFB900930E0FF12C9AA12427A
:106BDE00CDFE900930E0F9123E2FE493FC74019340
:106BEE00FD1243FEFF90092FF0900572E02404C3BE
:106BFE009FFF900946E0FEC39F4003026CFB900985
:106C0E002FE0900942F0900930E0FF8D828C837462
:106C1E00019312449DF583ED123EA9123D84123F5D
:106C2E008312410FE02402F012434CFEE96F700113
:106C3E00EE6040900930E004900945F012434CFE9E
:106C4E00900945E0FDC39FE49E503075F002ED12B1
:106C5E003E32123F9212449370111241E3E0FEEF66
:106C6E006E7008900945E014F08010900945E0041C
:106C7E00F080C9900930E0900945F0123D5474013E
:106C8E0093FE123F86F583EE123EA9123D84123F0B
:106C9E008312410FE02402F0900942E024FCF0E45C
:106CAE0090092FF0900942E06026900930123E0EB6
:106CBE0090092FE0F582123FFC123F8512410FE042
:106CCE0004F090092FE004F0900942E014F080D413
:106CDE00900945E0FF90092FF0A3E0900945F09050
:106CEE000930EFF0900930E004F0026B9B9002AD9A
:106CFE007411F0900945E0FF12C9AA900945123EA1
:106D0E0027E493FC7401931243FE9002AEF09009B7
:0D6D1E0044E0FF123DD4EF2404FD12035E9B
:0E6D2B0022900930E0FF12BF6890092EEF227F
:01034A002290
:104C6F001244A7900A9B7401F0E4A3F0900A9C12DF
:104C7F003D57123FF1EE6D7012123EB0123D84128D
:104C8F003F786E7006900A9BF0800E900A9C123F40
:104C9F0057E07003A3E06F70D3900A9BE0700BA3F3
:104CAF00E0FF12BFB7900A9BEFF0900A9BE0701BDA
:104CBF00A3E0FF12C9AA1242CDFE900A9C123E2E0B
:104CCF0012401E4006900A9B740DF0900A9BE070F4
:104CDF0051A3123D57740393645570461241EF125E
:104CEF003D84E493FF64206005EF64027034900A02
:104CFF009CE0FF75F002905B70123D5F740393B4FC
:104D0F00022075F003EF905BFB123E151212EA7052
:104D1F0008900A9B7481F08009300F06900A9B74EB
:104D2F0080F0900A9BE0702DA3E0FF12CA3A900A20
:104D3F009BEFF06020123E0DEBC0E0EAC0E0E9C04F
:104D4F00E012417FD0E0F9D0E0FAD0E0FB12C99534
:104D5F00900A9BEFF0900A9BE0FE6008123F19EE5D
:104D6F00F002C5BCE4900A9DF01241C6FF900A9D67
:104D7F00E0C39F50181242D4F583E0FE900A9C12B4
:104D8F003E0E12435A900A9DE004F080DC900A9C7C
:104D9F00124363123D5F74019330E225900A9DE048
:104DAF00FEEEC0E012C9AA900A9C1240E9123E2FF3
:104DBF001241F7ED123E128F82758300D0E012136D
:104DCF00421241C4900573F0900A9C123E0E124499
:104DDF00AE7413123DCE7D0512035E12411D5003BA
:104DEF00024FDBE4900A9DF0900A9D12400E403373
:104DFF00900A9CE0FE123D59123F60E4936D701AC9
:104E0F001242DE123D84740193FF900A9DE012401E
:104E1F0007123D5F7401936F6009900A9DE004F0E3
:104E2F00024DF7900A9DE0FF90059DE07003A3E00F
:104E3F006F7003024FDB123E41124FDC1212EA6019
:104E4F0003024FDB123E41124FE81212EA700302C7
:104E5F004F9E123E41124FDC123E417F0812451DFC
:104E6F00900A9E121647123E217058907E8293F43C
:104E7F007003024F487F0212A9B8E4900A9CF01207
:104E8F004242500D123E67F58374041242E9F080DE
:104E9F00EE1244A7C2AF123DFEF07F007E7E1221BC
:104EAF0011E4900A9CF0124242500D123E67F583B6
:104EBF0074051242E9F080EE123DFEF07F807E7E97
:104ECF00024F3F900A9E123E1E124057E493F46029
:104EDF0068EF14FF30E0626060C313FF12A9B8E4FB
:104EEF00900A9CF01242425011900A9E123E1E24CC
:104EFF00FE123E661242E6F080EA1244A7C2AF905D
:104F0F000A9E123DE9F0122111E4900A9CF0124220
:104F1F00425010900A9E123E1E14123E661242E636
:104F2F00F080EB900A9E123E1E1244B4123DF8F030
:104F3F00122111E50D24FF92AF12B17B900A9E1240
:104F4F0043C9704B900A9DF0900A9D12436C12401A
:104F5F0017403CE4900A9CF0124002123D5F12444D
:104F6F000A5011124125123E15123EB8900A9CE0CC
:104F7F0004F080E4123D6D123E38124FF4123E41A0
:104F8F00124FE812B17B900A9DE004F0024F579048
:104F9F000A9DE0FF90059DE07003A3E06F602DE494
:104FAF00900A9CF0124002123D5F12440A501112F7
:104FBF004125123E15123EB8900A9CE004F080E4A1
:0C4FCF00123D6D123E38124FF412B17BFF
:104FDB00227F0512451D900A9E121647227F07124B
:104FEB00451D900A9E121647227F0912451D900AF5
:054FFB009E1216472282
:010351002289
:109EDA00900B2E7401F0E4A3F0900B2F123D571251
:109EEA003FF1EE6D7036123EB0123D84123F786E2D
:109EFA00702A900848E0700CA3E0700812446812B7
:109F0A00C4D2801112446812C3C6EF6008900B2EA7
:109F1A007480F08015E4900B2EF0800E900B2F12B7
:109F2A003F57E07003A3E06F70AF900B2EE0700B09
:109F3A00A3E0FF12BFB7900B2EEFF0900B2EE0704C
:109F4A002DA3E0FF12CA3A900B2EEFF06020123ECA
:109F5A000DEBC0E0EAC0E0E9C0E012417FD0E0F9D1
:109F6A00D0E0FAD0E0FB12C995900B2EEFF0900BDF
:109F7A002EE070559002B0E0FF9002A9E02F24FB7A
:109F8A00900B30F0900B2FE0FF12C9AA1242CDFEBF
:109F9A00900B2F123E2EE493FC7401932FF582EC62
:109FAA003EF583E493FF900B30E0FED39F40089088
:109FBA000B2E7409F0801290084AE0FFEED39F40FE
:109FCA0008900B30E090084AF0900B2EE0FE6008F3
:109FDA00123F19EEF002C5BC9002B0E0244BF582A4
:109FEA00E43408AF82FE7C027DB29002A9E024FB31
:109FFA00FB12C4D29002AD7417123DE11243F6125D
:02A00A00035EF3
:01A00C002231
:010352002288
:106D3900A2AFE433F50EE4900A72F09002AEE0647B
:106D4900016003026E24900A73F0900848E070070E
:106D5900A3E07003026E24900A73123D57E493FE78
:106D6900900849E0FDEE6D6003026E13123EB01209
:106D79003D84740193FF900848E0FEEF6E600302C2
:106D89006E13900A73E0FF12C9AA900A731240E9C0
:106D9900123E2FE493FA7401932FF582EA3EF583AC
:106DA900E493FF900A74F090084AE0D39F40099059
:106DB9000A72740DF0026E2475F003ED123E12CEC4
:106DC900EACECFE9CF7C087D4B90084AE0FB12C49C
:106DD900D2900A73124363123D5F74019330E21536
:106DE90090084AE0FE75F003EF123E12900A74E033
:106DF900F58212435CD23790084AE0900573F0900F
:106E09000A73123E0E1244AE8011900A73123F5754
:106E1900E07003A3E06F6003026D60900A72E0FE08
:106E2900600B123F19EEF012C5BC0270759002ADED
:106E39007419123DD17D0512035E20370302707566
:106E490012411D5003027075E4900A75F0900A759D
:106E590012400E4033900A73E0FE123D59123F6012
:106E6900E4936D701A1242DE123D84740193FF900F
:106E79000A75E0124007123D5F7401936F60099033
:106E89000A75E004F0026E56900A75E0FF90059DC0
:106E9900E07003A3E06F7003027075123E41127037
:106EA900781212EA6003027075123E411270841260
:106EB90012EA700302702B123E41127078123E41A1
:106EC9007F0812451D900A76121647123E2170431B
:106ED900907E8293F47003026F841270A9F01240BD
:106EE900615009123E67124144F080F21243751253
:106EF9003DFE12709CF0124061500D123E67F58301
:106F09007405124148F080EE123DFEF07F807E7ECE
:106F1900026F81123E1B124057E493F4605DEF1437
:106F2900FF30E0576055C313FF12A9B8E4900A7304
:106F3900F01240615011123E1B24FE123E66F58389
:106F4900EE124148F080EA124375900A76123DE943
:106F5900F0122111E4900A73F01240615010123EB0
:106F69001B14123E66F583EE124148F080EB123E87
:106F79001B1244B4123DF8F01270B312B17B123EE9
:106F89001B7040907E8293F460391270A9F0124010
:106F9900615009123E67124144F080F212437512A2
:106FA9003DFE12709CF0124061500D123E67F58350
:106FB9007405124148F080EE123DFEF07F807E7E1E
:106FC9001270B3900A761243C97057900A75F090FF
:106FD9000A7512436C1240174048E4900A73F09006
:106FE9000A75124005123D5F1244165017124125C9
:106FF900123E15123FFA900A76123EC3900A73E0C8
:1070090004F080DB900A75123D70123E38127090C0
:10701900123E4112708412B17B900A75E004F002AD
:107029006FD8900A75E0FF90059DE07003A3E06FAB
:10703900603AE4900A73F0900A75124005123D5FB8
:10704900124416501B124125123E15123FFA1244E2
:1070590022FC900A76123ECB900A73E004F080D7A6
:0F706900900A75123D70123E3812709002C9D411
:107078007F0512451D900A76121647227F07124592
:107088001D900A76121647227F0912451D900A762E
:1070980012164722F07F007E7E122111E4900A73B7
:1070A800227F0212A9B8E4900A7322122111E50E78
:0570B80024FF92AF224D
:010359002281
:10B5F800D247900B487401F0900B48E0FF123FC00F
:10B608001212EAFE9002AFE06E7013EF123FC01202
:10B618003E21FF9002AEE06F7004C247800A900B93
:10B6280048E004F0E0B409D0204748E4900B49F022
:10B638001241C6FF900B49E0C39F50251242D4F532
:10B6480083E0FE123FBCE92403F9E43AFAEF7C00F8
:10B6580029F9EC3AFAEE121330900B49E004F08025
:10B66800CFD21C1241C6900583F0123FBC900896B9
:03B6780012164760
:01B67B0022AC
:01035A002280
:03031600C20F22F1
:10628000A2AFE433F50F900AA17401F0E4A3F090FB
:106290000AA2123D57123FF1EE6D7012123EB0127B
:1062A0003D84123F786E7006900AA1F0800E900A2D
:1062B000A2123F57E07003A3E06F70D3900AA1E0F1
:1062C000700BA3E0FF12BFB7900AA1EFF0900AA1F4
:1062D000E0701BA3E0FF12C9AA1242CDFE900AA2F1
:1062E000123E2E12401E4006900AA1740DF0900A34
:1062F000A1E0702DA3E0FF12CA3A900AA1EFF0606E
:1063000020123E0DEBC0E0EAC0E0E9C0E012417FA0
:10631000D0E0F9D0E0FAD0E0FB12C995900AA1EFE5
:10632000F0900AA1E060030265DAE4900AA3F0129B
:1063300041C6FF900AA3E0C39F50181242D4F583D0
:10634000E0FE900AA2123E0E12435A900AA3E00405
:10635000F080DC900AA2124363123D5F7401933017
:10636000E225900AA3E0FEEEC0E012C9AA1242CDD7
:106370001243D2123E2F1241F7ED123E128F827558
:106380008300D0E01213421241C4900573F0900ACA
:10639000A2123E0E1244AE12411D50030265DAE411
:1063A000900AA3F0900AA312400E4033900AA2E094
:1063B000FE123D59123F60E4936D701A1242DE12D4
:1063C0003D84740193FF900AA3E0124007123D5FE1
:1063D0007401936F6009900AA3E004F00263A49033
:1063E0000AA3E0FF90059DE07003A3E06F70030235
:1063F00065DA123E411265DB1212EA60030265DAC9
:10640000123E411265E71212EA700302658E123ED7
:10641000411265DB123E417F0812451D900AA4120D
:106420001647123E217043907E8293F470030264FB
:10643000DE12660CF012406A5009123E6712414F9C
:10644000F080F212437E123DFE1265FFF012406AA8
:10645000500D123E67F5837405124153F080EE1221
:106460003DFEF07F807E7E0264DB900AA4123E1E19
:10647000124057E493F46066EF14FF30E060605E12
:10648000C313FF12A9B8E4900AA2F012406A501494
:10649000900AA4123E1E24FE123E66F583EE1241BF
:1064A00053F080E712437E900AA4123DE9F01221D6
:1064B00011E4900AA2F012406A5013900AA4123E0E
:1064C0001E14123E66F583EE124153F080E8900AE6
:1064D000A4123E1E1244B4123DF8F012661612B118
:1064E0007B900AA4123E1E7040907E8293F4603925
:1064F00012660CF012406A5009123E6712414FF0CA
:1065000080F212437E123DFE1265FFF012406A5087
:106510000D123E67F5837405124153F080EE123D73
:10652000FEF07F807E7E126616900AA41243C97028
:106530005D900AA3F0900AA312436C124017404EDC
:10654000E4900AA2F0900AA3124005123D5F1243A4
:10655000CFC39E501B124125123E15123FFA124422
:1065600022FC900AA4123ECB900AA2E004F080D54F
:10657000900AA3123D70123E381265F3123E41128A
:1065800065E712B17B900AA3E004F0026535900A3A
:10659000A3E0FF90059DE07003A3E06F603CE490F2
:1065A0000AA2F0900AA3124005123D5F1243CFC326
:1065B0009E501B124125123E15123FFA124422FC36
:1065C000900AA4123ECB900AA2E004F080D5900A73
:0A65D000A3123D70123E381265F36D
:1065DA00227F0512451D900AA4121647227F071230
:1065EA00451D900AA4121647227F0912451D900ADA
:1065FA00A412164722F07F007E7E122111E4900A2F
:10660A00A2227F0212A9B8E4900AA222122111E55D
:06661A000F24FF92AF22E5
:01CBFE002214
:01CBFF002213
:107F0000302306200A03027FD49002AEE09005756C
:107F1000F09002AFE0900576F09002B0E09001168C
:107F2000F09002B1E0900113F09002B2E09005777A
:107F3000F09002B3E0900578F0900892E0FF900195
:107F400016E04F20E203E48022900575E0FF9008E0
:107F500090E075F005A42423F582E43422F583E54E
:107F6000822FF582E43583F583E493900115F09038
:107F70000113E0FFD39406403FEF9411503A12CB27
:107F800039900115E0FF60089005677428F0D2343D
:107F9000900892E030E213900890E06403600BEFE9
:107FA0007008301A0512032E801E7B017A08798B27
:107FB00090088BE02404800C123FE412442AF0A3C2
:107FC00004123DE1FD12035E9005667401F0E49039
:107FD0000579F022203A0302032E123FE412442ACC
:0A7FE000F0123DE07D0612035E2260
:01CC00002211
:10B57000E4FF900579E07019123E96123FD0B410A6
:10B58000F79005797401F0900567E06005E4FF80AD
:10B59000010FEF60627BFF7A2179CD9008E61216E9
:10B5A000477B017A04795312A00DE4FFEFFD740F7D
:10B5B000123E9A3CF583E0FE74D52FF582E43409FF
:10B5C000123FDDB410E67411123FE6F0E4A3F0A3DD
:10B5D0007403F0E4FF74D52FF582E43409F583E0B9
:10B5E0001244BB123FDDB410EC123DE27D15120394
:07B5F0005E9005667402F095
:01B5F7002231
:10A56400E49009B3F09009B3E0FF123E973CF58301
:10A57400E0FE74B42FF582E434091242F0F0E0B442
:10A5840010E37B017A0979B49008E61216477A043D
:10A59400795312A00D900579E06401600302A65B73
:10A5A4009009B3F09009B3E0FF6410601DE0FE244D
:10A5B40043F582E43404F583E012449DF583E06DB1
:10A5C40070089009B3E004F080DAEF6410707090C2
:10A5D40002A97411123FE9123F11F0E49009B3F09B
:10A5E4009009B3E0FFFDC3740F9DFDE49400FC7477
:10A5F400CD2DF58274213CF583E4931244BB1242C1
:10A60400F0F0E0B410DA123DE27D1512035EE4903E
:10A6140009B3F09009B3E0FF24B4F582E43409F5FA
:10A6240083E0FE74432FF582E434041242F0F0E038
:10A63400B410E09005797402F0E4900114F022D291
:10A644001E123FE412442AF0A314123DE17D0612C7
:07A65400035EE4900579F0BC
:01A65B0022DC
:10C9FE00D21E900582E0B41F0A9002AEE0B4080386
:04CA0E0012C71F220A
:0BCAD300E4FF123E96123FD0B410F7B3
:01CADE002235
:10C26700E4FFEFFDC37406123E9B3CF583E0FE74CA
:10C27700F52FF582E43402123FDDB402E5E4FFEF67
:10C28700FDC3740D123E9B3CF583E0FE74ED2FF564
:0AC2970082E43402123FDDB408E532
:01C2A100227A
:10C8A900E4FF123E963CF583E0FE74632FF582E4C3
:08C8B9003404123FDDB410EA63
:01C8C1002254
:108E4D009002AEE0600122E490098DF090098DE072
:108E5D00FF24AFF582E43402F583E0FE74902FF524
:108E6D0082E434091244C5F0E0B406E0D230900932
:108E7D0095E0FFE4FCFDFEA31215F51244329009B6
:108E8D009412407312443290099312407390099BCF
:108E9D007402F0A37477F090099BE0C313F0A3E084
:108EAD0013F0E4A3F0A3F0A37402F0A37477F0E43D
:108EBD0090099AF01244CFC333CE33CED8F9124273
:108ECD004BC3121582502090099BE0FEA3E0FF904A
:108EDD00099FEEF0FCA3EFF090099D12408E7002F9
:108EED00EE6C7039028F481244CFC333CE33CED8D7
:108EFD00F912424BD3121582401B90099BE0FEA341
:108F0D00E0FFA3EEF0FCA3EFF0A312408E7002EE93
:108F1D006C700A802690099A7401F0801E90099D4C
:108F2D001240509009A0E09FFF90099FE09EFED354
:108F3D00EF9400EE94004003028EC190099AE07008
:108F4D0003029018123E417F0512451D1212EA6070
:108F5D0003029018123E417F0612451D1212EA605F
:108F6D0003029018123E21123F39FCEF6C700890ED
:108F7D00098E7404F0802C12418B3EF583E4936CC2
:108F8D00700890098E7444F08019123E211240F33E
:108F9D00123F48FEEF6E90098E70057484F08003C9
:108FAD0074C4F0E490098DF090098DE0FF2463F511
:108FBD0082E43404123E631244C5F0E0B410E912A9
:108FCD003E211313543F90098FF07F0112203DA2D3
:108FDD00AFE433F510C2AF90098FE0FE90098EE03B
:108FED007C002400FFEC3EFEEF242AFFEE347A12C3
:108FFD004473900A93E4F0A37410F0122111E5105C
:0B900D0024FF92AFE4FF12203DD22DA3
:019018002235
:10C8C200E4FF123E963CF583E0FE74732FF582E49A
:08C8D2003404123FDDB410EA4A
:01C8DA00223B
:10C71F00900566E0701A123FE4F0E4A3F0A3740BE7
:10C72F00F0900892E09002AE123DE17D0612035E9A
:01C73F0022D7
:10C9AA001241EF123D847401935403B401047F02CF
:04C9BA0080027F1068
:01C9BE002256
:10BF68001241EF123D84E493FFE4FEEF5455700450
:10BF78007E028037EF30E60890057AE070027E088E
:10BF8800EE700BEF30E40712411D50027E05EE7093
:10BF98001AEF5414601590057BE070047E0F800B37
:0EBFA800900113E0C3941050027E0CCFEECF38
:01BFB6002268
:10BFB7001241EF123D84E493FFE4FEEF54AA7004AC
:10BFC7007E038037EF30E70890057AE070027E083D
:10BFD700EE700BEF30E50712411D50027E05EE7043
:10BFE7001AEF5428601590057BE070047E0F800BD4
:0EBFF700900113E0C3941050027E0CCFEECFE9
:01C005002218
:06451D00900A621216472D
:10452300A2AFE433F511EF1216CB481F01454C023D
:10453300456B03458D044788054976064A3B074B7F
:104543002A084BC10900004C61E4900A65F012414E
:10455300979402503212AA7B900A65E0FF12BB8245
:10456300900A65E004F080E6E4900A65F012419752
:104573009403501312A9B8900A65E0FF12BB279069
:104583000A65E004F080E6024781123E7774011267
:104593001330E4900A65F0900A65E0C39402400387
:1045A300024776E0FD75F004A4FFAEF0900A68EED2
:1045B300F0FAA3EFF0FBE4900A66F0A3F0ED7F00BE
:1045C300FE1243873EF583E493FF6B7001EA603B81
:1045D300EFF47003024776900A66E4F0A304F090C8
:1045E3000A66123FB59440EC94005010123E7D3C95
:1045F300F583E493B4FF05123EFC80E3900A66E082
:104603007004A3E06440600302477612425D1244E3
:10461300D9124278E02401FB124161FAEB6D70017B
:10462300EA603CEFF47003024776900A66E4F0A375
:104633007441F0900A66123FB59480EC94005010D8
:10464300123E7D3CF583E493B4FF05123EFC80E308
:10465300900A66E07004A3E0648060030247761268
:10466300425D1244E0124278E02402FB124161FAF7
:10467300EB6D7001EA603CEFF47003024776900A39
:1046830066E4F0A37481F0900A66123FB594C0EC1F
:1046930094005010123E7D3CF583E493B4FF051261
:1046A3003EFC80E3900A66E07004A3E064C060030C
:1046B30002477612425D1244E7124278E02403FB7C
:1046C300124161FAEB6D7001EA6037EFF470030297
:1046D3004776900A66E4F0A374C1F0900A66123F2D
:1046E300B5EC94015010123E7D3CF583E493B4FF86
:1046F30005123EFC80E5900A66E064017002A3E0C7
:104703007071900A66E0FFA3E0A3CFF0A3EFF090EF
:104713000A68124050EE94015044EF243EFFE43EF9
:10472300900A66F0A3EFF012415A900A66123FB462
:104733009FEC9E5010123E7D3CF583E493B4FF053D
:10474300123EFC80E212415AFE900A66E06E70034C
:10475300A3E06F7009900A6812443D024712900A61
:1047630066E0B4010EA3E0B40009900A65E004F02A
:1047730002459A900A65E064026003024C61123EAE
:1047830077E4024BD5123E7712438FF01241979490
:10479300025064123EF11244EE1242FA60091241D1
:1047A3009E1244E70247E1123EEC1240FB1242FA2A
:1047B300600812419E1244E08024123EEC124190A4
:1047C3001242FA600812419E1244D98011123EEC43
:1047D30012439E1242FA601612419E1243883EF51E
:1047E30083E493FF900A66E4F0A3EFF08009900A54
:1047F30065E004F002478F900A68E0FEA3E0FF4EF5
:104803007008123E777404024BD5900A66A3E01237
:104813003E76ED124272900002024B26123E771250
:10482300438FF0124197940240030248FB123EF17A
:104833001244EE1243D96040EF1244EE123E70125E
:1048430041A8EF1244E712404112419774019FFFC0
:1048530012AA7B12419774019FFF12BB82900A68D0
:10486300E4F0A37402F0900A65E0FF70030248FBD2
:10487300C374029FF00248FB123EEC1240FB12434A
:10488300D9601B1240FA123E701241A8EF1244E0A5
:10489300124041900A68E4F0A374C20248E8123E51
:1048A300EC1241901243D9601A12418F123E7012DA
:1048B30041A8EF1244D9124041900A68E4F0A3746E
:1048C300828022123EEC12439E1243D9602112438E
:1048D3009D123E701241A8124387124041900A680C
:1048E300E4F0A37442F012419774019FF0800990A1
:1048F3000A65E004F0024826900A68E07002A3E02B
:104903007016123E7774011241A9900A68E4F0A36D
:104913007402F0E4900A65F0123E77123F4E70077E
:104923009000020412134212425D1243883EF58343
:10493300C083C082900A68E0FCA3E0FDD082D083EC
:104943002582F582E5833CF583E493F4900A626063
:104953000812163E7403024BD512163E123F4E1236
:10496300420B900A651241CDCF2DCF3C123DFDF095
:10497300024C5E123E77E4121330900A66F0A3F005
:10498300900A66123FB5EC94014003024A24900A50
:1049930062123E1E1313543F7F00FE12439D123ECC
:1049A3008B3CF583E493FF123E77123F4EFEEF6E8E
:1049B3007066900A65F0900A65E0FDC3943A506111
:1049C300900A62123E1E1313543F7F00FEEF24042D
:1049D300F582747A3EF583C083C082EDFF900A6747
:1049E300E02FFF900A66E03400FED082D0831243AA
:1049F300B43EF583E493FF123E77E92403F9E43AE6
:104A0300FA900A65E07C0029F9EC3AFAEF121330C8
:104A1300900A65E004F0809E900A6612443D0249C4
:104A230083900A66E064017002A3E06003024C61B4
:104A3300123E777405024BD5123E77E41213309081
:104A43000A65F0A3F0A3F0900A661240509406EEB4
:104A530094005037123E77123F4EFD124444FEEF4E
:104A63007807C333CE33CED8F92402F582747C3E63
:104A7300F583E4936D700F900A66E07002A3E07013
:104A83000A900A6504F0123EFC80BC900A65E0B40B
:104A93000111A3E07004A3E064056007E4900A66D3
:104AA300F0A3F012444C7008123E777404024BD505
:104AB300124444900A66F0A3EFF0123E771242715B
:104AC300900A657405F0900A65E0FDC39480503741
:104AD300A3E0FEA3E07807C333CE33CED8F9240096
:104AE300F582747C3EF583E5822DF582E43583F50A
:104AF30083E493FFF4600A900A65E02F2402F080B8
:104B0300C5900A65E014F0900A65E0C3947C400800
:104B1300123E777406121330900A65E0FF123E7757
:104B2300900003EF024BBB123E77E4121330900A5E
:104B330066F0A3F0900A661240509406EE9400507B
:104B430021124444FEEF7807C333CE33CED8F92481
:104B530002F582747C3EF583E493B4FF05123EFCB8
:104B630080D212444C7008900A66F0A3F08012EFD2
:104B73004E600EC374069F900A67F0E49E900A6627
:104B8300F0900A66E0FEA3E0FF123E76900001ED8E
:104B9300121342123F4E12420BEF7807C333CE3348
:104BA300CED8F92402FFEE347C123DFDF0124C65A1
:104BB300123E779000037404121342024C61123EBA
:104BC30077E4121330123E771242B7C3947C400845
:104BD3007406121330024C61E4900A66F0A3F012DB
:104BE3003E779000051213032402FFE433FE900A7C
:104BF30066E0FCA3E0FDD39FEC9E501E74042DF5EC
:104C030082E43CF583121303FF74432DF58274038E
:104C13003CF583EFF0123EFC80C5900A62123E1E03
:104C2300FF1242B7FD124211EF75F080A42400FF7A
:104C3300E5F0347CFE7C00EF2DFFEC3EFEEEC0E0A1
:104C4300123E779000051213032402FEEC33900A00
:104C530093F0A3CEF0124474D0E0FE124C65123EE2
:014C630077D9
:0B4C640022122111E51124FF92AF2263
:03A9B800900B09F8
:10A9BB00124108F512E4900B0CF0301635304014B0
:10A9CB0012404D9406EE9400500280129005E0E088
:10A9DB0024E1802412404D9404EE9400500C12405C
:10A9EB00A9900B0AF0A3EFF0801C9005E0E024E7A0
:10A9FB0080069005E0E024F0FE9005DFE034FF9048
:10AA0B000B0AF0A3CEF0124283900B0BE09D900B40
:10AA1B000AE09C502712B0DB12868712CB9690056A
:10AA2B008D123EFF900B0C123FA0900B0B1244F5B6
:10AA3B00900B0AE09E5005E4900B0CF0A2AFE433B0
:10AA4B00F512C2AF7F0112203D900B091244FFFE9D
:10AA5B0012204EE4FF12203DE51224FF92AF900B23
:0FAA6B000CE0B4010A902062E030E5031243E0F2
:01AA7A0022B9
:03AA7B00900B0D30
:10AA7E00124108F513E4900B10F0301635304014E7
:10AA8E0012404D9406EE9400500280129005E0E0C4
:10AA9E0024E1802412404D9404EE9400500C124098
:10AAAE00A9900B0EF0A3EFF0801C9005E0E024E7D8
:10AABE0080069005E0E024F0FE9005DFE034FF9084
:10AACE000B0EF0A3CEF0124283900B0FE09D900B75
:10AADE000EE09C502712B0DB12868712CB969005A3
:10AAEE008D123EFF900B10123FA0900B0F1244F5EB
:10AAFE00900B0EE09E5005E4900B10F0A2AFE433E5
:10AB0E00F513C2AF7F0112203D900B0D1241CDFE09
:10AB1E0012204EE4FF12203DE51324FF92AF900B5E
:0FAB2E0010E0B4010A902062E030E5031243E02A
:01AB3D0022F5
:03BB8200900AD452
:10BB8500124108F514E075F004900AD7124102F548
:10BB950014C2AFE4900AD5F0A3F0900AD5123FB5D0
:10BBA500EC94015028A3A3E0900343F0A3F0900A7E
:10BBB500D41241CDCF2DCF3C123DFDF01221119075
:10BBC5000AD7123EFF900AD512443D80CDE51424D4
:03BBD500FF92AF2D
:01BBD800224A
:03BB2700900AD9A8
:10BB2A00124108F515E075F002900ADC124102F59F
:10BB3A0015C2AFE4900ADAF0A3F0900ADA123FB520
:10BB4A00EC9401502CA3A3E0900343F0A3F0900AD5
:10BB5A00D91244FFCF2DCF3C123DFDF01221119096
:10BB6A000ADC123EFF900ADAE475F0801213CB80E9
:07BB7A00C9E51524FF92AF9D
:01BB810022A1
:10A74600A2AFE433F516123E417F0512451D1212E3
:10A75600EA600302A81A123E417F0612451D121234
:10A76600EA600302A81A123E21123F39FCEF6C7010
:10A7760008900B547404F0802C12418B3EF583E450
:10A78600936C7008900B547444F08019123E211299
:10A7960040F3123F48FEEF6E900B5470057484F040
:10A7A600800374C4F0E4FF740D2FF582E4340112C3
:10A7B6003E63123FDDB41AEF7F1A74D62FF582E49A
:10A7C6003405123E63123FDDB420EF7F2074232F41
:10A7D600F582E43405123E63123FDDB42AEF123EE1
:10A7E600211313543FFFA2AFE433F516C2AFEF12A5
:10A7F60041CEFE900B54E07C002FFFEC3E124473DA
:10A80600900A93E4F0A3742AF0122111E51624FFAE
:04A8160092AFD22A01
:01A81A00221B
:10A2510012411D500302A356123E417F0512A3571E
:10A26100600302A356123E417F0712A35764047094
:10A271000302A356900ADF7405F0900AE012163E1D
:10A281001242B7FF900ADFE0FEC39F400302A356CC
:10A29100123E211243EDE5822EF582E43583F583EA
:10A2A100E493F460D5E4900ADEF0900AE0123E1ED9
:10A2B100907C0012405AC083C082900ADFE0FED039
:10A2C10082D083124458F583E493FD900ADEE0FCCA
:10A2D100C39D505875F080EF907C01121632ECFD51
:10A2E100EE2DFFE4331243B33EF583E493FF900A6E
:10A2F100E0123E1E907BFF1243F0C083C082900AA1
:10A30100DFE0D082D083124458F583E49375F003E3
:10A31100905D53123E15900ADEE0F582758300EFE1
:10A32100121342900ADEE004F002A2AB900AE0129E
:10A331003E1E1243EDC083C082900ADFE0FFD0824F
:10A34100D083124458F583E493FEEF2E2402900A41
:05A35100DFF002A27B19
:0EA356002212451D900AE01216471212EA224A
:06847D00900A45121647AB
:10848300E4900A4CF090054FE06403600302867B9E
:10849300300803028673301403028673900A48126D
:1084A30043C9900A4EF0123E2114FFB4FF06900A0E
:1084B3004EE014F0D248E4900A4DF0900A4DE0FEED
:1084C300123D59E493FD900A4EE0FCED6C701012DE
:1084D30042DE123D5F7401936F7004C248801390B3
:1084E3000A4DE004F0E0FD90059BE07003A3E06D0E
:1084F30070C930480302866B900A4D123D577405CC
:1085030093FE20E4030285AA75F003EF905BFE124D
:108513003E151212EA20E0030285A1900A4DE07590
:10852300F002905CC9123D5F124509F0BF0105746A
:1085330002F08006900A4F7410F0900A4BE0FFD3CC
:108543009400500302864B12412DFDEFD39D40034F
:1085530002864B741B1243A5123F11F0E4A3F012E1
:108563003E21124302F0900A4BE0FF900A4DE0FDDA
:10857300C39F501E900A4512163E123FFAFC741216
:108583002DF582E43405F583ECF0900A4DE004F018
:1085930080D4EF2407900580F0D208028681900AE8
:1085A3004C7416F0028681EE20E503028663900A7E
:1085B3004DE0FF75F003905BFE123E151212EA20A8
:1085C300E10302865B300F0302865375F002EF90DE
:1085D3005CC9123D84124509F0BF01057402F080A5
:1085E30006900A4F7410F0900A4BE0FFD3940040BA
:1085F3005712412DFEEFD39E504E741D1243A51208
:108603003F11F0E4A3F0123E21124302F0900A4B13
:10861300E0FF900A4DE0FEC39F5020900A451216DA
:108623003E8E82123FFCFD74122EF582E43405F572
:1086330083EDF0900A4DE004F080D2EF240790051B
:1086430080F0D20FD2088036900A4C741BF0802E33
:10865300900A4C740CF08026900A4C7417F0801E1C
:10866300900A4C740BF08016900A4C7408F0800E3C
:10867300900A4C740AF08006900A4C7415F0900A24
:038683004CE0FFC9
:0186860022D1
:09CB6100C23790083B12163E2277
:06CBB300900573E0FF2273
:10C56500E4FF90054FE0B40320203C16900582E0DF
:10C57500B41C0FD23CE490057EF0900582741DF04A
:0BC585008009900582E0FF80027F1516
:01C590002288
:10C74000900582E0FEB41E14900586E0D394145048
:0FC750000BE004F0C23C900582741CF0CFEECFDA
:01C75F0022B7
:10BE26009002AD7406F0A37401F0E4A3F0A374FFCE
:10BE3600F0A3F0E4A3F0A37428F07417123F0EF0F9
:10BE4600E4A3F0FF902242E493FEEFC39E5013EF6B
:10BE5600A393FE74B42FF582E43402F583EEF00F5B
:10BE660080E2123DE27D1B12035E90057E7401F0B6
:01BE760022A9
:10C7A000E4FF900582E0FEB41F11303C047F23803B
:0EC7B0000DD23C90057E740BF08003CFEECFCF
:01C7BE002258
:10C7BF00E4FF900582E0FEB41F11303C047F23801C
:0EC7CF000DD23C90057E740CF08003CFEECFAF
:01C7DD002239
:10BC8700900567E0FFC3940C4006EFD3941140057D
:10BC9700EF6406703E90057EE0640B7014123F0659
:10BCA70012421AF09007757401F09002B0F0E48028
:10BCB7001890057EE0640C701A123F0612421AF0C3
:10BCC700E4900775F09002B0F0123DE07D09120391
:04BCD7005EC23C22EB
:10C66500124513701F900717E07008A3E070047F50
:10C67500208014303C047F23800DD23C90057E74CD
:07C685000DF08003CFEECFA2
:01C68C00228B
:10C68D00124513701F900717E07008A3E070047F28
:10C69D00208014303C047F23800DD23C90057E74A5
:07C6AD000EF08003CFEECF79
:01C6B4002263
:10BCDB00900567E0FFC3940C4006EFD39411400529
:10BCEB00EF6406703E90057EE0640D7014123F0603
:10BCFB0012422EF090071C7401F09002B0F0E48019
:10BD0B001890057EE0640E701A123F0612422EF058
:10BD1B00E490071CF09002B0F0123DE07D09120395
:04BD2B005EC23C2296
:09CB6A00C21C90089612163E222E
:06CBB900900583E0FF225D
:03B2AC00CAEFCA1C
:10B2AF00E4FE90054FE06403600302B33A90058219
:10B2BF00E0FD641F707090078FE0FC7008A3E070D2
:10B2CF00047E218068201B5A902297E493FBEAD3D7
:10B2DF009B504B9004EF7412F0EA24039004EB128E
:10B2EF003F11F0E4A3F0900790E09004F0F0A3EC8E
:10B2FF00F0E4FFEFC39A501B74922FF582E43407EA
:10B30F00F583E0FC74F22FF582E43404F583ECF05E
:10B31F000F80E0EA240790057FF0D21B800F7E1B81
:10B32F00800B7E228007CEEDCE80027E15CFEECF32
:01B33F0022EB
:10C87300905CC7123F6674019330E20B75F003EFCF
:0BC88300123E12123FFAFDCFEDCF2253
:1079DD00900B111215F5900567E0B42811900B115D
